:100000000C949B000C94B8000C94B8000C94B800AD
:100010000C94B8000C94B8000C94B8000C946124B3
:100020000C94B8000C94B8000C94B8000C94DE0941
:100030000C94B8000C94B8000C94B8000C94B80060
:100040000C946C0C0C94B8000C94630F0C94B800D6
:100050000C940C100C942B070C94B8000C94B80062
:100060000C94B8000C94B800084AD73B3BCE016E04
:1000700084BCBFFDC12F3D6C74319ABD56833DDAFF
:100080003D00C77F11BED9E4BB4C3E916BAAAABE0E
:10009000000000803F05A84CCDB2D44EB93836A937
:1000A000020C50B9918688083CA6AAAA2ABE000074
:1000B00000803F07634236B79BD8A71A39685618A5
:1000C000AEBAAB558C1D3CB7CC5763BD6DEDFD751D
:1000D0003EF6177231BF000000803F08000000BEEE
:1000E000922449123EABAAAA2ABECDCCCC4C3E00EB
:1000F000000080BEABAAAAAA3E00000000BF00001C
:1001000000803F0000000000084178D3BB4387D146
:10011000133D190E3CC3BD4282AD2B3E68EC827686
:10012000BED98FE1A93E4C80EFFFBE01C4FF7F3FE7
:1001300000000000000011241FBECFEFD8E0DEBF9A
:10014000CDBF11E0A0E0B1E0ECE9FCE502C0059014
:100150000D92A435B107D9F713E0A4E5B1E001C0D1
:100160001D92A53EB107E1F70E9453060C944C2E58
:100170000C94000080E460E00E944C0E833011F08B
:1001800080E0089588EC90E00E94B00B80E46DE080
:1001900040E10E94010E88EC90E00E94B00B80E4E8
:1001A00060E20E944C0E482F4F70406180E460E294
:1001B0000E94010E88EC90E00E94B00B80E460E3A6
:1001C0000E944C0E482F4C7F80E460E30E94010E99
:1001D00088EC90E00E94B00B80E465E30E944C0E36
:1001E000482F417F4A6080E465E30E94010E88EC5D
:1001F00090E00E94B00B0E946107882389F484E696
:10020000809354011092560110925501109258019A
:100210001092570110925A011092590181E00895ED
:100220001092540185E591E00E94640781E00895F1
:1002300080915401882311F080E0089585E591E0D4
:100240000E949B0781E008950F931F93DF93CF9344
:1002500000D000D000D0CDB7DEB78C01AE014F5F2B
:100260005F4F86E0FA0111928A95E9F780E462E037
:1002700026E00E947B0D863061F080E026960FB666
:10028000F894DEBF0FBECDBFCF91DF911F910F91CC
:1002900008953A8120E0898190E0822B932B97FD8D
:1002A0007DC0AC0155954795559547955595479512
:1002B00055954795F801518340833C8120E08B811F
:1002C00090E0822B932B97FD67C0BC0175956795D5
:1002D000759567957595679575956795F80173831D
:1002E00062833E8120E08D8190E0822B932B97FDED
:1002F00051C09C01359527953595279535952795BE
:1003000035952795F80135832483E0915401EE2338
:1003100031F1E13009F444C08091550190915601CA
:10032000840F951F9093560180935501809157013A
:1003300090915801860F971F909358018093570111
:100340008091590190915A01820F931F90935A0105
:1003500080935901E150E093540181E08FCF809167
:10036000550190915601481B590BF8015183408368
:100370008091570190915801681B790B73836283B8
:100380008091590190915A01281B390B35832483A0
:1003900081E074CF0F96ADCF0F9697CF0F9681CF98
:1003A000809155019091560123E630E0B9010E94F9
:1003B000CE2A709356016093550180915701909118
:1003C0005801B9010E94CE2A7093580160935701D9
:1003D0008091590190915A01B9010E94CE2A605032
:1003E000714070935A0160935901B4CFDF93CF935A
:1003F00000D0CDB7DEB719821A8287E766EFAE016B
:100400004F5F5F4F22E00E947B0D898180937201D4
:100410008A818093710181E06CE870E040E02DE119
:1004200032E00E94D32387E764EF44EB0E94010E81
:100430000F900F90CF91DF910895DF93CF9300D06D
:100440000F92CDB7DEB719821A821B8287E766EF5B
:10045000AE014F5F5F4F23E00E947B0D8981809347
:1004600075018A81809374018B818093730181E08F
:100470000E94F7230F900F900F90CF91DF91089576
:1004800010927C0110927D0110927E0110927F01EA
:1004900010927B0187E76AEA4BE551E026E10E9472
:1004A0007B0D2BE531E0D901F9014C91CF01518150
:1004B0005D9341833197A817B907B8F32E5F3F4F7B
:1004C00081E02137380779F781E008958091800134
:1004D000833059F020918D0130918E0140918F0130
:1004E00050919001B901CA01089520918101309184
:1004F0008201409183015091840180918D019091FE
:100500008E01A0918F01B0919001280F391F4A1FD1
:100510005B1F109281011092820110928301109250
:1005200084018091850190918601A0918701B0910D
:100530008801280F391F4A1F5B1F109285011092F6
:100540008601109287011092880180918901909113
:100550008A01A0918B01B0918C01280F391F4A1F8D
:100560005B1F1092890110928A0110928B011092E8
:100570008C0156954795379527955695479537950C
:10058000279520938D0130938E0140938F015093D6
:10059000900110928001B901CA0108956F927F9273
:1005A0008F929F92AF92BF92CF92DF92EF92FF9283
:1005B0000F931F93CF93DF9380917B018130F9F0EC
:1005C00081E080937B0187E764EF4EE20E94010E99
:1005D00081E06DE270E040E026EF31E00E94BD2353
:1005E000DF91CF911F910F91FF90EF90DF90CF900F
:1005F000BF90AF909F908F907F906F900895609183
:1006000071017091720180E090E02091650130915C
:10061000660140E050E0621B730B840B950B209148
:1006200063013091640140E050E00E94AF2A7B01F9
:100630008C01BFE015950795F794E794BA95D1F72B
:1006400060916D0170916E01882777FD8095982FDC
:10065000ABE0660F771F881F991FAA95D1F72091ED
:100660006F0130917001442737FD4095542F2E0DB6
:100670003F1D401F511F0E94032B2E0D3F1D401F89
:10068000511FDA01C9010896A11DB11DF4E0B5950D
:10069000A79597958795FA95D1F79093DC0280936B
:1006A000DB02E0E6EE2EE0EFFE2EEFEF0E2FEFEF97
:1006B0001E2FE20EF31E041F151FC801B701A8016B
:1006C00097010E94AF2A3B014C017CE095948794EE
:1006D000779467947A95D1F720915D0130915E010E
:1006E000442737FD4095542FC801B7010E94AF2A17
:1006F0005B016C016BE0D594C794B794A7946A959D
:10070000D1F780915B0190915C01AA2797FDA0959C
:10071000BA2F880F991FAA1FBB1F880F991FAA1FE6
:10072000BB1FA80EB91ECA1EDB1E209169013091A5
:100730006A01442737FD4095542FC401B3010E943C
:10074000AF2A4BE095958795779567954A95D1F7B0
:10075000A60EB71EC81ED91E20915F013091600100
:10076000442737FD4095542FC801B7010E94AF2A96
:100770007B018C013DE015950795F794E7943A9538
:10078000D1F782E090E0A0E0B0E0E80EF91E0A1F89
:100790001B1F2091670130916801442737FD409568
:1007A000542FC401B3010E94AF2ABC01992777FDE1
:1007B0009095892FE60EF71E081F191F15950795AE
:1007C000F794E79415950795F794E79480E090E8FF
:1007D000A0E0B0E0E80EF91E0A1F1B1F2091610186
:1007E0003091620140E050E0C801B7010E94AF2A99
:1007F0003B014C01BFE09694879477946794BA9537
:10080000D1F7E0907301F09074010091750110919F
:100810007601A6E016950795F794E794AA95D1F787
:10082000AA0CBB1CCC1CDD1CAA0CBB1CCC1CDD1CEC
:1008300082E090E0A0E0B0E0A80EB91ECA1EDB1E68
:10084000C601B50124E030E040E050E00E94032BF7
:10085000E21AF30A040B150BC801B70124ED30E3CB
:1008600040E050E00E94AF2A97FD8CC0660F771FD2
:10087000881F991FA40193010E94E12A79018A012E
:10088000552717FD5A95412F302F2F2DCA01B90139
:100890000E94AF2A2EED3BE040E050E00E94AF2ADC
:1008A0005B016C01C801B70123E433EE4FEF5FEF4A
:1008B0000E94AF2ABC01992777FD9095892F61533B
:1008C000714F8F4F9F4F5601DD24B7FCD094CD2C34
:1008D0006A0D7B1D8C1D9D1D24E095958795779550
:1008E00067952A95D1F76E0D7F1D801F911F60932C
:1008F0007C0170937D0180937E0190937F016093D2
:10090000E5027093E6028093E7029093E80210916B
:100910008001133008F057CE0E94952720E836EE6C
:1009200045EC57E40E94FC2621EB3CED42E45EE3FB
:100930000E941329562F472F382F292FC12FD0E07F
:10094000CC0FDD1FCC0FDD1FCF57DE4F60E070E016
:1009500080E89FE3DA01F9012B2F3A2F4F2F5E2F0A
:100960000E942E2620E834E748ED58E40E94B02883
:100970000E946927688379838A839B831F5F109312
:10098000800121CEA40193010E94E12A79018A010C
:10099000EE0CFF1C001F111F73CF8EE160E040E7DB
:1009A0000E94010E88EC90E00E94B00B8EE161E0A5
:1009B00040E20E94010E88EC90E00E94B00B8EE1B4
:1009C00062E040E00E94010E88EC90E00E94B00BD3
:1009D00081E08093910185E090E00E94EB0A81E044
:1009E000089581E090919101911180E008950F9315
:1009F0001F93DF93CF9300D000D000D0CDB7DEB7E8
:100A00008C01AE014F5F5F4F86E0FA0111928A952B
:100A1000E9F78EE163E026E00E947B0D863061F00D
:100A200080E026960FB6F894DEBF0FBECDBFCF9103
:100A3000DF911F910F910895998180E04A8150E0E4
:100A4000482B592BF801518340839D8180E02E81F2
:100A500030E0282B392B338322837B8160E08C812B
:100A600090E0862B972B9583848360919101662378
:100A700029F061506093910181E0D3CF60919201A0
:100A8000461B5109F8015183408340919301241B77
:100A900031093383228320919401821B910995832C
:100AA000848381E0BECF88E660E00E944C0E8836E9
:100AB00011F080E008956EE340E80E94010E88EC9A
:100AC00090E00E94B00B88E666E14AE10E94010EC8
:100AD00088EC90E00E94B00B88E66EE343E00E9451
:100AE000010E81E090E00E94EB0A0E9461078823DA
:100AF00089F488EC809395011092970110929601E9
:100B0000109299011092980110929B0110929A01F3
:100B100081E008951092950186E991E00E94C40752
:100B200081E0089580919501882311F080E0089577
:100B300086E991E00E94FB0781E008950F931F93DF
:100B4000DF93CF9300D000D000D0CDB7DEB78C01BB
:100B5000AE014F5F5F4F86E0FA0111928A95E9F787
:100B600088E66DE126E00E947B0D863061F080E032
:100B700026960FB6F894DEBF0FBECDBFCF91DF91A2
:100B80001F910F910895998180E06A8170E0682B30
:100B9000792BF801718360839B8180E02C8130E0A8
:100BA000282B392B338322835D8140E08E8190E0B6
:100BB000842B952B95838483AC014B5F5F4F4B3027
:100BC000510520F41582148280E090E04091950157
:100BD000442329F14130F1F1E0919601F091970120
:100BE000E60FF71FF0939701E0939601609198014B
:100BF00070919901620F731F70939901609398012E
:100C000020919A0130919B01280F391F30939B014D
:100C100020939A0141504093950181E0A9CF4091E2
:100C2000960150919701641B750BF80171836083E5
:100C30004091980150919901241B350B33832283F5
:100C400020919A0130919B01821B930B95838483A1
:100C500081E08ECF809196019091970128EC30E051
:100C6000B9010E94CE2A70939701609396018091FA
:100C7000980190919901B9010E94CE2A709399012F
:100C80006093980180919A0190919B01B9010E9413
:100C9000CE2A70939B0160939A01BCCF85B190E2FC
:100CA000892785B90895CF92DF92EF92FF920F9333
:100CB0001F9315BC109281001092B1000E94470949
:100CC000259A2D9A1092EA021092E9021092EC02F3
:100CD0001092EB021092EE021092ED021092D702E7
:100CE0001092D602E0EDF2E01092D1021092D00202
:100CF00013821282158214821092E4021092E3028F
:100D00001092E5021092E6021092E7021092E802B9
:100D10001092DC021092DB020E9419090E948B0AD9
:100D20000E94910C0E9403070E94C20E0E94450778
:100D300080E040E050E060E87FE300E010E09801F0
:100D40000F2EF0E0CF2EF0E0DF2EF0E5EF2EF1ECED
:100D5000FF2EF02D0E94882181E040E050E060E805
:100D60007FE300E010E098010E94882182E040E0EB
:100D700050E060E87FE300E010E09801680179014D
:100D80000E94882183E040E050E060E87FE3970123
:100D900086010E9488210E9449090E948C230E949A
:100DA0004E1188EB9BE00E94EB0A0E94B01680ED8A
:100DB00097E00E94EB0A0E9420200E945B230E9481
:100DC00038102D980E942D2480E068E873E141E0FE
:100DD0002EE436E00E94BD2380919C0190919D01FC
:100DE0000E941F0990939D0180939C0180919C011A
:100DF00090919D010E94CB1180919C0190919D0149
:100E00000E944E10E9CFECE7F0E08081806480839F
:100E1000808182608083808184608083808180641F
:100E20008083EAE7F0E08081806880838081886049
:100E300080831092A7011092A60180E0089562E0DD
:100E40000E943209813009F0089580917A0080640F
:100E500080937A0008951F920F920FB60F9211247B
:100E60008F939F9380917800909179009093A70140
:100E70008093A6019093D9028093D8029F918F917D
:100E80000F900FBE0F901F90189580E090E00E9489
:100E90003C2D8093A901882321F01092A80180E0C5
:100EA000089581E08093A801089580E090E06FEFBD
:100EB0000E944A2D089580E090E060E00E944A2D53
:100EC00008958091A80108950F931F93CF93DF9306
:100ED000EC0181E090E00E943C2D182F00E082E0C0
:100EE00090E00E943C2D90E0802B912B9983888389
:100EF00083E090E00E943C2D182F00E084E090E019
:100F00000E943C2D90E0802B912B9B838A8385E06F
:100F100090E00E943C2D182F00E086E090E00E94B7
:100F20003C2D90E0802B912B9D838C83DF91CF9182
:100F30001F910F9108951F93CF93DF93EC011881B8
:100F4000698181E090E00E944A2D82E090E0612F6B
:100F50000E944A2D1A816B8183E090E00E944A2D05
:100F600084E090E0612F0E944A2D1C816D8185E014
:100F700090E00E944A2D86E090E0612F0E944A2D69
:100F8000DF91CF911F9108950F931F93CF93DF931C
:100F9000EC0187E090E00E943C2D182F00E088E0F3
:100FA00090E00E943C2D90E0802B912B99838883C8
:100FB00089E090E00E943C2D182F00E08AE090E04C
:100FC0000E943C2D90E0802B912B9B838A838BE0A9
:100FD00090E00E943C2D182F00E08CE090E00E94F1
:100FE0003C2D90E0802B912B9D838C83DF91CF91C2
:100FF0001F910F9108951F93CF93DF93EC011881F8
:10100000698187E090E00E944A2D88E090E0612F9E
:101010000E944A2D1A816B8189E090E00E944A2D3E
:101020008AE090E0612F0E944A2D1C816D818BE047
:1010300090E00E944A2D8CE090E0612F0E944A2DA2
:10104000DF91CF911F910895EF92FF920F931F931D
:10105000CF93DF937B018A01E901882349F1813035
:1010600009F447C0823009F465C08330D1F481E3CC
:1010700090E00E94442DF701608371838283938303
:1010800085E390E00E94442DF801608371838283A0
:10109000938389E390E00E94442D688379838A8357
:1010A0009B83DF91CF911F910F91FF90EF90089557
:1010B0008DE090E00E94442DF7016083718382836C
:1010C000938381E190E00E94442DF8016083718355
:1010D0008283938385E190E00E94442D6883798325
:1010E0008A839B83DF91CF911F910F91FF90EF90A7
:1010F000089589E190E00E94442DF7016083718397
:10110000828393838DE190E00E94442DF8016083F7
:1011100071838283938381E290E00E94442D6883EF
:1011200079838A839B83DF91CF911F910F91FF90E9
:10113000EF90089585E290E00E94442DF7016083CE
:1011400071838283938389E290E00E94442DF801A9
:1011500060837183828393838DE290E00E94442DAB
:10116000688379838A839B839CCF8F929F92AF926F
:10117000BF92CF92DF92EF92FF920F931F9348019D
:101180005901882391F0813091F1823009F440C0F7
:101190008330E1F01F910F91FF90EF90DF90CF909F
:1011A000BF90AF909F908F9008958DE090E00E9447
:1011B000582D81E190E0B501A4010E94582D85E1F0
:1011C00090E0B701A6010E94582DE4CF81E390E0A2
:1011D0000E94582D81E390E0B501A4010E94582D92
:1011E00081E390E0B701A6010E94582DD3CF89E199
:1011F00090E00E94582D8DE190E0B501A4010E947D
:10120000582D81E290E0B701A6010E94582DC2CF6F
:1012100085E290E00E94582D89E290E0B501A4019A
:101220000E94582D8DE290E0B701A6010E94582D32
:10123000B1CF1092AB011092AA0181E00895F89409
:101240002091AA013091AB01809590958223932340
:101250009093AB018093AA0178948091AA01909118
:10126000AB01089570E06823792381E06115710571
:1012700009F480E008952091AA013091AB01282B58
:10128000392B3093AB012093AA0181E00895F894A3
:101290000895789408951092AD011092AC018AEFF0
:1012A00090E09093AF018093AE012091AE01309118
:1012B000AF013093B1012093B001389A21E030E0C2
:1012C0003093B3012093B2019093B5018093B401A0
:1012D0002091B4013091B5013093B7012093B6014C
:1012E000399A22E030E03093B9012093B80190930D
:1012F000BB018093BA012091BA013091BB013093B8
:10130000BD012093BC013A9A23E030E03093BF0145
:101310002093BE019093C1018093C0018091C001D0
:101320009091C1019093C3018093C2013B9A1092A6
:101330008000E1E8F0E0808183608083EFE6F0E008
:10134000808182608083109285001092840081E009
:101350000895CF93DF93C82FD0E080E090E00E9403
:10136000952720E030E04AE754E40E94B02820E0CE
:1013700030E04AE754E40E94FC2620E030E04AE7EF
:1013800054E40E942F2620E030E040E85EE30E9413
:10139000B0280E946927FE01EE0FFF1FEC0FFD1F12
:1013A000EE0FFF1FE455FE4F7583648384819581A2
:1013B0009383828381E0DF91CF9108951F920F92F2
:1013C0000FB60F9211242F933F934F938F939F93B8
:1013D000EF93FF938091000187FD98C080910001F9
:1013E0008430C8F0809100018F5F8093000180916C
:1013F00000018430B0F180910001843041F1FF910F
:10140000EF919F918F914F913F912F910F900FBE30
:101410000F901F90189548B180910001992787FD82
:101420009095FC01EE0FFF1FE80FF91FEE0FFF1F55
:10143000E455FE4F2081318181E090E002C0880FA9
:10144000991F2A95E2F78095842388B9CBCF88E845
:1014500093E190938900809388008FEF809300013F
:10146000CECF209184003091850080910001992792
:1014700087FD9095FC01EE0FFF1FE80FF91FEE0F9F
:10148000FF1FE455FE4F82819381820F931F90933B
:1014900089008093880048B180910001992787FDD9
:1014A0009095FC01EE0FFF1FE80FF91FEE0FFF1FD5
:1014B000E455FE4F2081318181E090E002C0880F29
:1014C000991F2A95E2F7482B48B980910001992786
:1014D00087FD909520910001332727FD3095F90174
:1014E000EE0FFF1FE20FF31FEE0FFF1FE455FE4F3D
:1014F00024813581FC01EE0FFF1FE80FF91FEE0F6D
:10150000FF1FE455FE4F3383228379CF109285006D
:101510001092840067CF1092C4011092C5011092FE
:10152000C6011092C70114BC85B5826085BD16BC8A
:10153000A99AEEE6F0E08081816080830895DF92D1
:10154000EF92FF920F931F93F8946091C4017091F2
:10155000C5018091C6019091C701D6B47894660FF9
:10156000771F881F991F660F771F881F991F660FA7
:10157000771F881F991F660F771F881F991F660F97
:10158000771F881F991F660F771F881F991F660F87
:10159000771F881F991F0E9495277B018C016D2D55
:1015A00070E0882777FD8095982F0E94972720E08C
:1015B00030E040E05FE30E94B0289B01AC01C8012D
:1015C000B7010E942F260E9469271F910F91FF905B
:1015D000EF90DF9008954F925F926F927F929F926B
:1015E000AF92BF92CF92DF92EF92FF920F931F9331
:1015F0005C01F8946091C4017091C5018091C601AD
:101600009091C70196B4660F771F881F991F660FC8
:10161000771F881F991F660F771F881F991F660FF6
:10162000771F881F991F660F771F881F991F660FE6
:10163000771F881F991F660F771F881F991F0E94A9
:1016400095277B018C01692D70E0882777FD8095B7
:10165000982F0E94972720E030E040E05FE30E944F
:10166000B0289B01AC01C801B7010E942F260E943F
:1016700069279B01AC0178942093C8013093C9017C
:101680004093CA015093CB0188EE93E0A89E2001BD
:10169000A99E500CB89E500C112466247724F8940F
:1016A0006091C4017091C5018091C6019091C701FC
:1016B00096B47894E090C801F090C9010091CA01F5
:1016C0001091CB01E40CF51C061D171D660F771F4A
:1016D000881F991F660F771F881F991F660F771F36
:1016E000881F991F660F771F881F991F660F771F26
:1016F000881F991F660F771F881F991F660F771F16
:10170000881F991F0E9495275B016C01692D70E06D
:10171000882777FD8095982F0E94972720E030E05A
:1017200040E05FE30E94B0289B01AC01C601B50117
:101730000E942F260E9469276E157F05800791075A
:1017400008F4ADCF1F910F91FF90EF90DF90CF90F5
:10175000BF90AF909F907F906F905F904F90089553
:101760004F925F926F927F929F92AF92BF92CF9271
:10177000DF92EF92FF920F931F932C01F8946091E8
:10178000C4017091C5018091C6019091C701A6B4B2
:10179000660F771F881F991F660F771F881F991F75
:1017A000660F771F881F991F660F771F881F991F65
:1017B000660F771F881F991F660F771F881F991F55
:1017C000660F771F881F991F0E9495277B018C0148
:1017D0006A2D70E0882777FD8095982F0E949727C3
:1017E00020E030E040E05FE30E94B0289B01AC01C4
:1017F000C801B7010E942F260E9469279B01AC01F6
:1018000078942093C8013093C9014093CA01509342
:10181000CB0166247724F8946091C4017091C501CE
:101820008091C6019091C70196B47894E090C80168
:10183000F090C9010091CA011091CB01E40CF51C94
:10184000061D171D660F771F881F991F660F771FCC
:10185000881F991F660F771F881F991F660F771FB4
:10186000881F991F660F771F881F991F660F771FA4
:10187000881F991F660F771F881F991F0E94952741
:101880005B016C01692D70E0882777FD8095982FAA
:101890000E94972720E030E040E05FE30E94B028FC
:1018A0009B01AC01C601B5010E942F260E94692749
:1018B0006E157F058007910708F4ADCF1F910F913A
:1018C000FF90EF90DF90CF90BF90AF909F907F9070
:1018D0006F905F904F9008951F920F920FB60F92E6
:1018E00011248F939F93AF93BF938091C4019091E4
:1018F000C501A091C601B091C7010196A11DB11DFE
:101900008093C4019093C501A093C601B093C70111
:10191000BF91AF919F918F910F900FBE0F901F902D
:1019200018951092B9008CE08093B80084E0809301
:10193000BC00089594EA9093BC002FEF30E003C000
:101940002150304099F09091BC0097FFF9CF8093DF
:10195000BB0084E88093BC008FEF90E002C0019749
:1019600041F02091BC0027FFFACF08951092BC00EF
:10197000EECF1092BC00089584E98093BC000895D6
:101980008093BB0084E88093BC008FEF90E002C09E
:10199000019729F02091BC0027FFFACF08951092FB
:1019A000BC0008958823B1F094EC9093BC002FEF15
:1019B00030E003C02150304079F09091BC0097FF97
:1019C000F9CF9091BB00882319F484E98093BC007F
:1019D000892F089594E8E9CF1092BC00F2CF84ECEF
:1019E0008093BC008FEF90E002C0019739F0209106
:1019F000BC0027FFFACF8091BB0008951092BC0075
:101A00008091BB00089584E88093BC008FEF90E044
:101A100002C0019751F02091BC0027FFFACF8091BE
:101A2000BB0094E99093BC0008951092BC00809193
:101A3000BB0094E99093BC0008958FEF90E002C042
:101A4000019729F02091BC0027FFFACF089510924A
:101A5000BC000895880F816094EA9093BC002FEF3A
:101A600030E004C02150304009F43DC09091BC00EA
:101A700097FFF8CF8093BB0084E88093BC002FEFE2
:101A800030E003C02150304089F18091BC0087FFD5
:101A9000F9CF442371F1942F9150E62FF72F64E989
:101AA00051E0D1F450E084E88093BC002FEF30E0A7
:101AB00003C02150304091F08091BC0087FFF9CFE6
:101AC0008091BB00552311F46093BC00819399234E
:101AD00041F0915051E031F384ECE6CF1092BC001C
:101AE000EFCF842F08951092BC00C4CF1092BC0099
:101AF000D0CF80E00895382F330F94EA9093BC0044
:101B0000EFEFF0E003C0319709F46CC09091BC0096
:101B100097FFF9CF3093BB0094E89093BC00EFEFB0
:101B2000F0E003C0319709F460C09091BC0097FFCA
:101B3000F9CF6093BB0094E89093BC006FEF70E026
:101B400004C06150704009F453C09091BC0097FFED
:101B5000F8CF880F816094EA9093BC006FEF70E03B
:101B600004C06150704009F446C09091BC0097FFDA
:101B7000F8CF8093BB0084E88093BC006FEF70E0E7
:101B800003C061507040D1F19091BC0097FFF9CF34
:101B9000222331F1322F3150E42FF52F64E981E017
:101BA000D1F480E094E89093BC004FEF50E003C084
:101BB0004150504091F09091BC0097FFF9CF909127
:101BC000BB00882311F46093BC009193332341F050
:101BD000315081E031F394ECE6CF1092BC00EFCFAE
:101BE000822F08951092BC0095CF1092BC00A1CF17
:101BF0001092BC00AECF1092BC00BBCF1092BC00C4
:101C0000C7CF880F94EA9093BC002FEF30E003C059
:101C10002150304091F19091BC0097FFF9CF809313
:101C2000BB0084E88093BC008FEF90E002C0019776
:101C300039F12091BC0027FFFACF6093BB0084E804
:101C40008093BC008FEF90E002C00197E1F02091FB
:101C5000BC0027FFFACF4093BB0084E88093BC0010
:101C60008FEF90E002C0019789F02091BC0027FF20
:101C7000FACF84E98093BC0008951092BC00CFCFC6
:101C80001092BC00DACF1092BC00E5CF1092BC00DD
:101C900084E98093BC000895482F440F94EA909300
:101CA000BC002FEF30E004C02150304009F45BC08D
:101CB0009091BC0097FFF8CF4093BB0094E89093BD
:101CC000BC002FEF30E004C02150304009F44EC07A
:101CD0009091BC0097FFF8CF6093BB0094E890937D
:101CE000BC002FEF30E004C02150304009F441C067
:101CF0009091BC0097FFF8CF880F816094EA909391
:101D0000BC002FEF30E003C021503040A9F190918A
:101D1000BC0097FFF9CF8093BB0084E88093BC00A0
:101D20008FEF90E002C0019751F12091BC0027FF96
:101D3000FACF84E88093BC008FEF90E002C0019757
:101D400051F02091BC0027FFFACF8091BB0094E9AD
:101D50009093BC0008951092BC008091BB0094E960
:101D60009093BC0008951092BC00A6CF1092BC00C6
:101D7000B3CF1092BC00C0CF1092BC00CCCF109259
:101D8000BC00D7CF88E090E09093C5008093C4005A
:101D9000E1ECF0E0808180618083808188608083D5
:101DA000808180688083808180648083E2ECF0E0C1
:101DB0008081826080838081846080831092FB02B6
:101DC0001092FA021092FD021092FC021092FF0291
:101DD0001092FE021092010310920003109203036E
:101DE000109202030895FC018091FA029091FB0287
:101DF000918380838091FC029091FD029383828382
:101E00008091FE029091FF0295838483809100036C
:101E1000909101039783868380910203909103033D
:101E2000918780871092FB021092FA021092FD02B5
:101E30001092FC021092FF021092FE021092010317
:101E40001092000310920303109202030895409130
:101E5000CD01461768F4242F30E0FC01E20FF31F98
:101E600050812C5F3C4FF90150834F5F461798F328
:101E70008091CD01860F8093CD01E091CD01F0E0FE
:101E8000EC5FFC4F10828091CD0168130895809122
:101E9000C00085FFFCCF809104038093C60081E0E1
:101EA0008093CC010895662369F0E82FF92F90E024
:101EB0008091C00085FFFCCF81918093C6009F5F19
:101EC0009617B0F308951F920F920FB60F92112438
:101ED0002F933F934F935F936F937F938F939F9332
:101EE000AF93BF93EF93FF938091C6008093D1018E
:101EF0008091CF018823B1F48091D1018A3209F415
:101F000072C0FF91EF91BF91AF919F918F917F919F
:101F10006F915F914F913F912F910F900FBE0F9056
:101F20001F901895E091CE01F0E08091D101EA5C1C
:101F3000FC4F8083E091CE01F0E0EB5CFC4F8081B0
:101F40008093D2018091CE018F5F8093CE018091EA
:101F5000D2018332C1F18091D1018A3209F44BC0A0
:101F60008091D2018D3209F44EC08091D2018A3223
:101F700041F2E091D001F0E020910101EE0FFF1F4E
:101F8000E650FD4F30E040815181429FC001439FA8
:101F9000900D529F900D112491838083E091D00188
:101FA000F0E08091D201EE0FFF1FE650FD4F90E070
:101FB000C09720813181820F931F918380838AE0B3
:101FC000809301019ECF8091D101833221F610923E
:101FD000CF011092D00181E08093010180E290E076
:101FE0000E943B098ECF8093360381E08093CE011F
:101FF0008093CF0186CF1092CF011092D00181E063
:10200000809301017ECF8091D0018F5F8093D001BA
:1020100081E08093010175CF1F920F920FB60F924E
:1020200011248F939F93EF93FF938091CD01882389
:1020300069F41092CD011092CC01FF91EF919F9124
:102040008F910F900FBE0F901F9018958091CC012B
:10205000E82FF0E0EC5FFC4F90819093C6008F5F1B
:102060008093CC018091CD0181508093CD01E5CF4B
:102070001092D4011092D3011092D6011092D50182
:102080001092D8011092D7011092DA011092D90162
:102090001092DC011092DB0181E008952F923F92B3
:1020A0004F925F926F927F928F929F92AF92BF9268
:1020B000CF92DF92EF92FF920F931F93DF93CF9314
:1020C000CDB7DEB7A4970FB6F894DEBF0FBECDBF75
:1020D0008C0160E20E943209882309F090C0C80197
:1020E00062E00E943209882309F470C0E090D002B7
:1020F000F090D102C090D202D090D302A090D4022E
:10210000B090D5028090D6029090D7026090DD0208
:102110007090DE024090E1025090E20220909E0119
:1021200030909F014091A0015091A1016091A201C6
:102130007091A3018091A4019091A50198A38F8F24
:1021400049A35AA36BA37CA30E946721ADB7BEB776
:102150005A970FB6F894BEBF0FBEADBFEDB7FEB72E
:1021600031968E010F5F1F4F12961C930E9311979D
:1021700022E031E033832283F582E482D782C68273
:10218000B186A08693868286758664865786468643
:10219000318A208A49A15AA1538B428B6BA17CA121
:1021A000758B648B2F8D38A1378B268B918F808F09
:1021B0000E94322B682F8DB79EB74A960FB6F894BF
:1021C0009EBF0FBE8DBFC8010E94270FA4960FB6F9
:1021D000F894DEBF0FBECDBFCF91DF911F910F915D
:1021E000FF90EF90DF90CF90BF90AF909F908F9037
:1021F0007F906F905F904F903F902F90089583ED68
:1022000091E00E94F30E8091D3019091D401009748
:10221000D1F08130910519F18230910509F45FCF39
:102220008330910509F45BCF8430910509F057CFD5
:102230008091D5019091D6018130910561F1E0E066
:10224000F0E009954CCF8091D5019091D60123E023
:10225000893E920708F043CF0E946C2140CF8091C5
:10226000D5019091D6019093EA028093E902809182
:10227000D7019091D801909581959F4F9093EC0252
:102280008093EB028091D9019091DA019093EE0254
:102290008093ED0224CF0E945507D1CF80E090E0DB
:1022A000DC018093EB019093EC01A093ED01B093DE
:1022B000EE018093F3019093F401A093F501B093A4
:1022C000F6018093010290930202A0930302B0935F
:1022D00004028093EF019093F001A093F101B09379
:1022E000F2018093F7019093F801A093F901B09364
:1022F000FA018093FD019093FE01A093FF01B0933A
:1023000000021092DF011092E0011092E1011092A0
:10231000E2011092E3011092E4011092E5011092A3
:10232000E6011092E7011092E8011092E901109283
:10233000EA011092FC011092FB011092DE01109252
:10234000DD0110920502109206021092070210920F
:1023500008021092090210920A0210920B021092C7
:102360000C021092DE021092DD021092E202109234
:10237000E1021092CF021092CE021092E00210926F
:10238000DF020E94CD040E94BA000E9453050E9401
:10239000400281E008952F923F924F925F926F9298
:1023A0007F928F929F92AF92BF92CF92DF92EF92E5
:1023B000FF920F931F93DF93CF93CDB7DEB7A6970E
:1023C0000FB6F894DEBF0FBECDBF6C0161E00E9476
:1023D00032098130B9F1C60162E00E9432098130D0
:1023E00071F1C60160E10E9432098130C9F0A69600
:1023F0000FB6F894DEBF0FBECDBFCF91DF911F9116
:102400000F91FF90EF90DF90CF90BF90AF909F9093
:102410008F907F906F905F904F903F902F90089596
:102420008091DD019091DE01009709F78091D6023D
:102430009091D7029093DE018093DD01D8CF0E9466
:10244000CE02CFCF0E949F0A2091DF013091E001A0
:102450004091E1015091E201621B730B840B950BDB
:102460006093E3017093E4018093E5019093E601AA
:102470000E949F0A6093DF017093E0018093E10165
:102480009093E2018090E3019090E401A090E50137
:10249000B090E6018091E7019091E801A091E901F7
:1024A000B091EA0188159905AA05BB0540F4809210
:1024B000E7019092E801A092E901B092EA011A8244
:1024C00019821C821B821E821D8218861F821A8618
:1024D00019861C861B861E861D86188A1F861A8AE8
:1024E000198ACE0107960E942401882309F49EC010
:1024F0006F817885709561957F4F78876F830985A7
:102500001A85109501951F4F1A870987882777FD2F
:102510008095982F0E9497272B013C01B8018827AE
:1025200077FD8095982F0E9497276B8B7C8B8D8BE6
:102530009E8B9B01AC010E94B028062FF72EE82E3F
:102540009F8B6B857C85882777FD8095982F0E94CF
:102550009727609301027093020280930302909385
:1025600004029B01AC010E94B028162F372E282EA2
:102570009F8F2F89602F7F2D8E2D922FEF8D212FF2
:10258000332D422D5E2F0E942F260E9469299B0128
:10259000AC01C301B2010E94A2266F8B788F898F94
:1025A0009A8FC301B201A30192010E94B028F62EB6
:1025B000472EE82E092F8F8D212F332D422D582F96
:1025C000CA01B9012F2D342D4E2D502F0E942F26D8
:1025D0000E9469299B01AC016B897C898D899E8948
:1025E0000E94A2267B018C016F89788D898D9A8D3E
:1025F00020EE3EE245E652E40E94B0286093EB01F3
:102600007093EC018093ED019093EE01C801B70146
:1026100020EE3EE245E652E40E94B0286093F301CA
:102620007093F4018093F5019093F601CE01019629
:102630000E949E05882309F4CBC009811A81109558
:1026400001951F4F1A8309834B805C80ED80FE80CB
:10265000F094E194F108F394FE82ED82C501B40197
:102660000E9495274B015C01B801882777FD809572
:10267000982F0E94972720E030E046E651E40E9420
:10268000FC26A50194010E94B02820E034E244E732
:1026900059E40E94FC269B01AC016091F701709106
:1026A000F8018091F9019091FA010E942F26609320
:1026B000F7017093F8018093F9019093FA01B20148
:1026C000882777FD8095982F0E94972720E030E09B
:1026D00046E651E40E94FC269B01AC01C501B40111
:1026E0000E94B02820E034E244E759E40E94FC262E
:1026F0009B01AC016091EF017091F0018091F101BB
:102700009091F2010E942F266093EF017093F001E7
:102710008093F1019093F201B701882777FD8095AE
:10272000982F0E94972720E030E046E651E40E946F
:10273000FC269B01AC01C501B4010E94B02820E039
:1027400034E244E759E40E94FC262091FD013091D7
:10275000FE014091FF01509100020E942F26E62EBB
:10276000072F882E192F862F902FA82DB12F8093F9
:10277000FD019093FE01A093FF01B09300026E2D26
:10278000702F882D912F20E030E0A9010E94F526BE
:1027900087FD95C26E2D702F882D912F20E030E09F
:1027A00044EB53E40E94A528181694F46E2D702F64
:1027B000882D912F20E030E044EB53E40E942E2638
:1027C0006093FD017093FE018093FF0190930002DE
:1027D000CE010D960E94F704882309F42BC10D85C4
:1027E0001E85109501951F4F1E870D872F843888F1
:1027F000E988FA88F094E194F108F394FA8AE98A76
:102800008090EB019090EC01A090ED01B090EE0172
:10281000C501B40120E030E040E252E40E94A52866
:1028200018160CF010C14090EF015090F00160902C
:10283000F1017090F2016091E3017091E4018091E7
:10284000E5019091E6010E9495277B018C01C5016D
:10285000B401A30192010E94041720E030E040E29D
:1028600051E40E94B0280E9464277093D1026093C3
:10287000D0028090F3019090F401A090F501B09007
:10288000F6014090F7015090F8016090F9017090C6
:10289000FA016091E3017091E4018091E50190916A
:1028A000E6010E9495277B018C01C501B401A301BB
:1028B00092010E944B1920E030E040E251E40E9476
:1028C000B0280E9464277093D3026093D202609173
:1028D000FB017091FC0180E090E00E9495274B0184
:1028E0005C014090FD015090FE016090FF017090EE
:1028F00000026091E3017091E4018091E501909103
:10290000E6010E9495277B018C01C501B401A3015A
:1029100092010E94921B0E9464277093D5026093DB
:10292000D4020E9466022091DD013091DE01621B1B
:10293000730B7093D7026093D6026091E902709195
:10294000EA02882777FD8095982F0E9497274B01F0
:102950005C016091D0027091D102882777FD80954B
:10296000982F0E9497278B019C0180E0B501A4015C
:102970000E9403229093DE028093DD026091EB02BD
:102980007091EC02882777FD8095982F0E949727F9
:102990004B015C016091D2027091D302882777FDD0
:1029A0008095982F0E9497278B019C0181E0B501AB
:1029B000A4010E9403229093E2028093E10200911D
:1029C000D4021091D5026091ED027091EE02600F79
:1029D000711F882777FD8095982F0E9497274B01BC
:1029E0005C01B801882777FD8095982F0E94972772
:1029F0008B019C0182E0B501A4010E940322AC017D
:102A00009093CF028093CE028091DA02813009F454
:102A100069C16091E1027091E2028091DD029091C2
:102A2000DE020E942A200E9467219093E402809394
:102A3000E302D1CC8090EB019090EC01A090ED01ED
:102A4000B090EE01F0CEC501B40120E030E040E2EC
:102A500052EC0E94F52687FDE6CE4090F30150909F
:102A6000F4016090F5017090F601C301B20120E01D
:102A700030E040E252E40E94A52818160CF4D3CEB0
:102A8000C301B20120E030E040E252EC0E94F526A2
:102A900087FDC9CEC301B20125E33AEF4EE85CE3FE
:102AA0000E94B028462E772E682E592E0E94F926B5
:102AB0006F8B788F898F9A8F642D772D862D952D2A
:102AC0000E945F296B8B7C8B8D8B9E8BC501B40123
:102AD00025E33AEF4EE85CE30E94B028762E672E9D
:102AE000582E492EA3019201652F742F832F922F08
:102AF0000E94F9266B8F7C8F8D8F9E8FA301920190
:102B0000652F742F832F922F0E945F296F8F78A3D8
:102B100089A39AA3B801882777FD8095982F0E94F2
:102B200097272B013C01B701882777FD8095982FC7
:102B30000E9497277B018C016B897C898D899E89F6
:102B4000A30192010E94B0289B01AC016F8D78A176
:102B500089A19AA10E94B0286BA37CA38DA39EA3F8
:102B6000B101882777FD8095982F0E9497279B01B8
:102B7000AC016F89788D898D9A8D0E94B0289B0158
:102B8000AC016BA17CA18DA19EA10E942F266F8B11
:102B9000788F898F9A8F6B897C898D899E89A8010E
:102BA00097010E94B0289B01AC016B8D7C8D8D8DAF
:102BB0009E8D0E94B0289B01AC016F89788D898D14
:102BC0009A8D0E942E266B8B7C8B8D8B9E8B6B8DB2
:102BD0007C8D8D8D9E8DA30192010E94B0282B01CA
:102BE0003C016F8D78A189A19AA1A80197010E944B
:102BF000B0289B01AC01C301B2010E942F269B01AA
:102C0000AC016B897C898D899E890E94A2262AEC61
:102C100037E34BE55CE30E942E26162F072FF82E94
:102C2000E92EA8019701652F742F832F922F20E0A2
:102C300030E0A9010E94F52687FF10C0A801970186
:102C4000652F742F832F922F2BED3FE049EC50E43A
:102C50000E942F26162F072FF82EE92EA801970184
:102C6000652F702F832F9E2D2BED3FE049EC50E414
:102C70000E94A528181684F4A8019701652F702FCB
:102C8000832F9E2D2BED3FE049EC50E40E942E2631
:102C9000162F072FF82EE92EA8019701652F702F08
:102CA000832F9E2D20EE3EE245E652E40E94B0289E
:102CB0000E9469277093FC016093FB01B4CD6E2DD7
:102CC000702F882D912F20E030E044EB53E40E94D8
:102CD0002F266093FD017093FE018093FF01909376
:102CE000000276CD6091EF027091F00280E090E0FA
:102CF0000E9495274B015C016091D6027091D7022A
:102D000080E090E00E9495278B019C0183E0B50153
:102D1000A4010E9403229093E0028093DF0240917D
:102D2000CE025091CF0275CE8091D6029091D702FB
:102D30009093DE018093DD010895882319F41092A9
:102D4000DA02089591E09093DA022091DD0130914A
:102D5000DE01280F311D3093F0022093EF02089519
:102D60009F92AF92BF92CF92DF92EF92FF920F931A
:102D70001F93DF93CF93CDB7DEB762970FB6F8946A
:102D8000DEBF0FBECDBFBB2497E0E92EF12CEC0EC9
:102D9000FD1E8E010F5F1F4F8DE0C82ED12CCC0E73
:102DA000DD1EC7010E942401C8010E949E05C601C4
:102DB0000E94F7040E949205A82E0E941801982EE6
:102DC0000E94F104990C880F880F8929BA28B82A23
:102DD0008B2D873029F084E190E00E94EB0AE1CF4F
:102DE0000E945B0762960FB6F894DEBF0FBECDBFA0
:102DF000CF91DF911F910F91FF90EF90DF90CF90D7
:102E0000BF90AF909F9008952F923F924F925F9204
:102E10006F927F928F929F92AF92BF92CF92DF92EA
:102E2000EF92FF920F931F93DF93CF93CDB7DEB74F
:102E30006D970FB6F894DEBF0FBECDBF698F7A8F46
:102E40008B8F9C8F59016A01C801B70120E030E4E3
:102E50004CE156E40E94FC2669837A838B839C8331
:102E60007B018C01CB01AB81BC8180938403909367
:102E70008503A0938603B0938703809111029091FC
:102E80001202A0911302B09114028D879E87AF8722
:102E9000B88BC601B5012D853E854F8558890E94A6
:102EA0002E269B01AC0169817A818B819C810E94D5
:102EB000B02820910D0230910E0240910F025091E6
:102EC00010020E942F266D837E838F83988717FBC5
:102ED000109517F9109560901D0270901E02809059
:102EE0001F0290902002A0901902B0901A02C09088
:102EF0001B02D0901C02C401B301A60195010E94DF
:102F00002F269B01AC01C801B7010E94B0281B010C
:102F10002C0169817A818B819C812FE632E143E823
:102F20005AE30E94B0289B01AC01C201B1010E948A
:102F30002F262091150230911602409117025091D0
:102F400018020E942F26262E472E382E9987809110
:102F5000210290912202A0912302B0912402898B38
:102F60009A8BAB8BBC8BC801B70129893A894B89F5
:102F70005C890E94B028F62E072F182FE92EC60173
:102F8000B5012F2D302F412F5E2D0E942F266D8BE6
:102F90007E8B8F8B988FC401B3012F2D302F412F43
:102FA0005E2D0E942F26662E972E882E792E29853B
:102FB000622D742D832D922F2FE832EC45EF5CE3C8
:102FC0000E942F26E62ED72EC82EB92E862F9D2D95
:102FD000AC2DBB2D80938C0390938D03A0938E0317
:102FE000B0938F032985622D742D832D922F2E2D62
:102FF0003D2D4C2D5B2D0E94FC26F62E072F182F01
:10300000A92E862F902FA12FBA2D80936C03909319
:103010006D03A0936E03B0936F03662D792D882DF9
:10302000972D2E2D3D2D4C2D5B2D0E94FC26562ECE
:103030007A878B879C87472F382F292F862F942FAD
:10304000A32FB22F80937C0390937D03A0937E03E4
:10305000B0937F03698D7A8D8B8D9C8DBD81AE8100
:10306000EF80D8842B2F3A2F4E2D5D2D0E942E26D7
:10307000E62ED72EC82EB92E862F9D2DAC2DBB2D1A
:103080008093800390938103A0938203B093830382
:103090006F2D702F812F9A2D2E2D3D2D4C2D5B2DB8
:1030A0000E94B0289B01AC01BD81AE819F81998FA8
:1030B000E885ED8F6B2F7A2F892F9E2F0E942F2668
:1030C0006D837E838F839887472F382F292F862FF4
:1030D000942FA32FB22F80930D0290930E02A093F2
:1030E0000F02B09310024A853B852C85652D742F05
:1030F000832F922F2E2D3D2D4C2D5B2D0E94B0281D
:103100009B01AC016D857E858F8598890E942F2655
:103110006093110270931202809313029093140231
:103120002985622D742D832D922F2F2D302F412F25
:103130005A2D0E94B0289B01AC01D984622D742DB8
:10314000832D9D2D0E942E26E62ED72EC82EB92E19
:10315000862F9D2DAC2DBB2D8093150290931602CA
:10316000A0931702B09318025D894E893F89288D7C
:10317000652F742F832F922F2F2D302F412F5A2DF3
:103180000E94B0289B01AC01BD89AE891F89088DC2
:103190006B2F7A2F812F902F0E942E26F62E072F2D
:1031A000182FA92E862F902FA12FBA2D80931902A8
:1031B00090931A02A0931B02B0931C024A853B8590
:1031C0002C85652D742F832F922F2E2D3D2D4C2D68
:1031D0005B2D0E94B0289B01AC01662D792D882DB6
:1031E000972D0E942E2660931D0270931E028093DD
:1031F0001F029093200269817A818B819C8126EA4B
:103200003BE944E45BE30E94B0289B01AC0169897F
:103210007A898B899C890E942F263B014C014A8523
:103220003B852C85652D742F832F922F2F2D302FCA
:10323000412F5A2D0E94B0289B01AC01C401B3015B
:103240000E942E2660932102709322028093230213
:10325000909324025D814E813F812885652F742FD4
:10326000832F922F6D960FB6F894DEBF0FBECDBFA1
:10327000CF91DF911F910F91FF90EF90DF90CF9052
:10328000BF90AF909F908F907F906F905F904F9086
:103290003F902F9008952F923F924F925F926F929E
:1032A0007F928F929F92AF92BF92CF92DF92EF92D6
:1032B000FF920F931F93DF93CF93CDB7DEB76D9738
:1032C0000FB6F894DEBF0FBECDBF698F7A8F8B8F9C
:1032D0009C8F59016A01C801B70120E030E44CE13C
:1032E00056E40E94FC2669837A838B839C837B014E
:1032F0008C01CB01AB81BC818093700390937103EF
:10330000A0937203B09373038091290290912A02D3
:10331000A0912B02B0912C028D879E87AF87B88B2E
:10332000C601B5012D853E854F8558890E942E2600
:103330009B01AC0169817A818B819C810E94B028BC
:1033400020912502309126024091270250912802B7
:103350000E942F266D837E838F83988717FB10959D
:1033600017F9109560903502709036028090370200
:1033700090903802A0903102B0903202C090330297
:10338000D0903402C401B301A60195010E942F26FA
:103390009B01AC01C801B7010E94B0281B012C01A0
:1033A00069817A818B819C812FE632E143E85AE37F
:1033B0000E94B0289B01AC01C201B1010E942F26DE
:1033C00020912D0230912E0240912F025091300217
:1033D0000E942F26262E472E382E9987809139025B
:1033E00090913A02A0913B02B0913C02898B9A8B5A
:1033F000AB8BBC8BC801B70129893A894B895C89A1
:103400000E94B028F62E072F182FE92EC601B5010D
:103410002F2D302F412F5E2D0E942F266D8B7E8BFE
:103420008F8B988FC401B3012F2D302F412F5E2D2C
:103430000E942F26662E972E882E792E2985622DA2
:10344000742D832D922F2FE832EC45EF5CE30E9420
:103450002F26E62ED72EC82EB92E862F9D2DAC2DC9
:10346000BB2D8093880390938903A0938A03B09324
:103470008B032985622D742D832D922F2E2D3D2DAA
:103480004C2D5B2D0E94FC26F62E072F182FA92EFF
:10349000862F902FA12FBA2D8093A0039093A10384
:1034A000A093A203B093A303662D792D882D972DA9
:1034B0002E2D3D2D4C2D5B2D0E94FC26562E7A87FD
:1034C0008B879C87472F382F292F862F942FA32F48
:1034D000B22F8093B4039093B503A093B603B09337
:1034E000B703698D7A8D8B8D9C8DBD81AE81EF8008
:1034F000D8842B2F3A2F4E2D5D2D0E942E26E62E9E
:10350000D72EC82EB92E862F9D2DAC2DBB2D809386
:10351000680390936903A0936A03B0936B036F2DC4
:10352000702F812F9A2D2E2D3D2D4C2D5B2D0E941D
:10353000B0289B01AC01BD81AE819F81998FE88548
:10354000ED8F6B2F7A2F892F9E2F0E942F266D8350
:103550007E838F839887472F382F292F862F942F8C
:10356000A32FB22F8093250290932602A0932702C7
:10357000B09328024A853B852C85652D742F832FB7
:10358000922F2E2D3D2D4C2D5B2D0E94B0289B019E
:10359000AC016D857E858F8598890E942F2660936A
:1035A000290270932A0280932B0290932C02298582
:1035B000622D742D832D922F2F2D302F412F5A2DB8
:1035C0000E94B0289B01AC01D984622D742D832DFB
:1035D0009D2D0E942E26E62ED72EC82EB92E862F80
:1035E0009D2DAC2DBB2D80932D0290932E02A09388
:1035F0002F02B09330025D894E893F89288D652F57
:10360000742F832F922F2F2D302F412F5A2D0E9450
:10361000B0289B01AC01BD89AE891F89088D6B2F35
:103620007A2F812F902F0E942E26F62E072F182FEB
:10363000A92E862F902FA12FBA2D8093310290931F
:103640003202A0933302B09334024A853B852C8525
:10365000652D742F832F922F2E2D3D2D4C2D5B2DFC
:103660000E94B0289B01AC01662D792D882D972DE5
:103670000E942E26609335027093360280933702A3
:103680009093380269817A818B819C8126EA3BE99B
:1036900044E45BE30E94B0289B01AC0169897A890C
:1036A0008B899C890E942F263B014C014A853B85D2
:1036B0002C85652D742F832F922F2F2D302F412F86
:1036C0005A2D0E94B0289B01AC01C401B3010E9495
:1036D0002E266093390270933A0280933B029093B6
:1036E0003C025D814E813F812885652F742F832F99
:1036F000922F6D960FB6F894DEBF0FBECDBFCF915F
:10370000DF911F910F91FF90EF90DF90CF90BF90CE
:10371000AF909F908F907F906F905F904F903F9071
:103720002F9008952F923F924F925F926F927F92C7
:103730008F929F92AF92BF92CF92DF92EF92FF92C1
:103740000F931F93DF93CF93CDB7DEB76D970FB66F
:10375000F894DEBF0FBECDBF698F7A8F8B8F9C8FA1
:1037600059016A01C801B70120E030E44CE156E498
:103770000E94FC2669837A838B839C837B018C0166
:10378000CB01AB81BC818093A8039093A903A09344
:10379000AA03B093AB038091410290914202A091A1
:1037A0004302B09144028D879E87AF87B88BC601D4
:1037B000B5012D853E854F8558890E942E269B0197
:1037C000AC0169817A818B819C810E94B028209113
:1037D0003D0230913E0240913F02509140020E94D2
:1037E0002F266D837E838F83988717FB109517F99B
:1037F000109560904D0270904E0280904F02909014
:103800005002A0904902B0904A02C0904B02D09062
:103810004C02C401B301A60195010E942F269B0111
:10382000AC01C801B7010E94B0281B012C016981BD
:103830007A818B819C812FE632E143E85AE30E9432
:10384000B0289B01AC01C201B1010E942F2620913A
:1038500045023091460240914702509148020E9431
:103860002F26262E472E382E99878091510290912F
:103870005202A0915302B0915402898B9A8BAB8B68
:10388000BC8BC801B70129893A894B895C890E94A0
:10389000B028F62E072F182FE92EC601B5012F2DBF
:1038A000302F412F5E2D0E942F266D8B7E8B8F8BAC
:1038B000988FC401B3012F2D302F412F5E2D0E9410
:1038C0002F26662E972E882E792E2985622D742D0F
:1038D000832D922F2FE832EC45EF5CE30E942F26D8
:1038E000E62ED72EC82EB92E862F9D2DAC2DBB2DA2
:1038F0008093A4039093A503A093A603B093A7037A
:103900002985622D742D832D922F2E2D3D2D4C2D2A
:103910005B2D0E94FC26F62E072F182FA92E862F2E
:10392000902FA12FBA2D8093980390939903A09381
:103930009A03B0939B03662D792D882D972D2E2DFC
:103940003D2D4C2D5B2D0E94FC26562E7A878B87B1
:103950009C87472F382F292F862F942FA32FB22FE4
:103960008093AC039093AD03A093AE03B093AF03E9
:10397000698D7A8D8B8D9C8DBD81AE81EF80D884D1
:103980002B2F3A2F4E2D5D2D0E942E26E62ED72E60
:10399000C82EB92E862F9D2DAC2DBB2D8093900364
:1039A00090939103A0939203B09393036F2D702F84
:1039B000812F9A2D2E2D3D2D4C2D5B2D0E94B02850
:1039C0009B01AC01BD81AE819F81998FE885ED8F10
:1039D0006B2F7A2F892F9E2F0E942F266D837E8337
:1039E0008F839887472F382F292F862F942FA32F27
:1039F000B22F80933D0290933E02A0933F02B0937A
:103A000040024A853B852C85652D742F832F922F8C
:103A10002E2D3D2D4C2D5B2D0E94B0289B01AC011D
:103A20006D857E858F8598890E942F26609341023F
:103A30007093420280934302909344022985622D41
:103A4000742D832D922F2F2D302F412F5A2D0E9410
:103A5000B0289B01AC01D984622D742D832D9D2D3E
:103A60000E942E26E62ED72EC82EB92E862F9D2DEB
:103A7000AC2DBB2D8093450290934602A093470244
:103A8000B09348025D894E893F89288D652F742F38
:103A9000832F922F2F2D302F412F5A2D0E94B02887
:103AA0009B01AC01BD89AE891F89088D6B2F7A2FD0
:103AB000812F902F0E942E26F62E072F182FA92E29
:103AC000862F902FA12FBA2D8093490290934A02FE
:103AD000A0934B02B0934C024A853B852C85652D03
:103AE000742F832F922F2E2D3D2D4C2D5B2D0E9458
:103AF000B0289B01AC01662D792D882D972D0E9451
:103B00002E2660934D0270934E0280934F02909345
:103B1000500269817A818B819C8126EA3BE944E4E9
:103B20005BE30E94B0289B01AC0169897A898B898B
:103B30009C890E942F263B014C014A853B852C85A0
:103B4000652D742F832F922F2F2D302F412F5A2D1B
:103B50000E94B0289B01AC01C401B3010E942E2633
:103B600060935102709352028093530290935402D7
:103B70005D814E813F812885652F742F832F922F81
:103B80006D960FB6F894DEBF0FBECDBFCF91DF911B
:103B90001F910F91FF90EF90DF90CF90BF90AF906B
:103BA0009F908F907F906F905F904F903F902F905D
:103BB00008952F923F924F925F926F927F928F92D1
:103BC0009F92AF92BF92CF92DF92EF92FF920F93AC
:103BD0001F93DF93CF93CDB7DEB76D970FB6F894F1
:103BE000DEBF0FBECDBF698F7A8F8B8F9C8F59013F
:103BF0006A01C801B70120E030E44CE156E40E94BC
:103C0000FC2669837A838B839C837B018C01CB01A7
:103C1000AB81BC818093780390937903A0937A035E
:103C2000B0937B038091590290915A02A0915B025C
:103C3000B0915C028D879E87AF87B88BC601B501B6
:103C40002D853E854F8558890E942E269B01AC010B
:103C500069817A818B819C810E94B02820915502D4
:103C60003091560240915702509158020E942F26DF
:103C70006D837E838F83988717FB109517F91095B6
:103C80006090650270906602809067029090680272
:103C9000A0906102B0906202C0906302D090640272
:103CA000C401B301A60195010E942F269B01AC011E
:103CB000C801B7010E94B0281B012C0169817A81DB
:103CC0008B819C812FE632E143E85AE30E94B028C1
:103CD0009B01AC01C201B1010E942F2620915D021F
:103CE00030915E0240915F02509160020E942F2647
:103CF000262E472E382E99878091690290916A026C
:103D0000A0916B02B0916C02898B9A8BAB8BBC8BB0
:103D1000C801B70129893A894B895C890E94B0287A
:103D2000F62E072F182FE92EC601B5012F2D302FA3
:103D3000412F5E2D0E942F266D8B7E8B8F8B988F4F
:103D4000C401B3012F2D302F412F5E2D0E942F264D
:103D5000662E972E882E792E2985622D742D832D1F
:103D6000922F2FE832EC45EF5CE30E942F26E62EDF
:103D7000D72EC82EB92E862F9D2DAC2DBB2D80930E
:103D8000740390937503A0937603B093770329850A
:103D9000622D742D832D922F2E2D3D2D4C2D5B2DBC
:103DA0000E94FC26F62E072F182FA92E862F902F63
:103DB000A12FBA2D80939C0390939D03A0939E0303
:103DC000B0939F03662D792D882D972D2E2D3D2D97
:103DD0004C2D5B2D0E94FC26562E7A878B879C8764
:103DE000472F382F292F862F942FA32FB22F809360
:103DF000B0039093B103A093B203B093B303698D62
:103E00007A8D8B8D9C8DBD81AE81EF80D8842B2FD8
:103E10003A2F4E2D5D2D0E942E26E62ED72EC82E2F
:103E2000B92E862F9D2DAC2DBB2D8093940390939E
:103E30009503A0939603B09397036F2D702F812F56
:103E40009A2D2E2D3D2D4C2D5B2D0E94B0289B01CF
:103E5000AC01BD81AE819F81998FE885ED8F6B2F7D
:103E60007A2F892F9E2F0E942F266D837E838F832A
:103E70009887472F382F292F862F942FA32FB22FC3
:103E80008093550290935602A0935702B093580224
:103E90004A853B852C85652D742F832F922F2E2DDF
:103EA0003D2D4C2D5B2D0E94B0289B01AC016D85F2
:103EB0007E858F8598890E942F2660935902709382
:103EC0005A0280935B0290935C022985622D742DC7
:103ED000832D922F2F2D302F412F5A2D0E94B02845
:103EE0009B01AC01D984622D742D832D9D2D0E94E0
:103EF0002E26E62ED72EC82EB92E862F9D2DAC2D20
:103F0000BB2D80935D0290935E02A0935F02B093FD
:103F100060025D894E893F89288D652F742F832F1C
:103F2000922F2F2D302F412F5A2D0E94B0289B0108
:103F3000AC01BD89AE891F89088D6B2F7A2F812F27
:103F4000902F0E942E26F62E072F182FA92E862F8F
:103F5000902FA12FBA2D8093610290936202A093BB
:103F60006302B09364024A853B852C85652D742FCE
:103F7000832F922F2E2D3D2D4C2D5B2D0E94B0288E
:103F80009B01AC01662D792D882D972D0E942E2640
:103F90006093650270936602809367029093680253
:103FA00069817A818B819C8126EA3BE944E45BE369
:103FB0000E94B0289B01AC0169897A898B899C8910
:103FC0000E942F263B014C014A853B852C85652D9F
:103FD000742F832F922F2F2D302F412F5A2D0E9477
:103FE000B0289B01AC01C401B3010E942E2660934E
:103FF000690270936A0280936B0290936C025D81F8
:104000004E813F812885652F742F832F922F6D96C7
:104010000FB6F894DEBF0FBECDBFCF91DF911F91D9
:104020000F91FF90EF90DF90CF90BF90AF909F9057
:104030008F907F906F905F904F903F902F9008955A
:104040000E944B0988EE93E090936E0280936D027C
:1040500081E008958F929F92AF92BF92CF92DF92AC
:10406000EF92FF920F931F93CF93DF93D82EC92E19
:10407000C0916D02D0916E0283E0C93ED80708F46A
:10408000E7C05B01BE016A197B0980E090E00E94F5
:104090009527162F072FF82EE92EA8019701652FD7
:1040A000742F832F922F20E030E04AEF54E40E94D7
:1040B000A5281816B4F588EE882E83E0982E60EDBA
:1040C00077E07093A3016093A2010D2D1C2DB80120
:1040D0006C0F7D1F80E090E00E949527F62EE72E62
:1040E000D82EC92EA7019601652F742F832F922FEA
:1040F00020E030E04AEF54E40E94A528181624F18D
:10410000A7019601652F742F832F922F20E030E0B6
:104110004AE754E40E94F52687FFBAC068EE73E0D0
:1041200015C0A8019701652F742F832F922F20E0CF
:1041300030E04AE754E40E94F52687FFB2C08824A5
:10414000992468EE73E0BDCF60ED77E070939F0136
:1041500060939E01BE01601B710B80E090E00E94A5
:1041600095278B01F82EE92E9701712F832F922F1F
:1041700020E030E04AEF54E40E94A528181684F0AD
:104180009701602F712F832F922F20E030E04AE7B4
:1041900054E40E94F52687FF73C068EE73E002C006
:1041A00060ED77E07093A5016093A401CA0DDB1D5B
:1041B000BE0180E090E00E9495277B018C017F2D5D
:1041C000912F20E030E04AEF54E40E94A528181611
:1041D0000CF453C06E2D7F2D802F912F20E030E006
:1041E0004AE754E40E94F52687FF6AC068EE73E050
:1041F0007093A1016093A00180E0B4010E94A9091D
:1042000060919E0170919F01685E734081E00E9401
:10421000A9096091A4017091A501685E734082E0D4
:104220000E94A9096091A0017091A101685E73408C
:1042300083E00E94A909DF91CF911F910F91FF9018
:10424000EF90DF90CF90BF90AF909F908F900895A8
:1042500080E060E070E00E94A90981E060E070E029
:104260000E94A90982E060E070E00E94A90983E051
:1042700060E070E00E94A909DECF60ED77E0B8CF82
:104280009701602F712F832F922F0E9469278ACF69
:10429000A7019601652F742F832F922F0E94692703
:1042A00055CFA8019701652F742F832F922F0E945D
:1042B000692798E1892E9CEF992E860E971E01CFD3
:1042C0006E2D7F2D802F912F0E94692791CF809195
:1042D0006D0290916E02089523E0893E920730F4BA
:1042E00088519C4F90936E0280936D0281E00895F7
:1042F00020916D0230916E02280F391F87E0213D19
:10430000380720F430936E0220936D0281E0089507
:104310008F929F92AF92BF92CF92DF92EF92FF92D5
:104320000F931F934A015B014FE652E0682F70E044
:10433000660F771F660F771FFB01EE0FFF1FEE0F53
:10434000FF1FE60FF71FE40FF51F80829182A28204
:10435000B382682F70E0660F771F660F771FFB012F
:10436000EE0FFF1FEE0FFF1FE60FF71FE40FF51F05
:104370000483158326833783282F30E0220F331FD1
:10438000220F331FF901EE0FFF1FEE0FFF1FE20F89
:10439000F31FE40FF51FC086D186E286F386282F2F
:1043A00030E0220F331F220F331FF901EE0FFF1FE2
:1043B000EE0FFF1FE20FF31FE40FF51F00E010E008
:1043C00098010487158726873787682F70E0660F66
:1043D000771F660F771FFB01EE0FFF1FEE0FFF1F0A
:1043E000E60FF71FE40FF51F008B118B228B338B29
:1043F0001F910F91FF90EF90DF90CF90BF90AF9003
:104400009F908F9008955F926F927F928F929F926C
:10441000AF92BF92CF92DF92EF92FF920F931F93D2
:10442000CF93DF93F82ECB01BA0158016901A9019E
:1044300098010E942E26862E772E682E592E8F2DBB
:1044400090E0880F991F880F991FFC01EE0FFF1F46
:10445000EE0FFF1FE80FF91FE159FD4F682D772D73
:10446000862D952D20893189428953890E942F26D6
:10447000E62E072F182F992E8F2D90E0880F991F69
:10448000880F991FFC01EE0FFF1FEE0FFF1FE80FB3
:10449000F91FE159FD4F8E2D902FA12FB92D808B43
:1044A000918BA28BB38B6E2D702F812F992D20E0D5
:1044B00030E04AE754EC0E94F52687FDE4C06E2DFB
:1044C000702F812F992D20E030E04AE754E40E94BC
:1044D000A5281816BCF48F2D90E0880F991F880F1F
:1044E000991FFC01EE0FFF1FEE0FFF1FE80FF91FD2
:1044F000E159FD4F80E090E0AAE7B4E4808B918B16
:10450000A28BB38B8F2D90E0880F991F880F991F76
:10451000EC01CC0FDD1FCC0FDD1FC80FD91FC15917
:10452000DD4F8F2D90E0880F991F880F991FFC0198
:10453000EE0FFF1FEE0FFF1FE80FF91FE159FD4FB0
:10454000C601B50124853585468557850E942E26EE
:10455000288539854A855B850E94B02820E030E0B7
:1045600040E251E40E94FC260E946427EB018F2D5B
:1045700090E0880F991F880F991FFC01EE0FFF1F15
:10458000EE0FFF1FE80FF91FE159FD4FA486B58616
:10459000C686D7868F2D90E0880F991F880F991FA8
:1045A000FC01EE0FFF1FEE0FFF1FE80FF91FE1598F
:1045B000FD4F682D772D862D952D208131814281EB
:1045C00053810E94B02820E030E040E251E40E9494
:1045D000FC265B016C018F2D90E0880F991F880FDE
:1045E000991FDC01AA0FBB1FAA0FBB1FA80FB91F81
:1045F000A159BD4F8F2D90E0880F991F880F991FEB
:10460000FC01EE0FFF1FEE0FFF1FE80FF91FE1592E
:10461000FD4F14966D917D918D919C9117972089F6
:104620003189428953890E94B02820E030E040E27D
:1046300051E40E94FC269B01AC01C601B5010E9419
:104640002F267B018C01BE01882777FD8095982F4E
:104650000E9497279B01AC01C801B7010E942F2639
:104660000E946427CB01DF91CF911F910F91FF90A2
:10467000EF90DF90CF90BF90AF909F908F907F9002
:104680006F905F9008958F2D90E0880F991F880F8D
:10469000991FFC01EE0FFF1FEE0FFF1FE80FF91F20
:1046A000E159FD4F80E090E0AAE7B4EC808B918B5C
:1046B000A28BB38B27CF1092BF0281E08093C102FF
:1046C00085E08093C002089564E00E943209882347
:1046D00059F08091C102813041F08091C00288235D
:1046E00019F081508093C00208958091C002882300
:1046F000C1F78091BF028B5F8093BF02853150F07C
:1047000085E18093BF021092C10285E190E00E9492
:104710006C21089590E0FBCF1092B8031092C00373
:104720001092BF031092C1031092C9031092C803E4
:104730001092CA031092D2031092D1031092D303A5
:104740001092DB031092DA031092DC031092E40360
:104750001092E3031092B000E1EBF0E080818460FE
:1047600080831092B20088E18093B300B99AE0E7A9
:10477000F0E0808182608083089590E0FC01EE0F7C
:10478000FF1FEE0FFF1FEE0FFF1FE80FF91FE8548A
:10479000FC4F7283618314821382458330872783A1
:1047A00081E08083089590E0FC01EE0FFF1FEE0F83
:1047B000FF1FEE0FFF1FE80FF91FE854FC4F728335
:1047C00061831482138245833087278381E080834D
:1047D000089590E0FC01EE0FFF1FEE0FFF1FEE0F9C
:1047E000FF1FE80FF91FE854FC4F1082089590E076
:1047F000FC01EE0FFF1FEE0FFF1FEE0FFF1FE80F74
:10480000F91FE854FC4F1082128211821482138225
:1048100082E0858310861782089590E0FC01EE0FF8
:10482000FF1FEE0FFF1FEE0FFF1FE80FF91FE854E9
:10483000FC4F14821382089590E0FC01EE0FFF1FDD
:10484000EE0FFF1FEE0FFF1FE80FF91FE854FC4F9C
:1048500014821382728361830895F8941092BC03CA
:104860001092BB031092C5031092C4031092CE03A2
:104870001092CD031092D7031092D6031092E0034A
:104880001092DF031092CA021092CB021092CC0257
:104890001092CD021092C3021092C2021092C50271
:1048A0001092C4021092C6021092C7021092C8025F
:1048B0001092C9021092B20088E18093B3007894FC
:1048C00008951F920F920FB60F9211242F933F93CA
:1048D0004F935F936F937F938F939F93AF93BF9308
:1048E000EF93FF938091B200885E8093B300809134
:1048F000C2029091C3029C012F5F3F4F3093C302CD
:104900002093C202873C910509F436C18091B80317
:10491000813029F18091C103813009F4F6C0809182
:10492000CA03813009F4BAC08091D303813009F4FD
:104930007EC08091DC03813009F446C0FF91EF9185
:10494000BF91AF919F918F917F916F915F914F91A7
:104950003F912F910F900FBE0F901F90189580914F
:10496000BB039091BC0301969093BC038093BB035F
:104970002091B9033091BA038217930759F68091B9
:10498000BD03823039F21092BC031092BB0388231E
:1049900009F037C1E091BF03F091C0031092B80352
:1049A0001092BA031092B9031092BC031092BB0389
:1049B00082E08093BD031092C0031092BF03309732
:1049C00009F4A8CF0995A6CF8091DF039091E00369
:1049D00001969093E0038093DF032091DD033091F3
:1049E000DE038217930709F0A9CF8091E10382309B
:1049F00009F4A4CF1092E0031092DF03882309F09A
:104A000009C1E091E303F091E4031092DC031092FA
:104A1000DE031092DD0382E08093E1031092E40351
:104A20001092E303309709F489CF099587CF8091DD
:104A3000D6039091D70301969093D7038093D60322
:104A40002091D4033091D5038217930709F071CFD9
:104A50008091D803823009F46CCF1092D703109262
:104A6000D603882309F0E8C0E091DA03F091DB0374
:104A70001092D3031092D5031092D4031092D7034F
:104A80001092D60382E08093D8031092DB03109239
:104A9000DA03309709F44DCF09954BCF8091CD03C0
:104AA0009091CE0301969093CE038093CD032091F5
:104AB000CB033091CC038217930709F035CF809157
:104AC000CF03823009F430CF1092CE031092CD0381
:104AD000882309F0BAC0E091D103F091D20310927B
:104AE000CA031092CC031092CB031092CE03109203
:104AF000CD0382E08093CF031092D2031092D103B2
:104B0000309709F411CF09950FCF8091C40390918C
:104B1000C50301969093C5038093C4032091C203FB
:104B20003091C3038217930709F0F9CE8091C60331
:104B3000823009F4F4CE1092C5031092C403882386
:104B400009F071C0E091C803F091C9031092C1034C
:104B50001092C3031092C2031092C5031092C403B3
:104B600082E08093C6031092C9031092C803309765
:104B700009F4D5CE0995D3CE1092C3021092C20289
:104B800081E090E00E943B098091C602982F9F5FD0
:104B90009093C602843009F0B9CE1092C60282E02A
:104BA00090E00E943B098091C702982F9F5F9093ED
:104BB000C702893009F0AACE1092C70284E090E0C3
:104BC0000E943B098091C802982F9F5F9093C80272
:104BD000843009F09BCE1092C80288E090E00E94D9
:104BE0003B098091C902982F9F5F9093C902813041
:104BF00009F08CCE1092C90280E190E00E943B093E
:104C000085CEE091BF03F091C003309709F482CEC6
:104C1000099580CEE091E303F091E403309709F425
:104C20008DCE09958BCEE091C803F091C9033097E2
:104C300009F475CE099573CEE091DA03F091DB03A8
:104C4000309709F476CE099574CEE091D103F091B6
:104C5000D203309709F468CE099566CE5058BB2729
:104C6000AA270ED027C2F0D130F0F5D120F031F4D0
:104C70009F3F11F41EF4C0C10EF4E095E7FBB6C1EE
:104C8000E92F3AD280F3BA176207730784079507B2
:104C900018F071F49EF552C20EF4E0950B2EBA2F67
:104CA000A02D0B01B90190010C01CA01A001112432
:104CB000FF27591B99F0593F50F4503E68F11A16DE
:104CC000F040A22F232F342F4427585FF3CF46956F
:104CD00037952795A795F0405395C9F77EF41F1691
:104CE000BA0B620B730B840BBAF09150A1F0FF0F5B
:104CF000BB1F661F771F881FC2F70EC0BA0F621F47
:104D0000731F841F48F4879577956795B795F79536
:104D10009E3F08F0B3CF9395880F08F09927EE0FC8
:104D200097958795089590D158F080E891E009F41F
:104D30009EEF91D128F040E851E059F45EEF09C0B0
:104D40005BC1FCC1E92FE078D7D168F3092E052AB1
:104D5000C1F3261737074807590738F00E2E07F812
:104D6000E02569F0E025E0640AC0EF6307F80094ED
:104D700007FADB01B9019D01DC01CA01AD01EF9326
:104D80004AD098D10AD05F91552331F02BED3FE006
:104D900049E450FD49EC63CF0895DF93DD27B92F37
:104DA000BF7740E85FE31616170648075B0710F465
:104DB000D92FCFD19F938F937F936F93C8D2E8E67B
:104DC000F0E01DD177D12F913F914F915F91D4D1D8
:104DD000DD2349F09058A2EA2AED3FE049EC5FE379
:104DE000D0785D274DDFDF9165C1DCD008F481E02C
:104DF000089539D1E3956FC10CD05CC12CD140F03E
:104E000023D130F021F45F3F19F0F0C0511197C168
:104E1000F3C072D198F39923C9F35523B1F3951BCD
:104E2000550BBB27AA2762177307840738F09F5FCB
:104E30005F4F220F331F441FAA1FA9F333D00E2E3A
:104E40003AF0E0E830D091505040E695001CCAF7A7
:104E500029D0FE2F27D0660F771F881FBB1F26176C
:104E600037074807AB07B0E809F0BB0B802DBF013F
:104E7000FF2793585F4F2AF09E3F510568F0B6C058
:104E80005EC15F3FECF3983EDCF3869577956795BE
:104E9000B795F7959F5FC9F7880F911D96958795F0
:104EA00097F90895E1E0660F771F881FBB1F62170F
:104EB00073078407BA0720F0621B730B840BBA0BCD
:104EC000EE1F88F7E095089504D06894B11137C1BA
:104ED00008951AD188F09F5790F0B92F9927B751AC
:104EE000A0F0D1F0660F771F881F991F1AF0BA95AE
:104EF000C9F712C0B13081F021D1B1E008951EC1CF
:104F0000672F782F8827B85F39F0B93FCCF38695A3
:104F100077956795B395D9F73EF490958095709500
:104F200061957F4F8F4F9F4F0895E89409C097FB7D
:104F30003EF490958095709561957F4F8F4F9F4F70
:104F40009923A9F0F92F96E9BB279395F6958795B4
:104F500077956795B795F111F8CFFAF4BB0F11F477
:104F600060FF1BC06F5F7F4F8F4F9F4F16C088231E
:104F700011F096E911C0772321F09EE8872F762F54
:104F800005C0662371F096E8862F70E060E02AF095
:104F90009A95660F771F881FDAF7880F9695879581
:104FA00097F90895990F0008550FAA0BE0E8FEEF56
:104FB00016161706E807F907C0F012161306E407DD
:104FC000F50798F0621B730B840B950B39F40A26D6
:104FD00061F0232B242B252B21F408950A2609F4B4
:104FE000A140A6958FEF811D811D089597F99F67B8
:104FF00080E870E060E008959FEF80EC0895DF9313
:10500000CF931F930F93FF92EF92DF927B018C015E
:10501000689405C0DA2EEF01AFD0FE01E894A591A7
:105020002591359145915591AEF3EF0129DEFE01B1
:105030009701A801DA9479F7DF90EF90FF900F9134
:105040001F91CF91DF91089500240A941616170638
:1050500018060906089500240A9412161306140669
:1050600005060895C9CF50D0E8F3E894E0E0BB27E7
:105070009F57F0F02AED3FE049EC06C0EE0FBB0F62
:10508000661F771F881F28F0B23A620773078407EC
:1050900028F0B25A620B730B840BE3959A9572F762
:1050A000803830F49A95BB0F661F771F881FD2F7A0
:1050B000904883C1092E0394000C11F4882352F008
:1050C000BB0F40F4BF2B11F460FF04C06F5F7F4F34
:1050D0008F4F9F4F0895EF93E0FF06C0A2EA2AED9D
:1050E0003FE049EC5FEBCCDDE5DF0F90039401FC82
:1050F0009058E5E9F0E074C157FD9058440F551FF2
:1051000059F05F3F71F04795880F97FB991F61F049
:105110009F3F79F087950895121613061406551FC0
:10512000F2CF4695F1DF08C0161617061806991F2C
:10513000F1CF86957105610508940895E894BB2721
:1051400066277727CB0197F908952CDF08F48FEFB6
:1051500008959B01AC0160E070E080E89FE34CCED5
:105160000BD0A8CF71DF28F076DF18F0952309F077
:105170003DCF42CF1124E3CFBFDFA0F3959FD1F302
:10518000950F50E0551F629FF001729FBB27F00DF5
:10519000B11D639FAA27F00DB11DAA1F649F66274A
:1051A000B00DA11D661F829F2227B00DA11D621F99
:1051B000739FB00DA11D621F839FA00D611D221F53
:1051C000749F3327A00D611D231F849F600D211D37
:1051D000822F762F6A2F11249F5750408AF0E1F0DA
:1051E00088234AF0EE0FFF1FBB1F661F771F881F23
:1051F00091505040A9F79E3F510570F0F7CE9FCFD8
:105200005F3FECF3983EDCF3869577956795B7950D
:10521000F795E7959F5FC1F7FE2B880F911D969537
:10522000879597F90895FA01EE0FFF1F3096210533
:10523000310599F16115710561F48038BFE39B0771
:1052400049F168949038810561F08038BFEF9B0781
:1052500041F0992342F5FF3FE1053105210511F1A8
:10526000E8940894E795D901AA2329F4AB2FBE2F1F
:10527000F85FD0F310C0FF5F70F4A695E0F7F73940
:1052800050F019F0FF3A38F49F779F930CD00F90AD
:1052900007FC905808953EF0AFCE60E070E080E8E3
:1052A0009FE308954FE79F775F934F933F932F932B
:1052B000E3D02F913F914F915F9152DF50C09F9368
:1052C000D2DE0F9007FCEE5F06CF11F40EF494CE01
:1052D00072C01ADFD0F39923D9F3CEF39F57550B41
:1052E00087FF77D00024A0E640EA900180585695C9
:1052F000979528F4805C660F771F881F20F026178B
:105300003707480730F4621B730B840B20293129BF
:105310004A2BA69517940794202531254A2758F73C
:10532000660F771F881F20F026173707480730F4CD
:10533000620B730B840B200D311D411DA09581F76D
:10534000B901842F9158880F9695879508959B01F0
:10535000AC0106CF19F40EF049CEF0CE4DCED4DE1E
:10536000C8F39638C0F707F80F92E8942BE33AEAAF
:1053700048EB5FE703DF0F920F920F924DB75EB7D6
:105380000F92BAD0E3EBF0E03ADE4F915F91EF91EC
:10539000FF91E595EE1FFF1F49F0FE57E068442797
:1053A000EE0F441FFA95E1F74195550B2CD00F9065
:1053B00007FECFCE08959F3F31F0915020F487959E
:1053C00077956795B795880F911D9695879597F96D
:1053D000089591505040660F771F881FD2F70895A7
:1053E0009F938F937F936F93FF93EF939B01AC01F8
:1053F000B7DEEF91FF9103DE2F913F914F915F91C7
:10540000AFCEF4CDD8CF80DEE8F39923D9F3940F53
:10541000511DBBF39150504094F059F0882332F065
:10542000660F771F881F91505040C1F79E3F51056E
:1054300044F7880F911D9695879597F908955F3FDA
:10544000ACF0983E9CF0BB27869577956795B7950D
:1054500008F4B1609395C1F7BB0F58F711F460FFE2
:10546000E8CF6F5F7F4F8F4F9F4FE3CF68CE0EF037
:10547000A2CFC2CD6894BACD47DEC8F39923D1F349
:10548000C6F3DF93CF931F930F93FF92C92FDD27AE
:1054900088232AF02197660F771F881FDAF720E00C
:1054A00030E040E85FEB9FE3883920F0803E30F049
:1054B00021968F77D4DBEBEDF0E003C0D0DBE8E0A2
:1054C000F1E09DDD8B01BE01EC01FB2E6F577109F0
:1054D0007595771F880B990B2ADD28E132E741E3A8
:1054E0005FE34ADEAF2D9801AE01FF900F911F914F
:1054F000CF91DF91C5DBDECDFA01DC01AA0FBB1F26
:105500009B01AC01BF5728F422273327442750784A
:105510001FC0B75188F4AB2F0024469537952795C7
:10552000011CA395D2F3002069F0220F331F441F02
:10553000B395DAF30DD092CB61307105A0E88A07FC
:10554000B94630F49B01AC0166277727882790780D
:10555000309621F020833183428353830895629FE4
:10556000D001739FF001829FE00DF11D649FE00D5B
:10557000F11D929FF00D839FF00D749FF00D659FBC
:10558000F00D9927729FB00DE11DF91F639FB00DBB
:10559000E11DF91FBD01CF011124089597FB092ECC
:1055A00007260AD077FD04D049D006D000201AF48F
:1055B000709561957F4F0895F6F7909581959F4F6F
:1055C0000895A1E21A2EAA1BBB1BFD010DC0AA1F44
:1055D000BB1FEE1FFF1FA217B307E407F50720F05C
:1055E000A21BB30BE40BF50B661F771F881F991FD7
:1055F0001A9469F760957095809590959B01AC0120
:10560000BD01CF01089597FB092E05260ED057FD49
:1056100004D0D7DF0AD0001C38F45095409530955F
:1056200021953F4F4F4F5F4F0895F6F79095809526
:10563000709561957F4F8F4F9F4F0895AA1BBB1B9D
:1056400051E107C0AA1FBB1FA617B70710F0A61B82
:10565000B70B881F991F5A95A9F780959095BC01A3
:10566000CD010895AEE0B0E0E8E3FBE20C94232E18
:105670000D891E8986E08C831A8309838FEF9FE74B
:105680009E838D839E01275E3F4FCE0101966F89D9
:10569000788DA9010E94552BEF81F885E00FF11F4D
:1056A00010822E96E4E00C943F2EACE0B0E0EBE5E7
:1056B000FBE20C94152E6C011B018A01FC01178280
:1056C0001682838181FFD1C12E010894411C511C97
:1056D000F6019381F10193FD859193FF81911F0163
:1056E000882309F4BEC1853239F493FD859193FF77
:1056F00081911F01853229F490E0B6010E947B2D33
:10570000E7CFEE24FF2420E02032B0F48B3269F0A2
:105710008C3228F4803251F0833271F40BC08D3218
:1057200039F0803349F421602CC02260246029C004
:10573000286027C0206125C027FD2CC0382F30539A
:105740003A3098F426FF08C08E2D880FE82EEE0C14
:10575000EE0CE80EE30E15C08F2D880FF82EFF0C0F
:10576000FF0CF80EF30E20620CC08E3221F426FDE1
:1057700078C1206406C08C3611F4206802C08836D7
:1057800049F4F10193FD859193FF81911F018823D5
:1057900009F0BACF982F9554933018F09052933067
:1057A00028F40C5F1F4FFFE3F9830DC0833631F0FF
:1057B000833771F0833509F060C022C0F801808121
:1057C00089830E5F1F4F420171E0A72EB12C16C0D6
:1057D00062E0662E712C600E711EF801808091804F
:1057E00026FF03C06E2D70E002C06FEF7FEFC40193
:1057F0002C870E94702D5C0183012C852F7717C0A8
:1058000052E0652E712C600E711EF801808091802F
:1058100026FF03C06E2D70E002C06FEF7FEFC40162
:105820002C870E94652D5C012C852068830123FD57
:1058300020C008C080E290E0B6012C870E947B2D3A
:10584000FA942C858F2D90E0A816B90698F311C014
:10585000F40127FD859127FF81914F0190E0B6016A
:105860002C870E947B2D2C85F110FA940894A108B6
:10587000B108A114B10461F7F1C0843611F0893682
:1058800049F527FF08C0F801608171818281938109
:105890000C5F1F4F09C0F80160817181882777FD77
:1058A0008095982F0E5F1F4F4FE6B42EB22297FFC0
:1058B00009C090958095709561957F4F8F4F9F4F50
:1058C000F0E8BF2AA2012AE030E00E94A72D782E3E
:1058D000741845C0853731F43FEEB32EB2222AE06A
:1058E00030E025C099EFB92EB2228F36C1F0803753
:1058F00020F4883509F0B5C00DC0803721F0883715
:1059000009F0AFC002C020E1B22AB4FE0BC084E0AF
:10591000B82A08C0B4FE09C0E6E0BE2A06C028E0E6
:1059200030E005C020E130E002C020E132E0B7FE07
:1059300008C0F80160817181828193810C5F1F4FE3
:1059400007C0F8016081718180E090E00E5F1F4F19
:10595000A2010E94A72D782E7418FFE7BF22B6FE81
:105960000BC02EEFB2227E1438F4B4FE07C0B2FC96
:1059700005C08FEEB82202C0A72C01C0AE2C8B2D23
:1059800090E0B4FE0DC0FE01E70DF11D2081203333
:1059900019F4E9EEBE2209C0A394B2FE06C004C009
:1059A00086789070009709F0A3948B2C9924B3FC0F
:1059B00014C0B0FE0FC0AF1428F4E72CEF0CEA18A7
:1059C000AF2C08C0E72C06C080E290E0B6010E9430
:1059D0007B2DA394AF14C0F304C0AF1410F4FA18D5
:1059E00001C0FF2484FE0FC080E390E0B6010E9456
:1059F0007B2D82FE1FC081FE03C088E590E010C0B1
:105A000088E790E00DC0C40186789070009791F00F
:105A100081FC02C080E201C08BE2B7FC8DE290E025
:105A2000B6010E947B2D06C080E390E0B6010E9483
:105A30007B2DEA947E14C0F37A94F201E70DF11DF8
:105A4000808190E0B6010E947B2D7720A9F706C0E7
:105A500080E290E0B6010E947B2DFA94FF20C1F70E
:105A600037CEF6012681378102C02FEF3FEFC90103
:105A70002C96E2E10C94312EF999FECF92BD81BDB6
:105A8000F89A992780B50895A6E1B0E044E050E087
:105A90000C94072E262FF999FECF1FBA92BD81BD17
:105AA00020BD0FB6F894FA9AF99A0FBE01960895A0
:105AB000242F0E944B2D252F0E944B2D0C94602DDE
:105AC0000E944A2D272F0C944B2DFC01059061500C
:105AD00070400110D8F7809590958E0F9F1F089504
