:100000000C94A3000C94CB000C94CB000C94CB006C
:100010000C94CB000C94BE0A0C94CB000C94CB0037
:100020000C94CB000C94CB000C94CB000C94CB0024
:100030000C94CB000C94CB000C94CB000C94CB0014
:100040000C94A71D0C94CB000C94B31F0C94C80601
:100050000C94CB000C94CB000C94CB000C94CB00F4
:100060000C94CB000C94CB0007634236B79BD8A707
:100070001A39685618AEBAAB558C1D3CB7CC5763CD
:10008000BD6DEDFD753EF6177231BF000000803F7B
:1000900008000000BE922449123EABAAAA2ABECD97
:1000A000CCCC4C3E00000080BEABAAAAAA3E000009
:1000B0000000BF000000803F000000000008417801
:1000C000D3BB4387D1133D190E3CC3BD4282AD2B38
:1000D0003E68EC8276BED98FE1A93E4C80EFFFBE30
:1000E00001C4FF7F3F00000000000000000024006A
:1000F00027002A0000000000250028002B00000037
:10010000000023002600290004040404040404045D
:1001100002020202020203030303030301020408B2
:100120001020408001020408102001020408102061
:1001300000000007000201000003040600000000A8
:1001400000000000D92011241FBECFEFD8E0DEBF91
:10015000CDBF13E0A0E0B1E0E2EDFAE402C005900B
:100160000D92A036B107D9F716E0A0E6B3E001C0C2
:100170001D92A23BB107E1F711E0C6E4D1E004C053
:100180002297FE010E942C25C434D107C9F70E9492
:1001900013210C9467250C940000FB01DC010190F5
:1001A0000D920020E1F70895A0E0B0E0EAEDF0E064
:1001B0000C943A257C01EB018A01690109C0CE014A
:1001C0002196F6010995F70181937F0101501040B6
:1001D00001151105A1F7CDB7DEB7E8E00C9456255F
:1001E000A0E0B0E0E6EFF0E00C943A25EC017B01F2
:1001F0008A01690109C0CE012196F70161917F0151
:10020000F60109950150104001151105A1F7CDB770
:10021000DEB7E8E00C9456259C01F999FECF32BD7B
:1002200021BDF89A80B508959C01F999FECF1FBAB7
:1002300032BD21BD60BD0FB6F894FA9AF99A0FBE8F
:100240000895DF92EF92FF920F931F93DF93CF9366
:10025000CDB7DEB728970FB6F894DEBF0FBECDBF7F
:1002600069837A838B839C832D833E834F83588756
:100270000E94B6217B018C0120E030E048EC52E482
:100280000E9409230E941E229B0177FF03C0309524
:1002900021953F4FDD248C8187FF02C0DD24D3945C
:1002A000243631055CF52B303105D4F0C801B70197
:1002B00029E23CE54FE85EE30E940923A80197018B
:1002C0000E94092320E030E040E85FE30E945221D1
:1002D0009B01AC01C801B7010E94B6217B018C01D2
:1002E000888587FF33C0DD2039F5C801B7012BEDC4
:1002F0003FE049E450E40E94522126C0C801B70102
:10030000A80197010E94092329E23CE54FE85EE33A
:100310000E9452219B01AC01C801B7010E94B62185
:100320009B01AC016BED7FE089EC9FE30E945121C2
:100330007B018C01DD2051F0C801B7012BED3FE0BE
:1003400049E450E40E9451217B018C01C801B701AE
:100350002CE43DE34FE054E40E9409230E941E2256
:10036000CB0128960FB6F894DEBF0FBECDBFCF915C
:10037000DF911F910F91FF90EF90DF9008952F92E2
:100380003F924F925F926F927F928F929F92AF9225
:10039000BF92CF92DF92EF92FF920F931F93DF9362
:1003A000CF9300D000D0CDB7DEB79A8389837C830A
:1003B0006B83FC01A084B184C284D3842480358003
:1003C000468057806080718082809380C401B30131
:1003D000EB81FC8120813181428153810E9409237C
:1003E0007B018C01C201B101EB81FC81248135814B
:1003F000468157810E9409239B01AC01C801B701C6
:100400000E9452219B01AC01C601B5010E945121FD
:10041000E981FA816087718782879387C601B50178
:10042000EB81FC8120813181428153810E9409232B
:100430007B018C01C201B101EB81FC8120853185FA
:10044000428553850E9409239B01AC01C801B70175
:100450000E9451219B01AC01C401B3010E945221B1
:10046000E981FA816083718382839383C601B50138
:10047000EB81FC8124813581468157810E940923CB
:100480007B018C01C401B301EB81FC8120853185A6
:10049000428553850E9409239B01AC01C801B70125
:1004A0000E9452219B01AC01C201B1010E94522164
:1004B000E981FA8164837583868397830F900F9017
:1004C0000F900F90CF91DF911F910F91FF90EF90C0
:1004D000DF90CF90BF90AF909F908F907F906F9064
:1004E0005F904F903F902F9008952F923F924F92A0
:1004F0005F926F927F928F929F92AF92BF92CF92B4
:10050000DF92EF92FF920F931F93DF93CF9300D070
:1005100000D0CDB7DEB720916004309161044091E6
:1005200062045091630480915D0290915E02A091FB
:100530005F02B0916002281739074A075B0708F489
:1005400003C128553E494F4F5F4F20935D023093C2
:100550005E0240935F02509360028091830588237E
:10056000B9F581E0809383058091D2039091D30304
:10057000A091D403B091D50380937C0390937D0325
:10058000A0937E03B0937F031092790510927A05B1
:1005900010927B0510927C051092820510928105C5
:1005A00060915C0470915D0480E090E00E944F22B5
:1005B0009B01AC0160E97AE285E794E40E94B621F0
:1005C00060937D0570937E0580937F0590938005F1
:1005D00060907C0370907D0380907E0390907F03F9
:1005E0002091D2033091D3032619370980918105D8
:1005F00090918205820F931F41E6893A940714F087
:1006000088EA91E68C018EE90835180714F408E5AC
:100610001EE91093820500938105B901882777FDB3
:100620008095982F0E94512269837A838B839C83C3
:10063000C80168EE73E00E94DA24882777FD809570
:10064000982F0E9451222DEC3CEC4CEC5CE30E9474
:1006500009237B018C0169817A818B819C812FEA3E
:1006600037E441E65CE30E9409239B01AC01C80129
:10067000B7010E9452210E941E225B016C01209052
:10068000790530907A0540907B0550907C05C40137
:10069000B3010E9451223B014C0175010027F7FC78
:1006A0000095102FC201B10125E030E040E050E09C
:1006B0000E940F25E20EF31E041F151FC801B7018B
:1006C0000E9451222DEC3CEC4CE45CE30E94092397
:1006D0007B018C0169817A818B819C812DEC3CECC2
:1006E0004CEC5CE30E9409239B01AC01C801B701FB
:1006F0000E9452219B01AC01C401B3010E9452210E
:100700000E941E2260937C0370937D0380937E037E
:1007100090937F03C50153E0880F991F5A95E1F725
:10072000AA0CBB1C8A0D9B1DAA2797FDA095BA2F6A
:10073000820D931DA41DB51D8093790590937A05B4
:10074000A0937B05B0937C050F900F900F900F90B6
:10075000CF91DF911F910F91FF90EF90DF90CF909D
:10076000BF90AF909F908F907F906F905F904F90D1
:100770003F902F900895FC018081860F808308951B
:100780000F931F93FC018081689F80011124C80191
:1007900064E670E00E94C6249B01F62FF05DC8015C
:1007A0006AE070E00E94C624E62FE05DC90173E0B4
:1007B000220F331F7A95E1F7880F991F280F391FF1
:1007C000E21BC8016AE070E00E94C624982F905D89
:1007D000413039F04130C8F0423059F04330D9F45B
:1007E0000EC0F0936A05E0936B058EE280936C0572
:1007F00010C0F0936A058EE280936B0508C080E319
:10080000809369058EE280936A05F0936B05E0930F
:100810006C0590936D051F910F9108950F931F9391
:100820002091490530914A0580914F0590915005DE
:1008300097FF03C0909581959F4FECE9FFEFE81B70
:10084000F90B2E173F073CF0FC01EC59FF4F2E1718
:100850003F070CF4F901F0934A05E09349058091B4
:1008600051059091520540914505509146059C01D6
:10087000241B350B6091470570914805D901A60FDF
:10088000B71FAE1BBF0BB0938303A0938203261B3D
:10089000370B2E0F3F1F3093850320938403480F9F
:1008A000591FCA01860F971F8E0F9F1F90938703B2
:1008B00080938603461B570B4E1B5F0B5093890397
:1008C000409388032A173B070CF49D01809186030F
:1008D00090918703281739070CF49C0124173507DA
:1008E0000CF49A014091980350919903109153058B
:1008F000E2E8F3E0AEE7B4E068EE73E007E02B3344
:10090000300744F080819181865C984F821B930B65
:10091000918380838081918104E08E3790071CF45D
:100920008EE794E006C007E08B33900714F08AE36B
:1009300097E09183808384E04C34580714F4B183AA
:10094000A083112311F471836083329603E0EA38A7
:10095000F007A1F61F910F910895AF92BF92CF9229
:10096000DF92EF92FF920F931F93CF93DF938091CB
:10097000E3048F5F8093E30444EEA42E44E0B42E9E
:1009800004EF14E0C2E9D3E0EE24FF24C82EDD24F6
:1009900083E0C822DD242FB7F894F701EA57FD4F12
:1009A000E081F0E0EE0FFF1FEB5BFD4F8081918156
:1009B0002FBF7894F701EE0FFF1FEE0FFF1FEC0D16
:1009C000FD1DEE0FFF1FEC50FB4F91838083F8015C
:1009D0008081918122813381820F931F248135810F
:1009E000820F931F26813781820F931F029664E046
:1009F00070E00E94DA249B01F50171836083888195
:100A0000998103976817790734F42E5F3F4F398334
:100A1000288322503040888199810396821793075A
:100A200024F422503040398328830894E11CF11CBF
:100A300082E090E0A80EB91E085F1F4F229698E052
:100A4000E916F10409F0A7CFDF91CF911F910F9123
:100A5000FF90EF90DF90CF90BF90AF9008952F92CE
:100A60003F924F925F926F927F928F929F92AF923E
:100A7000BF92CF92DF92EF92FF920F931F936091FC
:100A8000A0047091A10480E090E020919E04309138
:100A90009F0440E050E0621B730B840B950B209188
:100AA0009C0430919D0440E050E00E94A7247B010B
:100AB0008C013FE015950795F794E7943A95D1F7A7
:100AC0006091960470919704882777FD8095982F00
:100AD0002BE0660F771F881F991F2A95D1F7209169
:100AE000980430919904442737FD4095542F2E0DDA
:100AF0003F1D401F511F0E940F2539014A0180E60A
:100B000090EFAFEFBFEFE80EF91E0A1F1B1F6E0C30
:100B10007F1C801E911EC401B301A40193010E9499
:100B2000A7241B012C01BCE05594479437942794CB
:100B3000BA95D1F720918C0430918D04442737FD6C
:100B40004095542FC401B3010E94A7245B016C019E
:100B5000ABE0D594C794B794A794AA95D1F78091A8
:100B60008A0490918B04AA2797FDA095BA2FF2E0F2
:100B7000880F991FAA1FBB1FFA95D1F7A80EB91E9F
:100B8000CA1EDB1E2091920430919304442737FD46
:100B90004095542FC201B1010E94A724EBE0959526
:100BA000879577956795EA95D1F7A60EB71EC81E6B
:100BB000D91E20918E0430918F04442737FD409533
:100BC000542FC401B3010E94A7247B018C015DE076
:100BD00015950795F794E7945A95D1F782E090E040
:100BE000A0E0B0E0E80EF91E0A1F1B1F2091900440
:100BF00030919104442737FD4095542FC201B10133
:100C00000E94A724BC01992777FD9095892FE60EB5
:100C1000F71E081F191F32E015950795F794E79402
:100C20003A95D1F780E090E8A0E0B0E0E80EF91E38
:100C30000A1F1B1F20919A0430919B0440E050E052
:100C4000C801B7010E94A7243B014C012FE09694F4
:100C50008794779467942A95D1F7E090A204F09056
:100C6000A3040091A4041091A50495E0169507959E
:100C7000F794E7949A95D1F783E0AA0CBB1CCC1C9F
:100C8000DD1C8A95D1F782E090E0A0E0B0E0A80EEC
:100C9000B91ECA1EDB1EC601B50124E030E040E0EB
:100CA00050E00E940F25E21AF30A040B150BC8014D
:100CB000B7012AE638E140E050E00E94A72497FD02
:100CC0000DC0660F771F881F991FA40193010E9412
:100CD000ED24C901DA015C016D010AC0A401930190
:100CE0000E94ED2459016A01AA0CBB1CCC1CDD1C1E
:100CF0005527D7FC5A954D2D3C2D2B2DCA01B901F6
:100D00000E94A7242EED3BE040E050E00E94A72483
:100D10007B018C01C601B50123E433EE4FEF5FEF99
:100D20000E94A724BC01992777FD9095892F6153D4
:100D3000714F8F4F9F4F78011127F7FC1095012FAE
:100D40006E0D7F1D801F911F54E0959587957795B7
:100D500067955A95D1F76A0D7B1D8C1D9D1D60937B
:100D6000AB047093AC048093AD049093AE041F91D8
:100D70000F91FF90EF90DF90CF90BF90AF909F903A
:100D80008F907F906F905F904F903F902F9008953D
:100D90001F920F920FB60F9211248F939F93EF9390
:100DA000FF939091DB03E92FF0E0E452FC4F808148
:100DB0008093C6009F5F9093DB038091690398172F
:100DC00039F48091C1008F7D8093C1001092680337
:100DD000FF91EF919F918F910F900FBE0F901F90F9
:100DE0001895AF92BF92CF92DF92EF92FF920F933E
:100DF0001F93A82EB42E00E0C62EDD24EE24FF247F
:100E000011C01D9A289AC701B6010E94151E289884
:100E10001F5F1A15B0F36CE370E080E090E00E9471
:100E2000151E0F5F0B1510F410E0F3CF1F910F91FB
:100E3000FF90EF90DF90CF90BF90AF900895EF922A
:100E4000FF920F931F93CF93DF938091C5049091EE
:100E5000C604892B09F455C0CDECD4E04EE7E42E4E
:100E600044E0F42E07EC14E06091C5047091C604D0
:100E700081E06039780721F4188219821A821B8276
:100E8000F701808191819C01442737FD4095542FC3
:100E900088819981AA81BB81280F391F4A1F5B1F56
:100EA000288339834A835B8311821082F80111827F
:100EB00010826130710581F4CA01B90120E931E085
:100EC00040E050E00E940F25F801318320838AE042
:100ED0006FE041E00E94F106249682E090E0E80E87
:100EE000F91E0E5F1F4F94E0C93DD90709F0BCCF32
:100EF0008091C5049091C60401979093C604809395
:100F0000C504EEE7F4E0C7ECD4E0A9EDB4E020813D
:100F1000318188819981281B390B4D915C91119702
:100F2000CA0180529340281739073CF0CA01805EFD
:100F30009C4F281739070CF4C901819391938D9325
:100F40009D93229684E0E438F80709F7DF91CF916A
:100F50001F910F91FF90EF9008952FEF30E019C08F
:100F600021503040B1F41092BC000E94EF1D6093FC
:100F7000DF047093E0048093E1049093E204809195
:100F8000D6039091D70301969093D7038093D6030D
:100F900008958091BC0087FFE3CF08950F931F93BE
:100FA0000CEB10E084E8F80180830E94AD0780918B
:100FB000BB0094E9F80190831F910F91089584EC90
:100FC0008093BC000E94AD078091BB000895809380
:100FD000BB0084E88093BC000E94AD070895FF9297
:100FE0000F931F93F82E0CEB10E084EAF801808336
:100FF0000E94AD07F092BB0084E8F80180830E9454
:10100000AD071F910F91FF9008958FEE0E94EF079B
:101010000E94DF078093A1040E94CE078093A00462
:1010200008958FEE0E94EF070E94DF078093A404CB
:101030000E94DF078093A3040E94CE078093A2043E
:1010400008951F93182F8EEE0E94EF07812F0E94A4
:10105000E7078FEE0E94EF070E94DF07182F0E941C
:10106000CE07912F1F9108956AE070E080E090E034
:101070000E94151E8AEA0E94210890938B04809397
:101080008A048CEA0E94210890938D0480938C043A
:101090008EEA0E94210890938F0480938E0480EB47
:1010A0000E94210890939B0480939A0482EB0E94F3
:1010B000210890939D0480939C0484EB0E94210856
:1010C00090939F0480939E0486EB0E942108909346
:1010D00091048093900488EB0E94210890939304DC
:1010E000809392048AEB0E94210890939504809348
:1010F00094048CEB0E9421089093970480939604AB
:101100008EEB0E942108909399048093980408958F
:101110000F931F93082F162F0E94EF07812F0E9415
:10112000E707802F8F5F0E94EF070E94CE071F9175
:101130000F9108950F931F93162F042F0E94EF070E
:10114000812F0E94E707802F0E94E70784E98093A0
:10115000BC001F910F91089564E670E080E090E07C
:101160000E94151E8CE362E040E00E949A080895F8
:1011700064E670E080E090E00E94151E80ED6EE372
:1011800040E80E949A0865E070E080E090E00E94EC
:10119000151E80ED66E14BE10E949A0865E070E063
:1011A00080E090E00E94151E80ED6EE343E00E9417
:1011B0009A0864E670E080E090E00E94151E0895B1
:1011C0006AE070E080E090E00E94151E80E86DE02B
:1011D00040E10E949A0865E070E080E090E00E94A3
:1011E000151E80E860E20E948808482F4F7080E852
:1011F00060E20E949A0865E070E080E090E00E9462
:10120000151E80E860E30E948808482F4C7F4260EA
:1012100080E860E30E949A0865E070E080E090E07A
:101220000E94151E80E092E090935D0480935C0420
:1012300008958EEE64EF44EF0E949A088EEE0E94AD
:10124000EF0786EF0E94E70784E98093BC000895CA
:101250008EEE64EF4EE20E949A088EEE0E94EF0737
:1012600086EF0E94E70784E98093BC0008952091EF
:101270006004309161044091620450916304809154
:10128000A7049091A804A091A904B091AA042817DA
:1012900039074A075B0708F497C02093A7043093E7
:1012A000A8044093A9045093AA048CE08093B8004A
:1012B0008091A6048130E1F0813030F0823001F17C
:1012C000833009F081C038C00E9428098091A604AB
:1012D0008F5F8093A6048091A7049091A804A091A9
:1012E000A904B091AA0488509E4EAF4FBF4F1BC0B7
:1012F0000E9405088091A6048F5F8093A60408953C
:101300000E9419098091A6048F5F8093A6048091A2
:10131000A7049091A804A091A904B091AA048057B1
:101320009A49AF4FBF4F8093A7049093A804A0930E
:10133000A904B093AA0408950E9411080E942F05E1
:101340006091AB047091AC048091AD049091AE04B7
:101350000E94512220E836EE45EC57E40E94B62167
:1013600021EB3CED42E45EE30E946C239B01AC0167
:1013700060E070E080E89FE30E94512120ED38E4B6
:1013800047E85AE40E9409230E941E226093D20378
:101390007093D3038093D4039093D5031092A60443
:1013A0008091A7049091A804A091A904B091AA04E7
:1013B000805E914BAF4FBF4F8093A7049093A804DA
:1013C000A093A904B093AA0408956AE070E080E0B5
:1013D00090E00E94151E0E9434080E94280965E0D2
:1013E00070E080E090E00E94151E0E9405080895BC
:1013F00068EC70E080E090E00E94151E2C9A64E694
:1014000070E080E090E00E94151E4498459810928C
:10141000B9008CE08093B80084E08093BC0064E65F
:1014200070E080E090E00E94151E0E94B8080E94C3
:10143000E5090E94E00860915C0470915D0480E021
:1014400090E00E944F2225E733E948ED5EE30E94D9
:1014500009230E941E2270935F0460935E040E9421
:10146000AC0808950F931F93CF93DF93082F162F87
:101470000E94EF07812F0E94E707802F8F5F0E9455
:10148000EF07C2E6D3E00E94DF07899383E0C73607
:10149000D807C9F70E94CE078883DF91CF911F91AB
:1014A0000F9108958CE363E00E94320A90916203E9
:1014B00080E02091630330E0822B932B909377039D
:1014C000809376039091660380E02091670330E07B
:1014D000822B932B909379038093780390916403EC
:1014E00080E02091650330E0822B932B90958195CD
:1014F0009F4F90937B0380937A0308958CE08093B1
:10150000B80080ED6DE10E94320A9091640380E0A2
:101510002091650330E0822B932B64E070E00E9401
:10152000DA2470937F0460937E049091620380E0DC
:101530002091630330E0822B932B64E070E00E94E3
:10154000DA24709561957F4F7093810460938004D5
:101550009091660380E02091670330E0822B932B0B
:1015600064E070E00E94DA24709561957F4F70937B
:101570008304609382040E941F0708951F920F92B4
:101580000FB60F9211240F931F932F933F934F93F6
:101590005F936F937F938F939F93AF93BF93EF93DB
:1015A000FF9319B100913405012778941093340505
:1015B0000E94EF1DAB01E02FF0E0DF01A470B070DE
:1015C00002FF18C012FD12C08091390590913A05B2
:1015D0009A01281B390BC9018558934083519540C6
:1015E00048F430934A022093490204C070933A05AC
:1015F00060933905E4FF18C014FD12C080913D05C9
:1016000090913E059A01281B390BC90185589340DA
:101610008351954048F430934E0220934D0204C00C
:1016200050933E0540933D05E5FF18C015FD12C0DF
:1016300080913F05909140059A01281B390BC90103
:10164000855893408351954048F43093500220933D
:101650004F0204C05093400540933F05E6FF18C079
:1016600016FD12C080914105909142059A01281BF8
:10167000390BC901855893408351954048F4309304
:1016800052022093510204C05093420540934105F9
:1016900007FF18C017FD12C08091430590914405C3
:1016A0009A01281B390BC9018558934083519540F5
:1016B00048F4309354022093530204C050934405DD
:1016C00040934305AB2BA1F080916003909161039F
:1016D000459754F0809160039091610344979093F3
:1016E00061038093600304C0109261031092600351
:1016F000FF91EF91BF91AF919F918F917F916F91EA
:101700005F914F913F912F911F910F910F900FBEBD
:101710000F901F9018952F923F924F925F926F9269
:101720007F928F929F92AF92BF92CF92DF92EF9271
:10173000FF920F931F93DF93CF93CDB7DEB72C9714
:101740000FB6F894DEBF0FBECDBF0E94EF1D7B0128
:101750008C018091840590918505B701681B790BF8
:1017600080E090E00E944F2229E53BE34EEA51E3FE
:101770000E9409233B014C01F0928505E09284050B
:1017800050905C0420905D047E010894E11CF11CE3
:1017900056E8C52E55E0D52EAA24BB2400E010E063
:1017A000F801E258FB4F60817181882777FD8095B1
:1017B000982F0E945122A40193010E940923F7014E
:1017C00061937193819391937F01F601208131811F
:1017D000F801EC57FB4F80819181820F931F44E009
:1017E000359527954A95E1F7821B930BF601819376
:1017F00091936F01B4E095958795BA95E1F7F8015B
:10180000E659FC4F918380839C01A3E0220F331F94
:10181000AA95E1F7880F991F820F931F652D722DEE
:101820000E94DA24669FC001679F900D769F900DFD
:101830001124A80EB91E0E5F1F4F0630110509F0C6
:10184000AFCF88E995E08E010F5F1F4FB8010E946E
:10185000BF018CE895E0B8010E94BF0120915E04B1
:1018600030915F0480916A0390916B0397FF03C0EE
:10187000909581959F4F82179307BCF480916C03DC
:1018800090916D0397FF03C0909581959F4F8217AC
:1018900093075CF480916E0390916F0318161906FC
:1018A00024F481E08093610202C0109261028BED0A
:1018B0009FEFA80EB91E9FE9A916B10460F47090BD
:1018C0006102EAE68E2EE3E09E2E78E9A72E75E00F
:1018D000B72E662405C080916102882381F73AC043
:1018E000F401C080D180772039F0F2E06F1621F446
:1018F000852D922D9C016901F501608171818281A4
:10190000938120E030E04BE953E40E9409237B01FE
:101910008C01B601882777FD8095982F0E9451226F
:101920009B01AC01C801B7010E94522128E03AEBAB
:1019300042E55BE30E940923F50161937193819372
:1019400091935F01639422E030E0820E931E33E0B6
:10195000631631F66CE8C62E65E0D62E56E7A52E46
:1019600053E0B52EF601608171818281938120E080
:1019700030E048E453E40E9409237B018C01F50127
:10198000619171915F01882777FD8095982F0E9462
:1019900051229B01AC01C801B7010E9452212EE5E2
:1019A00036E043EA5BE30E940923F60161937193F9
:1019B000819391936F01F8E9CF16F5E0DF0691F678
:1019C000A0909805B0909905C0909A05D0909B057D
:1019D000E090A005F090A1050091A2051091A3054B
:1019E000C601B501A80197010E9421019093A803A7
:1019F0008093A70320909C0530909D0540909E0504
:101A000050909F05C201B101A80197010E942101D8
:101A10009093AA038093A903609094057090950514
:101A20008090960590909705C601B501A401930199
:101A30000E9409235B016C01C801B70120918C054C
:101A400030918D0540918E0550918F050E9409239C
:101A50009B01AC01C601B5010E9451215B016C01E3
:101A6000C801B701209190053091910540919205F0
:101A7000509193050E9409237B018C01C201B101A1
:101A8000A40193010E9409239B01AC01C801B70185
:101A90000E9451219B01AC01C601B5010E942101A8
:101AA0006AE070E00E94DA247093810360938003FF
:101AB0002C960FB6F894DEBF0FBECDBFCF91DF914D
:101AC0001F910F91FF90EF90DF90CF90BF90AF905C
:101AD0009F908F907F906F905F904F903F902F904E
:101AE00008950F931F93CF93DF93CDE3D2E002E8E5
:101AF00013E0F801619171918F01E3E075956795AD
:101B0000EA95E1F789910E94D51EF2E0C134DF0722
:101B100081F7DF91CF911F910F91089590938303E7
:101B2000809382039093850380938403909387032B
:101B30008093860390938903809388030E94710D9C
:101B4000089580913D0261E00E94351F80913E0220
:101B500061E00E94351F80913F0261E00E94351FC5
:101B60008091400261E00E94351F88EE93E00E9460
:101B70008E0D6CE271E080E090E00E94151E0895E9
:101B8000EF92FF920F931F93CF93DF93182F5898E4
:101B900086E690E00E946E1E01E0C0E0D0E0E12EFB
:101BA000FF24802F90E08E219F21892B11F0589ADD
:101BB00001C0589886E690E00E946E1E000F2196A4
:101BC000C830D10571F7589A86E690E00E946E1EE3
:101BD000DF91CF911F910F91FF90EF900895813089
:101BE00029F48EEF0E94C00D80E804C08EEF0E94A1
:101BF000C00D80EC0E94C00D0895CF93DF93EC01DF
:101C000003C021960E94C00D88818823D1F7DF91FF
:101C1000CF91089584E16EE141E00E94F1068FE9E1
:101C200096E00E94412080E061E00E94351F81E043
:101C30000E94EF0D80E091E00E94FD0D64EC79E0E0
:101C400080E090E00E94151E0895AF92BF92CF925F
:101C5000DF92EF92FF920F931F93CF93DF93C7E230
:101C6000D3E001E01A8188819981602F70E0412FD3
:101C700050E02CE031E00E94D400010F239623E0D5
:101C8000CE34D20779F78091C103A82EBB2480916E
:101C9000C003E82EFF2400E010E0FFEACF2EF5E0BD
:101CA000DF2EC0E0D0E0CC9FC001CD9F900DDC9F27
:101CB000900D11244997FC01EA9DC001EB9D900D08
:101CC000FA9D900D11248C53964F8C9FB0018D9FDF
:101CD000700D9C9F700D1124882777FD8095982F9B
:101CE000A80197010E94A72422EE34E040E050E0D2
:101CF0000E940F25F601219331936F012196C73081
:101D0000D10589F6DF91CF911F910F91FF90EF9050
:101D1000DF90CF90BF90AF9008950F931F93CF9314
:101D2000DF93C4E2D3E000E01A8168817981802FDB
:101D300090E0412F50E024E131E00E94F000010FDB
:101D4000239683E0CE34D80779F70E94250E8FE0E2
:101D500064E141E00E94F106DF91CF911F910F9164
:101D60000895CF93DF9380916803882309F0E1C23F
:101D70008FE996E00E946B20892B09F4DAC28FE983
:101D800096E00E9496208F34910509F49AC180351F
:101D900091054CF48534910509F4C8C28D34910540
:101DA00009F0C7C209C08335910509F4B8C2873567
:101DB000910509F0BEC249C28DE48093DC0383E142
:101DC0008093DD03AAE6B3E022E08C9111969C910A
:101DD0001197E22FF0E0E452FC4F80832F5FE22F57
:101DE000F0E0E452FC4F90832F5F129683E0A0371F
:101DF000B80759F7C0E7D3E028E08991999168E0E6
:101E000070E00E94DA24E22FF0E0E452FC4F60839D
:101E10002F5FE22FF0E0E452FC4F70832F5F83E0EE
:101E2000C637D80751F7C6E7D3E02EE089919991DC
:101E300063E070E00E94DA24E22FF0E0E452FC4F0D
:101E400060832F5FE22FF0E0E452FC4F70832F5F3E
:101E500083E0CC37D80751F760917C0370917D0304
:101E600080917E0390917F032AE030E040E050E0D3
:101E70000E940F252093F0033093F103809180039B
:101E8000909181038093F2039093F303A5E5B2E070
:101E900028E18C9111969C911197E22FF0E0E45289
:101EA000FC4F80832F5FE22FF0E0E452FC4F9083E1
:101EB0002F5F129682E0AD35B80759F7A2E8B3E07C
:101EC00020E28C9111969C911197E22FF0E0E45260
:101ED000FC4F80832F5FE22FF0E0E452FC4F9083B1
:101EE0002F5F129683E0A239B80759F7A2E9B3E051
:101EF00020E38C9111969C911197E22FF0E0E4522F
:101F0000FC4F80832F5FE22FF0E0E452FC4F908380
:101F10002F5F129683E0A23AB80759F78EE08093BC
:101F20001C049091A303990F8091A403880F880F3C
:101F3000892B9091A203892B80931D048091A50386
:101F40009091A60380931E0490931F048091A70391
:101F50009091A8036AE070E00E94DA246093200464
:101F6000709321048091A9039091AA036AE070E024
:101F70000E94DA24609322047093230483E0809308
:101F8000240420E030E099E4E92FF0E0E452FC4F33
:101F9000D901A555BC4F8C9180839F5FE92FF0E05C
:101FA000E452FC4FD901AE54BC4F8C9180839F5FAB
:101FB000E92FF0E0E452FC4FD901A754BC4F8C91BB
:101FC00080832F5F3F4F9F5F25303105E9F6809179
:101FD000B003809334048091B703809335048091DB
:101FE000B103809336048091C003809337048091BD
:101FF000C103809338048091C20380933904809197
:10200000C30380933A048091C40380933B0420E08F
:1020100030E0E22FE05AF0E0E452FC4FD901AB533C
:10202000BC4F8C9180832F5F3F4F2830310589F75B
:102030008091CD039091CE03809344049093450406
:1020400010924604109247048091CF038093480475
:102050008091D0038093490410924A0410924B045B
:1020600010924C0410924D0410924E048091D103B2
:1020700080934F046091D2037091D3038091D40375
:102080009091D5032AE030E040E050E00E940F2517
:1020900020935004309351048091D6039091D7033C
:1020A0008093520490935304109254041092550458
:1020B00010925604109257048DE4809358048DE7D3
:1020C000ACC08FE48093DC03AAE6B3E021E08C91FE
:1020D00011969C911197E22FF0E0E452FC4F80831F
:1020E0002F5FE22FF0E0E452FC4F90832F5F1296B7
:1020F00083E0A037B80759F7A0E7B3E027E08C9159
:1021000011969C911197E22FF0E0E452FC4F8083EE
:102110002F5FE22FF0E0E452FC4F90832F5F129686
:1021200083E0A637B80759F760917C0370917D036F
:1021300080917E0390917F030E94512220E030E045
:1021400040E251E40E9409230E941E226093E903A9
:102150007093EA0380918003909181038093EB0355
:102160009093EC038091A7039091A8038093ED03D3
:102170009093EE038091A9039091AA038093EF03BB
:102180009093F003A2E8B3E025E18C9111969C9125
:102190001197E22FF0E0E452FC4F80832F5FE22F93
:1021A000F0E0E452FC4F90832F5F129683E0AE384C
:1021B000B80759F7A2E9B3E021E28C9111969C91FE
:1021C0001197E22FF0E0E452FC4F80832F5FE22F63
:1021D000F0E0E452FC4F90832F5F129683E0AE391B
:1021E000B80759F78EE0809309049091A303990FE3
:1021F0008091A403880F880F892B9091A203892BCB
:1022000080930A048091D10380930B0483E180932F
:102210000C048FE480930D0482E380936903F894A7
:102220008091C00080628093C0008091C100806274
:102230008093C1008091DC038093C60081E080938D
:10224000DB0380936803789474C08FE996E00E9462
:102250006B208197D4F3C0E0D0E08FE996E00E9434
:102260009620FE01E555FC4F80838FE996E00E94A1
:102270009620FE01EE54FC4F80838FE996E00E9489
:102280009620FE01E754FC4F80832196C530D1058E
:1022900021F78FE996E00E9496208093B0038FE9A2
:1022A00096E00E9496208093B7038FE996E00E9403
:1022B00096208093B1038FE996E00E949620809348
:1022C000C0038FE996E00E9496208093C1038FE9B6
:1022D00096E00E9496208093C2038FE996E00E94C8
:1022E00096208093C3038FE996E00E949620809306
:1022F000C403C5ECD3E08FE996E00E949620899351
:1023000083E0CD3CD807B9F78FE996E00E9496208C
:102310008FE996E00E9496200E948D0E0AC080E907
:1023200091E09093D9038093D80303C081E0809318
:10233000DA03DF91CF910895CF93DF93209160046A
:1023400030916104409162045091630480917A0459
:1023500090917B04A0917C04B0917D0428173907EB
:102360004A075B0708F4F5C0205639474E4F5F4FC8
:1023700020937A0430937B0440937C0450937D0433
:102380008CE08093B8000E94520A8091DA03813079
:10239000B1F580917A0490917B04A0917C04B09176
:1023A0007D048093760490937704A0937804B0938F
:1023B00079041092650410926404109271041092D2
:1023C000700410926B0410926A04109267041092C9
:1023D0006604109273041092720410926D041092AD
:1023E0006C041092690410926804109275041092A3
:1023F000740410926F0410926E041092DA038091AC
:102400007603909177032091640430916504821BD8
:10241000930B909377038093760380917803909148
:1024200079032091660430916704821B930B90938B
:1024300079038093780380917A0390917B032091B4
:10244000680430916904821B930B90937B03809303
:102450007A0320917604309177044091780450916A
:102460007904211531054105510509F472C08091A7
:102470007A0490917B04A0917C04B0917D04821B2E
:10248000930BA40BB50B8058934CA94CB14008F5A5
:102490001D9AC6E7D3E0A0E7B4E0EAE6F4E02881BD
:1024A00039818D919C911197281739071CF4119649
:1024B0003C932E93808191818217930714F431838A
:1024C000208322961296329683E0CC37D80739F7CC
:1024D00040C0109276041092770410927804109203
:1024E0007904809170049091710420916A04309174
:1024F0006B04820F931F62E070E00E94DA247093F5
:102500006504609364048091720490917304209137
:102510006C0430916D04820F931F62E070E00E94A2
:10252000DA24709367046093660480916E0490913E
:102530006F042091740430917504820F931F62E040
:1025400070E00E94DA2470936904609368040E942A
:102550008D0EDF91CF9108950F931F93CF93DF934B
:102560006091D8037091D9036115710509F47DC09C
:10257000E9EBF4E0C4E8D4E00FEA14E081E060396C
:10258000780721F410821182128213822881398106
:10259000442737FD4095542F80819181A281B381DA
:1025A000820F931FA41FB51F81939193A193B193A1
:1025B00019921992D8011D921D928D01B4E0E53C4B
:1025C000FB07E1F66130710509F046C06091B9047E
:1025D0007091BA048091BB049091BC0420E931E071
:1025E00040E050E00E940F253093B0042093AF04E8
:1025F0006091BD047091BE048091BF049091C004AD
:1026000020E931E040E050E00E940F253093B20411
:102610002093B1046091C1047091C2048091C304FD
:102620009091C40420E931E040E050E00E940F2581
:1026300080915C0490915D04281B390B3093B404A5
:102640002093B3041092B6041092B5041092B8040B
:102650001092B7040E948D0E8091D8039091D903F7
:1026600001979093D9038093D8038091840490912B
:1026700085042091AF043091B004821B930B90939A
:10268000850480938404809186049091870420912E
:10269000B1043091B204821B930B90938704809312
:1026A000860480918804909189042091B30430912C
:1026B000B404821B930B9093890480938804DF9168
:1026C000CF911F910F9108958CE08093B80080E81E
:1026D00062E00E94320A9091630380E020916203DD
:1026E00030E0822B932B60E270E00E94DA24709538
:1026F00061957F4F70938504609384049091650386
:1027000080E02091640330E0822B932B60E270E044
:102710000E94DA24709561957F4F709387046093CF
:1027200086049091670380E02091660330E0822B5D
:10273000932B60E270E00E94DA2470938904609326
:1027400088040E94AC120895CF92DF92EF92FF921C
:102750001F93CF93DF930E940A0EE090A802F0909F
:10276000A902C0909002D090910210E08AE064E14A
:1027700041E00E94F10684E595E060E171E00E948D
:10278000CD0085E695E060E171E00E94CD00412F2B
:1027900050E0FA01EE0FFF1FE40FF51FEE0FFF1FD1
:1027A000E257FD4F6081262F3181C901DC0105C050
:1027B000F0E0EC5AFA4F80831196EA2FE61B8C91D9
:1027C0008823B1F7FA01EE0FFF1FE40FF51FEE0F9C
:1027D000FF1FDF01A257BD4F14960D90BC91A02D95
:1027E0008D919C911197E057FD4FEC012881398123
:1027F0008081918113966C91139712964C91F901F7
:10280000099581E00E94EF0D84E595E00E94FD0DA1
:1028100082E00E94EF0D85E695E00E94FD0D20E02C
:1028200030E08FB7F894F901EA57FD4FE081F0E00E
:10283000EE0FFF1FEB5BFD4F0190F081E02D8FBF8E
:10284000789447E0ED36F40710F082E001C080E0B4
:10285000D901AA58BA4F90E0EC54F44008F491E042
:10286000892B8C932F5F3F4F23303105D1F6809118
:102870007805982F80FF04C08091770581FD6DC099
:1028800091FF06C08091770581FF02C012E066C00B
:102890008091770580FF05C01F5F193108F065CF73
:1028A00065CF81FF05C0115008F060CF18E15ECF01
:1028B0008091760580FF29C0812F90E0FC01EE0F0A
:1028C000FF1FE80FF91FEE0FFF1FDF01A257BD4FDB
:1028D00014960D90BC91A02D8D919C911197E0576D
:1028E000FD4F14966C916195DC0112962D913C91EF
:1028F000139780819181F9010995112309F036CF51
:10290000E6018881F701808331CF81FF88CF812F55
:1029100090E0FC01EE0FFF1FE80FF91FEE0FFF1F05
:10292000DF01A257BD4F14964D915C911597EA01B6
:10293000A881B981E057FD4F12962D913C911397D4
:10294000808191816C81F9010995112309F00ECFE5
:10295000F6018081D7018C9309CF10E084E16EE10C
:1029600041E00E94F106112339F481E291E00E94D6
:10297000FD0D0E948D0E04C081E391E00E94FD0DCB
:1029800082E00E94EF0D8FE391E00E94FD0D8FE940
:1029900096E040E052EC61E070E00E94E41FDF91BD
:1029A000CF911F91FF90EF90DF90CF900895DF932C
:1029B000CF930F92CDB7DEB7CE01019660E070E005
:1029C00041E050E02CE031E00E94D40099818091F8
:1029D0006202981709F449C028E22093AB039EE1F4
:1029E0009093B20387E18093B9032093AC03909353
:1029F000B3038093BA0385E58093AD031092B403CB
:102A00001092BB038FE28093AE031092B503109235
:102A1000BC031092AF031092B6031092BD038AE577
:102A20008093B0038DE28093B7032093B10380932A
:102A3000C00381E48093C1031092C2031092C303C8
:102A40001092C403E5ECF3E0119283E0ED3CF8074B
:102A5000D9F71092B6041092B5041092B8041092EF
:102A6000B7041092AE050E948D0E0F90CF91DF91AA
:102A700008958FE996E040E052EC61E070E00E943A
:102A8000E41F8DE061E00E94351F8CE061E00E9450
:102A9000351F88E061E00E94351F2C980E94A10D2F
:102AA0000E94250E0E94D71484EF8BB9EDE6F0E06A
:102AB0008081846F808384E0809368000E94F8099D
:102AC0000E94EF1D7093C1056093C00580E991E0FD
:102AD0009093C6048093C50408952F923F924F921D
:102AE0005F926F927F928F929F92AF92BF92CF929E
:102AF000DF92EF92FF920F931F93CF93DF9380901B
:102B00009803909099032CED821625E0920614F418
:102B100044E61CC02091C40340ED841647E09406AF
:102B20009CF4C4018C5D954030E0BC01629FC00103
:102B3000639F900D729F900D112464EF71E00E94CD
:102B4000C62444E6461B02C044E6421B8091C203F1
:102B5000282E33248091C303482E552472E9672E12
:102B600073E0772E6BE4A62E65E0B62ECC24DD2430
:102B7000F301E080F180FDEDEF16F5E0FF0634F0A3
:102B800020EDE21627E0F20644F40AC08CED95E051
:102B90008E199F09845F91401CF0C4EFD1E00EC0F4
:102BA0006DEDE61665E0F60624F0C7018C5D9540F4
:102BB00004C08CED95E08E199F09EC0172E0C716F8
:102BC00009F445C0CE0164E670E00E94C624FB0112
:102BD000EE0FFF1FE155FA4F00811181FB01EE0F4F
:102BE000FF1FEF54FA4F20813181201B310BFB0175
:102BF00064E670E0E69FC001E79F900DF69F900DA0
:102C00001124FE01E81BF90B2E9FC0012F9F900D90
:102C10003E9F900D11240E94C624060F171FF50138
:102C200011830083C29DC001C39D900DD29D900D64
:102C3000112464EF71E00E94C62484E6861B849F01
:102C4000C001112464E670E00E94C62411C0F501A1
:102C5000D183C083C49DC001C59D900DD49D900DAE
:102C6000112464EF71E00E94C624F4E6F61B6F2F76
:102C7000062F10E096012A533A4FF601E555FC4F16
:102C8000808190E0BC01069FC001079F900D169FB8
:102C9000900D112464E670E00E94C624F90160835F
:102CA000960127533A4FF601E754FC4F808190E09C
:102CB000BC01069FC001079F900D169F900D112427
:102CC00064E670E00E94C624F9016083FCEDEF1613
:102CD000F5E0FF0644F4F50180819181909581959E
:102CE0009F4F918380830894C11CD11C62E070E0E7
:102CF000660E771EA60EB71E73E0C716D10409F044
:102D000037CFB401882777FD8095982F2CEB32E0E0
:102D100040E050E00E94A724605D7F4B8B409040D4
:102D200024E833E040E050E00E940F2522583B4F5A
:102D300030935205209351051091080681E10E94BD
:102D4000B31EE12FF0E0E770F070EE0FFF1FE850C8
:102D5000FA4F918380831F5F10930806E8EFF5E038
:102D600020E030E081919191280F391F86E0E83012
:102D7000F807C1F7C90161E470E00E94C6246093BE
:102D8000D103862F80518C3530F0109209061092B5
:102D9000F70528980BC0683610F081E005C064364E
:102DA00010F082E001C084E080930906609109067A
:102DB000662309F441C08091F705E0906004F0902B
:102DC0006104009162041091630420910E06309119
:102DD0000F064091100650911106882369F0205784
:102DE0003F424C4F5F4F2E153F054007510720F5DE
:102DF0001092F705289818C080E894E8AEE1B0E09A
:102E000004C0B595A795979587956A95D2F7820FD7
:102E1000931FA41FB51F8E159F05A007B10760F46F
:102E200081E08093F705289AE0920E06F0920F0653
:102E300000931006109311068091D8039091D90346
:102E4000892B31F48091C5049091C604892B11F02F
:102E50001D9A09C08091C305813009F42D98809195
:102E6000530581112D9A20916004309161044091A5
:102E700062045091630480910A0690910B06A09120
:102E80000C06B0910D0682179307A407B507B8F496
:102E900080916102882381F41092C3051D9A205EFF
:102EA0003E45484F5F4F20930A0630930B064093F0
:102EB0000C0650930D0603C081E08093C3050E9469
:102EC000B10EDF91CF911F910F91FF90EF90DF90A6
:102ED000CF90BF90AF909F908F907F906F905F90BA
:102EE0004F903F902F900895CF92DF92EF92FF92F4
:102EF0000F931F93DF93CF9300D000D000D0CDB7B6
:102F0000DEB70E9464130E948B0B0E9475020E9420
:102F10007E0A80917E0490917F049A8389838091B8
:102F20008004909181049C838B8380918204909192
:102F300083049E838D830E94EF1D6093A40570938C
:102F4000A5058093A6059093A7050E946D150E9484
:102F5000EF1D2091A4053091A5054091A605509143
:102F6000A705621B730B840B950B6A587240804057
:102F7000904068F30E947E0AE8EAEE2EE5E0FE2E1D
:102F800000E010E06E010894C11CD11CF601E00FB6
:102F9000F11FD801A258BB4F208131818D919C91A6
:102FA000280F391FF801E059FC4FD7018D919C91F2
:102FB0000196820F931F63E070E00E94DA24718310
:102FC0006083C90162E070E00E94DA24F701619336
:102FD00071937F010E5F1F4F06301105B9F62696DB
:102FE0000FB6F894DEBF0FBECDBFCF91DF911F911A
:102FF0000F91FF90EF90DF90CF9008952F923F9226
:103000004F925F926F927F928F929F92AF92BF92F8
:10301000CF92DF92EF92FF920F931F93DF93CF93A4
:10302000CDB7DEB769970FB6F894DEBF0FBECDBF40
:1030300020916004309161044091620450916304D6
:103040008091D6059091D705A091D805B091D9056A
:1030500082179307A407B50708F022C2205E314B00
:103060004F4F5F4F2093D6053093D7054093D80537
:103070005093D9050E94AD04809160039091610343
:10308000C39764F180915305813041F58CED95E053
:10309000909393038093920390939503809394036A
:1030A000909397038093960386E495E09093990319
:1030B0008093980380916003909161038B519440B9
:1030C00024F0109253051092BD058091BE05909199
:1030D000BF0501969093BF058093BE058091600364
:1030E00090916103019690936103809360038091B6
:1030F00098039091990334E08C3493070CF0B2C09C
:103100001092DF051092DE051092E1051092E005A5
:103110001092E3051092E2051092DB051092DA0599
:103120001092DD051092DC053091F6053F5F30937B
:10313000F605409196035091970364E04C3456078E
:10314000ACF480919403909195038C54944074F462
:1031500080915305882351F4343109F0E4C080E9AB
:1031600091E09093C6048093C504DDC0B7E04D366E
:103170005B07ECF080919403909195038D569740F6
:10318000B4F080915305882391F4343109F0CBC019
:103190008CED95E090935602809355020E94A41303
:1031A0000E94EF1D7093C1056093C005BCC02091C3
:1031B000CA032223C1F030E08091C20590E02823A9
:1031C0003923232B41F08091BD05882321F081E034
:1031D00080935305A6C080915305882309F4A1C0AC
:1031E000109253059EC0F4E04C345F073CF0809190
:1031F0009203909193038C54944054F4809153051E
:10320000813031F4343109F08EC0109253058BC0F7
:103210004D56574044F480919203909193038D56FC
:1032200097400CF47EC080919403909195038C5646
:1032300097400CF076C080915305882309F071C047
:103240008091C5049091C604892B09F06AC08091D1
:10325000C305813009F065C0343109F064C0809342
:10326000530561C08D5697400CF45DC080915305A5
:10327000882309F058C080919603909197038C544D
:103280009440BCF480919403909195038C549440A5
:1032900084F48091F605843131F480E991E09093D3
:1032A000D9038093D8038091F6058F5F8093F6054C
:1032B0003AC0809194039091950337E08D3693073F
:1032C00034F08091B7049091B804029608C08C54F1
:1032D000944054F48091B7049091B804029790936D
:1032E000B8048093B7041AC080919203909193031D
:1032F00057E08D36950734F08091B5049091B6046F
:10330000029608C08C54944064F48091B504909166
:10331000B60402979093B6048093B5040E948D0E74
:1033200002C01092F60540919A0350919B03CA0186
:10333000855195408F58914010F0F0E001C0F2E0C7
:10334000B6E0453A5B0714F0E4E001C0E0E020910C
:103350009C0330919D0365E02431360714F070E042
:1033600001C078E0C901855195408F58914010F017
:1033700060E001C060E1255A364014F490E001C0DD
:1033800090E280E0445155400CF481E08F0F8E0FA5
:10339000870F860F890F8093C20590E02091C503A7
:1033A00030E082239323892B39F48091600390913C
:1033B0006103C3970CF4C8C38091A203882359F416
:1033C0001092DB051092DA051092DD051092DC05F3
:1033D00081E08093A2032091CA0330E08091C2056E
:1033E00090E028233923232B19F481E08093BD0535
:1033F0002091C60330E08091C20590E02823392354
:10340000232B81F18091A303882371F581E08093C0
:10341000A30380917C0390917D03A0917E03B091E2
:103420007F038093CC059093CD05A093CE05B093F8
:10343000CF0580915105909152059093D5058093C9
:10344000D4051092D3051092D2051092D105109296
:10345000D0051092790510927A0510927B05109292
:103460007C0502C01092A3032091C70330E0809135
:10347000C20590E028233923232B81F08091A403F7
:10348000882371F481E08093A4038091800390915C
:1034900081039093C5058093C40502C01092A403D4
:1034A0000E949C110E9437090E9474170E94EF1D10
:1034B000609360047093610480936204909363044A
:1034C0009B014091C0055091C105241B350B3093E1
:1034D000A6032093A5037093C1056093C005E091F6
:1034E0004F05F0915005CF018B5B9F4F8B389105B5
:1034F00098F58091A403882379F12091800330917D
:1035000081038091C4059091C505281B390B4FEFAD
:103510002D34340714F428593E4F243B310514F060
:1035200028563140809161028823F1F08091B103E7
:1035300090E0DC012A9FC0012B9F900D3A9F900DD7
:10354000112462EE7FEF0E94DA24E60FF71FF0935A
:103550005005E0934F0508C080918003909181034E
:103560009093C5058093C4058091A303882309F433
:10357000FAC020915105309152058091D405909167
:10358000D505281B390B37FF03C0309521953F4FD8
:103590002531310534F01092A3031092D305109217
:1035A000D2052091CC053091CD054091CE055091AA
:1035B000CF0580917C0390917D03A0917E03B09113
:1035C0007F03281B390B4A0B5B0B2831BCEF3B07F1
:1035D000BFEF4B07BFEF5B072CF468E1662E6CEF83
:1035E000762E0FC0DA01C901293EE3E03E07E0E094
:1035F0004E07E0E05E0724F088EE93E0A0E0B0E044
:103600003C016091D2057091D305660D771DF5E7F9
:1036100061337F0714F060E375E7FB012AE8603D42
:10362000720714F4E0EDFAE8F093D305E093D205C5
:103630001091AE032091B5038091790590917A05A0
:10364000A0917B05B0917C05880F991FAA1FBB1F15
:10365000803D3AE893073FEFA3073FEFB3072CF411
:1036600040ED842E4AE8942E0FC0BC01CD01613399
:1036700045E7740740E0840740E0940724F060E3E6
:1036800075E780E090E04B018091D0059091D105E5
:103690007401E81AF90A9092D1058092D005BF0111
:1036A000882777FD8095982F30E040E050E00E9419
:1036B000A72420E43CE940E050E00E940F25590196
:1036C0006A01812F90E0DC016A9EC0016B9E900D23
:1036D0007A9E900D112464E670E00E94DA246B015A
:1036E000CA0CDB1C0027F7FC0095102F2091BD03AE
:1036F00030E040E050E0C801B7010E94A72420E17B
:1037000030E040E050E00E940F25C20ED31EB4010D
:10371000882777FD8095982F2091AF0330E040E017
:1037200050E00E94A72420E233E040E050E00E94F5
:103730000F25C21AD30AB5E6CB16D1041CF034E625
:10374000C32ED12CB601EFEF6C397E0714F46CE96F
:103750007FEF8091D4059091D505860F971F9093A8
:10376000520580935105F091A203F9838091B00333
:10377000282F30E040E050E02C8B3D8B4E8B5F8B50
:103780008091B703282F30E040E050E0288B398B40
:103790004A8B5B8B49EC55E05F874E8780EF95E065
:1037A0009D878C87AAEEB5E0BB87AA87E4EEF5E09B
:1037B000F987E88726EC35E03F832E8340E753E026
:1037C0005D834C832BE4222E25E0322E9AED492E88
:1037D00095E0592E8EEDA82E85E0B82E8BEA93E069
:1037E0009B838A8366247724CC24DD2499819130BD
:1037F00009F061C0A2E06A1609F45DC0F101208100
:103800003181220F331FF1E0253F3F0714F024EFF1
:1038100031E0F601EB54FB4FD601A955BC4F0190A6
:10382000F081E02D8D919C91E81BF90BC9012EEFE1
:103830008C30920714F48CE09EEF8F01080F191F53
:10384000B801882777FD8095982F2C893D894E896E
:103850005F890E94A72424E630E040E050E00E9407
:103860000F257901D2016D917C91600F711FB7E234
:1038700061317B0714F060E177E29B01E8ED603F86
:103880007E0714F420EF38EDD2012D933C93B9015B
:10389000882777FD8095982F288939894A895B89FF
:1038A0000E94A7241CE095958795779567951A95B2
:1038B000D1F74B016CC0F101E080F180C701835A60
:1038C0009E4FAA81BB811C918B5B924078F4E0E50E
:1038D000F0E0EE9EC001EF9E900DFE9E900D112433
:1038E000612F70E00E94DA24CB0112C0B701882753
:1038F00077FD8095982F20E530E040E050E00E9471
:10390000A724212F30E040E050E00E940F25C9019C
:10391000AC81BD812D913C91F50160817181621B6B
:10392000730B680F791FFEE361387F0714F060E8BE
:103930007EE3CB0141EC6038740714F480E891EC2D
:10394000D5018D939C93C90137FF03C09095819554
:103950009F4F815892401CF0F50111821082F301B3
:10396000EE54FC4F208130E0D5018D919C916DE7A4
:1039700070E00E94DA24269F4001279F900C369F1A
:10398000900C1124B6E095948794BA95E1F7EC81F8
:10399000FD8100811181C80181569F4FAE81BF8199
:1039A0006C918F539140A0F4862F90E0FC01E09F32
:1039B000C001E19F900DF09F900D112460EB7FEF0F
:1039C0000E94DA249B012E0D3F1D398F288F15C0D0
:1039D00070E080E090E09801442737FD4095542F37
:1039E0000E94A72420EB3FEF4FEF5FEF0E940F25CF
:1039F000C701820F931F998F888FAC85BD858D91EC
:103A00009C9111979801281B390B0D931C93EA8503
:103A1000FB8580819181A885B985ED91FC911197F5
:103A2000E80FF91FE20FF31F8D939C93AA85BB85C6
:103A30002D933C93CF0181589D4FAE85BF852C912E
:103A40008F5F944078F4822F90E0E89FB001E99F67
:103A5000700DF89F700D1124A5E075956795AA95D6
:103A6000E1F711C0BF01882777FD8095982F30E0DE
:103A700040E050E00E94A724F5E095958795779562
:103A80006795FA95D1F7F601EB5BFA4F288D398DE2
:103A9000280D391D261B370B318320830894611CA8
:103AA000711C42E050E0C40ED51E8E859F850196A4
:103AB0009F878E87AC85BD851296BD87AC87EA85CA
:103AC000FB853296FB87EA87288539852E5F3F4F35
:103AD000398728874E815F814F5F5F4F5F834E83B9
:103AE0008C819D8102969D838C83A2E0B0E02A0E9A
:103AF0003B1E4A0E5B1EAA0EBB1EEA81FB8131965D
:103B0000FB83EA83F6E0CF16D10409F06FCE0E9462
:103B10000E040E94710D69960FB6F894DEBF0FBEB9
:103B2000CDBFCF91DF911F910F91FF90EF90DF906C
:103B3000CF90BF90AF909F908F907F906F905F904D
:103B40004F903F902F9008951092A20344CC1F9263
:103B50000F920FB60F9211242F933F938F939F9341
:103B6000AF93BF938091160690911706A091180607
:103B7000B091190630911A060196A11DB11D232F8F
:103B80002D5F2D3720F02D570196A11DB11D2093DB
:103B90001A068093160690931706A0931806B09302
:103BA00019068091120690911306A0911406B09107
:103BB00015060196A11DB11D809312069093130660
:103BC000A0931406B0931506BF91AF919F918F916A
:103BD0003F912F910F900FBE0F901F9018959FB798
:103BE000F8942091120630911306409114065091DA
:103BF000150686B5A89B06C08F3F21F02F5F3F4F6B
:103C00004F4F5F4F9FBF542F432F322F2227280F34
:103C1000311D411D511D82E0220F331F441F551FCE
:103C20008A95D1F7B901CA0108959B01AC017FB70C
:103C3000F8948091120690911306A0911406B09109
:103C4000150666B5A89B05C06F3F19F00196A11D2A
:103C5000B11D7FBFBA2FA92F982F8827860F911DDE
:103C6000A11DB11D62E0880F991FAA1FBB1F6A9595
:103C7000D1F7BC012DC0FFB7F89480911206909146
:103C80001306A0911406B0911506E6B5A89B05C0D1
:103C9000EF3F19F00196A11DB11DFFBFBA2FA92F4B
:103CA000982F88278E0F911DA11DB11DE2E0880F6E
:103CB000991FAA1FBB1FEA95D1F7861B970B885E39
:103CC0009340C8F2215030404040504068517C4FF2
:103CD000211531054105510571F60895019739F017
:103CE000880F991F880F991F02970197F1F7089580
:103CF000789484B5826084BD84B5816084BD85B5C7
:103D0000826085BD85B5816085BDEEE6F0E080818D
:103D100081608083E1E8F0E01082808182608083AE
:103D2000808181608083E0E8F0E080818160808331
:103D3000E1EBF0E0808184608083E0EBF0E0808163
:103D400081608083EAE7F0E0808184608083808105
:103D500082608083808181608083808180688083AD
:103D60001092C1000895982F8E3008F09E509770E1
:103D7000809185028295880F880F807C892B8093A3
:103D80007C0080917A00806480937A0080917A0030
:103D900086FDFCCF2091780040917900942F80E03F
:103DA00030E0282B392BC90108951F93CF93DF935F
:103DB000182FEB0161E00E94351F209709F44AC0DB
:103DC000CF3FD10509F449C0E12FF0E0E05DFE4F9F
:103DD00084918330C1F0843028F4813051F08230F6
:103DE000B1F50CC0863019F1873049F1843079F58E
:103DF00014C084B5806884BDC7BD33C084B58062FB
:103E000084BDC8BD2EC080918000806880938000F2
:103E1000D0938900C093880024C080918000806284
:103E200080938000D0938B00C0938A001AC0809149
:103E3000B00080688093B000C093B30012C080913E
:103E4000B00080628093B000C093B4000AC0C03854
:103E5000D1051CF4812F60E002C0812F61E00E9437
:103E60005B1FDF91CF911F910895482F50E0CA0149
:103E7000845E9E4FFC012491485F5E4FFA0184915D
:103E80008823C1F0E82FF0E0EE0FFF1FE651FF4F4F
:103E9000A591B491662341F49FB7F8948C91209535
:103EA00082238C939FBF08959FB7F8948C91822BA7
:103EB0008C939FBF0895482F50E0CA01805D9E4FAC
:103EC000FC012491CA01845E9E4FFC013491485F3D
:103ED0005E4FFA019491992309F444C0222351F1D1
:103EE000233071F0243028F42130A1F0223011F574
:103EF00014C02630B1F02730C1F02430D9F404C00A
:103F0000809180008F7703C0809180008F7D8093A7
:103F1000800010C084B58F7702C084B58F7D84BDCA
:103F200009C08091B0008F7703C08091B0008F7D71
:103F30008093B000E92FF0E0EE0FFF1FEC50FF4F31
:103F4000A591B491662341F49FB7F8948C91309574
:103F500083238C939FBF08959FB7F8948C91832BF4
:103F60008C939FBF08951F920F920FB60F9211244A
:103F70002F933F934F938F939F93EF93FF93409192
:103F8000C600E0919B06F0919C0631969F012F7729
:103F90003070319780919D0690919E0628173907C1
:103FA00039F0E55EF94F408330939C0620939B06E1
:103FB000FF91EF919F918F914F913F912F910F9092
:103FC0000FBE0F901F901895CF93DF93EC019A01CD
:103FD000AB01E885F985203081EE380780E048079D
:103FE00080E0580709F449C081E090E00A8802C0E7
:103FF000880F991F0A94E2F7808360E079E08DE3EF
:1040000090E00E940F252150304040405040CA01AE
:10401000B90122E030E040E050E00E940F25EC8141
:10402000FD813083EE81FF812083EA85FB8520813D
:1040300041E050E0CA010E8402C0880F991F0A9423
:10404000E2F7282B2083EA85FB852081CA010F84B3
:1040500002C0880F991F0A94E2F7282B2083EA8573
:10406000FB858081088802C0440F551F0A94E2F73F
:10407000842B8083DF91CF910895108220E130E07E
:10408000CECFFC01A285B3854C9121E030E0C9017F
:10409000068402C0880F991F0A94E2F78095842352
:1040A0008C93A285B3854C91C901078402C0880F07
:1040B000991F0A94E2F7809584238C93A285B38597
:1040C0008C91008802C0220F331F0A94E2F72095DA
:1040D00028232C930895DC011296ED91FC911397FF
:1040E000E058FF4F2191319180819181281B390B3C
:1040F0002F773070C9010895DC011296ED91FC9183
:104100001397EE57FF4F2081318192918291E058B1
:10411000F0408217930719F42FEF3FEF05C0E20F2D
:10412000F31F8081282F30E0C9010895DC01129629
:10413000ED91FC911397DF01AE57BF4F2D913C914C
:104140001197E058FF4F80819181E058F04082172D
:10415000930719F42FEF3FEF0BC0E20FF31F80819D
:104160002F5F3F4F2F7730702D933C93282F30E0F7
:10417000C9010895DC011296ED91FC911397EE5759
:10418000FF4F80819181929382930895FC01A085D5
:10419000B18521898C9190E0022E02C0959587957A
:1041A0000A94E2F780FFF6CF0484F585E02D608362
:1041B000089582E593E09093A00680939F068BE19B
:1041C00096E09093A2068093A10685EC90E09093F0
:1041D000A4068093A30684EC90E09093A6068093B7
:1041E000A50680EC90E09093A8068093A70681EC4A
:1041F00090E09093AA068093A90686EC90E09093B5
:10420000AC068093AB0684E08093AD0683E0809398
:10421000AE0687E08093AF0685E08093B00681E02C
:104220008093B10608950E94781E0E9439150E945D
:10423000FE17FDCF0F931F93CF93DF938C01EB01FC
:1042400009C02196D801ED91FC910190F081E02DFB
:10425000C801099568816623A1F7DF91CF911F916D
:104260000F910895EF92FF920F931F93CF93DF93D7
:104270008C017B01EA010CC0D7016D917D01D80151
:10428000ED91FC910190F081E02DC80109952197F5
:10429000209791F7DF91CF911F910F91FF90EF90B1
:1042A00008955058BB27AA270ED072C163D130F0B1
:1042B00068D120F031F49F3F11F41EF433C10EF4A5
:1042C000E095E7FB29C1E92F74D180F3BA176207A3
:1042D00073078407950718F071F49EF58CC10EF4EE
:1042E000E0950B2EBA2FA02D0B01B90190010C0106
:1042F000CA01A0011124FF27591B99F0593F50F41E
:10430000503E68F11A16F040A22F232F342F442775
:10431000585FF3CF469537952795A795F04053956D
:10432000C9F77EF41F16BA0B620B730B840BBAF03D
:104330009150A1F0FF0FBB1F661F771F881FC2F7A8
:104340000EC0BA0F621F731F841F48F487957795BC
:104350006795B795F7959E3F08F0B3CF9395880F73
:1043600008F09927EE0F9795879508950CD010C106
:1043700008D140F0FFD030F021F45F3F19F0CCC0FD
:1043800051113AC1CFC015D198F39923C9F35523E0
:10439000B1F3951B550BBB27AA2762177307840738
:1043A00038F09F5F5F4F220F331F441FAA1FA9F3EE
:1043B00033D00E2E3AF0E0E830D091505040E695E0
:1043C000001CCAF729D0FE2F27D0660F771F881F41
:1043D000BB1F261737074807AB07B0E809F0BB0B30
:1043E000802DBF01FF2793585F4F2AF09E3F510554
:1043F00068F092C001C15F3FECF3983EDCF3869514
:1044000077956795B795F7959F5FC9F7880F911DC9
:104410009695879597F90895E1E0660F771F881FB5
:10442000BB1F621773078407BA0720F0621B730B68
:10443000840BBA0BEE1F88F7E095089504D06894BA
:10444000B111DAC00895BDD088F09F5790F0B92F10
:104450009927B751A0F0D1F0660F771F881F991FD9
:104460001AF0BA95C9F712C0B13081F0C4D0B1E0EA
:104470000895C1C0672F782F8827B85F39F0B93FFA
:10448000CCF3869577956795B395D9F73EF49095DB
:104490008095709561957F4F8F4F9F4F0895E89459
:1044A00009C097FB3EF490958095709561957F4F7C
:1044B0008F4F9F4F9923A9F0F92F96E9BB2793952A
:1044C000F695879577956795B795F111F8CFFAF43A
:1044D000BB0F11F460FF1BC06F5F7F4F8F4F9F4F6B
:1044E00016C0882311F096E911C0772321F09EE8C9
:1044F000872F762F05C0662371F096E8862F70E02F
:1045000060E02AF09A95660F771F881FDAF7880F08
:104510009695879597F9089597F99F6780E870E0D9
:1045200060E008959FEF80EC0895DF93CF931F9391
:104530000F93FF92EF92DF927B018C01689405C08C
:10454000DA2EEF0172D0FE01E894A5912591359104
:1045500045915591AEF3EF01B6DEFE019701A8013A
:10456000DA9479F7DF90EF90FF900F911F91CF9140
:10457000DF91089500240A941616170618060906F6
:10458000089500240A9412161306140605060895C9
:10459000092E0394000C11F4882352F0BB0F40F451
:1045A000BF2B11F460FF04C06F5F7F4F8F4F9F4F91
:1045B000089557FD9058440F551F59F05F3F71F013
:1045C0004795880F97FB991F61F09F3F79F087957A
:1045D0000895121613061406551FF2CF4695F1DF03
:1045E00008C0161617061806991FF1CF8695710593
:1045F000610508940895E894BB2766277727CB01C7
:1046000097F908959B01AC0160E070E080E89FE3BA
:10461000ADCE0BD0BDCFAEDF28F0B3DF18F09523C1
:1046200009F07ACF7FCF1124E7CFC3DFA0F3959FA6
:10463000D1F3950F50E0551F629FF001729FBB2789
:10464000F00DB11D639FAA27F00DB11DAA1F649F35
:104650006627B00DA11D661F829F2227B00DA11DE8
:10466000621F739FB00DA11D621F839FA00D611D6E
:10467000221F749F3327A00D611D231F849F600D8F
:10468000211D822F762F6A2F11249F5750408AF0C8
:10469000E1F088234AF0EE0FFF1FBB1F661F771F54
:1046A000881F91505040A9F79E3F510570F034CFBC
:1046B000A3CF5F3FECF3983EDCF386957795679543
:1046C000B795F795E7959F5FC1F7FE2B880F911D72
:1046D0009695879597F90895FA01EE0FFF1F30968A
:1046E0002105310599F16115710561F48038BFE349
:1046F0009B0749F168949038810561F08038BFEFDD
:104700009B0741F0992342F5FF3FE1053105210563
:1047100011F1E8940894E795D901AA2329F4AB2F65
:10472000BE2FF85FD0F310C0FF5F70F4A695E0F7DE
:10473000F73950F019F0FF3A38F49F779F930CD077
:104740000F9007FC905808953EF0ECCE60E070E0CA
:1047500080E89FE308954FE79F775F934F933F93E0
:104760002F9382D02F913F914F915F9152DF05C0DF
:1047700019F40EF0D1CE3FCFD5CE23DFC8F3963853
:10478000C0F707F80F92E8942BE33AEA48EB5FE7AB
:104790004EDF0F920F920F924DB75EB70F92A4D0DB
:1047A000E8E6F0E0C2DE4F915F91EF91FF91E59571
:1047B000EE1FFF1F49F0FE57E0684427EE0F441F2D
:1047C000FA95E1F74195550B16D00F9007FE1ACFD9
:1047D00008959F3F49F0915028F486957795679505
:1047E000B7959F5F80389F4F880F9695879597F96B
:1047F000089592CEEECFE5DEE8F39923D9F3940F36
:10480000511DBBF39150504094F059F0882332F081
:10481000660F771F881F91505040C1F79E3F51058A
:1048200044F7880F911D9695879597F908955F3FF6
:10483000ACF0983E9CF0BB27869577956795B79529
:1048400008F4B1609395C1F7BB0F58F711F460FFFE
:10485000E8CF6F5F7F4F8F4F9F4FE3CFCDCE0EF0EE
:10486000B8CF60CE689458CEACDEC8F39923D1F3AC
:10487000C6F3DF93CF931F930F93FF92C92FDD27CA
:1048800088232AF02197660F771F881FDAF720E028
:1048900030E040E85FEB9FE3883920F0803E30F065
:1048A00021968F77FFDCE0E9F0E003C0FBDCEDEB65
:1048B000F0E03BDE8B01BE01EC01FB2E6F5771096E
:1048C0007595771F880B990BECDD28E132E741E302
:1048D0005FE3ABDEAF2D9801AE01FF900F911F910A
:1048E000CF91DF91F0DC54CEFA01DC01AA0FBB1F9F
:1048F0009B01AC01BF5728F4222733274427507867
:104900001FC0B75188F4AB2F0024469537952795E3
:10491000011CA395D2F3002069F0220F331F441F1E
:10492000B395DAF30DD0BDCC61307105A0E88A07EC
:10493000B94630F49B01AC01662777278827907829
:10494000309621F020833183428353830895629F00
:10495000D001739FF001829FE00DF11D649FE00D77
:10496000F11D929FF00D839FF00D749FF00D659FD8
:10497000F00D9927729FB00DE11DF91F639FB00DD7
:10498000E11DF91FBD01CF0111240895AA1BBB1B16
:1049900051E107C0AA1FBB1FA617B70710F0A61B3F
:1049A000B70B881F991F5A95A9F780959095BC0160
:1049B000CD01089597FB092E07260AD077FD04D074
:1049C000E5DF06D000201AF4709561957F4F0895B9
:1049D000F6F7909581959F4F0895A1E21A2EAA1B94
:1049E000BB1BFD010DC0AA1FBB1FEE1FFF1FA2179F
:1049F000B307E407F50720F0A21BB30BE40BF50B9C
:104A0000661F771F881F991F1A9469F76095709524
:104A1000809590959B01AC01BD01CF01089597FB56
:104A2000092E05260ED057FD04D0D7DF0AD0001C72
:104A300038F450954095309521953F4F4F4F5F4F3B
:104A40000895F6F790958095709561957F4F8F4FFB
:104A50009F4F0895EE0FFF1F0590F491E02D0994EC
:104A60002F923F924F925F926F927F928F929F927E
:104A7000AF92BF92CF92DF92EF92FF920F931F936C
:104A8000CF93DF93CDB7DEB7CA1BDB0B0FB6F8941D
:104A9000DEBF0FBECDBF09942A88398848885F845D
:104AA0006E847D848C849B84AA84B984C884DF80CE
:104AB000EE80FD800C811B81AA81B981CE0FD11DB2
:104AC0000FB6F894DEBF0FBECDBFED010895F89488
:104AD000FFCF4D756C746957696920436F6E6669C5
:104AE000670020202020202020202020202020209F
:104AF000202000536176696E672053657474696E77
:104B0000677300736B697070696E672053617665B7
:104B1000006578697420636F6E6669670050495458
:104B2000434826524F4C4C205000524F4C4C2020B2
:104B3000205000524F4C4C2020204900524F4C4CEA
:104B40002020204400504954434820205000504920
:104B500054434820204900504954434820204400F1
:104B60005941572020202050005941572020202013
:104B70004900594157202020204400414C54202016
:104B800020205000414C54202020204900414C540A
:104B900020202020440056454C2020202050005644
:104BA000454C20202020490056454C202020204400
:104BB000004C4556454C202050004C4556454C2055
:104BC0002049004D414720202020500052432052D0
:104BD000415445005243204558504F0050495443DA
:104BE0004826524F4C4C20524154450059415720C1
:104BF00052415445005448524F54544C452050495A
:104C000044004261747465727920566F6C740009B7
:104C10000A0B0306050000DE05DE05DE05DE05DE07
:104C200005DE05DE05DE05DC05DC05DC05DC050052
:104C3000093D00019281020101018102030102810B
:104C400002000101810202020281020201028102CC
:104C5000010100C003BB03010405060207000103B4
:104C60004B01AB0363025801AB0363026101B20362
:104C700068026A01B9036D027301AC0363027C012F
:104C8000B30368028501BA036D028E01AD036302AE
:104C90009701B4036802A001BB036D02A901AE0332
:104CA0006302B201B5036802BB01BC036D02C4011B
:104CB000AF036302CD01B6036802D601BD036D02E6
:104CC000DF01B0036302E801B7036802F101B10339
:104CD0006302FA01C00372020202C10377020A02F0
:104CE000C20377021A02C30377022302C4037702C6
:104CF0003002D1037C02620201AB0307B20307B9A1
:104D00000307C00301C10301C20301C30301C403BC
:104D100001AF0406640406B50404C50308AE05012A
:104D200000000000C6201A2132216B2096207C2032
:104D3000BA20FFFFFFFFFFFFFFFFFFFFFFFFFFFFA7
:104D4000FFFFFFFFFFFFFFFFFFFFFFFFFFFFFFFF73
:104D5000FFFFFFFFFFFFFFFFFFFFFFFFFFFFFFFF63
:104D6000FFFFFFFFFFFFFFFFFFFFFFFFFFFFFFFF53
:104D7000FFFFFFFFFFFFFFFFFFFFFFFFFFFFFFFF43
:104D8000504944004261747465727920566F6C74A6
:104D900000090A0B03060500007D7D7D7DDE05DE32
:104DA00005DE05DE05DE05DE05DE05DE05DC05DCEF
:104DB00005DC05DC0500093D0001928502010101C9
:104DC00085020301028502000101850202020285BB
:104DD000020201028502010100C003BB03010405B8
:104DE0000602070001034B01AF0367025801AF033E
:104DF00067026101B6036C026A01BD0371027301AF
:104E0000B00367027C01B7036C028501BE03710227
:104E10008E01B10367029701B8036C02A001BF03C2
:104E20007102A901B2036702B201B9036C02BB01AE
:104E3000C0037102C401B3036702CD01BA036C025F
:104E4000D601C1037102DF01B4036702E801BB03AD
:104E50006C02F101B5036702FA01C4037602020293
:104E6000C5037B020A02C6037B021A02C7037B0248
:104E70002302C8037B023002D5038002660201AF21
:104E80000307B60307BD0307C40301C50301C60337
:104E900001C70301C80301B30406680406B904048A
:104EA000C90308B60501000000008721DB21F321BA
:104EB0002C2157213D217B21FFFFFFFFFFFFFFFF3B
:104EC000FFFFFFFFFFFFFFFFFFFFFFFFFFFFFFFFF2
:104ED000FFFFFFFFFFFFFFFFFFFFFFFFFFFFFFFFE2
:104EE000FFFFFFFFFFFFFFFFFFFFFFFFFFFFFFFFD2
:104EF000FFFFFFFFFFFFFFFFFFFFFFFFFFFFFFFFC2
:104F0000DAD088F09F5790F0B92F9927B751A0F0C9
:104F1000D1F0660F771F881F991F1AF0BA95C9F74D
:104F200012C0B13081F0E1D0B1E00895DEC0672F4A
:104F3000782F8827B85F39F0B93FCCF386957795FD
:104F40006795B395D9F73EF49095809570956195E6
:104F50007F4F8F4F9F4F0895E89409C097FB3EF411
:104F600090958095709561957F4F8F4F9F4F9923B6
:104F7000A9F0F92F96E9BB279395F6958795779534
:104F80006795B795F111F8CFFAF4BB0F11F460FFF4
:104F90001BC06F5F7F4F8F4F9F4F16C0882311F04C
:104FA00096E911C0772321F09EE8872F762F05C060
:104FB000662371F096E8862F70E060E02AF09A95FB
:104FC000660F771F881FDAF7880F9695879597F9F0
:104FD000089597F99F6780E870E060E008959FEF7B
:104FE00080EC089500240A94161617061806090680
:104FF000089500240A94121613061406050608954F
:10500000EECF59D0E8F3E894EFEFBB273FE048EC50
:105010005FE76B3D73078407950708F1FF279F57EC
:10502000B25A6A4D7F40894CF04032F4BE55654219
:10503000704F8643FF4F0894EE1F915030F0BB0F26
:10504000661F771F881FFF1FEBCF9EE7882332F074
:10505000BB0F661F771F881F9A95C1F79395E09540
:1050600031C1092E0394000C11F4882352F0BB0FB8
:1050700040F4BF2B11F460FF04C06F5F7F4F8F4F70
:105080009F4F0895EF93E0FF06C0A2EA2AED3FE0AC
:1050900049EC5FEB72DEE5DF0F90039401FC905862
:1050A000E8E6F0E044C157FD9058440F551F59F011
:1050B0005F3F71F04795880F97FB991F61F09F3F05
:1050C00079F087950895121613061406551FF2CF2E
:1050D0004695F1DF08C0161617061806991FF1CF7E
:1050E00086957105610508940895E894BB276627A5
:1050F0007727CB0197F908950BD0B3CF73DF28F052
:1051000078DF18F0952309F064CF69CF1124EECF32
:10511000CADFA0F3959FD1F3950F50E0551F629F12
:10512000F001729FBB27F00DB11D639FAA27F00D00
:10513000B11DAA1F649F6627B00DA11D661F829F27
:105140002227B00DA11D621F739FB00DA11D621F0C
:10515000839FA00D611D221F749F3327A00D611D29
:10516000231F849F600D211D822F762F6A2F11240B
:105170009F5750408AF0E1F088234AF0EE0FFF1F5E
:10518000BB1F661F771F881F91505040A9F79E3F95
:10519000510570F01ECFAACF5F3FECF3983EDCF3D1
:1051A000869577956795B795F795E7959F5FC1F7D2
:1051B000FE2B880F911D9695879597F90895FA0112
:1051C000EE0FFF1F30962105310599F1611571052C
:1051D00061F48038BFE39B0749F1689490388105FA
:1051E00061F08038BFEF9B0741F0992342F5FF3F04
:1051F000E1053105210511F1E8940894E795D901FD
:10520000AA2329F4AB2FBE2FF85FD0F310C0FF5FA5
:1052100070F4A695E0F7F73950F019F0FF3A38F43A
:105220009F779F930CD00F9007FC905808953EF005
:10523000D6CE60E070E080E89FE308954FE79F7767
:105240005F934F933F932F93C5D02F913F914F91F1
:105250005F9152DF0BC09F93D4DE0F9007FCEE5F8F
:1052600011CF19F40EF0B5CE40CFB9CE24DFC8F37C
:105270009638C0F707F80F92E8942BE33AEA48EB28
:105280005FE748DF0F920F920F924DB75EB70F9214
:10529000E1D0E6E8F0E026D04F915F91EF91FF91E9
:1052A000E595EE1FFF1F49F0FE57E0684427EE0F1B
:1052B000441FFA95E1F74195550B53D00F9007FE27
:1052C00047C008959F3F49F0915028F486957795FF
:1052D0006795B7959F5F80389F4F880F9695879504
:1052E00097F90895DF93CF931F930F93FF92EF9257
:1052F000DF927B018C01689405C0DA2EEF0108DF94
:10530000FE01E894A5912591359145915591AEF313
:10531000EF0133DDFE019701A801DA9479F7DF9000
:10532000EF90FF900F911F91CF91DF9108959F9380
:105330008F937F936F93FF93EF939B01AC01DCDE20
:10534000EF91FF91CFDF2F913F914F915F91D4CE9D
:105350009B01AC0160E070E080E89FE364CD39CE52
:10536000B1CFA9DEE8F39923D9F3940F511DBBF314
:105370009150504094F059F0882332F0660F771F17
:10538000881F91505040C1F79E3F510544F7880F48
:10539000911D9695879597F908955F3FACF0983EDB
:1053A0009CF0BB27869577956795B79508F4B16013
:1053B0009395C1F7BB0F58F711F460FFE8CF6F5F0B
:1053C0007F4F8F4F9F4FE3CF91CE0EF07BCF07CE15
:1053D0006894FFCD70DEC8F39923D1F3C6F3DF9351
:1053E000CF931F930F93FF92C92FDD2788232AF0B5
:1053F0002197660F771F881FDAF720E030E040E83A
:105400005FEB9FE3883920F0803E30F021968F7764
:10541000A3DCEEEAF0E003C09FDCEBEDF0E062DF3E
:105420008B01BE01EC01FB2E6F5771097595771F3B
:10543000880B990B93DD28E132E741E35FE368DEF7
:10544000AF2D9801AE01FF900F911F91CF91DF9189
:1054500094DC07CEFA01DC01AA0FBB1F9B01AC0153
:10546000BF5728F422273327442750781FC0B7514D
:1054700088F4AB2F0024469537952795011CA395FA
:10548000D2F3002069F0220F331F441FB395DAF3E3
:105490000DD061CC61307105A0E88A07B94630F4BF
:1054A0009B01AC016627772788279078309621F0FA
:1054B00020833183428353830895629FD001739F79
:1054C000F001829FE00DF11D649FE00DF11D929FA0
:1054D000F00D839FF00D749FF00D659FF00D9927DF
:1054E000729FB00DE11DF91F639FB00DE11DF91F03
:1054F000BD01CF0111240895991B79E004C0991FC3
:10550000961708F0961B881F7A95C9F7809508951D
:10551000AA1BBB1B51E107C0AA1FBB1FA617B707D9
:1055200010F0A61BB70B881F991F5A95A9F78095F5
:105530009095BC01CD01089597FB092E07260AD04E
:1055400077FD04D0E5DF06D000201AF47095619550
:105550007F4F0895F6F7909581959F4F0895A1E2AA
:105560001A2EAA1BBB1BFD010DC0AA1FBB1FEE1FDD
:10557000FF1FA217B307E407F50720F0A21BB30B28
:10558000E40BF50B661F771F881F991F1A9469F7A4
:1055900060957095809590959B01AC01BD01CF0100
:1055A000089597FB092E05260ED057FD04D0D7DFAE
:1055B0000AD0001C38F450954095309521953F4F06
:1055C0004F4F5F4F0895F6F79095809570956195D0
:1055D0007F4F8F4F9F4F08952F923F924F925F9230
:1055E0006F927F928F929F92AF92BF92CF92DF92F3
:1055F000EF92FF920F931F93CF93DF93CDB7DEB758
:10560000CA1BDB0B0FB6F894DEBF0FBECDBF0994EB
:105610002A88398848885F846E847D848C849B8442
:10562000AA84B984C884DF80EE80FD800C811B8150
:10563000AA81B981CE0FD11D0FB6F894DEBF0FBE7F
:10564000CDBFED010895F894FFCF090A0B030605BD
:10565000100CDE05DE05DE05DE05DE05DE05DE05F9
:10566000DE05DE05DE05DE05DE05DE05DE05DE0522
:10567000DE05DE05DE05990000803F0000803F006A
:1056800000803F00093D000157010101015701035E
:1056900001025701000101570102010257010101F6
:1056A000000F050A0501DC05DC05DC05DC05DC0571
:1056B000DC05DC05DC0504050602070001032C01FE
:1056C00001AC0208B40208BC0208C40201C5020110
:1056D000C60201C70201C80201E80406990406EEE9
:1056E00004042F04163E060100000000FFFFFFFF28
:1056F000FFFFFFFFFFFFFFFFFFFFFFFFFFFFFFFFBA
:10570000FFFFFFFFFFFFFFFFFFFFFFFFFFFFFFFFA9
:10571000FFFFFFFFFFFFFFFFFFFFFFFFFFFFFFFF99
:10572000FFFFFFFFFFFFFFFFFFFFFFFFFFFFFFFF89
:107800000C94343C0C94513C0C94513C0C94513CE1
:107810000C94513C0C94513C0C94513C0C94513CB4
:107820000C94513C0C94513C0C94513C0C94513CA4
:107830000C94513C0C94513C0C94513C0C94513C94
:107840000C94513C0C94513C0C94513C0C94513C84
:107850000C94513C0C94513C0C94513C0C94513C74
:107860000C94513C0C94513C11241FBECFEFD8E036
:10787000DEBFCDBF11E0A0E0B1E0ECE9FFE702C060
:1078800005900D92A230B107D9F712E0A2E0B1E065
:1078900001C01D92AD30B107E1F70E942D3D0C945F
:1078A000CC3F0C94003C982F959595959595959582
:1078B000905D8F708A307CF0282F295A8091C0000B
:1078C00085FFFCCF9093C6008091C00085FFFCCF60
:1078D0002093C6000895282F205DF0CF982F809127
:1078E000C00085FFFCCF9093C6000895EF92FF92F1
:1078F0000F931F93EE24FF2487018091C00087FD22
:1079000017C00894E11CF11C011D111D81E4E8164B
:1079100082E4F8068FE0080780E0180770F3E09132
:107920000401F091050109958091C00087FFE9CF1E
:107930008091C6001F910F91FF90EF9008950E94D3
:10794000763C982F8091C00085FFFCCF9093C600B5
:1079500091362CF490330CF09053892F089597555D
:10796000892F08951F930E949F3C182F0E949F3CCF
:107970001295107F810F1F9108951F93182F882350
:1079800021F00E94763C1150E1F71F9108951F935A
:10799000182F0E94763C803249F0809103018F5F5E
:1079A000809303018530C1F01F9108958091C0003C
:1079B00085FFFCCF84E18093C6008091C00085FFE5
:1079C000FCCF1093C6008091C00085FFFCCF80E102
:1079D0008093C6001F910895E0910401F091050184
:1079E00009951F9108950E94763C803241F0809164
:1079F00003018F5F80930301853081F008958091AA
:107A0000C00085FFFCCF84E18093C6008091C00058
:107A100085FFFCCF80E18093C6000895E0910401CA
:107A2000F09105010995089540E951E08823A1F0FE
:107A30002D9A28EE33E0FA013197F1F721503040CA
:107A4000D1F72D9828EE33E0FA013197F1F7215064
:107A50003040D1F7815061F708953F924F925F9285
:107A60006F927F928F929F92AF92BF92CF92DF924E
:107A7000EF92FF920F931F93CF93DF93000080E16B
:107A80008093C4001092C50088E18093C10086E015
:107A90008093C2005098589A259A81E00E94143D24
:107AA00024E1F22E9EE1E92E85E9D82E0FE0C02ECA
:107AB00010E1B12EAA24A394B1E49B2EA6E58A2E50
:107AC000F2E57F2EE0E26E2E79E4572E63E5462E36
:107AD00050E5352E0E94763C8033B1F18133B9F107
:107AE000803409F46FC0813409F476C0823409F41B
:107AF00085C0853409F488C0803531F1823521F1A3
:107B0000813511F1853509F485C0863509F48DC0BC
:107B1000843609F496C0843709F403C1853709F423
:107B200072C1863709F466C0809103018F5F80932C
:107B30000301853079F6E0910401F0910501099582
:107B40000E94763C803351F60E94F33CC3CF0E94E2
:107B5000763C803249F78091C00085FFFCCFF092DF
:107B6000C6008091C00085FFFCCF9092C600809136
:107B7000C00085FFFCCF8092C6008091C00085FFC9
:107B8000FCCF7092C6008091C00085FFFCCF609250
:107B9000C6008091C00085FFFCCF5092C600809146
:107BA000C00085FFFCCF4092C6008091C00085FFD9
