:100000000C949B000C94B8000C94B8000C94B800AD
:100010000C94B8000C94B8000C94B8000C942B25E8
:100020000C94B8230C94B8000C94B8000C943209CA
:100030000C94B8000C94B8000C94B8000C94B80060
:100040000C94970B0C94B8000C948E0E0C94B80082
:100050000C94370F0C94A6060C94B8000C94B800BE
:100060000C94B8000C94B800084AD73B3BCE016E04
:1000700084BCBFFDC12F3D6C74319ABD56833DDAFF
:100080003D00C77F11BED9E4BB4C3E916BAAAABE0E
:10009000000000803F05A84CCDB2D44EB93836A937
:1000A000020C50B9918688083CA6AAAA2ABE000074
:1000B00000803F07634236B79BD8A71A39685618A5
:1000C000AEBAAB558C1D3CB7CC5763BD6DEDFD751D
:1000D0003EF6177231BF000000803F08000000BEEE
:1000E000922449123EABAAAA2ABECDCCCC4C3E00EB
:1000F000000080BEABAAAAAA3E00000000BF00001C
:1001000000803F0000000000084178D3BB4387D146
:10011000133D190E3CC3BD4282AD2B3E68EC827686
:10012000BED98FE1A93E4C80EFFFBE01C4FF7F3FE7
:1001300000000000000011241FBECFEFD8E0DEBF9A
:10014000CDBF11E0A0E0B1E0E4E8FBE502C005901E
:100150000D92A635B107D9F713E0A6E5B1E001C0CD
:100160001D92A23DB107E1F70E94CE050C94C02D6F
:100170000C94000080E460E00E94770D833011F061
:1001800080E0089588EC90E00E94DB0A80E46DE056
:1001900040E10E942C0D88EC90E00E94DB0A80E494
:1001A00060E20E94770D482F4F70406180E460E26A
:1001B0000E942C0D88EC90E00E94DB0A80E460E352
:1001C0000E94770D482F4C7F80E460E30E942C0D45
:1001D00088EC90E00E94DB0A80E465E30E94770DE2
:1001E000482F417F4A6080E465E30E942C0D88EC33
:1001F00090E00E94DB0A0E94DC06882389F484E6F2
:1002000080935601109258011092570110925A0192
:100210001092590110925C0110925B0181E00895E7
:100220001092560187E591E00E94DF0681E0089573
:1002300080915601882311F080E0089587E591E0D0
:100240000E94160781E008950F931F93DF93CF93C9
:1002500000D000D000D0CDB7DEB78C01AE014F5F2B
:100260005F4F86E0FA0111928A95E9F780E462E037
:1002700026E00E94A60C863061F080E026960FB63C
:10028000F894DEBF0FBECDBFCF91DF911F910F91CC
:1002900008953A8120E0898190E0822B932B97FD8D
:1002A0007DC0AC0155954795559547955595479512
:1002B00055954795F801518340833C8120E08B811F
:1002C00090E0822B932B97FD67C0BC0175956795D5
:1002D000759567957595679575956795F80173831D
:1002E00062833E8120E08D8190E0822B932B97FDED
:1002F00051C09C01359527953595279535952795BE
:1003000035952795F80135832483E0915601EE2336
:1003100031F1E13009F444C08091570190915801C6
:10032000840F951F90935801809357018091590134
:1003300090915A01860F971F90935A01809359010B
:1003400080915B0190915C01820F931F90935C01FF
:1003500080935B01E150E093560181E08FCF809163
:10036000570190915801481B590BF8015183408364
:100370008091590190915A01681B790B73836283B4
:1003800080915B0190915C01281B390B358324839C
:1003900081E074CF0F96ADCF0F9697CF0F9681CF98
:1003A000809157019091580123E630E0B9010E94F5
:1003B000422A70935801609357018091590190919E
:1003C0005A01B9010E94422A70935A01609359015F
:1003D00080915B0190915C01B9010E94422A6050BA
:1003E000714070935C0160935B01B4CF10925D012A
:1003F00010925E0110925F011092600187E76AEA35
:100400004BE952E026E10E94A60C2BE932E0D9012B
:10041000F9014C91CF0151815D9341833197A81728
:10042000B907B8F32E5F3F4F82E0213B380779F7D9
:1004300081E008956F927F928F929F92AF92BF92C8
:10044000CF92DF92EF92FF920F931F93DF93CF93A0
:1004500000D00F92CDB7DEB780910001882309F458
:10046000F9C1813009F40FC21092000119821A8279
:100470001B8287E766EFAE014F5F5F4F23E00E946C
:10048000A60C89818093B5028A818093B4028B8106
:100490008093B3026091B1027091B20280E090E06B
:1004A0002091A5023091A60240E050E0621B730B40
:1004B000840B950B2091A3023091A40240E050E000
:1004C0000E94232A7B018C01BFE015950795F794C4
:1004D000E794BA95D1F76091AD027091AE0288278A
:1004E00077FD8095982FABE0660F771F881F991FC7
:1004F000AA95D1F72091AF023091B002442737FD81
:100500004095542F2E0D3F1D401F511F0E94772AEA
:100510002E0D3F1D401F511FDA01C9010896A11D74
:10052000B11DF4E0B595A79597958795FA95D1F704
:100530009093C9028093C802E0E6EE2EE0EFFE2E13
:10054000EFEF0E2FEFEF1E2FE20EF31E041F151F0D
:10055000C801B701A80197010E94232A3B014C0161
:100560007CE095948794779467947A95D1F720915D
:100570009D0230919E02442737FD4095542FC801BB
:10058000B7010E94232A5B016C016BE0D594C794EC
:10059000B794A7946A95D1F780919B0290919C02A1
:1005A000AA2797FDA095BA2F880F991FAA1FBB1FD6
:1005B000880F991FAA1FBB1FA80EB91ECA1EDB1EDB
:1005C0002091A9023091AA02442737FD4095542F6B
:1005D000C401B3010E94232A4BE095958795779536
:1005E00067954A95D1F7A60EB71EC81ED91E209151
:1005F0009F023091A002442737FD4095542FC80137
:10060000B7010E94232A7B018C013DE015950795D7
:10061000F794E7943A95D1F782E090E0A0E0B0E05B
:10062000E80EF91E0A1F1B1F2091A7023091A80295
:10063000442737FD4095542FC401B3010E94232A5B
:10064000BC01992777FD9095892FE60EF71E081FAC
:10065000191F15950795F794E79415950795F79445
:10066000E79480E090E8A0E0B0E0E80EF91E0A1FF1
:100670001B1F2091A1023091A20240E050E0C8016E
:10068000B7010E94232A3B014C01BFE09694879456
:1006900077946794BA95D1F7E090B302F090B402E2
:1006A0000091B5021091B602A6E016950795F79451
:1006B000E794AA95D1F7AA0CBB1CCC1CDD1CAA0C94
:1006C000BB1CCC1CDD1C82E090E0A0E0B0E0A80EDA
:1006D000B91ECA1EDB1EC601B50124E030E040E0B1
:1006E00050E00E94772AE21AF30A040B150BC801A6
:1006F000B70124ED30E340E050E00E94232A97FD4B
:100700009EC0660F771F881F991FA40193010E9446
:10071000552A79018A01552717FD5A95412F302F07
:100720002F2DCA01B9010E94232A2EED3BE040E0A3
:1007300050E00E94232A5B016C01C801B70123E449
:1007400033EE4FEF5FEF0E94232ABC01992777FD1C
:100750009095892F6153714F8F4F9F4F5601DD2424
:10076000B7FCD094CD2C6A0D7B1D8C1D9D1D24E003
:1007700095958795779567952A95D1F76E0D7F1D8D
:10078000801F911F60935D0170935E0180935F01F4
:10079000909360016093D2027093D3028093D4024D
:1007A0009093D5020E94092720E836EE45EC57E4E5
:1007B0000E94702621EB3CED42E45EE30E94872814
:1007C000562F472F382F292F60E070E080E89FE3F5
:1007D000DA01F9012B2F3A2F4F2F5E2F0E94A2250D
:1007E00020E834E748ED58E40E9424280E94DD26E2
:1007F000609361017093620180936301909364013F
:1008000087E764EF4EE20E942C0D609161017091C8
:10081000620180916301909164010F900F900F909D
:10082000CF91DF911F910F91FF90EF90DF90CF90CC
:10083000BF90AF909F908F907F906F900895A4018C
:1008400093010E94552A79018A01EE0CFF1C001FBA
:10085000111F61CF81E08093000119821A8287E71E
:1008600066EFAE014F5F5F4F22E00E94A60C8981C8
:100870008093B2028A818093B10287E764EF44EBF0
:100880000E942C0DC2CF82E0E6CF109200010895A5
:100890008EE160E040E70E942C0D88EC90E00E9421
:1008A000DB0A8EE161E040E20E942C0D88EC90E0D2
:1008B0000E94DB0A8EE162E040E00E942C0D88EC91
:1008C00090E00E94DB0A81E08093650185E090E082
:1008D0000E94160A81E0089581E0909165019111CE
:1008E00080E008950F931F93DF93CF9300D000D043
:1008F00000D0CDB7DEB78C01AE014F5F5F4F86E011
:10090000FA0111928A95E9F78EE163E026E00E94F0
:10091000A60C863061F080E026960FB6F894DEBF14
:100920000FBECDBFCF91DF911F910F910895998197
:1009300080E04A8150E0482B592BF80151834083D5
:100940009D8180E02E8130E0282B392B3383228358
:100950007B8160E08C8190E0862B972B958384834C
:1009600060916501662329F061506093650181E023
:10097000D3CF60916601461B5109F8015183408332
:1009800040916701241B3109338322832091680140
:10099000821B91099583848381E0BECF88E660E065
:1009A0000E94770D883611F080E008956EE340E8EC
:1009B0000E942C0D88EC90E00E94DB0A88E666E13C
:1009C0004AE10E942C0D88EC90E00E94DB0A88E648
:1009D0006EE343E00E942C0D81E090E00E94160A35
:1009E0000E94DC06882389F488EC809369011092C8
:1009F0006B0110926A0110926D0110926C011092BD
:100A00006F0110926E0181E00895109269018AE6EB
:100A100091E00E943F0781E0089580916901882359
:100A200011F080E008958AE691E00E94760781E067
:100A300008950F931F93DF93CF9300D000D000D081
:100A4000CDB7DEB78C01AE014F5F5F4F86E0FA0194
:100A500011928A95E9F788E66DE126E00E94A60CDE
:100A6000863061F080E026960FB6F894DEBF0FBEA8
:100A7000CDBFCF91DF911F910F910895998180E0B3
:100A80006A8170E0682B792BF801718360839B8108
:100A900080E02C8130E0282B392B338322835D8149
:100AA00040E08E8190E0842B952B95838483AC016C
:100AB0004B5F5F4F4B30510520F41582148280E06C
:100AC00090E040916901442329F14130F1F1E09136
:100AD0006A01F0916B01E60FF71FF0936B01E09351
:100AE0006A0160916C0170916D01620F731F7093C8
:100AF0006D0160936C0120916E0130916F01280FA0
:100B0000391F30936F0120936E014150409369016A
:100B100081E0A9CF40916A0150916B01641B750B74
:100B2000F8017183608340916C0150916D01241B29
:100B3000350B3383228320916E0130916F01821B2C
:100B4000930B9583848381E08ECF80916A0190918D
:100B50006B0128EC30E0B9010E94422A70936B01CE
:100B600060936A0180916C0190916D01B9010E94BE
:100B7000422A70936D0160936C0180916E01909197
:100B80006F01B9010E94422A70936F0160936E0158
:100B9000BCCF85B190E2892785B90895CF92DF92C5
:100BA000EF92FF920F931F9315BC10928100109249
:100BB000B1000E94C208259A2D9A1092D702109275
:100BC000D6021092D9021092D8021092DB02109233
:100BD000DA021092C4021092C302EDEBF2E010921E
:100BE000BE021092BD0213821282158214821092EC
:100BF000D1021092D0021092D2021092D30210921F
:100C0000D4021092D5021092C9021092C8020E941A
:100C100094080E94B6090E94BC0B0E947E060E94A6
:100C2000ED0D0E94C00680E040E050E060E87FE308
:100C300000E010E098010F2EF0E0CF2EF0E0DF2E64
:100C4000F0E5EF2EF1ECFF2EF02D0E94D82081E090
:100C500040E050E060E87FE300E010E098010E948F
:100C6000D82082E040E050E060E87FE300E010E060
:100C70009801680179010E94D82083E040E050E0AB
:100C800060E87FE3970186010E94D8200E94C40893
:100C90000E94DC220E947F1088EB9BE00E94160AD3
:100CA0000E94E01580ED97E00E94160A0E94501FF6
:100CB0000E94AB220E94630F2D980E94842380E043
:100CC00064EF71E041E029EC35E00E94142380914B
:100CD0007001909171010E949A0890937101809324
:100CE000700180917001909171010E9400118091BA
:100CF0007001909171010E94790FE9CFECE7F0E06B
:100D00008081806480838081826080838081846030
:100D10008083808180648083EAE7F0E0808180685E
:100D2000808380818860808310927B0110927A0199
:100D300080E0089562E00E94AD08813009F00895D6
:100D400080917A00806480937A0008951F920F92B8
:100D50000FB60F9211248F939F93809178009091FA
:100D6000790090937B0180937A019093C6028093DF
:100D7000C5029F918F910F900FBE0F901F901895F5
:100D800080E090E00E94B02C80937D01882321F0C8
:100D900010927C0180E0089581E080937C010895A9
:100DA00080E090E06FEF0E94BE2C089580E090E01C
:100DB00060E00E94BE2C089580917C0108950F93FD
:100DC0001F93CF93DF93EC0181E090E00E94B02C61
:100DD000182F00E082E090E00E94B02C90E0802B81
:100DE000912B9983888383E090E00E94B02C182F88
:100DF00000E084E090E00E94B02C90E0802B912BEA
:100E00009B838A8385E090E00E94B02C182F00E03D
:100E100086E090E00E94B02C90E0802B912B9D8387
:100E20008C83DF91CF911F910F9108951F93CF93E2
:100E3000DF93EC011881698181E090E00E94BE2C73
:100E400082E090E0612F0E94BE2C1A816B8183E0CA
:100E500090E00E94BE2C84E090E0612F0E94BE2CA6
:100E60001C816D8185E090E00E94BE2C86E090E0C0
:100E7000612F0E94BE2CDF91CF911F9108950F9397
:100E80001F93CF93DF93EC0187E090E00E94B02C9A
:100E9000182F00E088E090E00E94B02C90E0802BBA
:100EA000912B9983888389E090E00E94B02C182FC1
:100EB00000E08AE090E00E94B02C90E0802B912B23
:100EC0009B838A838BE090E00E94B02C182F00E077
:100ED0008CE090E00E94B02C90E0802B912B9D83C1
:100EE0008C83DF91CF911F910F9108951F93CF9322
:100EF000DF93EC011881698187E090E00E94BE2CAD
:100F000088E090E0612F0E94BE2C1A816B8189E0FD
:100F100090E00E94BE2C8AE090E0612F0E94BE2CDF
:100F20001C816D818BE090E00E94BE2C8CE090E0F3
:100F3000612F0E94BE2CDF91CF911F910895EF92F7
:100F4000FF920F931F93CF93DF937B018A01E901F7
:100F5000882349F1813009F447C0823009F465C023
:100F60008330D1F481E390E00E94B82CF7016083D4
:100F700071838283938385E390E00E94B82CF8010B
:100F8000608371838283938389E390E00E94B82C0D
:100F9000688379838A839B83DF91CF911F910F911F
:100FA000FF90EF9008958DE090E00E94B82CF7013B
:100FB000608371838283938381E190E00E94B82CE7
:100FC000F801608371838283938385E190E00E94BE
:100FD000B82C688379838A839B83DF91CF911F919B
:100FE0000F91FF90EF90089589E190E00E94B82C56
:100FF000F70160837183828393838DE190E00E9487
:10100000B82CF801608371838283938381E290E03E
:101010000E94B82C688379838A839B83DF91CF9168
:101020001F910F91FF90EF90089585E290E00E944C
:10103000B82CF701608371838283938389E290E007
:101040000E94B82CF80160837183828393838DE2C0
:1010500090E00E94B82C688379838A839B839CCF1D
:101060008F929F92AF92BF92CF92DF92EF92FF92B8
:101070000F931F9348015901882391F0813091F11A
:10108000823009F440C08330E1F01F910F91FF904E
:10109000EF90DF90CF90BF90AF909F908F9008958A
:1010A0008DE090E00E94CC2C81E190E0B501A4019C
:1010B0000E94CC2C85E190E0B701A6010E94CC2CC7
:1010C000E4CF81E390E00E94CC2C81E390E0B50175
:1010D000A4010E94CC2C81E390E0B701A6010E94FC
:1010E000CC2CD3CF89E190E00E94CC2C8DE190E014
:1010F000B501A4010E94CC2C81E290E0B701A601C9
:101100000E94CC2CC2CF85E290E00E94CC2C89E2D8
:1011100090E0B501A4010E94CC2C8DE290E0B701D3
:10112000A6010E94CC2CB1CF10927F0110927E01BB
:1011300081E00895F89420917E0130917F0180959F
:1011400090958223932390937F0180937E017894DE
:1011500080917E0190917F01089570E0682379234A
:1011600081E06115710509F480E0089520917E0108
:1011700030917F01282B392B30937F0120937E0102
:1011800081E00895F894089578940895109281016B
:10119000109280018AEF90E0909383018093820106
:1011A000389A21E030E030938501209384019093B8
:1011B000870180938601399A22E030E030938901DB
:1011C0002093880190938B0180938A013A9A23E0BF
:1011D00030E030938D0120938C0190938F018093A8
:1011E0008E013B9A10928000E1E8F0E080818360FC
:1011F0008083EFE6F0E0808182608083109285003A
:101200001092840081E00895CF93DF93C82FD0E03F
:1012100080E090E00E94092720E030E04AE754E4B3
:101220000E94242820E030E04AE754E40E9470261F
:1012300020E030E04AE754E40E94A32520E030E0BB
:1012400040E85EE30E9424280E94DD26CC0FDD1FCB
:10125000CC0FDD1FC058DE4F7B836A8381E0DF91B6
:10126000CF9108951F920F920FB60F9211242F93D2
:101270003F934F938F939F93EF93FF93809101013F
:1012800087FD6FC0809101018430C8F08091010119
:101290008F5F8093010180910101843098F18091EA
:1012A0000101843029F1FF91EF919F918F914F912E
:1012B0003F912F910F900FBE0F901F90189548B13E
:1012C000E0910101FF27E7FDF095EE0FFF1FEE0F04
:1012D000FF1FE058FE4F2081318181E090E002C085
:1012E000880F991F2A95E2F78095842388B9CECF7D
:1012F00088E893E190938900809388008FEF809332
:101300000101D1CF2091840030918500E09101014D
:10131000FF27E7FDF095EE0FFF1FEE0FFF1FE058D0
:10132000FE4F82819381820F931F90938900809357
:10133000880048B1E0910101FF27E7FDF095EE0F2D
:10134000FF1FEE0FFF1FE058FE4F2081318181E02B
:1013500090E002C0880F991F2A95E2F7482B48B900
:10136000A2CF109285001092840090CF109290012D
:1013700010929101109292011092930114BC85B5C4
:10138000826085BD16BCA99AEEE6F0E0808181609E
:1013900080830895DF92EF92FF920F931F93F8944A
:1013A00060919001709191018091920190919301CF
:1013B000D6B47894660F771F881F991F660F771F22
:1013C000881F991F660F771F881F991F660F771F49
:1013D000881F991F660F771F881F991F660F771F39
:1013E000881F991F660F771F881F991F0E94092762
:1013F0007B018C016D2D70E0882777FD8095982FFB
:101400000E940B2720E030E040E05FE30E942428A8
:101410009B01AC01C801B7010E94A3250E94DD26F3
:101420001F910F91FF90EF90DF9008954F925F9280
:101430006F927F929F92AF92BF92CF92DF92EF9284
:10144000FF920F931F935C01F8946091900170914B
:101450009101809192019091930196B4660F771F4C
:10146000881F991F660F771F881F991F660F771FA8
:10147000881F991F660F771F881F991F660F771F98
:10148000881F991F660F771F881F991F660F771F88
:10149000881F991F0E9409277B018C01692D70E02C
:1014A000882777FD8095982F0E940B2720E030E059
:1014B00040E05FE30E9424289B01AC01C801B70112
:1014C0000E94A3250E94DD269B01AC017894209305
:1014D000940130939501409396015093970188EEC3
:1014E00093E0A89E2001A99E500CB89E500C112498
:1014F00066247724F8946091900170919101809115
:1015000092019091930196B47894E0909401F090B8
:1015100095010091960110919701E40CF51C061DB0
:10152000171D660F771F881F991F660F771F881F6B
:10153000991F660F771F881F991F660F771F881FD7
:10154000991F660F771F881F991F660F771F881FC7
:10155000991F660F771F881F991F0E9409275B013B
:101560006C01692D70E0882777FD8095982F0E9487
:101570000B2720E030E040E05FE30E9424289B013D
:10158000AC01C601B5010E94A3250E94DD266E159F
:101590007F058007910708F4ADCF1F910F91FF9051
:1015A000EF90DF90CF90BF90AF909F907F906F9023
:1015B0005F904F9008954F925F926F927F929F92AB
:1015C000AF92BF92CF92DF92EF92FF920F931F9351
:1015D0002C01F89460919001709191018091920199
:1015E00090919301A6B4660F771F881F991F660F0D
:1015F000771F881F991F660F771F881F991F660F17
:10160000771F881F991F660F771F881F991F660F06
:10161000771F881F991F660F771F881F991F0E94C9
:1016200009277B018C016A2D70E0882777FD809562
:10163000982F0E940B2720E030E040E05FE30E94FB
:1016400024289B01AC01C801B7010E94A3250E9478
:10165000DD269B01AC017894209394013093950191
:10166000409396015093970166247724F8946091F3
:10167000900170919101809192019091930196B4A3
:101680007894E0909401F09095010091960110916A
:101690009701E40CF51C061D171D660F771F881FA8
:1016A000991F660F771F881F991F660F771F881F66
:1016B000991F660F771F881F991F660F771F881F56
:1016C000991F660F771F881F991F660F771F881F46
:1016D000991F0E9409275B016C01692D70E0882722
:1016E00077FD8095982F0E940B2720E030E040E0A6
:1016F0005FE30E9424289B01AC01C601B5010E9452
:10170000A3250E94DD266E157F058007910708F44A
:10171000ADCF1F910F91FF90EF90DF90CF90BF90D2
:10172000AF909F907F906F905F904F9008951F9221
:101730000F920FB60F9211248F939F93AF93BF9385
:101740008091900190919101A0919201B0919301AB
:101750000196A11DB11D8093900190939101A093DA
:101760009201B0939301BF91AF919F918F910F9090
:101770000FBE0F901F9018951092B9008CE08093C7
:10178000B80084E08093BC00089594EA9093BC0074
:101790002FEF30E003C02150304099F09091BC0011
:1017A00097FFF9CF8093BB0084E88093BC008FEF54
:1017B00090E002C0019741F02091BC0027FFFACFD2
:1017C00008951092BC00EECF1092BC00089584E9F9
:1017D0008093BC0008958093BB0084E88093BC0094
:1017E0008FEF90E002C0019729F02091BC0027FF05
:1017F000FACF08951092BC0008958823B1F094ECBC
:101800009093BC002FEF30E003C02150304079F0BE
:101810009091BC0097FFF9CF9091BB00882319F4F9
:1018200084E98093BC00892F089594E8E9CF109251
:10183000BC00F2CF84EC8093BC008FEF90E002C03C
:10184000019739F02091BC0027FFFACF8091BB00AF
:1018500008951092BC008091BB00089584E88093A5
:10186000BC008FEF90E002C0019751F02091BC00C6
:1018700027FFFACF8091BB0094E99093BC000895B4
:101880001092BC008091BB0094E99093BC00089535
:101890008FEF90E002C0019729F02091BC0027FF54
:1018A000FACF08951092BC000895880F816094EAE1
:1018B0009093BC002FEF30E004C02150304009F479
:1018C0003DC09091BC0097FFF8CF8093BB0084E8A7
:1018D0008093BC002FEF30E003C02150304089F1ED
:1018E0008091BC0087FFF9CF442371F1942F915070
:1018F000E62FF72F64E951E0D1F450E084E88093BB
:10190000BC002FEF30E003C02150304091F08091B7
:10191000BC0087FFF9CF8091BB00552311F4609381
:10192000BC008193992341F0915051E031F384EC54
:10193000E6CF1092BC00EFCF842F08951092BC0028
:10194000C4CF1092BC00D0CF80E00895382F330F61
:1019500094EA9093BC00EFEFF0E003C0319709F4F4
:101960006CC09091BC0097FFF9CF3093BB0094E816
:101970009093BC00EFEFF0E003C0319709F460C032
:101980009091BC0097FFF9CF6093BB0094E89093CF
:10199000BC006FEF70E004C06150704009F453C0A8
:1019A0009091BC0097FFF8CF880F816094EA9093E4
:1019B000BC006FEF70E004C06150704009F446C095
:1019C0009091BC0097FFF8CF8093BB0084E8809390
:1019D000BC006FEF70E003C061507040D1F1909196
:1019E000BC0097FFF9CF222331F1322F3150E42F81
:1019F000F52F64E981E0D1F480E094E89093BC0095
:101A00004FEF50E003C04150504091F09091BC0026
:101A100097FFF9CF9091BB00882311F46093BC002D
:101A20009193332341F0315081E031F394ECE6CFD0
:101A30001092BC00EFCF822F08951092BC0095CF7A
:101A40001092BC00A1CF1092BC00AECF1092BC008F
:101A5000BBCF1092BC00C7CF880F94EA9093BC0014
:101A60002FEF30E003C02150304091F19091BC0045
:101A700097FFF9CF8093BB0084E88093BC008FEF81
:101A800090E002C0019739F12091BC0027FFFACF06
:101A90006093BB0084E88093BC008FEF90E002C0AD
:101AA0000197E1F02091BC0027FFFACF4093BB00E3
:101AB00084E88093BC008FEF90E002C0019789F02A
:101AC0002091BC0027FFFACF84E98093BC000895E1
:101AD0001092BC00CFCF1092BC00DACF1092BC00A5
:101AE000E5CF1092BC0084E98093BC000895482F94
:101AF000440F94EA9093BC002FEF30E004C02150D3
:101B0000304009F45BC09091BC0097FFF8CF409340
:101B1000BB0094E89093BC002FEF30E004C021504C
:101B2000304009F44EC09091BC0097FFF8CF60930D
:101B3000BB0094E89093BC002FEF30E004C021502C
:101B4000304009F441C09091BC0097FFF8CF880F56
:101B5000816094EA9093BC002FEF30E003C02150E5
:101B60003040A9F19091BC0097FFF9CF8093BB0062
:101B700084E88093BC008FEF90E002C0019751F1A0
:101B80002091BC0027FFFACF84E88093BC008FEF40
:101B900090E002C0019751F02091BC0027FFFACFDE
:101BA0008091BB0094E99093BC0008951092BC0012
:101BB0008091BB0094E99093BC0008951092BC0002
:101BC000A6CF1092BC00B3CF1092BC00C0CF109231
:101BD000BC00CCCF1092BC00D7CF88E090E09093AF
:101BE000C5008093C400E1ECF0E0808180618083D7
:101BF0008081886080838081806880838081806428
:101C00008083E2ECF0E08081826080838081846068
:101C100080831092E8021092E7021092EA0210927A
:101C2000E9021092EC021092EB021092EE02109276
:101C3000ED021092F0021092EF020895FC018091E3
:101C4000E7029091E802918380838091E90290916C
:101C5000EA02938382838091EB029091EC02958358
:101C600084838091ED029091EE0297838683809128
:101C7000EF029091F002918780871092E802109213
:101C8000E7021092EA021092E9021092EC0210921E
:101C9000EB021092EE021092ED021092F0021092FE
:101CA000EF02089540919901461768F4242F30E01F
:101CB000FC01E20FF31F50812F503D4FF90150837B
:101CC0004F5F461798F380919901860F8093990191
:101CD000E0919901F0E0EF50FD4F10828091990161
:101CE000681308958091C00085FFFCCF8091F102B8
:101CF0008093C60081E0809398010895662369F07F
:101D0000E82FF92F90E08091C00085FFFCCF8191F2
:101D10008093C6009F5F9617B0F308951F920F92AD
:101D20000FB60F9211242F933F934F935F936F93AE
:101D30007F938F939F93AF93BF93EF93FF93809184
:101D4000C60080939D0180919B018823B1F480910E
:101D50009D018A3209F472C0FF91EF91BF91AF915A
:101D60009F918F917F916F915F914F913F912F91B3
:101D70000F900FBE0F901F901895E0919A01F0E020
:101D800080919D01ED5DFC4F8083E0919A01F0E030
:101D9000EE5DFC4F808180939E0180919A018F5F60
:101DA00080939A0180919E018332C1F180919D01BF
:101DB0008A3209F44BC080919E018D3209F44EC0E5
:101DC00080919E018A3241F2E0919C01F0E02091E5
:101DD0000201EE0FFF1FE951FD4F30E040815181BC
:101DE000429FC001439F900D529F900D11249183FB
:101DF0008083E0919C01F0E080919E01EE0FFF1F37
:101E0000E951FD4F90E0C09720813181820F931FEF
:101E1000918380838AE0809302019ECF80919D010F
:101E2000833221F610929B0110929C0181E08093F5
:101E3000020180E290E00E94B6088ECF80932303D7
:101E400081E080939A0180939B0186CF10929B0141
:101E500010929C0181E0809302017ECF80919C01D1
:101E60008F5F80939C0181E08093020175CF1F9268
:101E70000F920FB60F9211248F939F93EF93FF93BE
:101E800080919901882369F4109299011092980128
:101E9000FF91EF919F918F910F900FBE0F901F9028
:101EA000189580919801E82FF0E0EF50FD4F908158
:101EB0009093C6008F5F8093980180919901815023
:101EC00080939901E5CF1092A00110929F0110928A
:101ED000A2011092A1011092A4011092A3011092EC
:101EE000A6011092A5011092A8011092A70181E00D
:101EF00008952F923F924F925F926F927F928F92AE
:101F00009F92AF92BF92CF92DF92EF92FF920F9388
:101F10001F93DF93CF93CDB7DEB7A4970FB6F89496
:101F2000DEBF0FBECDBF8C0160E20E94AD088823EA
:101F300009F090C0C80162E00E94AD08882309F44E
:101F400070C0E090BD02F090BE02C090BF02D09081
:101F5000C002A090C102B090C2028090C3029090D3
:101F6000C4026090CA027090CB024090CE025090A2
:101F7000CF02209072013090730140917401509112
:101F8000750160917601709177018091780190914F
:101F9000790198A38F8F49A35AA36BA37CA30E94B6
:101FA000B720ADB7BEB75A970FB6F894BEBF0FBEF5
:101FB000ADBFEDB7FEB731968E010F5F1F4F129682
:101FC0001C930E93119723E031E033832283F58233
:101FD000E482D782C682B186A08693868286758681
:101FE000648657864686318A208A49A15AA1538B36
:101FF000428B6BA17CA1758B648B2F8D38A1378BA5
:10200000268B918F808F0E94A62A682F8DB79EB74E
:102010004A960FB6F8949EBF0FBE8DBFC8010E94AE
:10202000520EA4960FB6F894DEBF0FBECDBFCF916F
:10203000DF911F910F91FF90EF90DF90CF90BF90B5
:10204000AF909F908F907F906F905F904F903F9058
:102050002F9008958FE991E00E941E0E80919F01BC
:102060009091A0010097C9F08130910511F1823063
:102070009105D9F18330910509F45CCF8430910545
:1020800009F058CF8091A1019091A2018130910572
:1020900099F1E0E0F0E009954DCF8091A101909198
:1020A000A20123E0893E920708F044CF0E94BC20A1
:1020B00041CF8091A1019091A2019093D70280938A
:1020C000D6028091A3019091A401909581959F4F94
:1020D0009093D9028093D8028091A5019091A60196
:1020E0009093DB028093DA0225CF0E94C415809181
:1020F000A1010E94CD151ECF0E94D006CACF80E05C
:1021000090E0DC018093B8019093B901A093BA01EB
:10211000B093BB018093C0019093C101A093C20111
:10212000B093C3018093CE019093CF01A093D001CF
:10213000B093D1018093BC019093BD01A093BE01E7
:10214000B093BF018093C4019093C501A093C601D1
:10215000B093C7018093CA019093CB01A093CC01A7
:10216000B093CD011092AC011092AD011092AE016E
:102170001092AF011092B0011092B1011092B20111
:102180001092B3011092B4011092B5011092B601F1
:102190001092B7011092C9011092C8011092AB01C0
:1021A0001092AA011092D2011092D3011092D40180
:1021B0001092D5011092D6011092D7011092D80139
:1021C0001092D9011092CB021092CA021092CF0243
:1021D0001092CE021092BC021092BB021092CD025D
:1021E0001092CC021092A9010E9448040E94BA00E9
:1021F0000E94CE040E94F6010E94450481E00895E9
:102200002F923F924F925F926F927F928F929F9206
:10221000AF92BF92CF92DF92EF92FF920F931F93F4
:10222000DF93CF93CDB7DEB7A6970FB6F894DEBF96
:102230000FBECDBF6C0161E00E94AD08813091F10D
:10224000C60162E00E94AD08C60160E10E94AD08CF
:102250008130C9F0A6960FB6F894DEBF0FBECDBF91
:10226000CF91DF911F910F91FF90EF90DF90CF9072
:10227000BF90AF909F908F907F906F905F904F90A6
:102280003F902F9008958091AA019091AB01009703
:1022900009F78091C3029091C4029093AB0180939F
:1022A000AA01D8CF0E94CA092091AC013091AD019A
:1022B0004091AE015091AF01621B730B840B950BE3
:1022C0006093B0017093B1018093B2019093B30118
:1022D0000E94CA096093AC017093AD018093AE0176
:1022E0009093AF018090B0019090B101A090B201A5
:1022F000B090B3018091B4019091B501A091B60165
:10230000B091B70188159905AA05BB0540F48092E4
:10231000B4019092B501A092B601B092B7011A82B1
:1023200019821C821B821E821D8218861F821A86B9
:1023300019861C861B861E861D86188A1F861A8A89
:10234000198ACE0107960E942401882309F49EC0B1
:102350006F817885709561957F4F78876F83098548
:102360001A85109501951F4F1A870987882777FDD1
:102370008095982F0E940B272B013C01B8018827DC
:1023800077FD8095982F0E940B276B8B7C8B8D8B14
:102390009E8B9B01AC010E942428062FF72EE82E6D
:1023A0009F8B6B857C85882777FD8095982F0E9471
:1023B0000B276093CE017093CF018093D00190934F
:1023C000D1019B01AC010E942428162F372E282E04
:1023D0009F8F2F89602F7F2D8E2D922FEF8D212F94
:1023E000332D422D5E2F0E94A3250E94DD289B01E4
:1023F000AC01C301B2010E9416266F8B788F898FC2
:102400009A8FC301B201A30192010E942428F62EE3
:10241000472EE82E092F8F8D212F332D422D582F37
:10242000CA01B9012F2D342D4E2D502F0E94A32506
:102430000E94DD289B01AC016B897C898D899E8976
:102440000E9416267B018C016F89788D898D9A8D6B
:1024500020EE3EE245E652E40E9424286093B80153
:102460007093B9018093BA019093BB01C801B70181
:1024700020EE3EE245E652E40E9424286093C0012B
:102480007093C1018093C2019093C301CE01019664
:102490000E941905882309F4CBC009811A8110957F
:1024A00001951F4F1A8309834B805C80ED80FE806D
:1024B000F094E194F108F394FE82ED82C501B40139
:1024C0000E9409274B015C01B801882777FD8095A0
:1024D000982F0E940B2720E030E046E651E40E944E
:1024E0007026A50194010E94242820E034E244E7EC
:1024F00059E40E9470269B01AC016091C401709167
:10250000C5018091C6019091C7010E94A3256093E7
:10251000C4017093C5018093C6019093C701B201B5
:10252000882777FD8095982F0E940B2720E030E0C8
:1025300046E651E40E9470269B01AC01C501B4013E
:102540000E94242820E034E244E759E40E947026E7
:102550009B01AC016091BC017091BD018091BE01F5
:102560009091BF010E94A3256093BC017093BD01AF
:102570008093BE019093BF01B701882777FD8095B6
:10258000982F0E940B2720E030E046E651E40E949D
:1025900070269B01AC01C501B4010E94242820E0F3
:1025A00034E244E759E40E9470262091CA01309138
:1025B000CB014091CC015091CD010E94A325E62E84
:1025C000072F882E192F862F902FA82DB12F80939B
:1025D000CA019093CB01A093CC01B093CD016E2D95
:1025E000702F882D912F20E030E0A9010E946926EC
:1025F00087FD95C26E2D702F882D912F20E030E041
:1026000044EB53E40E941928181694F46E2D702F91
:10261000882D912F20E030E044EB53E40E94A22566
:102620006093CA017093CB018093CC019093CD014C
:10263000CE010D960E947204882309F42BC10D85EA
:102640001E85109501951F4F1E870D872F84388892
:10265000E988FA88F094E194F108F394FA8AE98A17
:102660008090B8019090B901A090BA01B090BB01E0
:10267000C501B40120E030E040E252E40E94192894
:1026800018160CF010C14090BC015090BD01609034
:10269000BE017090BF016091B0017091B101809155
:1026A000B2019091B3010E9409277B018C01C50101
:1026B000B401A30192010E94341620E030E040E210
:1026C00051E40E9424280E94D8267093BE02609391
:1026D000BD028090C0019090C101A090C201B09055
:1026E000C3014090C4015090C5016090C601709034
:1026F000C7016091B0017091B1018091B2019091D8
:10270000B3010E9409277B018C01C501B401A3011B
:1027100092010E947B1820E030E040E251E40E94E8
:1027200024280E94D8267093C0026093BF02609153
:10273000C8017091C90180E090E00E9409274B0117
:102740005C014090CA015090CB016090CC01709028
:10275000CD016091B0017091B1018091B201909171
:10276000B3010E9409277B018C01C501B401A301BB
:1027700092010E94C21A0E94D8267093C2026093EE
:10278000C1020E941A022091AA013091AB01621B82
:10279000730B7093C4026093C3026091D602709170
:1027A000D702882777FD8095982F0E940B274B0131
:1027B0005C016091BD027091BE02882777FD809513
:1027C000982F0E940B278B019C0180E0B501A4018A
:1027D0000E9453219093CB028093CA026091D80249
:1027E0007091D902882777FD8095982F0E940B273A
:1027F0004B015C016091BF027091C002882777FD98
:102800008095982F0E940B278B019C0181E0B501D8
:10281000A4010E9453219093CF028093CE02009195
:10282000C1021091C2026091DA027091DB02600F66
:10283000711F882777FD8095982F0E940B274B01E9
:102840005C01B801882777FD8095982F0E940B279F
:102850008B019C0182E0B501A4010E945321AC01CF
:102860009093BC028093BB028091C702813009F42F
:1028700069C16091CE027091CF028091CA0290919D
:10288000CB020E946A1F0E94B7209093D1028093CE
:10289000D002D6CC8090B8019090B901A090BA0136
:1028A000B090BB01F0CEC501B40120E030E040E2C1
:1028B00052EC0E94692687FDE6CE4090C001509000
:1028C000C1016090C2017090C301C301B20120E058
:1028D00030E040E252E40E94192818160CF4D3CEDE
:1028E000C301B20120E030E040E252EC0E946926D0
:1028F00087FDC9CEC301B20125E33AEF4EE85CE3A0
:102900000E942428462E772E682E592E0E946D266E
:102910006F8B788F898F9A8F642D772D862D952DCB
:102920000E94D3286B8B7C8B8D8B9E8BC501B40151
:1029300025E33AEF4EE85CE30E942428762E672ECA
:10294000582E492EA3019201652F742F832F922FA9
:102950000E946D266B8F7C8F8D8F9E8FA3019201BD
:10296000652F742F832F922F0E94D3286F8F78A307
:1029700089A39AA3B801882777FD8095982F0E9494
:102980000B272B013C01B701882777FD8095982FF5
:102990000E940B277B018C016B897C898D899E8924
:1029A000A30192010E9424289B01AC016F8D78A1A4
:1029B00089A19AA10E9424286BA37CA38DA39EA326
:1029C000B101882777FD8095982F0E940B279B01E6
:1029D000AC016F89788D898D9A8D0E9424289B0186
:1029E000AC016BA17CA18DA19EA10E94A3256F8B40
:1029F000788F898F9A8F6B897C898D899E89A801B0
:102A000097010E9424289B01AC016B8D7C8D8D8DDC
:102A10009E8D0E9424289B01AC016F89788D898D41
:102A20009A8D0E94A2256B8B7C8B8D8B9E8B6B8DE0
:102A30007C8D8D8D9E8DA30192010E9424282B01F7
:102A40003C016F8D78A189A19AA1A80197010E94EC
:102A500024289B01AC01C301B2010E94A3259B0164
:102A6000AC016B897C898D899E890E9416262AEC8F
:102A700037E34BE55CE30E94A225162F072FF82EC3
:102A8000E92EA8019701652F742F832F922F20E044
:102A900030E0A9010E94692687FF10C0A8019701B4
:102AA000652F742F832F922F2BED3FE049EC50E4DC
:102AB0000E94A325162F072FF82EE92EA8019701B3
:102AC000652F702F832F9E2D2BED3FE049EC50E4B6
:102AD0000E941928181684F4A8019701652F702FF9
:102AE000832F9E2D2BED3FE049EC50E40E94A22560
:102AF000162F072FF82EE92EA8019701652F702FAA
:102B0000832F9E2D20EE3EE245E652E40E942428CB
:102B10000E94DD267093C9016093C801B4CD6E2D6B
:102B2000702F882D912F20E030E044EB53E40E9479
:102B3000A3256093CA017093CB018093CC0190933D
:102B4000CD0176CD6091DC027091DD0280E090E0F5
:102B50000E9409274B015C016091C3027091C4027D
:102B600080E090E00E9409278B019C0183E0B50181
:102B7000A4010E9453219093CD028093CC024091F6
:102B8000BB025091BC0275CE8091C3029091C402E9
:102B90009093AB018093AA010895882319F41092B1
:102BA000C702089591E09093C7022091AA01309145
:102BB000AB01280F311D3093DD022093DC02089514
:102BC0009F92AF92BF92CF92DF92EF92FF920F93BC
:102BD0001F93DF93CF93CDB7DEB762970FB6F8940C
:102BE000DEBF0FBECDBFBB2497E0E92EF12CEC0E6B
:102BF000FD1E8E010F5F1F4F8DE0C82ED12CCC0E15
:102C0000DD1EC7010E942401C8010E941905C601EA
:102C10000E9472040E940D05A82E0E941801982E91
:102C20000E946C04990C880F880F8929BA28B82A49
:102C30008B2D873029F084E190E00E94160AE1CFC5
:102C40000E94D60662960FB6F894DEBF0FBECDBFC7
:102C5000CF91DF911F910F91FF90EF90DF90CF9078
:102C6000BF90AF909F9008952F923F924F925F92A6
:102C70006F927F928F929F92AF92BF92CF92DF928C
:102C8000EF92FF920F931F93DF93CF93CDB7DEB7F1
:102C90006D970FB6F894DEBF0FBECDBF698F7A8FE8
:102CA0008B8F9C8F59016A01C801B70120E030E485
:102CB0004CE156E40E94702669837A838B839C835F
:102CC0007B018C01CB01AB81BC818093710390931C
:102CD0007203A0937303B09374038091DE0190910B
:102CE000DF01A091E001B091E1018D879E87AF8760
:102CF000B88BC601B5012D853E854F8558890E9448
:102D0000A2259B01AC0169817A818B819C810E9403
:102D100024282091DA013091DB014091DC015091AF
:102D2000DD010E94A3256D837E838F83988717FB27
:102D3000109517F910956090EA017090EB01809062
:102D4000EC019090ED01A090E601B090E701C090F9
:102D5000E801D090E901C401B301A60195010E94E8
:102D6000A3259B01AC01C801B7010E9424281B01C7
:102D70002C0169817A818B819C812FE632E143E8C5
:102D80005AE30E9424289B01AC01C201B1010E94B8
:102D9000A3252091E2013091E3014091E40150919B
:102DA000E5010E94A325262E472E382E9987809173
:102DB000EE019091EF01A091F001B091F101898BAA
:102DC0009A8BAB8BBC8BC801B70129893A894B8997
:102DD0005C890E942428F62E072F182FE92EC601A1
:102DE000B5012F2D302F412F5E2D0E94A3256D8B15
:102DF0007E8B8F8B988FC401B3012F2D302F412FE5
:102E00005E2D0E94A325662E972E882E792E298569
:102E1000622D742D832D922F2FE832EC45EF5CE369
:102E20000E94A325E62ED72EC82EB92E862F9D2DC3
:102E3000AC2DBB2D8093790390937A03A0937B03F1
:102E4000B0937C032985622D742D832D922F2E2D16
:102E50003D2D4C2D5B2D0E947026F62E072F182F2E
:102E6000A92E862F902FA12FBA2D809359039093CE
:102E70005A03A0935B03B0935C03662D792D882DD4
:102E8000972D2E2D3D2D4C2D5B2D0E947026562EFC
:102E90007A878B879C87472F382F292F862F942F4F
:102EA000A32FB22F8093690390936A03A0936B03BF
:102EB000B0936C03698D7A8D8B8D9C8DBD81AE81B5
:102EC000EF80D8842B2F3A2F4E2D5D2D0E94A22506
:102ED000E62ED72EC82EB92E862F9D2DAC2DBB2DBC
:102EE00080936D0390936E03A0936F03B093700370
:102EF0006F2D702F812F9A2D2E2D3D2D4C2D5B2D5A
:102F00000E9424289B01AC01BD81AE819F81998FD5
:102F1000E885ED8F6B2F7A2F892F9E2F0E94A32596
:102F20006D837E838F839887472F382F292F862F95
:102F3000942FA32FB22F8093DA019093DB01A093FB
:102F4000DC01B093DD014A853B852C85652D742F0E
:102F5000832F922F2E2D3D2D4C2D5B2D0E9424284A
:102F60009B01AC016D857E858F8598890E94A32584
:102F70006093DE017093DF018093E0019093E101A3
:102F80002985622D742D832D922F2F2D302F412FC7
:102F90005A2D0E9424289B01AC01D984622D742DE6
:102FA000832D9D2D0E94A225E62ED72EC82EB92E48
:102FB000862F9D2DAC2DBB2D8093E2019093E301D4
:102FC000A093E401B093E5015D894E893F89288D86
:102FD000652F742F832F922F2F2D302F412F5A2D95
:102FE0000E9424289B01AC01BD89AE891F89088DF0
:102FF0006B2F7A2F812F902F0E94A225F62E072F5C
:10300000182FA92E862F902FA12FBA2D8093E6017D
:103010009093E701A093E801B093E9014A853B85CD
:103020002C85652D742F832F922F2E2D3D2D4C2D09
:103030005B2D0E9424289B01AC01662D792D882DE3
:10304000972D0E94A2256093EA017093EB01809373
:10305000EC019093ED0169817A818B819C8126EA54
:103060003BE944E45BE30E9424289B01AC016989AD
:103070007A898B899C890E94A3253B014C014A8552
:103080003B852C85652D742F832F922F2F2D302F6C
:10309000412F5A2D0E9424289B01AC01C401B30189
:1030A0000E94A2256093EE017093EF018093F001DE
:1030B0009093F1015D814E813F812885652F742FAA
:1030C000832F922F6D960FB6F894DEBF0FBECDBF43
:1030D000CF91DF911F910F91FF90EF90DF90CF90F4
:1030E000BF90AF909F908F907F906F905F904F9028
:1030F0003F902F9008952F923F924F925F926F9240
:103100007F928F929F92AF92BF92CF92DF92EF9277
:10311000FF920F931F93DF93CF93CDB7DEB76D97D9
:103120000FB6F894DEBF0FBECDBF698F7A8F8B8F3D
:103130009C8F59016A01C801B70120E030E44CE1DD
:1031400056E40E94702669837A838B839C837B017B
:103150008C01CB01AB81BC8180935D0390935E03B6
:10316000A0935F03B09360038091F6019091F70103
:10317000A091F801B091F9018D879E87AF87B88B38
:10318000C601B5012D853E854F8558890E94A2252F
:103190009B01AC0169817A818B819C810E942428EA
:1031A0002091F2013091F3014091F4015091F50129
:1031B0000E94A3256D837E838F83988717FB1095CC
:1031C00017F910956090020270900302809004023B
:1031D00090900502A090FE01B090FF01C090000207
:1031E000D0900102C401B301A60195010E94A3255C
:1031F0009B01AC01C801B7010E9424281B012C01CE
:1032000069817A818B819C812FE632E143E85AE320
:103210000E9424289B01AC01C201B1010E94A32598
:103220002091FA013091FB014091FC015091FD0188
:103230000E94A325262E472E382E998780910602BC
:1032400090910702A0910802B0910902898B9A8B94
:10325000AB8BBC8BC801B70129893A894B895C8942
:103260000E942428F62E072F182FE92EC601B5013B
:103270002F2D302F412F5E2D0E94A3256D8B7E8B2D
:103280008F8B988FC401B3012F2D302F412F5E2DCE
:103290000E94A325662E972E882E792E2985622DD1
:1032A000742D832D922F2FE832EC45EF5CE30E94C2
:1032B000A325E62ED72EC82EB92E862F9D2DAC2DF8
:1032C000BB2D8093750390937603A0937703B093FF
:1032D00078032985622D742D832D922F2E2D3D2D5F
:1032E0004C2D5B2D0E947026F62E072F182FA92E2D
:1032F000862F902FA12FBA2D80938D0390938E034C
:10330000A0938F03B0939003662D792D882D972D70
:103310002E2D3D2D4C2D5B2D0E947026562E7A872A
:103320008B879C87472F382F292F862F942FA32FE9
:10333000B22F8093A1039093A203A093A303B09311
:10334000A403698D7A8D8B8D9C8DBD81AE81EF80BC
:10335000D8842B2F3A2F4E2D5D2D0E94A225E62ECC
:10336000D72EC82EB92E862F9D2DAC2DBB2D809328
:10337000550390935603A0935703B09358036F2DB2
:10338000702F812F9A2D2E2D3D2D4C2D5B2D0E94BF
:1033900024289B01AC01BD81AE819F81998FE88576
:1033A000ED8F6B2F7A2F892F9E2F0E94A3256D837F
:1033B0007E838F839887472F382F292F862F942F2E
:1033C000A32FB22F8093F2019093F301A093F40105
:1033D000B093F5014A853B852C85652D742F832F8D
:1033E000922F2E2D3D2D4C2D5B2D0E9424289B01CC
:1033F000AC016D857E858F8598890E94A325609399
:10340000F6017093F7018093F8019093F9012985F3
:10341000622D742D832D922F2F2D302F412F5A2D59
:103420000E9424289B01AC01D984622D742D832D28
:103430009D2D0E94A225E62ED72EC82EB92E862FAE
:103440009D2DAC2DBB2D8093FA019093FB01A09391
:10345000FC01B093FD015D894E893F89288D652F60
:10346000742F832F922F2F2D302F412F5A2D0E94F2
:1034700024289B01AC01BD89AE891F89088D6B2F63
:103480007A2F812F902F0E94A225F62E072F182F1A
:10349000A92E862F902FA12FBA2D8093FE019093F5
:1034A000FF01A0930002B09301024A853B852C8561
:1034B000652D742F832F922F2E2D3D2D4C2D5B2D9E
:1034C0000E9424289B01AC01662D792D882D972D13
:1034D0000E94A2256093020270930302809304026B
:1034E0009093050269817A818B819C8126EA3BE970
:1034F00044E45BE30E9424289B01AC0169897A893A
:103500008B899C890E94A3253B014C014A853B8500
:103510002C85652D742F832F922F2F2D302F412F27
:103520005A2D0E9424289B01AC01C401B3010E94C2
:10353000A22560930602709307028093080290937D
:1035400009025D814E813F812885652F742F832F6D
:10355000922F6D960FB6F894DEBF0FBECDBFCF9100
:10356000DF911F910F91FF90EF90DF90CF90BF9070
:10357000AF909F908F907F906F905F904F903F9013
:103580002F9008952F923F924F925F926F927F9269
:103590008F929F92AF92BF92CF92DF92EF92FF9263
:1035A0000F931F93DF93CF93CDB7DEB76D970FB611
:1035B000F894DEBF0FBECDBF698F7A8F8B8F9C8F43
:1035C00059016A01C801B70120E030E44CE156E43A
:1035D0000E94702669837A838B839C837B018C0194
:1035E000CB01AB81BC818093950390939603A0930C
:1035F0009703B093980380910E0290910F02A091CF
:103600001002B09111028D879E87AF87B88BC601DB
:10361000B5012D853E854F8558890E94A2259B01C5
:10362000AC0169817A818B819C810E942428209140
:103630000A0230910B0240910C0250910D020E943F
:10364000A3256D837E838F83988717FB109517F9C9
:10365000109560901A0270901B0280901C0290904E
:103660001D02A0901602B0901702C0901802D090D0
:103670001902C401B301A60195010E94A3259B0173
:10368000AC01C801B7010E9424281B012C016981EB
:103690007A818B819C812FE632E143E85AE30E94D4
:1036A00024289B01AC01C201B1010E94A3252091F5
:1036B00012023091130240911402509115020E949F
:1036C000A325262E472E382E998780911E02909191
:1036D0001F02A0912002B0912102898B9A8BAB8BA3
:1036E000BC8BC801B70129893A894B895C890E9442
:1036F0002428F62E072F182FE92EC601B5012F2DED
:10370000302F412F5E2D0E94A3256D8B7E8B8F8BDA
:10371000988FC401B3012F2D302F412F5E2D0E94B1
:10372000A325662E972E882E792E2985622D742D3D
:10373000832D922F2FE832EC45EF5CE30E94A32506
:10374000E62ED72EC82EB92E862F9D2DAC2DBB2D43
:103750008093910390939203A0939303B093940367
:103760002985622D742D832D922F2E2D3D2D4C2DCC
:103770005B2D0E947026F62E072F182FA92E862F5C
:10378000902FA12FBA2D8093850390938603A09349
:103790008703B0938803662D792D882D972D2E2DC4
:1037A0003D2D4C2D5B2D0E947026562E7A878B87DF
:1037B0009C87472F382F292F862F942FA32FB22F86
:1037C0008093990390939A03A0939B03B0939C03D7
:1037D000698D7A8D8B8D9C8DBD81AE81EF80D88473
:1037E0002B2F3A2F4E2D5D2D0E94A225E62ED72E8F
:1037F000C82EB92E862F9D2DAC2DBB2D80937D0319
:1038000090937E03A0937F03B09380036F2D702F5E
:10381000812F9A2D2E2D3D2D4C2D5B2D0E9424287D
:103820009B01AC01BD81AE819F81998FE885ED8FB1
:103830006B2F7A2F892F9E2F0E94A3256D837E8365
:103840008F839887472F382F292F862F942FA32FC8
:10385000B22F80930A0290930B02A0930C02B093B4
:103860000D024A853B852C85652D742F832F922F61
:103870002E2D3D2D4C2D5B2D0E9424289B01AC014B
:103880006D857E858F8598890E94A32560930E02A1
:1038900070930F0280931002909311022985622D7C
:1038A000742D832D922F2F2D302F412F5A2D0E94B2
:1038B00024289B01AC01D984622D742D832D9D2D6C
:1038C0000E94A225E62ED72EC82EB92E862F9D2D1A
:1038D000AC2DBB2D8093120290931302A09314027F
:1038E000B09315025D894E893F89288D652F742F0D
:1038F000832F922F2F2D302F412F5A2D0E942428B5
:103900009B01AC01BD89AE891F89088D6B2F7A2F71
:10391000812F902F0E94A225F62E072F182FA92E57
:10392000862F902FA12FBA2D809316029093170205
:10393000A0931802B09319024A853B852C85652D0A
:10394000742F832F922F2E2D3D2D4C2D5B2D0E94F9
:1039500024289B01AC01662D792D882D972D0E947E
:10396000A22560931A0270931B0280931C0290930D
:103970001D0269817A818B819C8126EA3BE944E4BE
:103980005BE30E9424289B01AC0169897A898B89B9
:103990009C890E94A3253B014C014A853B852C85CF
:1039A000652D742F832F922F2F2D302F412F5A2DBD
:1039B0000E9424289B01AC01C401B3010E94A225EE
:1039C00060931E0270931F02809320029093210245
:1039D0005D814E813F812885652F742F832F922F23
:1039E0006D960FB6F894DEBF0FBECDBFCF91DF91BD
:1039F0001F910F91FF90EF90DF90CF90BF90AF900D
:103A00009F908F907F906F905F904F903F902F90FE
:103A100008952F923F924F925F926F927F928F9272
:103A20009F92AF92BF92CF92DF92EF92FF920F934D
:103A30001F93DF93CF93CDB7DEB76D970FB6F89492
:103A4000DEBF0FBECDBF698F7A8F8B8F9C8F5901E0
:103A50006A01C801B70120E030E44CE156E40E945D
:103A6000702669837A838B839C837B018C01CB01D5
:103A7000AB81BC818093650390936603A093670339
:103A8000B09368038091260290912702A0912802AA
:103A9000B09129028D879E87AF87B88BC601B5018B
:103AA0002D853E854F8558890E94A2259B01AC013A
:103AB00069817A818B819C810E9424282091220235
:103AC0003091230240912402509125020E94A325A7
:103AD0006D837E838F83988717FB109517F9109558
:103AE00060903202709033028090340290903502E0
:103AF000A0902E02B0902F02C0903002D0903102E0
:103B0000C401B301A60195010E94A3259B01AC014C
:103B1000C801B7010E9424281B012C0169817A8108
:103B20008B819C812FE632E143E85AE30E942428EE
:103B30009B01AC01C201B1010E94A32520912A0280
:103B400030912B0240912C0250912D020E94A3250E
:103B5000262E472E382E9987809136029091370273
:103B6000A0913802B0913902898B9A8BAB8BBC8BB8
:103B7000C801B70129893A894B895C890E942428A8
:103B8000F62E072F182FE92EC601B5012F2D302F45
:103B9000412F5E2D0E94A3256D8B7E8B8F8B988F7E
:103BA000C401B3012F2D302F412F5E2D0E94A3257C
:103BB000662E972E882E792E2985622D742D832DC1
:103BC000922F2FE832EC45EF5CE30E94A325E62E0E
:103BD000D72EC82EB92E862F9D2DAC2DBB2D8093B0
:103BE000610390936203A0936303B09364032985F8
:103BF000622D742D832D922F2E2D3D2D4C2D5B2D5E
:103C00000E947026F62E072F182FA92E862F902F90
:103C1000A12FBA2D8093890390938A03A0938B03DD
:103C2000B0938C03662D792D882D972D2E2D3D2D4B
:103C30004C2D5B2D0E947026562E7A878B879C8791
:103C4000472F382F292F862F942FA32FB22F809301
:103C50009D0390939E03A0939F03B093A003698D4F
:103C60007A8D8B8D9C8DBD81AE81EF80D8842B2F7A
:103C70003A2F4E2D5D2D0E94A225E62ED72EC82E5E
:103C8000B92E862F9D2DAC2DBB2D80938103909353
:103C90008203A0938303B09384036F2D702F812F31
:103CA0009A2D2E2D3D2D4C2D5B2D0E9424289B01FD
:103CB000AC01BD81AE819F81998FE885ED8F6B2F1F
:103CC0007A2F892F9E2F0E94A3256D837E838F8359
:103CD0009887472F382F292F862F942FA32FB22F65
:103CE0008093220290932302A0932402B093250292
:103CF0004A853B852C85652D742F832F922F2E2D81
:103D00003D2D4C2D5B2D0E9424289B01AC016D851F
:103D10007E858F8598890E94A325609326027093E3
:103D2000270280932802909329022985622D742D01
:103D3000832D922F2F2D302F412F5A2D0E94242872
:103D40009B01AC01D984622D742D832D9D2D0E9481
:103D5000A225E62ED72EC82EB92E862F9D2DAC2D4E
:103D6000BB2D80932A0290932B02A0932C02B09338
:103D70002D025D894E893F89288D652F742F832FF1
:103D8000922F2F2D302F412F5A2D0E9424289B0136
:103D9000AC01BD89AE891F89088D6B2F7A2F812FC9
:103DA000902F0E94A225F62E072F182FA92E862FBE
:103DB000902FA12FBA2D80932E0290932F02A093C3
:103DC0003002B09331024A853B852C85652D742FD6
:103DD000832F922F2E2D3D2D4C2D5B2D0E942428BC
:103DE0009B01AC01662D792D882D972D0E94A2256F
:103DF00060933202709333028093340290933502C1
:103E000069817A818B819C8126EA3BE944E45BE30A
:103E10000E9424289B01AC0169897A898B899C893D
:103E20000E94A3253B014C014A853B852C85652DCD
:103E3000742F832F922F2F2D302F412F5A2D0E9418
:103E400024289B01AC01C401B3010E94A225609308
:103E500036027093370280933802909339025D8165
:103E60004E813F812885652F742F832F922F6D9669
:103E70000FB6F894DEBF0FBECDBFCF91DF911F917B
:103E80000F91FF90EF90DF90CF90BF90AF909F90F9
:103E90008F907F906F905F904F903F902F900895FC
:103EA0000E94C60888EE93E090933B0280933A020A
:103EB00090937701809376019093730180937201C0
:103EC00090937901809378019093750180937401A8
:103ED00081E008958F929F92AF92BF92CF92DF922E
:103EE000EF92FF920F931F93CF93DF93D82EC92E9B
:103EF000C0913A02D0913B0283E0C93ED80708F452
:103F0000E7C05B01BE016A197B0980E090E00E9476
:103F10000927162F072FF82EE92EA8019701652FE4
:103F2000742F832F922F20E030E04AEF54E40E9458
:103F300019281816B4F588EE882E83E0982E60EDC7
:103F400077E070937701609376010D2D1C2DB801F9
:103F50006C0F7D1F80E090E00E940927F62EE72E6F
:103F6000D82EC92EA7019601652F742F832F922F6B
:103F700020E030E04AEF54E40E941928181624F19A
:103F8000A7019601652F742F832F922F20E030E038
:103F90004AE754E40E94692687FFCAC068EE73E0CE
:103FA00015C0A8019701652F742F832F922F20E051
:103FB00030E04AE754E40E94692687FFC2C08824A3
:103FC000992468EE73E0BDCF60ED77E070937301E4
:103FD00060937201BE01601B710B80E090E00E9453
:103FE00009278B01F82EE92E9701712F832F922F2D
:103FF00020E030E04AEF54E40E941928181684F0BB
:104000009701602F712F832F922F20E030E04AE735
:1040100054E40E94692687FF83C068EE73E002C003
:1040200060ED77E07093790160937801CA0DDB1D34
:10403000BE0180E090E00E9409277B018C017F2D6A
:10404000912F20E030E04AEF54E40E94192818161E
:104050000CF463C06E2D7F2D802F912F20E030E077
:104060004AE754E40E94692687FF7AC068EE73E04D
:10407000709375016093740180E0B4010E9404099B
:104080006091720170917301685E734081E00E94DB
:1040900004096091780170917901685E734082E053
:1040A0000E9404096091740170917501685E73400B
:1040B00083E00E940409DF91CF911F910F91FF903F
:1040C000EF90DF90CF90BF90AF909F908F9008952A
:1040D000D0937701C0937601D0937301C09372019E
:1040E000D0937901C0937801D0937501C093740186
:1040F00080E060E070E00E94040981E060E070E030
:104100000E94040982E060E070E00E94040983E0FC
:1041100060E070E00E940409CECF60ED77E0A8CFA8
:104120009701602F712F832F922F0E94DD267ACF67
:10413000A7019601652F742F832F922F0E94DD26F1
:1041400045CFA8019701652F742F832F922F0E94CE
:10415000DD2698E1892E9CEF992E860E971EF1CED2
:104160006E2D7F2D802F912F0E94DD2681CF809193
:104170003A0290913B02089523E0893E920730F481
:1041800088519C4F90933B0280933A0281E00895BE
:1041900020913A0230913B02280F391F87E0213DE0
:1041A000380720F430933B0220933A0281E00895CF
:1041B0008F929F92AF92BF92CF92DF92EF92FF9237
:1041C0000F931F934A015B014CE352E0682F70E0AC
:1041D000660F771F660F771FFB01EE0FFF1FEE0FB5
:1041E000FF1FE60FF71FE40FF51F80829182A28266
:1041F000B382682F70E0660F771F660F771FFB0191
:10420000EE0FFF1FEE0FFF1FE60FF71FE40FF51F66
:104210000483158326833783282F30E0220F331F32
:10422000220F331FF901EE0FFF1FEE0FFF1FE20FEA
:10423000F31FE40FF51FC086D186E286F386282F90
:1042400030E0220F331F220F331FF901EE0FFF1F43
:10425000EE0FFF1FE20FF31FE40FF51F00E010E069
:1042600098010487158726873787682F70E0660FC7
:10427000771F660F771FFB01EE0FFF1FEE0FFF1F6B
:10428000E60FF71FE40FF51F008B118B228B338B8A
:104290001F910F91FF90EF90DF90CF90BF90AF9064
:1042A0009F908F9008955F926F927F928F929F92CE
:1042B000AF92BF92CF92DF92EF92FF920F931F9334
:1042C000CF93DF93F82ECB01BA0158016901A90100
:1042D00098010E94A225862E772E682E592E8F2DAA
:1042E00090E0880F991F880F991FFC01EE0FFF1FA8
:1042F000EE0FFF1FE80FF91FE45CFD4F682D772DCF
:10430000862D952D20893189428953890E94A325C4
:10431000E62E072F182F992E8F2D90E0880F991FCA
:10432000880F991FFC01EE0FFF1FEE0FFF1FE80F14
:10433000F91FE45CFD4F8E2D902FA12FB92D808B9E
:10434000918BA28BB38B6E2D702F812F992D20E036
:1043500030E04AE754EC0E94692687FDE4C06E2DE8
:10436000702F812F992D20E030E04AE754E40E941D
:1043700019281816BCF48F2D90E0880F991F880F0C
:10438000991FFC01EE0FFF1FEE0FFF1FE80FF91F33
:10439000E45CFD4F80E090E0AAE7B4E4808B918B71
:1043A000A28BB38B8F2D90E0880F991F880F991FD8
:1043B000EC01CC0FDD1FCC0FDD1FC80FD91FC45C73
:1043C000DD4F8F2D90E0880F991F880F991FFC01FA
:1043D000EE0FFF1FEE0FFF1FE80FF91FE45CFD4F0C
:1043E000C601B50124853585468557850E94A225DD
:1043F000288539854A855B850E94242820E030E0A5
:1044000040E251E40E9470260E94D826EB018F2DD5
:1044100090E0880F991F880F991FFC01EE0FFF1F76
:10442000EE0FFF1FE80FF91FE45CFD4FA486B58671
:10443000C686D7868F2D90E0880F991F880F991F09
:10444000FC01EE0FFF1FEE0FFF1FE80FF91FE45CEA
:10445000FD4F682D772D862D952D2081318142814C
:1044600053810E94242820E030E040E251E40E9481
:1044700070265B016C018F2D90E0880F991F880FCB
:10448000991FDC01AA0FBB1FAA0FBB1FA80FB91FE2
:10449000A45CBD4F8F2D90E0880F991F880F991F46
:1044A000FC01EE0FFF1FEE0FFF1FE80FF91FE45C8A
:1044B000FD4F14966D917D918D919C911797208958
:1044C0003189428953890E94242820E030E040E26B
:1044D00051E40E9470269B01AC01C601B5010E9407
:1044E000A3257B018C01BE01882777FD8095982F3D
:1044F0000E940B279B01AC01C801B7010E94A325B4
:104500000E94D826CB01DF91CF911F910F91FF9090
:10451000EF90DF90CF90BF90AF909F908F907F9063
:104520006F905F9008958F2D90E0880F991F880FEE
:10453000991FFC01EE0FFF1FEE0FFF1FE80FF91F81
:10454000E45CFD4F80E090E0AAE7B4EC808B918BB7
:10455000A28BB38B27CF10928C0281E080938E02C6
:1045600085E080938D02089564E00E94AD08882361
:1045700059F080918E02813041F080918D02882324
:1045800019F0815080938D02089580918D028823C7
:10459000C1F780918C028B5F80938C02853150F043
:1045A00085E180938C0210928E0285E190E00E945A
:1045B000BC20089590E0FBCF1092A5031092AD03AC
:1045C0001092AC031092AE031092B6031092B50392
:1045D0001092B7031092BF031092BE031092C00353
:1045E0001092C8031092C7031092C9031092D1030E
:1045F0001092D0031092B000E1EBF0E08081846073
:1046000080831092B20088E18093B30089EF809399
:10461000B400B99AE0E7F0E0808182608083BA9AC2
:10462000808184608083089590E0FC01EE0FFF1F7D
:10463000EE0FFF1FEE0FFF1FE80FF91FEB55FC4FAA
:10464000728361831482138245833087278381E0DC
:104650008083089590E0FC01EE0FFF1FEE0FFF1F17
:10466000EE0FFF1FE80FF91FEB55FC4F72836183BC
:104670001482138245833087278381E080830895E5
:1046800090E0FC01EE0FFF1FEE0FFF1FEE0FFF1F6C
:10469000E80FF91FEB55FC4F1082089590E0FC01E4
:1046A000EE0FFF1FEE0FFF1FEE0FFF1FE80FF91FAA
:1046B000EB55FC4F1082128211821482138282E029
:1046C000858310861782089590E0FC01EE0FFF1F8E
:1046D000EE0FFF1FEE0FFF1FE80FF91FEB55FC4F0A
:1046E00014821382089590E0FC01EE0FFF1FEE0F7D
:1046F000FF1FEE0FFF1FE80FF91FEB55FC4F148251
:104700001382728361830895F8941092A903109222
:10471000A8031092B2031092B1031092BB0310923F
:10472000BA031092C4031092C3031092CD031092E7
:10473000CC03109297021092980210929902109254
:104740009A021092900210928F021092920210928E
:10475000910210929302109294021092950210927C
:1047600096021092B20088E18093B3007894089585
:104770001F920F920FB60F9211242F933F934F93D6
:104780005F936F937F938F939F93AF93BF93EF93B9
:10479000FF938091A503813029F18091AE03813090
:1047A00009F4F6C08091B703813009F4BAC0809152
:1047B000C003813009F47EC08091C903813009F4BF
:1047C00046C0FF91EF91BF91AF919F918F917F91E3
:1047D0006F915F914F913F912F910F900FBE0F906E
:1047E0001F9018958091A8039091A903019690932A
:1047F000A9038093A8032091A6033091A7038217F1
:10480000930759F68091AA03823039F21092A903D6
:104810001092A803882309F0F1C0E091AC03F09155
:10482000AD031092A5031092A7031092A603109255
:10483000A9031092A80382E08093AA031092AD030B
:104840001092AC03309709F4A8CF0995A6CF8091B8
:10485000CC039091CD0301969093CD038093CC032C
:104860002091CA033091CB038217930709F0A9CF97
:104870008091CE03823009F4A4CF1092CD03109220
:10488000CC03882309F0C3C0E091D003F091D10399
:104890001092C9031092CB031092CA0382E0809356
:1048A000CE031092D1031092D003309709F489CF30
:1048B000099587CF8091C3039091C403019690938B
:1048C000C4038093C3032091C1033091C2038217B4
:1048D000930709F071CF8091C503823009F46CCF42
:1048E0001092C4031092C303882309F0ABC0E09177
:1048F000C703F091C8031092C0031092C203109234
:10490000C1031092C4031092C30382E08093C503D5
:104910001092C8031092C703309709F44DCF099540
:104920004BCF8091BA039091BB0301969093BB0348
:104930008093BA032091B8033091B903821793078B
:1049400009F035CF8091BC03823009F430CF10924A
:10495000BB031092BA03882309F062C0E091BE0342
:10496000F091BF031092B7031092B9031092B803ED
:104970001092BB031092BA0382E08093BC031092A2
:10498000BF031092BE03309709F411CF09950FCFE2
:104990008091B1039091B20301969093B2038093FA
:1049A000B1032091AF033091B0038217930709F050
:1049B000F9CE8091B303823009F4F4CE1092B203A1
:1049C0001092B1038823A9F5E091B503F091B603E5
:1049D0001092AE031092B0031092AF031092B20384
:1049E0001092B10382E08093B3031092B603109249
:1049F000B503309709F4D6CE0995D4CEE091AC0337
:104A0000F091AD03309709F4C8CE0995C6CEE09178
:104A1000D003F091D103309709F4D3CE0995D1CECC
:104A2000E091BE03F091BF03309709F4C0CE099521
:104A3000BECEE091B503F091B603309709F4B2CE43
:104A40000995B0CEE091C703F091C803309709F4FF
:104A5000B3CE0995B1CE1F920F920FB60F921124CB
:104A60002F933F934F935F936F937F938F939F9376
:104A7000AF93BF93EF93FF938091B200885E8093D2
:104A8000B30080918F02909190029C012F5F3F4F65
:104A90003093900220938F02873C910589F0FF911B
:104AA000EF91BF91AF919F918F917F916F915F91A6
:104AB0004F913F912F910F900FBE0F901F9018951F
:104AC0001092900210928F0281E090E00E94B6084E
:104AD00080919302982F9F5F909393028430F9F610
:104AE0001092930282E090E00E94B60880919402B6
:104AF000982F9F5F90939402893089F610929402C8
:104B000084E090E00E94B60880919502982F9F5F04
:104B100090939502843019F61092950288E090E007
:104B20000E94B60880919602982F9F5F90939602FC
:104B3000813009F0B4CF1092960280E190E00E949B
:104B4000B608ADCF5058BB27AA270ED027C2F0D148
:104B500030F0F5D120F031F49F3F11F41EF4C0C1C4
:104B60000EF4E095E7FBB6C1E92F3AD280F3BA170D
:104B7000620773078407950718F071F49EF552C217
:104B80000EF4E0950B2EBA2FA02D0B01B901900168
:104B90000C01CA01A0011124FF27591B99F0593FAC
:104BA00050F4503E68F11A16F040A22F232F342FF4
:104BB0004427585FF3CF469537952795A795F04042
:104BC0005395C9F77EF41F16BA0B620B730B840B57
:104BD000BAF09150A1F0FF0FBB1F661F771F881F0F
:104BE000C2F70EC0BA0F621F731F841F48F4879567
:104BF00077956795B795F7959E3F08F0B3CF939556
:104C0000880F08F09927EE0F97958795089590D112
:104C100058F080E891E009F49EEF91D128F040E847
:104C200051E059F45EEF09C05BC1FCC1E92FE078A7
:104C3000D7D168F3092E052AC1F32617370748078D
:104C4000590738F00E2E07F8E02569F0E025E064FA
:104C50000AC0EF6307F8009407FADB01B9019D0170
:104C6000DC01CA01AD01EF934AD098D10AD05F911F
:104C7000552331F02BED3FE049E450FD49EC63CF83
:104C80000895DF93DD27B92FBF7740E85FE316165D
:104C9000170648075B0710F4D92FCFD19F938F9346
:104CA0007F936F93C8D2E8E6F0E01DD177D12F91C2
:104CB0003F914F915F91D4D1DD2349F09058A2EA02
:104CC0002AED3FE049EC5FE3D0785D274DDFDF91CF
:104CD00065C1DCD008F481E0089539D1E3956FC156
:104CE0000CD05CC12CD140F023D130F021F45F3FD7
:104CF00019F0F0C0511197C1F3C072D198F3992304
:104D0000C9F35523B1F3951B550BBB27AA2762178F
:104D10007307840738F09F5F5F4F220F331F441FD4
:104D2000AA1FA9F333D00E2E3AF0E0E830D091500C
:104D30005040E695001CCAF729D0FE2F27D0660FF9
:104D4000771F881FBB1F261737074807AB07B0E838
:104D500009F0BB0B802DBF01FF2793585F4F2AF04E
:104D60009E3F510568F0B6C05EC15F3FECF3983ED0
:104D7000DCF3869577956795B795F7959F5FC9F7AB
:104D8000880F911D9695879597F90895E1E0660F34
:104D9000771F881FBB1F621773078407BA0720F0AD
:104DA000621B730B840BBA0BEE1F88F7E095089516
:104DB00004D06894B11137C108951AD188F09F5773
:104DC00090F0B92F9927B751A0F0D1F0660F771F57
:104DD000881F991F1AF0BA95C9F712C0B13081F037
:104DE00021D1B1E008951EC1672F782F8827B85FC1
:104DF00039F0B93FCCF3869577956795B395D9F798
:104E00003EF490958095709561957F4F8F4F9F4FA1
:104E10000895E89409C097FB3EF4909580957095AD
:104E200061957F4F8F4F9F4F9923A9F0F92F96E9F6
:104E3000BB279395F695879577956795B795F1116B
:104E4000F8CFFAF4BB0F11F460FF1BC06F5F7F4F08
:104E50008F4F9F4F16C0882311F096E911C077231A
:104E600021F09EE8872F762F05C0662371F096E823
:104E7000862F70E060E02AF09A95660F771F881FF2
:104E8000DAF7880F9695879597F90895990F000896
:104E9000550FAA0BE0E8FEEF16161706E807F9070C
:104EA000C0F012161306E407F50798F0621B730BA7
:104EB000840B950B39F40A2661F0232B242B252B28
:104EC00021F408950A2609F4A140A6958FEF811DCB
:104ED000811D089597F99F6780E870E060E008956C
:104EE0009FEF80EC0895DF93CF931F930F93FF9272
:104EF000EF92DF927B018C01689405C0DA2EEF01FE
:104F0000AFD0FE01E894A591259135914591559139
:104F1000AEF3EF0129DEFE019701A801DA9479F7DB
:104F2000DF90EF90FF900F911F91CF91DF91089547
:104F300000240A9416161706180609060895002478
:104F40000A9412161306140605060895C9CF50D008
:104F5000E8F3E894E0E0BB279F57F0F02AED3FE04C
:104F600049EC06C0EE0FBB0F661F771F881F28F0A5
:104F7000B23A62077307840728F0B25A620B730BC8
:104F8000840BE3959A9572F7803830F49A95BB0FAD
:104F9000661F771F881FD2F7904883C1092E03949C
:104FA000000C11F4882352F0BB0F40F4BF2B11F416
:104FB00060FF04C06F5F7F4F8F4F9F4F0895EF9347
:104FC000E0FF06C0A2EA2AED3FE049EC5FEBCCDD52
:104FD000E5DF0F90039401FC9058E5E9F0E074C11F
:104FE00057FD9058440F551F59F05F3F71F047959A
:104FF000880F97FB991F61F09F3F79F0879508957F
:10500000121613061406551FF2CF4695F1DF08C09D
:10501000161617061806991FF1CF869571056105BA
:1050200008940895E894BB2766277727CB0197F962
:1050300008952CDF08F48FEF08959B01AC0160E028
:1050400070E080E89FE34CCE0BD0A8CF71DF28F052
:1050500076DF18F0952309F03DCF42CF1124E3CF3E
:10506000BFDFA0F3959FD1F3950F50E0551F629FCE
:10507000F001729FBB27F00DB11D639FAA27F00DB1
:10508000B11DAA1F649F6627B00DA11D661F829FD8
:105090002227B00DA11D621F739FB00DA11D621FBD
:1050A000839FA00D611D221F749F3327A00D611DDA
:1050B000231F849F600D211D822F762F6A2F1124BC
:1050C0009F5750408AF0E1F088234AF0EE0FFF1F0F
:1050D000BB1F661F771F881F91505040A9F79E3F46
:1050E000510570F0F7CE9FCF5F3FECF3983EDCF3B5
:1050F000869577956795B795F795E7959F5FC1F783
:10510000FE2B880F911D9695879597F90895FA01C2
:10511000EE0FFF1F30962105310599F161157105DC
:1051200061F48038BFE39B0749F1689490388105AA
:1051300061F08038BFEF9B0741F0992342F5FF3FB4
:10514000E1053105210511F1E8940894E795D901AD
:10515000AA2329F4AB2FBE2FF85FD0F310C0FF5F56
:1051600070F4A695E0F7F73950F019F0FF3A38F4EB
:105170009F779F930CD00F9007FC905808953EF0B6
:10518000AFCE60E070E080E89FE308954FE79F773F
:105190005F934F933F932F93E3D02F913F914F9184
:1051A0005F9152DF50C09F93D2DE0F9007FCEE5FFD
:1051B00006CF11F40EF494CE72C01ADFD0F3992307
:1051C000D9F3CEF39F57550B87FF77D00024A0E685
:1051D00040EA900180585695979528F4805C660FB8
:1051E000771F881F20F026173707480730F4621B07
:1051F000730B840B202931294A2BA6951794079409
:10520000202531254A2758F7660F771F881F20F081
:1052100026173707480730F4620B730B840B200DF9
:10522000311D411DA09581F7B901842F9158880F38
:105230009695879508959B01AC0106CF19F40EF061
:1052400049CEF0CE4DCED4DEC8F39638C0F707F87D
:105250000F92E8942BE33AEA48EB5FE703DF0F9203
:105260000F920F924DB75EB70F92BAD0E3EBF0E01A
:105270003ADE4F915F91EF91FF91E595EE1FFF1F91
:1052800049F0FE57E0684427EE0F441FFA95E1F716
:105290004195550B2CD00F9007FECFCE08959F3F20
:1052A00031F0915020F4879577956795B795880FE1
:1052B000911D9695879597F9089591505040660FE6
:1052C000771F881FD2F708959F938F937F936F93D3
:1052D000FF93EF939B01AC01B7DEEF91FF9103DEEB
:1052E0002F913F914F915F91AFCEF4CDD8CF80DE1B
:1052F000E8F39923D9F3940F511DBBF3915050401B
:1053000094F059F0882332F0660F771F881F915070
:105310005040C1F79E3F510544F7880F911D969567
:10532000879597F908955F3FACF0983E9CF0BB27B6
:10533000869577956795B79508F4B1609395C1F711
:10534000BB0F58F711F460FFE8CF6F5F7F4F8F4FAF
:105350009F4FE3CF68CE0EF0A2CFC2CD6894BACDF6
:1053600047DEC8F39923D1F3C6F3DF93CF931F939E
:105370000F93FF92C92FDD2788232AF02197660F0C
:10538000771F881FDAF720E030E040E85FEB9FE30B
:10539000883920F0803E30F021968F77D4DBEBED1A
:1053A000F0E003C0D0DBE8E0F1E09DDD8B01BE0161
:1053B000EC01FB2E6F5771097595771F880B990BC0
:1053C0002ADD28E132E741E35FE34ADEAF2D9801B1
:1053D000AE01FF900F911F91CF91DF91C5DBDECD24
:1053E000FA01DC01AA0FBB1F9B01AC01BF5728F4D7
:1053F00022273327442750781FC0B75188F4AB2F9A
:105400000024469537952795011CA395D2F30020DB
:1054100069F0220F331F441FB395DAF30DD092CBFE
:1054200061307105A0E88A07B94630F49B01AC01F0
:105430006627772788279078309621F0208331835C
:10544000428353830895629FD001739FF001829F2E
:10545000E00DF11D649FE00DF11D929FF00D839F03
:10546000F00D749FF00D659FF00D9927729FB00DA0
:10547000E11DF91F639FB00DE11DF91FBD01CF01B3
:105480001124089597FB092E07260AD077FD04D032
:1054900049D006D000201AF4709561957F4F089589
:1054A000F6F7909581959F4F0895A1E21A2EAA1BB9
:1054B000BB1BFD010DC0AA1FBB1FEE1FFF1FA217C4
:1054C000B307E407F50720F0A21BB30BE40BF50BC1
:1054D000661F771F881F991F1A9469F7609570954A
:1054E000809590959B01AC01BD01CF01089597FB7C
:1054F000092E05260ED057FD04D0D7DF0AD0001C98
:1055000038F450954095309521953F4F4F4F5F4F60
:105510000895F6F790958095709561957F4F8F4F20
:105520009F4F0895AA1BBB1B51E107C0AA1FBB1FB9
:10553000A617B70710F0A61BB70B881F991F5A951F
:10554000A9F780959095BC01CD010895AEE0B0E03B
:10555000ECEAFAE20C94972D0D891E8986E08C8383
:105560001A8309838FEF9FE79E838D839E01275EB9
:105570003F4FCE0101966F89788DA9010E94C92AFB
:10558000EF81F885E00FF11F10822E96E4E00C9475
:10559000B32DACE0B0E0EFECFAE20C94892D6C0195
:1055A0001B018A01FC0117821682838181FFD1C110
:1055B0002E010894411C511CF6019381F10193FDC9
:1055C000859193FF81911F01882309F4BEC1853223
:1055D00039F493FD859193FF81911F01853229F460
:1055E00090E0B6010E94EF2CE7CFEE24FF2420E0EC
:1055F0002032B0F48B3269F08C3228F4803251F0D2
:10560000833271F40BC08D3239F0803349F421605C
:105610002CC02260246029C0286027C0206125C0DA
:1056200027FD2CC0382F30533A3098F426FF08C09D
:105630008E2D880FE82EEE0CEE0CE80EE30E15C052
:105640008F2D880FF82EFF0CFF0CF80EF30E206242
:105650000CC08E3221F426FD78C1206406C08C3641
:1056600011F4206802C0883649F4F10193FD859158
:1056700093FF81911F01882309F0BACF982F955489
:10568000933018F09052933028F40C5F1F4FFFE3D3
:10569000F9830DC0833631F0833771F0833509F01B
:1056A00060C022C0F801808189830E5F1F4F4201D4
:1056B00071E0A72EB12C16C062E0662E712C600E30
:1056C000711EF8018080918026FF03C06E2D70E06E
:1056D00002C06FEF7FEFC4012C870E94E42C5C01B5
:1056E00083012C852F7717C052E0652E712C600E38
:1056F000711EF8018080918026FF03C06E2D70E03E
:1057000002C06FEF7FEFC4012C870E94D92C5C018F
:105710002C852068830123FD20C008C080E290E032
:10572000B6012C870E94EF2CFA942C858F2D90E0E7
:10573000A816B90698F311C0F40127FD859127FF3B
:1057400081914F0190E0B6012C870E94EF2C2C85AF
:10575000F110FA940894A108B108A114B10461F7FA
:10576000F1C0843611F0893649F527FF08C0F801E9
:1057700060817181828193810C5F1F4F09C0F801A4
:1057800060817181882777FD8095982F0E5F1F4F6C
:105790004FE6B42EB22297FF09C090958095709580
:1057A00061957F4F8F4F9F4FF0E8BF2AA2012AE0FB
:1057B00030E00E941B2D782E741845C0853731F4D7
:1057C0003FEEB32EB2222AE030E025C099EFB92E89
:1057D000B2228F36C1F0803720F4883509F0B5C089
:1057E0000DC0803721F0883709F0AFC002C020E13A
:1057F000B22AB4FE0BC084E0B82A08C0B4FE09C0C7
:10580000E6E0BE2A06C028E030E005C020E130E036
:1058100002C020E132E0B7FE08C0F801608171816A
:10582000828193810C5F1F4F07C0F80160817181F5
:1058300080E090E00E5F1F4FA2010E941B2D782E8A
:105840007418FFE7BF22B6FE0BC02EEFB2227E1403
:1058500038F4B4FE07C0B2FC05C08FEEB82202C017
:10586000A72C01C0AE2C8B2D90E0B4FE0DC0FE0124
:10587000E70DF11D2081203319F4E9EEBE2209C0A5
:10588000A394B2FE06C004C086789070009709F019
:10589000A3948B2C9924B3FC14C0B0FE0FC0AF149A
:1058A00028F4E72CEF0CEA18AF2C08C0E72C06C050
:1058B00080E290E0B6010E94EF2CA394AF14C0F3F5
:1058C00004C0AF1410F4FA1801C0FF2484FE0FC006
:1058D00080E390E0B6010E94EF2C82FE1FC081FEA3
:1058E00003C088E590E010C088E790E00DC0C401D7
:1058F00086789070009791F081FC02C080E201C030
:105900008BE2B7FC8DE290E0B6010E94EF2C06C05E
:1059100080E390E0B6010E94EF2CEA947E14C0F37D
:105920007A94F201E70DF11D808190E0B6010E94AA
:10593000EF2C7720A9F706C080E290E0B6010E9424
:10594000EF2CFA94FF20C1F737CEF601268137817C
:1059500002C02FEF3FEFC9012C96E2E10C94A52D78
:10596000F999FECF92BD81BDF89A992780B5089527
:10597000A6E1B0E044E050E00C947B2D262FF9998D
:10598000FECF1FBA92BD81BD20BD0FB6F894FA9A22
:10599000F99A0FBE01960895242F0E94BF2C252F3F
:1059A0000E94BF2C0C94D42C0E94BE2C272F0C9448
:1059B000BF2CFC010590615070400110D8F7809514
:1059C00090958E0F9F1F0895FC01615070400190CB
:1059D0000110D8F7809590958E0F9F1F08950F9313
:1059E0001F93CF93DF938C01EB018B8181FF1BC051
:1059F00082FF0DC02E813F818C819D812817390740
:105A000064F4E881F9810193F983E88306C0E885AD
:105A1000F985802F0995009731F48E819F81019639
:105A20009F838E8302C00FEF1FEFC801DF91CF91DC
:105A30001F910F910895FA01AA27283051F12031C2
:105A400081F1E8946F936E7F6E5F7F4F8F4F9F4F12
:105A5000AF4FB1E03ED0B4E03CD0670F781F891F54
:105A60009A1FA11D680F791F8A1F911DA11D6A0F22
:105A7000711D811D911DA11D20D009F468943F91D5
:105A80002AE0269F11243019305D3193DEF6CF01D4
:105A90000895462F4770405D4193B3E00FD0C9F79A
:105AA000F6CF462F4F70405D4A3318F0495D31FD07
:105AB0004052419302D0A9F7EACFB4E0A69597955A
:105AC000879577956795BA95C9F700976105710530
:105AD00008959B01AC010A2E06945795479537957A
