:100000000C949B000C94B8000C94B8000C94B800AD
:100010000C94B8000C94B8000C94B8000C94FE2515
:100020000C94B6240C94B8000C94B8000C94E3081B
:100030000C94B8000C94B8000C94B8000C94B80060
:100040000C944E0B0C94B8000C94FB0D0C94B8005F
:100050000C94A40E0C9431060C94B8000C94B800C7
:100060000C94B8000C94B800084AD73B3BCE016E04
:1000700084BCBFFDC12F3D6C74319ABD56833DDAFF
:100080003D00C77F11BED9E4BB4C3E916BAAAABE0E
:10009000000000803F05A84CCDB2D44EB93836A937
:1000A000020C50B9918688083CA6AAAA2ABE000074
:1000B00000803F07634236B79BD8A71A39685618A5
:1000C000AEBAAB558C1D3CB7CC5763BD6DEDFD751D
:1000D0003EF6177231BF000000803F08000000BEEE
:1000E000922449123EABAAAA2ABECDCCCC4C3E00EB
:1000F000000080BEABAAAAAA3E00000000BF00001C
:1001000000803F0000000000084178D3BB4387D146
:10011000133D190E3CC3BD4282AD2B3E68EC827686
:10012000BED98FE1A93E4C80EFFFBE01C4FF7F3FE7
:1001300000000000000011241FBECFEFD8E0DEBF9A
:10014000CDBF11E0A0E0B1E0EAE6FEE502C0059017
:100150000D92A635B107D9F713E0A6E5B1E001C0CD
:100160001D92A23DB107E1F70E9475260C94332F32
:100170000C94000080E460E00E94E50C833011F0F4
:1001800080E0089588EC90E00E94900A80E46DE0A1
:1001900040E10E949A0C88EC90E00E94900A80E472
:1001A00060E20E94E50C482F4F70406180E460E2FD
:1001B0000E949A0C88EC90E00E94900A80E460E330
:1001C0000E94E50C482F4C7F80E460E30E949A0C6B
:1001D00088EC90E00E94900A80E465E30E94E50CC0
:1001E000482F417F4A6080E465E30E949A0C88ECC6
:1001F00090E00E94900A0E946706882389F484E6B2
:1002000080935601109258011092570110925A0192
:100210001092590110925C0110925B0181E00895E7
:100220001092560187E591E00E946A0681E00895E8
:1002300080915601882311F080E0089587E591E0D0
:100240000E94A70681E008950F931F93CF93DF9339
:1002500000D000D000D0CDB7DEB78C01AE014F5F2B
:100260005F4F86E0DA011D928A95E9F780E462E04B
:1002700026E00E945C0C863061F080E026960FB686
:10028000F894DEBF0FBECDBFDF91CF911F910F91CC
:1002900008959A8180E0498150E0482B592B57FD01
:1002A00081C05595479555954795559547955595D1
:1002B0004795F801518340833C8120E08B8190E099
:1002C000822B932B97FD6CC0FC01F595E795F59576
:1002D000E795F595E795F595E795D8011396FC9385
:1002E000EE9312973E8120E08D8190E0822B932B3C
:1002F00097FD54C0BC017595679575956795759583
:10030000679575956795D80115967C936E931497AC
:10031000209156018091570190915801222311F1AB
:10032000213009F442C0840F951F909358018093A7
:1003300057018091590190915A018E0F9F1F909300
:100340005A018093590180915B0190915C01860F65
:10035000971F90935C0180935B012150209356017D
:1003600081E08CCF481B590BD80111965C934E93BA
:100370008091590190915A01E81BF90B1396FC9357
:10038000EE93129780915B0190915C01681B790B51
:1003900015967C936E93149781E070CF0F96AACF39
:1003A0000F9692CF415F5F4F7CCFE3E6F0E0BF0155
:1003B0000E94BF2B7093580160935701809159019F
:1003C00090915A01BF010E94BF2B70935A01609314
:1003D000590180915B0190915C01BF010E94BF2B8C
:1003E0006050714070935C0160935B01B6CF1092D6
:1003F000000181E06FE070E040E022E032E00E9426
:100400002824089581E0809300010E944C240895DF
:1004100010925D0110925E0110925F0110926001D6
:1004200087E76AEA4BE952E026E10E945C0C8BE91F
:1004300092E0FC013196DC012C9130813D932083C8
:100440003197AE17BF07C0F3029622E0813B9207B7
:1004500081F781E008954F925F926F927F928F9221
:100460009F92AF92BF92CF92DF92EF92FF920F9343
:100470001F93CF93DF93CDB7DEB72B970FB6F894CA
:10048000DEBF0FBECDBF80910001882311F1813006
:1004900009F440C060916101709162018091630133
:1004A000909164012B960FB6F894DEBF0FBECDBFBE
:1004B000DF91CF911F910F91FF90EF90DF90CF9040
:1004C000BF90AF909F908F907F906F905F904F9074
:1004D000089519821A8287E766EFAE014F5F5F4F7A
:1004E00022E00E945C0C89818093B2028A81809311
:1004F000B10287E764EF44EB0E949A0C83E080939B
:10050000000160916101709162018091630190919D
:100510006401C8CF19821A821B8287E766EFAE0199
:100520004F5F5F4F23E00E945C0C89818093B5028E
:100530008A818093B4028B818093B3026091B1026F
:100540007091B20280E090E00091A5021091A602A5
:1005500020E030E0601B710B820B930B2091A30213
:100560003091A40240E050E00E94A02B6B017C017E
:10057000EFE0F594E794D794C794EA95D1F76091AA
:10058000AD027091AE02882777FD8095982FFBE031
:10059000660F771F881F991FFA95D1F72091AF0238
:1005A0003091B002442737FD4095542F2C0D3D1D4E
:1005B0004E1D5F1D0E94F42B89019A010C0D1D1D1B
:1005C0002E1D3F1DD901C8010896A11DB11D64E073
:1005D000B595A795979587956A95D1F79093C90298
:1005E0008093C802D901C801805A9F40A040B04002
:1005F0008C839D83AE83BF83BC01CD019B01AC0185
:100600000E94A02B2B013C01ECE075946794579459
:100610004794EA95D1F700919B0210919C0220919A
:100620009F023091A002442737FD4095542F6C81E2
:100630007D818E819F810E94A02B6B017C01FDE05A
:10064000F594E794D794C794FA95D1F72091A7022F
:100650003091A802442737FD4095542FC301B201C1
:100660000E94A02BDC01CB01CD01BB2797FDB095EB
:10067000AB2FC80ED91EEA1EFB1E82E090E0A0E060
:10068000B0E0C80ED91EEA1EFB1EF594E794D7947D
:10069000C794F594E794D794C79480E090E8A0E0DD
:1006A000B0E0C80ED91EEA1EFB1E2091A1023091B7
:1006B000A20240E050E0C701B6010E94A02BDC017D
:1006C000CB01EFE0B695A79597958795EA95D1F779
:1006D00088879987AA87BB878090B3029090B402DD
:1006E000A090B502B090B602F6E0B694A7949794A5
:1006F0008794FA95D1F76091A9027091AA02882790
:1007000077FD8095982FA30192010E94A02B6B0189
:100710007C01ABE0F594E794D794C794AA95D1F700
:1007200020919D0230919E02442737FD4095542F21
:100730006C817D818E819F810E94A02BDC01CB0189
:10074000EBE0B595A79597958795EA95D1F7C80EF3
:10075000D91EEA1EFB1EC801AA2797FDA095BA2F35
:10076000880F991FAA1FBB1F880F991FAA1FBB1FA5
:10077000C80ED91EEA1EFB1ECC0CDD1CEE1CFF1C95
:10078000CC0CDD1CEE1CFF1C82E090E0A0E0B0E091
:10079000C80ED91EEA1EFB1EC701B60124E030E0D8
:1007A00040E050E00E94F42B821A930AA40AB50A92
:1007B000C501B40124ED30E340E050E00E94A02BDD
:1007C00097FD8DC0660F771F881F991F2885398573
:1007D0004A855B850E94D22B49015A015527B7FCF7
:1007E0005A954B2D3A2D292DCA01B9010E94A02BF3
:1007F0002EED3BE040E050E00E94A02B6C01FF2476
:10080000D7FCF094EF2CC501B40123E433EE4FEF95
:100810005FEF0E94A02BDC01CB01CD01BB2797FD30
:10082000B095AB2FC80ED91EEA1EFB1E8FEC9EE0C2
:10083000A0E0B0E0C80ED91EEA1EFB1E14E0F5943D
:10084000E794D794C7941A95D1F7C80CD91CEA1C21
:10085000FB1CC0925D01D0925E01E0925F01F092BC
:100860006001C092D202D092D302E092D402F09200
:10087000D502C701B6010E94862820E836EE45EC75
:1008800057E40E94ED2721EB3CED42E45EE30E9439
:10089000042AB62FA72F382F292F60E070E080E8B8
:1008A0009FE3FD01A9010F2F1E2F252F342FA90132
:1008B00098010E941F2720E834E748ED58E40E9481
:1008C000A1290E945A28609361017093620180936C
:1008D00063019093640123E020930001E3CD288518
:1008E00039854A855B850E94D22B49015A01880CC3
:1008F000991CAA1CBB1C72CF87E764EF4EE20E94D2
:100900009A0C81E065E070E040E027EF31E00E9462
:10091000282408958EE160E040E70E949A0C88EC5C
:1009200090E00E94900A8EE161E040E20E949A0C01
:1009300088EC90E00E94900A8EE162E040E00E9424
:100940009A0C88EC90E00E94900A81E08093650107
:1009500085E090E00E94C70981E0089581E09091D0
:100960006501911180E008950F931F93CF93DF935A
:1009700000D000D000D0CDB7DEB78C01AE014F5F04
:100980005F4F86E0FA0111928A95E9F78EE163E004
:1009900026E00E945C0C863061F080E026960FB65F
:1009A000F894DEBF0FBECDBFDF91CF911F910F91A5
:1009B0000895398120E08A8190E0822B932BF80101
:1009C000918380833D8120E04E8150E0422B532B68
:1009D000538342837B8160E02C8130E0262B372BD0
:1009E0003583248360916501662329F0615060930B
:1009F000650181E0D3CF60916601861B9109F80102
:100A00009183808380916701481B510953834283FE
:100A100080916801281B31093583248381E0BECF92
:100A200088E660E00E94E50C883611F080E00895C9
:100A30006EE340E80E949A0C88EC90E00E94900AD5
:100A400088E666E14AE10E949A0C88EC90E00E94F8
:100A5000900A88E66EE343E00E949A0C81E090E001
:100A60000E94C7090E946706882389F488EC809356
:100A7000690110926B0110926A0110926D0110923F
:100A80006C0110926F0110926E0181E00895109236
:100A900069018AE691E00E94D00681E00895809184
:100AA0006901882311F080E008958AE691E00E94B0
:100AB0000D0781E008950F931F93CF93DF9300D02C
:100AC00000D000D0CDB7DEB78C01AE014F5F5F4FD5
:100AD00086E0FA0111928A95E9F788E66DE126E051
:100AE0000E945C0C863061F080E026960FB6F89488
:100AF000DEBF0FBECDBFDF91CF911F910F91089543
:100B0000398120E04A8150E0422B532BF801518378
:100B100040839B8180E06C8170E0682B792B73832C
:100B200062839D8180E02E8130E0282B392B358334
:100B30002483C90105968B30910520F41582148217
:100B400020E030E0E091690180916A0190916B01B1
:100B5000EE2309F1E130C1F1840F951F90936B01F1
:100B600080936A0180916C0190916D01860F971FAF
:100B700090936D0180936C0180916E0190916F0153
:100B8000820F931F90936F0180936E01E150E09369
:100B9000690181E0AACFFA01E81BF90BCF01F80146
:100BA0009183808380916C0190916D01681B790B1A
:100BB0007383628380916E0190916F01281B390BC2
:100BC0003583248381E091CF28EC30E0B9010E9485
:100BD000BF2B70936B0160936A0180916C019091BF
:100BE0006D01B9010E94BF2B70936D0160936C0180
:100BF00080916E0190916F01B9010E94BF2B70939B
:100C00006F0160936E01C2CF85B190E2892785B9EB
:100C10000895ECE7F0E080818064808380818260C9
:100C20008083808184608083808180648083EAE720
:100C3000F0E080818068808380818860808310926A
:100C40007B0110927A0180E0089562E00E945C08C6
:100C5000813009F0089580917A00806480937A0051
:100C600008951F920F920FB60F9211248F939F93A6
:100C7000809178009091790090937B0180937A0124
:100C80009093C6028093C5029F918F910F900FBEE3
:100C90000F901F90189580E090E00E94232E809383
:100CA0007C01882321F010927D0180E0089581E08D
:100CB00080937D01089580E090E06FEF0E94312ED7
:100CC000089580E090E060E00E94312E08958091C8
:100CD0007D0108950F931F93CF93DF938C0181E0E3
:100CE00090E00E94232ED82F80E0C82F82E090E071
:100CF0000E94232E90E08C2B9D2BF8019183808302
:100D000083E090E00E94232ED82FF0E0CF2F84E0E4
:100D100090E00E94232E90E08C2B9D2BF801938372
:100D2000828385E090E00E94232ED82FF0E0CF2F21
:100D300086E090E00E94232E90E08C2B9D2BF80102
:100D400095838483DF91CF911F910F9108951F9315
:100D5000CF93DF93EC011881698181E090E00E94DC
:100D6000312E82E090E0612F0E94312E1A816B813A
:100D700083E090E00E94312E84E090E0612F0E9499
:100D8000312E1C816D8185E090E00E94312E86E03D
:100D900090E0612F0E94312EDF91CF911F91089535
:100DA0000F931F93CF93DF938C0187E090E00E9415
:100DB000232ED82F80E0C82F88E090E00E94232EB9
:100DC00090E08C2B9D2BF8019183808389E090E04B
:100DD0000E94232ED82FF0E0CF2F8AE090E00E94CF
:100DE000232E90E08C2B9D2BF801938382838BE044
:100DF00090E00E94232ED82FF0E0CF2F8CE090E0DF
:100E00000E94232E90E08C2B9D2BF80195838483E8
:100E1000DF91CF911F910F9108951F93CF93DF938F
:100E2000EC011881698187E090E00E94312E88E012
:100E300090E0612F0E94312E1A816B8189E090E051
:100E40000E94312E8AE090E0612F0E94312E1C8199
:100E50006D818BE090E00E94312E8CE090E0612F5C
:100E60000E94312EDF91CF911F910895EF92FF9252
:100E70000F931F93CF93DF937B018A01E9018823AE
:100E800079F1813009F453C0823009F477C083309E
:100E900001F581E390E00E942B2EDC01CB01F701EC
:100EA00080839183A283B38385E390E00E942B2EFD
:100EB000DC01CB01F80180839183A283B38389E3B2
:100EC00090E00E942B2EDC01CB0188839983AA83BA
:100ED000BB83DF91CF911F910F91FF90EF90089509
:100EE0008DE090E00E942B2EDC01CB01F701808386
:100EF0009183A283B38381E190E00E942B2EDC01D9
:100F0000CB01F80180839183A283B38385E190E0D4
:100F10000E942B2EDC01CB0188839983AA83BB839B
:100F2000DF91CF911F910F91FF90EF90089589E18C
:100F300090E00E942B2EDC01CB01F701808391838E
:100F4000A283B3838DE190E00E942B2EDC01CB01C4
:100F5000F80180839183A283B38381E290E00E94B1
:100F60002B2EDC01CB0188839983AA83BB83DF917D
:100F7000CF911F910F91FF90EF90089585E290E03F
:100F80000E942B2EDC01CB01F70180839183A28389
:100F9000B38389E290E00E942B2EDC01CB01F801A3
:100FA00080839183A283B3838DE290E00E942B2EF5
:100FB000DC01CB0188839983AA83BB838ACF8F927C
:100FC0009F92AF92BF92CF92DF92EF92FF920F93D8
:100FD0001F9348015901882391F0813091F18230AB
:100FE00009F440C08330E1F01F910F91FF90EF9022
:100FF000DF90CF90BF90AF909F908F9008958DE03D
:1010000090E00E943F2E81E190E0B501A4010E9492
:101010003F2E85E190E0B701A6010E943F2EE4CF6C
:1010200081E390E00E943F2E81E390E0B501A401AE
:101030000E943F2E81E390E0B701A6010E943F2E5F
:10104000D3CF89E190E00E943F2E8DE190E0B50181
:10105000A4010E943F2E81E290E0B701A6010E9408
:101060003F2EC2CF85E290E00E943F2E89E290E0C1
:10107000B501A4010E943F2E8DE290E0B701A601C8
:101080000E943F2EB1CF10927F0110927E0181E02D
:101090000895F89420917E0130917F01809590957C
:1010A0008223932390937F0180937E017894809193
:1010B0007E0190917F01089570E06823792381E09B
:1010C0006115710509F480E0089520917E01309149
:1010D0007F01282B392B30937F0120937E0181E003
:1010E0000895F894089578940895109281011092CB
:1010F00080018AEF90E09093830180938201389A77
:1011000021E030E0309385012093840190938701A2
:1011100080938601399A22E030E030938901209350
:10112000880190938B0180938A013A9A23E030E002
:1011300030938D0120938C0190938F0180938E01C9
:101140003B9A10928000E1E8F0E080818360808328
:10115000EFE6F0E08081826080831092850010923B
:10116000840081E00895CF93DF93C82FD0E080E022
:1011700090E00E94862820E030E04AE754E40E9494
:10118000A12920E030E04AE754E40E94ED2720E066
:1011900030E04AE754E40E94202720E030E040E8B5
:1011A0005EE30E94A1290E945A28DC01CB01CC0FEA
:1011B000DD1FCC0FDD1FC058DE4F9B838A8381E08B
:1011C000DF91CF9108951F920F920FB60F921124C5
:1011D0002F933F934F938F939F93EF93FF93809120
:1011E000010187FD6FC0809101018430C8F08091BA
:1011F00001018F5F8093010180910101843098F19A
:1012000080910101843029F1FF91EF919F918F919D
:101210004F913F912F910F900FBE0F901F901895F7
:1012200048B1E0910101FF27E7FDF095EE0FFF1FA8
:10123000EE0FFF1FE058FE4F2081318181E090E0EA
:1012400002C0880F991F2A95E2F78095842388B9F8
:10125000CECF88E893E190938900809388008FEF48
:1012600080930101D1CF2091840030918500E091DD
:101270000101FF27E7FDF095EE0FFF1FEE0FFF1FA7
:10128000E058FE4F82819381820F931F90938900D3
:101290008093880048B1E0910101FF27E7FDF095B8
:1012A000EE0FFF1FEE0FFF1FE058FE4F2081318130
:1012B00081E090E002C0880F991F2A95E2F7482B41
:1012C00048B9A2CF109285001092840090CF10925E
:1012D000940110929501109296011092970114BCFE
:1012E00085B5826085BD16BCA99AEEE6F0E08081E6
:1012F000816080830895CF92DF92EF92FF92CF9327
:10130000F8948091940190919501A0919601B091EB
:101310009701C6B57894880F991FAA1FBB1F880F25
:10132000991FAA1FBB1F880F991FAA1FBB1F880FD9
:10133000991FAA1FBB1F880F991FAA1FBB1F880FC9
:10134000991FAA1FBB1F880F991FAA1FBB1FBC0193
:10135000CD010E9486286B017C016C2F70E080E03B
:1013600090E00E94882820E030E040E05FE30E94A7
:10137000A1299B01AC01C701B6010E9420270E9450
:101380005A28CF91FF90EF90DF90CF9008954F9221
:101390005F926F927F928F929F92AF92BF92CF9205
:1013A000DF92EF92FF92CF93DF93EC01F89480915C
:1013B000940190919501A0919601B091970186B406
:1013C000880F991FAA1FBB1F880F991FAA1FBB1F39
:1013D000880F991FAA1FBB1F880F991FAA1FBB1F29
:1013E000880F991FAA1FBB1F880F991FAA1FBB1F19
:1013F000880F991FAA1FBB1FBC01CD010E94862820
:101400006B017C01682D70E080E090E00E948828EC
:1014100020E030E040E05FE30E94A1299B01AC01A5
:10142000C701B6010E9420270E945A28AB01BC01C7
:10143000789440939001509391016093920170933E
:10144000930188EE93E0C89F2001C99F500CD89F5C
:10145000500C112466247724F89480919401909183
:101460009501A0919601B0919701C6B57894C0906E
:101470009001D0909101E0909201F0909301C40C02
:10148000D51CE61CF71C880F991FAA1FBB1F880FCD
:10149000991FAA1FBB1F880F991FAA1FBB1F880F68
:1014A000991FAA1FBB1F880F991FAA1FBB1F880F58
:1014B000991FAA1FBB1F880F991FAA1FBB1FBC0122
:1014C000CD010E9486284B015C016C2F70E080E00A
:1014D00090E00E94882820E030E040E05FE30E9436
:1014E000A1299B01AC01C501B4010E9420270E94E3
:1014F0005A28DC01CB018C159D05AE05BF0508F40B
:10150000ABCFDF91CF91FF90EF90DF90CF90BF9066
:10151000AF909F908F907F906F905F904F900895C5
:101520004F925F926F927F928F929F92AF92BF92F3
:10153000CF92DF92EF92FF92CF932C01F89480919B
:10154000940190919501A0919601B0919701C6B533
:10155000880F991FAA1FBB1F880F991FAA1FBB1FA7
:10156000880F991FAA1FBB1F880F991FAA1FBB1F97
:10157000880F991FAA1FBB1F880F991FAA1FBB1F87
:10158000880F991FAA1FBB1FBC01CD010E9486288E
:101590006B017C016C2F70E080E090E00E94882855
:1015A00020E030E040E05FE30E94A1299B01AC0114
:1015B000C701B6010E9420270E945A28AB01BC0136
:1015C00078944093900150939101609392017093AD
:1015D000930166247724F894809194019091950169
:1015E000A0919601B0919701C6B57894C0909001F2
:1015F000D0909101E0909201F0909301C40CD51C21
:10160000E61CF71C880F991FAA1FBB1F880F991F84
:10161000AA1FBB1F880F991FAA1FBB1F880F991FE6
:10162000AA1FBB1F880F991FAA1FBB1F880F991FD6
:10163000AA1FBB1F880F991FAA1FBB1FBC01CD018A
:101640000E9486284B015C016C2F70E080E090E0E6
:101650000E94882820E030E040E05FE30E94A1295A
:101660009B01AC01C501B4010E9420270E945A28A9
:10167000DC01CB018C159D05AE05BF0508F4ABCF91
:10168000CF91FF90EF90DF90CF90BF90AF909F9061
:101690008F907F906F905F904F9008951F920F9260
:1016A0000FB60F9211248F939F93AF93BF938091A6
:1016B000940190919501A0919601B09197010196A6
:1016C000A11DB11D8093940190939501A093960163
:1016D000B0939701BF91AF919F918F910F900FBEE3
:1016E0000F901F9018951092B9008CE08093B8006D
:1016F00084E08093BC00089594EA9093BC002FEF9F
:1017000030E003C02150304099F09091BC0097FF29
:10171000F9CF8093BB0084E88093BC008FEF90E00A
:1017200002C0019741F02091BC0027FFFACF089535
:101730001092BC00EECF1092BC00089584E9809313
:10174000BC0008958093BB0084E88093BC008FEFB9
:1017500090E002C0019729F02091BC0027FFFACF4A
:1017600008951092BC0008958823B1F094EC9093F2
:10177000BC002FEF30E003C02150304079F0909151
:10178000BC0097FFF9CF9091BB00882319F484E93E
:101790008093BC00892F089594E8E9CF1092BC0093
:1017A000F2CF84EC8093BC008FEF90E002C00197F1
:1017B00039F02091BC0027FFFACF8091BB0008953B
:1017C0001092BC008091BB00089584E88093BC0017
:1017D0008FEF90E002C0019751F02091BC0027FFED
:1017E000FACF8091BB0094E99093BC0008951092C9
:1017F000BC008091BB0094E99093BC0008958FEFEA
:1018000090E002C0019729F02091BC0027FFFACF99
:1018100008951092BC000895880F816094EA909317
:10182000BC002FEF30E004C02150304009F43BC031
:101830009091BC0097FFF8CF8093BB0084E8809321
:10184000BC002FEF30E003C02150304079F180918F
:10185000BC0087FFF9CF442369F1842FFB0164E9C1
:10186000982F915051E0D1F450E084E88093BC006F
:101870002FEF30E003C02150304091F08091BC0048
:1018800087FFF9CF8091BB00552311F46093BC0012
:101890008193892F992321F7842F089584ECE6CF33
:1018A0001092BC00EFCF1092BC00C6CF1092BC00CB
:1018B000442399F680E00895FA01382F330F94EA13
:1018C0009093BC00AFEFB0E002C0119731F190915E
:1018D000BC0097FFFACF3093BB0094E89093BC0014
:1018E000AFEFB0E002C01197D9F09091BC0097FF24
:1018F000FACF6093BB0094E89093BC006FEF70E068
:1019000003C06150704079F09091BC0097FFF9CF0F
:10191000BF01422F0E940C0C08951092BC00DBCF37
:101920001092BC00E6CF1092BC00BF01422F0E9473
:101930000C0C0895880F94EA9093BC002FEF30E0D0
:1019400003C02150304091F19091BC0097FFF9CF36
:101950008093BB0084E88093BC008FEF90E002C0CE
:10196000019739F12091BC0027FFFACF6093BB00AB
:1019700084E88093BC008FEF90E002C00197E1F013
:101980002091BC0027FFFACF4093BB0084E88093EE
:10199000BC008FEF90E002C0019789F02091BC005D
:1019A00027FFFACF84E98093BC0008951092BC0011
:1019B000CFCF1092BC00DACF1092BC00E5CF1092CE
:1019C000BC0084E98093BC000895482F440F94EA3A
:1019D0009093BC002FEF30E004C02150304009F458
:1019E0005BC09091BC0097FFF8CF4093BB0094E898
:1019F0009093BC002FEF30E004C02150304009F438
:101A00004EC09091BC0097FFF8CF6093BB0094E864
:101A10009093BC002FEF30E004C02150304009F417
:101A200041C09091BC0097FFF8CF880F816094EA85
:101A30009093BC002FEF30E003C021503040A9F15B
:101A40009091BC0097FFF9CF8093BB0084E880930E
:101A5000BC008FEF90E002C0019751F12091BC00D3
:101A600027FFFACF84E88093BC008FEF90E002C09C
:101A7000019751F02091BC0027FFFACF8091BB0065
:101A800094E99093BC0008951092BC008091BB0033
:101A900094E99093BC0008951092BC00A6CF1092D8
:101AA000BC00B3CF1092BC00C0CF1092BC00CCCF12
:101AB0001092BC00D7CF88E090E09093C50080934F
:101AC000C400E1ECF0E080818061808380818860E7
:101AD0008083808180688083808180648083E2EC61
:101AE000F0E08081826080838081846080831092B6
:101AF000E8021092E7021092EA021092E9021092B4
:101B0000EC021092EB021092EE021092ED02109293
:101B1000F0021092EF020895FC018091E70290918B
:101B2000E802918380838091E9029091EA02938395
:101B300082838091EB029091EC0295838483809163
:101B4000ED029091EE02978386838091EF0290914F
:101B5000F002918780871092E8021092E7021092BB
:101B6000EA021092E9021092EC021092EB0210923B
:101B7000EE021092ED021092F0021092EF02089520
:101B800040919D01461768F4242F30E0FC01E20FDC
:101B9000F31F50812F503D4FF90150834F5F46177F
:101BA00098F380919D01860F80939D01E0919D01A6
:101BB000F0E0EF50FD4F108280919D016813089571
:101BC0008091C00085FFFCCF8091F1028093C60018
:101BD00081E080939E010895662361F0FC0190E00E
:101BE0008091C00085FFFCCF81918093C6009F5FEC
:101BF0009617B1F708951F920F920FB60F92112406
:101C00002F933F934F935F936F937F938F939F9304
:101C1000AF93BF93EF93FF938091C6008093990198
:101C200080919B018823B1F4809199018A3209F453
:101C300072C0FF91EF91BF91AF919F918F917F9172
:101C40006F915F914F913F912F910F900FBE0F9029
:101C50001F901895E0919C01F0E080919901ED5D55
:101C6000FC4F8083E0919C01F0E0EE5DFC4F8081B1
:101C70008093980180919C018F5F80939C0180915B
:101C800098018332C1F1809199018A3209F44BC0E5
:101C9000809198018D3209F44EC0809198018A326A
:101CA00041F2E0919A01F0E080910201EE0FFF1FF6
:101CB000E951FD4F90E020813181289FA001299FAB
:101CC000500D389F500D112451834083E0919A01AB
:101CD000F0E080919801EE0FFF1FE951FD4F90E079
:101CE000C09720813181820F931F918380838AE086
:101CF000809302019ECF80919901833221F6109248
:101D00009B0110929A0181E08093020180E290E0B1
:101D10000E9465088ECF8093230381E080939C010D
:101D200080939B0186CF10929B0110929A0181E0D3
:101D3000809302017ECF80919A018F5F80939A01F8
:101D400081E08093020175CF1F920F920FB60F9220
:101D500011248F939F93EF93FF9380919D0188238C
:101D600069F410929D0110929E01FF91EF919F9155
:101D70008F910F900FBE0F901F90189580919E012C
:101D8000E82FF0E0EF50FD4F90819093C6008F5FF9
:101D900080939E0180919D01815080939D01E5CFAC
:101DA0001092A00110929F011092A2011092A10125
:101DB0001092A4011092A3011092A6011092A50105
:101DC0001092A8011092A70181E008952F923F92EE
:101DD0004F925F926F927F928F929F92AF92BF923B
:101DE000CF92DF92EF92FF920F931F93CF93DF93E7
:101DF000CDB7DEB7A4970FB6F894DEBF0FBECDBF48
:101E00008C0160E20E945C08882309F090C0C80140
:101E100062E00E945C08882309F470C0E090BD0273
:101E2000F090BE02C090BF02D090C002A090C1024C
:101E3000B090C2028090C3029090C4026090CA0227
:101E40007090CB024090CE025090CF02209076014D
:101E50003090770140917401509175016091720149
:101E600070917301209170013091710138A32F8F0F
:101E700049A35AA36BA37CA30E94C921ADB7BEB7E7
:101E80005A970FB6F894BEBF0FBEADBFEDB7FEB701
:101E900031968E010F5F1F4F12961C930E93119770
:101EA00023E031E033832283F582E482D782C68245
:101EB000B186A08693868286758664865786468616
:101EC000318A208A49A15AA1538B428B6BA17CA1F4
:101ED000758B648B2F8D38A1378B268B918F808FDC
:101EE0000E94232C682F8DB79EB74A960FB6F894A0
:101EF0009EBF0FBE8DBFC8010E94C00DA4960FB635
:101F0000F894DEBF0FBECDBFDF91CF911F910F912F
:101F1000FF90EF90DF90CF90BF90AF909F908F9009
:101F20007F906F905F904F903F902F9008958FE932
:101F300091E00E948C0D80919F019091A0010097EB
:101F4000C9F08130910511F182309105D9F18330CA
:101F5000910509F45CCF8430910509F058CF809148
:101F6000A1019091A2018130910599F1E0E0F0E0AA
:101F700009954DCF8091A1019091A20123E0893E66
:101F8000920708F044CF0E94CE2141CF8091A10159
:101F90009091A2019093D7028093D6028091A301E1
:101FA0009091A401909581959F4F9093D902809331
:101FB000D8028091A5019091A6019093DB028093B5
:101FC000DA0225CF0E948B158091A1010E94941501
:101FD0001ECF0E945B06CACF80E090E0DC018093B8
:101FE000AA019093AB01A093AC01B093AD01809393
:101FF000AE019093AF01A093B001B093B101809373
:10200000B2019093B301A093B401B093B501809352
:10201000B6019093B701A093B801B093B901809332
:10202000BA019093BB01A093BC01B093BD01809312
:10203000BE019093BF01A093C001B093C101109263
:10204000C2011092C3011092C4011092C5011092F6
:10205000C6011092C7011092C8011092C9011092D6
:10206000CA011092CB011092CC011092CD011092B6
:10207000CF011092CE011092D1011092D001109296
:10208000D2011092D3011092D4011092D501109276
:10209000D6011092D7011092D8011092D901109256
:1020A000CB021092CA021092CF021092CE0210926E
:1020B000BC021092BB021092CD021092CC02109280
:1020C000A9010E948A040E94BA000E9410050E9481
:1020D00008020E947C0481E008952F923F924F9263
:1020E0005F926F927F928F929F92AF92BF92CF92A8
:1020F000DF92EF92FF920F931F93CF93DF93CDB7B1
:10210000DEB7A6970FB6F894DEBF0FBECDBF6C0149
:1021100061E00E945C08813009F43FC0C60162E0C2
:102120000E945C088130B1F10E942B02DC01CB01DE
:102130009093C4028093C302C60160E10E945C08D0
:102140008130C9F0A6960FB6F894DEBF0FBECDBFA2
:10215000DF91CF911F910F91FF90EF90DF90CF9083
:10216000BF90AF909F908F907F906F905F904F90B7
:102170003F902F9008958091D0019091D1010097C8
:1021800009F78091C3029091C4029093D10180938A
:10219000D001D8CF0E947C04C7CF0E947B09DC010C
:1021A000CB014091C2015091C3016091C401709173
:1021B000C501841B950BA60BB70B8093C6019093AA
:1021C000C701A093C801B093C9010E947B09DC013B
:1021D000CB018093C2019093C301A093C401B0933B
:1021E000C5012091C6013091C7014091C8015091AD
:1021F000C9012B8B3C8B4D8B5E8B8091CA019091DA
:10220000CB01A091CC01B091CD0182179307A40717
:10221000B50740F42093CA013093CB014093CC0121
:102220005093CD011E861D86188A1F861A8A198A28
:1022300018861F821A8619861C861B861A821982A6
:102240001C821B821E821D82CE0107960E942401E1
:10225000882309F4B0C06F817885709561957F4FB0
:1022600078876F8309851A85109501951F4F1A8706
:102270000987882777FD8095982F0E9488284B0131
:102280005C01B801882777FD8095982F0E948828E7
:102290006F8B788F898F9A8F9B01AC010E94A12947
:1022A000162F072F682E592E6B857C85882777FD82
:1022B0008095982F0E9488286B8F7C8F8D8F9E8FA2
:1022C0009B01AC010E94A129E62E472EF82E792E03
:1022D000A801852F942FA62DB52DBC01CD010E2D63
:1022E000142D2F2D372DA90198010E9420270E941F
:1022F0005A2A9B01AC01C501B4010E9493276F8F3C
:1023000078A389A39AA3C501B401A50194010E94F1
:10231000A129F62FE72F382F292F4E2D542D6F2D61
:10232000772DCB01BA01DF01A9010B2F1A2F252F21
:10233000342FA90198010E9420270E945A2A9B014C
:10234000AC016F89788D898D9A8D0E9493274B01FE
:102350005C016F8D78A189A19AA120EE3EE245E64D
:1023600052E40E94A129DC01CB018093AA01909341
:10237000AB01A093AC01B093AD01C501B40120EE57
:102380003EE245E652E40E94A129DC01CB018093A4
:10239000AE019093AF01A093B001B093B1018B8DCA
:1023A0009C8DAD8DBE8D8093B2019093B301A093AF
:1023B000B401B093B501CE010D960E945B05882350
:1023C00009F4D5C00D851E85109501951F4F1E87F8
:1023D0000D876F84788889899A89EE24FF24E81A0A
:1023E000F90AFA8AE98A6B897C898D899E890E941B
:1023F00086284B015C01B801882777FD8095982FCE
:102400000E94882820E030E046E651E40E94ED2753
:10241000A50194010E94A12920E034E244E759E497
:102420000E94ED279B01AC016091BA017091BB0144
:102430008091BC019091BD010E942027DC01CB015D
:102440008093BA019093BB01A093BC01B093BD01EE
:10245000B301882777FD8095982F0E94882820E077
:1024600030E046E651E40E94ED279B01AC01C50136
:10247000B4010E94A12920E034E244E759E40E941B
:10248000ED279B01AC016091B6017091B70180917D
:10249000B8019091B9010E942027DC01CB01809303
:1024A000B6019093B701A093B801B093B901B701F9
:1024B000882777FD8095982F0E94882820E030E0BB
:1024C00046E651E40E94ED279B01AC01C501B40131
:1024D0000E94A12920E034E244E759E40E94ED275C
:1024E0002091BE013091BF014091C0015091C101C6
:1024F0000E942027062FE72E882E192F862F9E2D2B
:10250000A82DB12F8093BE019093BF01A093C0016D
:10251000B093C101BC01CD0120E030E0A9010E94CF
:10252000E62787FDBFC2802F9E2DA82DB12FBC01AD
:10253000CD0120E030E044EB53E40E9496291816C8
:10254000B4F4802F9E2DA82DB12FBC01CD0120E029
:1025500030E044EB53E40E941F27DC01CB01809361
:10256000BE019093BF01A093C001B093C101CE0101
:1025700001960E94B404882309F433C109811A81A9
:10258000109501951F4F1A8309832B803C806D8124
:102590007E81EE24FF24E61AF70AFE82ED82409047
:1025A000AA015090AB016090AC017090AD01C301E5
:1025B000B20120E030E040E252E40E949629181671
:1025C0000CF018C18090B6019090B701A090B801AE
:1025D000B090B9016091C6017091C7018091C801A6
:1025E0009091C9010E9486287B018C01C301B20130
:1025F000A50194010E94E41520E030E040E251E49E
:102600000E94A1290E945528DC01CB019093BE02B3
:102610008093BD028090AE019090AF01A090B00178
:10262000B090B1014090BA015090BB016090BC01E4
:102630007090BD016091C6017091C7018091C80181
:102640009091C9010E9486287B018C01C501B401CB
:10265000A30192010E947B1820E030E040E251E4A7
:102660000E94A1290E945528DC01CB019093C00251
:102670008093BF026091CE017091CF0180E090E025
:102680000E9486284B015C014090BE015090BF0122
:102690006090C0017090C1016091C6017091C70146
:1026A0008091C8019091C9010E9486287B018C010C
:1026B000C501B401A30192010E94121B0E9455287A
:1026C000DC01CB019093C2028093C1028091C302CE
:1026D0009091C4022091D0013091D101821B930BC3
:1026E0009093C4028093C3026091D6027091D70286
:1026F000882777FD8095982F0E9488284B015C01E0
:102700006091BD027091BE02882777FD8095982F59
:102710000E9488288B019C0180E0B501A4010E94E1
:1027200066229093CB028093CA026091D802709186
:10273000D902882777FD8095982F0E9488284B0121
:102740005C016091BF027091C002882777FD80957F
:10275000982F0E9488288B019C0181E0B501A4017B
:102760000E9466229093CF028093CE020091C10214
:102770001091C2026091DA027091DB02600F711F4A
:10278000882777FD8095982F0E9488284B015C014F
:10279000B801882777FD8095982F0E9488288B01A3
:1027A0009C0182E0B501A4010E946622AC019093D5
:1027B000BC028093BB028091C702813009F489C1B9
:1027C0006091CE027091CF028091CA029091CB02AB
:1027D0000E945A200E94C9219093D1028093D00276
:1027E0009DCC4090AA015090AB016090AC017090DC
:1027F000AD01E8CEC301B20120E030E040E252EC8E
:102800000E94E62787FDDECE8090AE019090AF015A
:10281000A090B001B090B101C501B40120E030E05A
:1028200040E252E40E94962918160CF4CBCEC50162
:10283000B40120E030E040E252EC0E94E62787FD40
:10284000C1CEC501B40125E33AEF4EE85CE30E9436
:10285000A129862EB72EA82E992E262F372F482F46
:10286000592FC901DA01BC01CD010E94EA276F8FFF
:1028700078A389A39AA3282D3B2D4A2D592DC90150
:10288000DA01BC01CD010E94502A6B8B7C8B8D8BB1
:102890009E8BC301B20125E33AEF4EE85CE30E9450
:1028A000A129862EB72EA82E992E262F372F482FF6
:1028B000592FC901DA01BC01CD010E94EA276F8BB3
:1028C000788F898F9A8F282D3B2D4A2D592DC9013C
:1028D000DA01BC01CD010E94502A6B8F7C8F8D8F55
:1028E0009E8FB801882777FD8095982F0E948828B1
:1028F0004B015C01B701882777FD8095982F0E94D6
:1029000088287B018C016B897C898D899E89A50132
:1029100094010E94A1299B01AC016B8D7C8D8D8D52
:102920009E8D0E94A1296BA37CA38DA39EA3B101C0
:10293000882777FD8095982F0E9488289B01AC01FD
:102940006F8D78A189A19AA10E94A1299B01AC0158
:102950006BA17CA18DA19EA10E9420276F8F78A3DF
:1029600089A39AA36B897C898D899E89A801970187
:102970000E94A1299B01AC016F89788D898D9A8D68
:102980000E94A1299B01AC016F8D78A189A19AA118
:102990000E941F276B8B7C8B8D8B9E8B6F89788D14
:1029A000898D9A8DA50194010E94A1294B015C019A
:1029B0006B8D7C8D8D8D9E8DA80197010E94A12924
:1029C0009B01AC01C501B4010E9420279B01AC0111
:1029D0006B897C898D899E890E9493272AEC37E335
:1029E0004BE55CE30E941F27162F072FF82EE92ED8
:1029F000A8019701852F942FA32FB22FBC01CD01E1
:102A000020E030E0A9010E94E62787FF12C0A8015C
:102A10009701852F942FA32FB22FBC01CD012BED51
:102A20003FE049EC50E40E942027162F072FF82E94
:102A3000E92EA8019701852F902FA32FBE2DBC0151
:102A4000CD012BED3FE049EC50E40E949629181689
:102A500094F4A8019701852F902FA32FBE2DBC01C0
:102A6000CD012BED3FE049EC50E40E941F27162FCB
:102A7000072FF82EE92EA8019701852F902FA32F5D
:102A8000BE2DBC01CD0120EE3EE245E652E40E949F
:102A9000A1290E945A28DC01CB019093CF01809399
:102AA000CE0190CD802F9E2DA82DB12FBC01CD0140
:102AB00020E030E044EB53E40E942027DC01CB010E
:102AC0008093BE019093BF01A093C001B093C10158
:102AD0004ECD6091DC027091DD0280E090E00E94BA
:102AE00086284B015C016091C3027091C40280E0B2
:102AF00090E00E9486288B019C0183E0B501A4012F
:102B00000E9466229093CD028093CC024091BB023A
:102B10005091BC0255CE8091C3029091C402909313
:102B2000D1018093D0010895882319F41092C7022F
:102B3000089591E09093C7022091D0013091D10186
:102B4000280F311D3093DD022093DC0208950F938E
:102B50001F93CF93DF93CDB7DEB762970FB6F8948C
:102B6000DEBF0FBECDBF10E0CE0107960E9424014C
:102B7000CE010D960E945B05CE0101960E94B40421
:102B80000E944F05082F012B0E941801182F0E9448
:102B9000AE04912F990F182F110F110F192B102B15
:102BA000173029F084E190E00E94C709DDCF0E9430
:102BB000610662960FB6F894DEBF0FBECDBFDF91FF
:102BC000CF911F910F9108952F923F924F925F9254
:102BD0006F927F928F929F92AF92BF92CF92DF922D
:102BE000EF92FF920F931F93CF93DF93CDB7DEB792
:102BF000A2970FB6F894DEBF0FBECDBF6E8F7F8F4A
:102C000088A399A349015A01C801B70120E030E423
:102C10004CE156E40E94ED2769837A838B839C8381
:102C20006B017C01CB01AB81BC81809371039093DC
:102C30007203A0937303B093740380913202909156
:102C40003302A0913402B09135028E879F87A88B02
:102C5000B98BC501B4012E853F85488959890E94E9
:102C60001F279B01AC0189819A81AB81BC81BC018A
:102C7000CD010E94A1292091360230913702409166
:102C80003802509139020E94202769877A878B8702
:102C90009C87F7FAF094F7F8F09440902602509051
:102CA0002702609028027090290280902A0290905A
:102CB0002B02A0902C02B0902D02C301B201A501FD
:102CC00094010E9420279B01AC01C701B6010E941C
:102CD000A1296D837E838F83988789819A81AB81B7
:102CE000BC81BC01CD012FE632E143E85AE30E94EA
:102CF000A1299B01AC016D817E818F8198850E9405
:102D0000202720912E0230912F02409130025091C5
:102D100031020E942027362E272E8D839D87809199
:102D2000220290912302A0912402B09125028A8B65
:102D30009B8BAC8BBD8BC701B6012A893B894C8923
:102D40005D890E94A129D62EC72EF82EE92EC50135
:102D5000B401F601A7010F2F1E2F252F342FA90133
:102D600098010E9420276E8B7F8B888F998FC301DB
:102D7000B201A701252F342FA90198010E94202715
:102D80006A8F7B8F8C8F9D8FA1013D812D85852F33
:102D9000942FA32FB22FBC01CD012FE832EC45EFC9
:102DA0005CE30E942027B62EC72EF82EE92E97014D
:102DB000862F9C2DA32FB22F8093790390937A03B3
:102DC000A0937B03B0937C03A1013D812D85852FCA
:102DD000942FA32FB22FBC01CD01A7010B2D1C2DC9
:102DE000252F342FA90198010E94ED27162F072FB8
:102DF0004C01A801852F942FA82DB92D809359033C
:102E000090935A03A0935B03B0935C035A8D4B8D50
:102E10003C8D2D8D852F942FA32FB22FBC01CD017A
:102E20004C2D9701CB2CD42EE32EF22EA701960128
:102E30000E94ED27462E772E682E592E862F972D2D
:102E4000A62DB52D8093690390936A03A0936B031D
:102E5000B0936C036E8D7F8D88A199A159854A85A9
:102E60003B852C85C52ED42EE32EF22EA70196018C
:102E70000E941F276E8F7AA3B82EA92E472F950187
:102E8000862F942FA32FB22F80936D0390936E0300
:102E9000A0936F03B0937003A801852F942FA82DE2
:102EA000B92DBC01CD015E8D4AA19501C52ED42E50
:102EB000E32EF22EA70196010E94A1299B01AC01ED
:102EC000F985EA857B856C858F2F9E2FA72FB62FDE
:102ED000BC01CD010E94202769877A878B879C8758
:102EE000472F382F292F862F942FA32FB22F80936F
:102EF000360290933702A0933802B0933902842DA2
:102F0000972DA62DB52DBC01CD01A70196010E94DC
:102F1000A1299B01AC016E857F85888999890E94D2
:102F20002027DC01CB018093320290933302A093DF
:102F30003402B0933502A1013D812D85852F942F58
:102F4000A32FB22FBC01CD01A801C52ED42EE82C91
:102F5000F92CA70196010E94A1299B01AC01F10166
:102F60007D816D858F2F9E2FA72FB62FBC01CD01A0
:102F70000E941F27D62EC72EF82EE92EA6019701F4
:102F8000852F942FA32FB22F80932E0290932F0280
:102F9000A0933002B09331025E894F89388D298D1C
:102FA000852F942FA32FB22FBC01CD01F8010F2F35
:102FB0001E2F282D392DA90198010E94A1299B01BE
:102FC000AC01FE89EF89788D698D8F2F9E2FA72FF9
:102FD000B62FBC01CD010E941F278B01B82EA92E50
:102FE0009501862F912FA32FB22F80932A029093C1
:102FF0002B02A0932C02B0932D02842D972DA62D89
:10300000B52DBC01CD01A6019701C52ED42EE32E0E
:10301000F22EA70196010E94A1299B01AC01FA8D15
:10302000EB8D7C8D6D8D8F2F9E2FA72FB62FBC0122
:10303000CD010E941F27DC01CB01809326029093D3
:103040002702A0932802B093290289819A81AB813B
:10305000BC81BC01CD0126EA3BE944E45BE30E946C
:10306000A1299B01AC016A897B898C899D890E9479
:1030700020276B017C01842D972DA62DB52DBC0139
:10308000CD01A501252F342FA90198010E94A12966
:103090009B01AC01C701B6010E941F27DC01CB01D7
:1030A0008093220290932302A0932402B0932502DE
:1030B00059854A853B852C85852F942FA32FB22FC8
:1030C000BC01CD01A2960FB6F894DEBF0FBECDBFF6
:1030D000DF91CF911F910F91FF90EF90DF90CF90F4
:1030E000BF90AF909F908F907F906F905F904F9028
:1030F0003F902F9008952F923F924F925F926F9240
:103100007F928F929F92AF92BF92CF92DF92EF9277
:10311000FF920F931F93CF93DF93CDB7DEB7A297A4
:103120000FB6F894DEBF0FBECDBF6E8F7F8F88A322
:1031300099A349015A01C801B70120E030E44CE1EC
:1031400056E40E94ED2769837A838B839C836B010D
:103150007C01CB01AB81BC8180935D0390935E03C6
:10316000A0935F03B093600380911A0290911B02B9
:10317000A0911C02B0911D028E879F87A88BB98BEE
:10318000C501B4012E853F85488959890E941F27B2
:103190009B01AC0189819A81AB81BC81BC01CD01CD
:1031A0000E94A12920911E0230911F02409120020D
:1031B000509121020E94202769877A878B879C87FC
:1031C000F7FAF094F7F8F09440900E0250900F0246
:1031D0006090100270901102809012029090130281
:1031E000A0901402B0901502C301B201A501940190
:1031F0000E9420279B01AC01C701B6010E94A129B2
:103200006D837E838F83988789819A81AB81BC810E
:10321000BC01CD012FE632E143E85AE30E94A12927
:103220009B01AC016D817E818F8198850E94202752
:103230002091160230911702409118025091190204
:103240000E942027362E272E8D839D8780910A028B
:1032500090910B02A0910C02B0910D028A8B9B8B76
:10326000AC8BBD8BC701B6012A893B894C895D892E
:103270000E94A129D62EC72EF82EE92EC501B40131
:10328000F601A7010F2F1E2F252F342FA90198011A
:103290000E9420276E8B7F8B888F998FC301B2018C
:1032A000A701252F342FA90198010E9420276A8F9A
:1032B0007B8F8C8F9D8FA1013D812D85852F942F34
:1032C000A32FB22FBC01CD012FE832EC45EF5CE318
:1032D0000E942027B62EC72EF82EE92E9701862FA2
:1032E0009C2DA32FB22F8093750390937603A09308
:1032F0007703B0937803A1013D812D85852F942F0D
:10330000A32FB22FBC01CD01A7010B2D1C2D252F02
:10331000342FA90198010E94ED27162F072F4C0189
:10332000A801852F942FA82DB92D80938D039093FC
:103330008E03A0938F03B09390035A8D4B8D3C8DD9
:103340002D8D852F942FA32FB22FBC01CD014C2D95
:103350009701CB2CD42EE32EF22EA70196010E94CA
:10336000ED27462E772E682E592E862F972DA62DC7
:10337000B52D8093A1039093A203A093A303B093D0
:10338000A4036E8D7F8D88A199A159854A853B85BF
:103390002C85C52ED42EE32EF22EA70196010E9475
:1033A0001F276E8F7AA3B82EA92E472F9501862F3F
:1033B000942FA32FB22F8093550390935603A0937D
:1033C0005703B0935803A801852F942FA82DB92D2A
:1033D000BC01CD015E8D4AA19501C52ED42EE32EF0
:1033E000F22EA70196010E94A1299B01AC01F9854B
:1033F000EA857B856C858F2F9E2FA72FB62FBC016A
:10340000CD010E94202769877A878B879C87472F69
:10341000382F292F862F942FA32FB22F80931E028F
:1034200090931F02A0932002B0932102842D972D28
:10343000A62DB52DBC01CD01A70196010E94A129A1
:103440009B01AC016E857F85888999890E94202720
:10345000DC01CB0180931A0290931B02A0931C0203
:10346000B0931D02A1013D812D85852F942FA32F9F
:10347000B22FBC01CD01A801C52ED42EE82CF92C09
:10348000A70196010E94A1299B01AC01F1017D8158
:103490006D858F2F9E2FA72FB62FBC01CD010E94C7
:1034A0001F27D62EC72EF82EE92EA6019701852FAD
:1034B000942FA32FB22F8093160290931702A093FC
:1034C0001802B09319025E894F89388D298D852F96
:1034D000942FA32FB22FBC01CD01F8010F2F1E2F67
:1034E000282D392DA90198010E94A1299B01AC0129
:1034F000FE89EF89788D698D8F2F9E2FA72FB62F8C
:10350000BC01CD010E941F278B01B82EA92E950169
:10351000862F912FA32FB22F809312029093130224
:10352000A0931402B0931502842D972DA62DB52DCE
:10353000BC01CD01A6019701C52ED42EE32EF22E9B
:10354000A70196010E94A1299B01AC01FA8DEB8D88
:103550007C8D6D8D8F2F9E2FA72FB62FBC01CD0197
:103560000E941F27DC01CB0180930E0290930F0273
:10357000A0931002B093110289819A81AB81BC8122
:10358000BC01CD0126EA3BE944E45BE30E94A129AA
:103590009B01AC016A897B898C899D890E942027C7
:1035A0006B017C01842D972DA62DB52DBC01CD017D
:1035B000A501252F342FA90198010E94A1299B0163
:1035C000AC01C701B6010E941F27DC01CB0180932B
:1035D0000A0290930B02A0930C02B0930D0259853E
:1035E0004A853B852C85852F942FA32FB22FBC01B4
:1035F000CD01A2960FB6F894DEBF0FBECDBFDF910E
:10360000CF911F910F91FF90EF90DF90CF90BF90DF
:10361000AF909F908F907F906F905F904F903F9072
:103620002F9008952F923F924F925F926F927F92C8
:103630008F929F92AF92BF92CF92DF92EF92FF92C2
:103640000F931F93CF93DF93CDB7DEB7A2970FB63B
:10365000F894DEBF0FBECDBF6E8F7F8F88A399A376
:1036600049015A01C801B70120E030E44CE156E4B9
:103670000E94ED2769837A838B839C836B017C0195
:10368000CB01AB81BC818093950390939603A0936B
:103690009703B09398038091020290910302A09146
:1036A0000402B09105028E879F87A88BB98BC50154
:1036B000B4012E853F85488959890E941F279B01A7
:1036C000AC0189819A81AB81BC81BC01CD010E9492
:1036D000A1292091060230910702409108025091E1
:1036E00009020E94202769877A878B879C87F7FACF
:1036F000F094F7F8F0944090F6015090F701609044
:10370000F8017090F9018090FA019090FB01A0906F
:10371000FC01B090FD01C301B201A50194010E941A
:1037200020279B01AC01C701B6010E94A1296D832E
:103730007E838F83988789819A81AB81BC81BC010C
:10374000CD012FE632E143E85AE30E94A1299B0113
:10375000AC016D817E818F8198850E942027209108
:10376000FE013091FF0140910002509101020E9440
:103770002027362E272E8D839D878091F2019091F0
:10378000F301A091F401B091F5018A8B9B8BAC8B76
:10379000BD8BC701B6012A893B894C895D890E948E
:1037A000A129D62EC72EF82EE92EC501B401F601A7
:1037B000A7010F2F1E2F252F342FA90198010E943A
:1037C00020276E8B7F8B888F998FC301B201A70151
:1037D000252F342FA90198010E9420276A8F7B8F03
:1037E0008C8F9D8FA1013D812D85852F942FA32F37
:1037F000B22FBC01CD012FE832EC45EF5CE30E9413
:103800002027B62EC72EF82EE92E9701862F9C2D45
:10381000A32FB22F8093910390939203A0939303CD
:10382000B0939403A1013D812D85852F942FA32F63
:10383000B22FBC01CD01A7010B2D1C2D252F342F3C
:10384000A90198010E94ED27162F072F4C01A8010E
:10385000852F942FA82DB92D8093850390938603EF
:10386000A0938703B09388035A8D4B8D3C8D2D8D8B
:10387000852F942FA32FB22FBC01CD014C2D970182
:10388000CB2CD42EE32EF22EA70196010E94ED2719
:10389000462E772E682E592E862F972DA62DB52DC4
:1038A0008093990390939A03A0939B03B0939C03F6
:1038B0006E8D7F8D88A199A159854A853B852C8580
:1038C000C52ED42EE32EF22EA70196010E941F27AB
:1038D0006E8F7AA3B82EA92E472F9501862F942F8D
:1038E000A32FB22F80937D0390937E03A0937F0339
:1038F000B0938003A801852F942FA82DB92DBC016A
:10390000CD015E8D4AA19501C52ED42EE32EF22E57
:10391000A70196010E94A1299B01AC01F985EA85C6
:103920007B856C858F2F9E2FA72FB62FBC01CD01D5
:103930000E94202769877A878B879C87472F382F9B
:10394000292F862F942FA32FB22F809306029093B6
:103950000702A0930802B0930902842D972DA62D8B
:10396000B52DBC01CD01A70196010E94A1299B01A3
:10397000AC016E857F85888999890E942027DC01AA
:10398000CB018093020290930302A0930402B093B0
:103990000502A1013D812D85852F942FA32FB22FE4
:1039A000BC01CD01A801C52ED42EE82CF92CA7010D
:1039B00096010E94A1299B01AC01F1017D816D85D9
:1039C0008F2F9E2FA72FB62FBC01CD010E941F273E
:1039D000D62EC72EF82EE92EA6019701852F942FFB
:1039E000A32FB22F8093FE019093FF01A0930002BA
:1039F000B09301025E894F89388D298D852F942FD0
:103A0000A32FB22FBC01CD01F8010F2F1E2F282D9F
:103A1000392DA90198010E94A1299B01AC01FE89C1
:103A2000EF89788D698D8F2F9E2FA72FB62FBC0120
:103A3000CD010E941F278B01B82EA92E9501862F3C
:103A4000912FA32FB22F8093FA019093FB01A093A3
:103A5000FC01B093FD01842D972DA62DB52DBC0141
:103A6000CD01A6019701C52ED42EE32EF22EA7017B
:103A700096010E94A1299B01AC01FA8DEB8D7C8DF2
:103A80006D8D8F2F9E2FA72FB62FBC01CD010E94C9
:103A90001F27DC01CB018093F6019093F701A093DF
:103AA000F801B093F90189819A81AB81BC81BC0195
:103AB000CD0126EA3BE944E45BE30E94A1299B0196
:103AC000AC016A897B898C899D890E9420276B01C2
:103AD0007C01842D972DA62DB52DBC01CD01A5010E
:103AE000252F342FA90198010E94A1299B01AC0127
:103AF000C701B6010E941F27DC01CB018093F201B0
:103B00009093F301A093F401B093F50159854A8590
:103B10003B852C85852F942FA32FB22FBC01CD017F
:103B2000A2960FB6F894DEBF0FBECDBFDF91CF9146
:103B30001F910F91FF90EF90DF90CF90BF90AF90CB
:103B40009F908F907F906F905F904F903F902F90BD
:103B500008952F923F924F925F926F927F928F9231
:103B60009F92AF92BF92CF92DF92EF92FF920F930C
:103B70001F93CF93DF93CDB7DEB7A2970FB6F8941C
:103B8000DEBF0FBECDBF6E8F7F8F88A399A3490183
:103B90005A01C801B70120E030E44CE156E40E942C
:103BA000ED2769837A838B839C836B017C01CB0136
:103BB000AB81BC818093650390936603A0936703F8
:103BC000B09368038091EA019091EB01A091EC0120
:103BD000B091ED018E879F87A88BB98BC501B40189
:103BE0002E853F85488959890E941F279B01AC017A
:103BF00089819A81AB81BC81BC01CD010E94A12940
:103C00002091EE013091EF014091F0015091F101CE
:103C10000E94202769877A878B879C87F7FAF09420
:103C2000F7F8F0944090DE015090DF016090E001E1
:103C30007090E1018090E2019090E301A090E40196
:103C4000B090E501C301B201A50194010E942027B3
:103C50009B01AC01C701B6010E94A1296D837E833F
:103C60008F83988789819A81AB81BC81BC01CD010A
:103C70002FE632E143E85AE30E94A1299B01AC01FF
:103C80006D817E818F8198850E9420272091E60199
:103C90003091E7014091E8015091E9010E9420270D
:103CA000362E272E8D839D878091DA019091DB013E
:103CB000A091DC01B091DD018A8B9B8BAC8BBD8B1D
:103CC000C701B6012A893B894C895D890E94A129D7
:103CD000D62EC72EF82EE92EC501B401F601A70194
:103CE0000F2F1E2F252F342FA90198010E94202766
:103CF0006E8B7F8B888F998FC301B201A701252F0F
:103D0000342FA90198010E9420276A8F7B8F8C8F06
:103D10009D8FA1013D812D85852F942FA32FB22F3B
:103D2000BC01CD012FE832EC45EF5CE30E94202777
:103D3000B62EC72EF82EE92E9701862F9C2DA32F85
:103D4000B22F8093610390936203A0936303B093B7
:103D50006403A1013D812D85852F942FA32FB22FC0
:103D6000BC01CD01A7010B2D1C2D252F342FA9013E
:103D700098010E94ED27162F072F4C01A801852FCF
:103D8000942FA82DB92D8093890390938A03A09333
:103D90008B03B0938C035A8D4B8D3C8D2D8D852FCD
:103DA000942FA32FB22FBC01CD014C2D9701CB2C0A
:103DB000D42EE32EF22EA70196010E94ED27462E67
:103DC000772E682E592E862F972DA62DB52D8093F0
:103DD0009D0390939E03A0939F03B093A0036E8DC9
:103DE0007F8D88A199A159854A853B852C85C52E53
:103DF000D42EE32EF22EA70196010E941F276E8F6C
:103E00007AA3B82EA92E472F9501862F942FA32F82
:103E1000B22F8093810390938203A0938303B09386
:103E20008403A801852F942FA82DB92DBC01CD01A5
:103E30005E8D4AA19501C52ED42EE32EF22EA70148
:103E400096010E94A1299B01AC01F985EA857B8539
:103E50006C858F2F9E2FA72FB62FBC01CD010E94FE
:103E6000202769877A878B879C87472F382F292FB0
:103E7000862F942FA32FB22F8093EE019093EF0102
:103E8000A093F001B093F101842D972DA62DB52DAF
:103E9000BC01CD01A70196010E94A1299B01AC01A3
:103EA0006E857F85888999890E942027DC01CB0156
:103EB0008093EA019093EB01A093EC01B093ED01A4
:103EC000A1013D812D85852F942FA32FB22FBC01F9
:103ED000CD01A801C52ED42EE82CF92CA7019601FE
:103EE0000E94A1299B01AC01F1017D816D858F2F7D
:103EF0009E2FA72FB62FBC01CD010E941F27D62EC3
:103F0000C72EF82EE92EA6019701852F942FA32FF7
:103F1000B22F8093E6019093E701A093E801B0935C
:103F2000E9015E894F89388D298D852F942FA32F24
:103F3000B22FBC01CD01F8010F2F1E2F282D392DD6
:103F4000A90198010E94A1299B01AC01FE89EF897A
:103F5000788D698D8F2F9E2FA72FB62FBC01CD0195
:103F60000E941F278B01B82EA92E9501862F912F15
:103F7000A32FB22F8093E2019093E301A093E40179
:103F8000B093E501842D972DA62DB52DBC01CD0153
:103F9000A6019701C52ED42EE32EF22EA70196017D
:103FA0000E94A1299B01AC01FA8DEB8D7C8D6D8D5A
:103FB0008F2F9E2FA72FB62FBC01CD010E941F2748
:103FC000DC01CB018093DE019093DF01A093E0013F
:103FD000B093E10189819A81AB81BC81BC01CD01A3
:103FE00026EA3BE944E45BE30E94A1299B01AC0182
:103FF0006A897B898C899D890E9420276B017C01BD
:10400000842D972DA62DB52DBC01CD01A501252F01
:10401000342FA90198010E94A1299B01AC01C7017D
:10402000B6010E941F27DC01CB018093DA01909337
:10403000DB01A093DC01B093DD0159854A853B8506
:104040002C85852F942FA32FB22FBC01CD01A296D2
:104050000FB6F894DEBF0FBECDBFDF91CF911F9199
:104060000F91FF90EF90DF90CF90BF90AF909F9017
:104070008F907F906F905F904F903F902F9008951A
:104080000E94750888EE93E090933B0280933A0279
:1040900090937301809372019093770180937601DE
:1040A00090937101809370019093750180937401D6
:1040B00081E008956F927F928F929F92AF92BF920C
:1040C000CF92DF92EF92FF920F931F93CF93DF93E4
:1040D000D82EC92EE0903A02F0903B0289EEE81605
:1040E00083E0F80608F4FCC04B01B70168197909B0
:1040F00080E090E00E948628D62FC72F182F092F26
:10410000AE019801852F942FA32FB22FBC01CD01B2
:1041100020E030E04AEF54E40E9496291816BCF5DE
:1041200088EE682E83E0782E60ED77E0709373015F
:1041300060937201AD2CBC2CB5016E0D7F1D80E02B
:1041400090E00E948628EB01182F092F9801862FF6
:104150009D2FA32FB22FBC01CD0120E030E04AEF0C
:1041600054E40E94962918163CF198018C2F9D2F3B
:10417000A32FB22FBC01CD0120E030E04AE754E488
:104180000E94E62787FFDEC088EE93E017C0AE01ED
:104190009801852F942FA32FB22FBC01CD0120E0D1
:1041A00030E04AE754E40E94E62787FFD7C0662440
:1041B000772468EE73E0BACF80ED97E090937701B3
:1041C00080937601B7016A197B0980E090E00E9434
:1041D0008628EB01182F092F9801862F9D2FA32FDA
:1041E000B22FBC01CD0120E030E04AEF54E40E9440
:1041F0009629181694F098018C2F9D2FA32FB22F7B
:10420000BC01CD0120E030E04AE754E40E94E627FB
:1042100087FF8EC068EE73E002C060ED77E07093B8
:10422000710160937001E80CF91CB70180E090E027
:104230000E9486288B01D82FC92F9E01862F912F8F
:10424000A32FB22FBC01CD0120E030E04AEF54E4AF
:104250000E94962918160CF468C09E01802F912F99
:10426000A32FB22FBC01CD0120E030E04AE754E497
:104270000E94E62787FF83C068EE73E070937501A4
:104280006093740180E0B3010E94B30860917601ED
:1042900070917701685E734081E00E94B30860917D
:1042A000700170917101685E734082E00E94B308F2
:1042B0006091740170917501685E734083E00E94A3
:1042C000B308DF91CF911F910F91FF90EF90DF9096
:1042D000CF90BF90AF909F908F907F906F900895F8
:1042E000F0927301E0927201F0927701E092760110
:1042F000F0927101E0927001F0927501E092740108
:1043000080E060E070E00E94B30881E060E070E06F
:104310000E94B30882E060E070E00E94B30883E08E
:1043200060E070E00E94B308CCCF60ED77E0A6CFEC
:1043300098018C2F9D2FA32FB22FBC01CD010E947D
:104340005A286DCF98018C2F9D2FA32FB22FBC011F
:10435000CD010E945A28DC01CB0130CFAE0198017B
:10436000852F942FA32FB22FBC01CD010E945A2874
:1043700098E1692E9CEF792E660E771ED7CE9E01AE
:10438000802F912FA32FB22FBC01CD010E945A285C
:1043900075CF80913A0290913B02089523E0893EC7
:1043A000920730F488519C4F90933B0280933A02DD
:1043B00081E0089520913A0230913B02280F391F85
:1043C00087E0213D380720F430933B0220933A02E6
:1043D00081E008958F929F92AF92BF92CF92DF9229
:1043E000EF92FF920F931F9348015901ACE3B2E0A3
:1043F000282F30E0220F331F220F331FF901EE0F59
:10440000FF1FEE0FFF1FE20FF31FEA0FFB1F40839A
:10441000518362837383282F30E0220F331F220FD2
:10442000331FF901EE0FFF1FEE0FFF1FE20FF31F07
:10443000EA0FFB1F84829582A682B782282F30E084
:10444000220F331F220F331FF901EE0FFF1FEE0F54
:10445000FF1FE20FF31FEA0FFB1FC086D186E28623
:10446000F386282F30E0220F331F220F331FF9016C
:10447000EE0FFF1FEE0FFF1FE20FF31FEA0FFB1FF0
:1044800040E050E0BA014487558766877787282F38
:1044900030E0C901880F991F880F991FFC01EE0FAA
:1044A000FF1FEE0FFF1FE80FF91FEA0FFB1F408BE6
:1044B000518B628B738B1F910F91FF90EF90DF9068
:1044C000CF90BF90AF909F908F9008957F928F92E2
:1044D0009F92AF92BF92CF92DF92EF92FF920F9393
:1044E0001F93CF93DF93F82E48015901CB01BA01F6
:1044F000A90198010E941F27062FE72ED82E792E9A
:104500008F2D90E0880F991F880F991FFC01EE0FE7
:10451000FF1FEE0FFF1FE80FF91FE45CFD4F802F18
:104520009E2DAD2DB72DBC01CD0120893189428949
:1045300053890E942027EB01182FC92E8F2D90E060
:10454000880F991F880F991FFC01EE0FFF1FEE0FB8
:10455000FF1FE80FF91FE45CFD4F8C2F9D2FA12F4B
:10456000BC2D808B918BA28BB38BBC01CD0120E045
:1045700030E04AE754EC0E94E62787FDE8C08C2F24
:104580009D2FA12FBC2DBC01CD0120E030E04AE7DA
:1045900054E40E9496291816BCF48F2D90E0880FE1
:1045A000991F880F991FFC01EE0FFF1FEE0FFF1FD1
:1045B000E80FF91FE45CFD4F80E090E0AAE7B4E467
:1045C000808B918BA28BB38B8F2D90E0880F991FDE
:1045D000880F991FEC01CC0FDD1FCC0FDD1FC80F1A
:1045E000D91FC45CDD4F8F2D90E0880F991F880F75
:1045F000991FFC01EE0FFF1FEE0FFF1FE80FF91FC1
:10460000E45CFD4FC501B401248535854685578599
:104610000E941F27288539854A855B850E94A1292C
:1046200020E030E040E251E40E94ED270E9455284E
:10463000DC01CB01EC018F2D90E0880F991F880FD2
:10464000991FFC01EE0FFF1FEE0FFF1FE80FF91F70
:10465000E45CFD4F84869586A686B7868F2D90E014
:10466000880F991F880F991FFC01EE0FFF1FEE0F97
:10467000FF1FE80FF91FE45CFD4F802F9E2DAD2D2D
:10468000B72DBC01CD0120813181428153810E942F
:10469000A12920E030E040E251E40E94ED274B01E7
:1046A0005C018F2D90E0880F991F880F991FDC0106
:1046B000AA0FBB1FAA0FBB1FA80FB91FA45CBD4F39
:1046C0008F2D90E0880F991F880F991FFC01EE0F26
:1046D000FF1FEE0FFF1FE80FF91FE45CFD4F14965C
:1046E0006D917D918D919C91179720893189428997
:1046F00053890E94A12920E030E040E251E40E9469
:10470000ED279B01AC01C501B4010E9420276B017C
:104710007C01BE01882777FD8095982F0E9488280C
:104720009B01AC01C701B6010E9420270E945528B9
:10473000CB01DF91CF911F910F91FF90EF90DF9010
:10474000CF90BF90AF909F908F907F9008958F2DC6
:1047500090E0880F991F880F991FFC01EE0FFF1F33
:10476000EE0FFF1FE80FF91FE45CFD4F80E090E0C3
:10477000AAE7B4EC808B918BA28BB38B25CF1092E0
:104780008E0281E080938C0285E080938D020895F3
:1047900064E00E945C08882359F080918C0281308B
:1047A00041F080918D02882319F0815080938D0211
:1047B000089580918D028823C1F780918E028B5FCE
:1047C00080938E02853150F085E180938E021092A5
:1047D0008C0285E190E00E94CE21089590E0FBCF0D
:1047E0001092A5031092AD031092AC031092AE0389
:1047F0001092B6031092B5031092B7031092BF0344
:104800001092BE031092C0031092C8031092C70307
:104810001092C9031092D1031092D0031092B000ED
:10482000E1EBF0E08081846080831092B20088E147
:104830008093B30089EF8093B400B99AE0E7F0E089
:10484000808182608083BA9A8081846080830895A9
:1048500090E0FC01EE0FFF1FEE0FFF1FEE0FFF1F9A
:10486000E80FF91FEB55FC4F7283618314821382AA
:1048700045833087278381E08083089590E0FC01A1
:10488000EE0FFF1FEE0FFF1FEE0FFF1FE80FF91FC8
:10489000EB55FC4F1082089590E0FC01EE0FFF1FD6
:1048A000EE0FFF1FEE0FFF1FE80FF91FEB55FC4F38
:1048B0001082128211821482138282E08583108614
:1048C0001782089590E0FC01EE0FFF1FEE0FFF1F0F
:1048D000EE0FFF1FE80FF91FEB55FC4F14821382F8
:1048E000089590E0FC01EE0FFF1FEE0FFF1FEE0F8B
:1048F000FF1FE80FF91FEB55FC4F148213827283E0
:1049000061830895F8941092A9031092A80310925D
:10491000B2031092B1031092BB031092BA0310922B
:10492000C4031092C3031092CD031092CC031092D3
:104930008F021092900210929102109292021092A5
:104940009A02109299021092980210929702109275
:104950009602109295021092940210929302109275
:10496000B20088E18093B300789408951F920F926B
:104970000FB60F9211242F933F934F935F936F9332
:104980007F938F939F93AF93BF93EF93FF93809108
:10499000A503813029F18091AE03813009F4F3C081
:1049A0008091B703813009F4B8C08091C003813091
:1049B00009F47DC08091C903813009F445C0FF919D
:1049C000EF91BF91AF919F918F917F916F915F9187
:1049D0004F913F912F910F900FBE0F901F90189500
:1049E0008091A8039091A90301969093A9038093C5
:1049F000A8032091A6033091A7038217930759F6C5
:104A00008091AA03823039F21092A9031092A80370
:104A1000E091AC03F091AD03882389F41092A503D3
:104A20001092A7031092A6031092A9031092A80354
:104A300082E08093AA031092AD031092AC033097EA
:104A400009F4A9CF0995A7CF8091CC039091CD030C
:104A500001969093CD038093CC032091CA033091AB
:104A6000CB038217930709F0AACF8091CE0382303F
:104A700009F4A5CF1092CD031092CC03E091D0039E
:104A8000F091D103882309F0B4C01092C9031092A9
:104A9000CB031092CA0382E08093CE031092D1031D
:104AA0001092D003309709F48ACF099588CF80916E
:104AB000C3039091C40301969093C4038093C303EE
:104AC0002091C1033091C2038217930709F072CF7E
:104AD0008091C503823009F46DCF1092C403109207
:104AE000C303E091C703F091C803882389F41092AF
:104AF000C0031092C2031092C1031092C40310921B
:104B0000C30382E08093C5031092C8031092C703C9
:104B1000309709F44FCF09954DCF8091BA0390910A
:104B2000BB0301969093BB038093BA032091B80313
:104B30003091B9038217930709F037CF8091BC03F6
:104B4000823009F432CF1092BB031092BA03E09185
:104B5000BE03F091BF03882389F41092B70310922B
:104B6000B9031092B8031092BB031092BA0382E00B
:104B70008093BC031092BF031092BE03309709F4D8
:104B800014CF099512CF8091B1039091B203019691
:104B90009093B2038093B1032091AF033091B0039F
:104BA0008217930709F0FCCE8091B303823009F499
:104BB000F7CE1092B2031092B103E091B503F091D9
:104BC000B603882389F41092AE031092B0031092BA
:104BD000AF031092B2031092B10382E08093B3034B
:104BE0001092B6031092B503309709F4D9CE099507
:104BF000D7CE309709F4E3CE0995E1CE1F920F92FC
:104C00000FB60F9211242F933F934F935F936F939F
:104C10007F938F939F93AF93BF93EF93FF93809175
:104C2000B200885E8093B3008091990290919A02BD
:104C30009C012F5F3F4F30939A0220939902873C4B
:104C4000910589F0FF91EF91BF91AF919F918F9165
:104C50007F916F915F914F913F912F910F900FBE78
:104C60000F901F90189510929A021092990281E06D
:104C700090E00E94650880919602982F9F5F909324
:104C800096028430F9F61092960282E090E00E943B
:104C9000650880919502982F9F5F909395028930C7
:104CA00089F61092950284E090E00E946508809158
:104CB0009402982F9F5F90939402843019F610927B
:104CC000940288E090E00E94650880919302982FFA
:104CD0009F5F90939302813009F0B4CF10929302BA
:104CE00080E190E00E946508ADCF15BC1092810074
:104CF0001092B1000E947108259A2D9A1092D70245
:104D00001092D6021092D9021092D8021092DB02B1
:104D10001092DA021092C4021092C302EDEBF2E09C
:104D20001092BE021092BD0213821282158214826A
:104D30001092D1021092D0021092D2021092D3029D
:104D40001092D4021092D5021092C9021092C80299
:104D50000E9443080E9467090E94730B0E94090683
:104D60000E945B0D0E944B0680E040E050E060E84E
:104D70007FE300E010E098010F2EF0E0CF2EF0E08E
:104D8000DF2EF0E5EF2EF1ECFF2EF02D0E94EA2150
:104D900081E040E050E060E87FE300E010E098014F
:104DA0000E94EA2182E040E050E060E87FE300E01A
:104DB00010E09801680179010E94EA2183E040E057
:104DC00050E060E87FE3970186010E94EA210E949B
:104DD00073080E94F0230E94EC0F88EB9BE00E9476
:104DE000C7090E94A71580ED97E00E94C7090E949D
:104DF00040200E94BF230E94D00E2D980E94822442
:104E000080E064EF71E041E024E036E00E94282475
:104E100080917801909179010E94490890937901DD
:104E20008093780180917801909179010E946D10B2
:104E300080917801909179010E94E60EE9CF505857
:104E4000BB27AA270ED027C2F0D130F0F5D120F031
:104E500031F49F3F11F41EF4C0C10EF4E095E7FB5E
:104E6000B6C1E92F3AD280F3BA17620773078407F5
:104E7000950718F071F49EF552C20EF4E0950B2ED2
:104E8000BA2FA02D0B01B90190010C01CA01A0019C
:104E90001124FF27591B99F0593F50F4503E68F1F7
:104EA0001A16F040A22F232F342F4427585FF3CF38
:104EB000469537952795A795F0405395C9F77EF409
:104EC0001F16BA0B620B730B840BBAF09150A1F052
:104ED000FF0FBB1F661F771F881FC2F70EC0BA0FD8
:104EE000621F731F841F48F4879577956795B79560
:104EF000F7959E3F08F0B3CF9395880F08F0992758
:104F0000EE0F97958795089590D158F080E891E03D
:104F100009F49EEF91D128F040E851E059F45EEF9A
:104F200009C05BC1FCC1E92FE078D7D168F3092E35
:104F3000052AC1F3261737074807590738F00E2E00
:104F400007F8E02569F0E025E0640AC0EF6307F8A0
:104F5000009407FADB01B9019D01DC01CA01AD0132
:104F6000EF934AD098D10AD05F91552331F02BEDC1
:104F70003FE049E450FD49EC63CF0895DF93DD271E
:104F8000B92FBF7740E85FE31616170648075B079F
:104F900010F4D92FCFD19F938F937F936F93C8D263
:104FA000E8E6F0E01DD177D12F913F914F915F91CD
:104FB000D4D1DD2349F09058A2EA2AED3FE049EC34
:104FC0005FE3D0785D274DDFDF9165C1DCD008F469
:104FD00081E0089539D1E3956FC10CD05CC12CD12B
:104FE00040F023D130F021F45F3F19F0F0C05111AF
:104FF00097C1F3C072D198F39923C9F35523B1F344
:10500000951B550BBB27AA2762177307840738F037
:105010009F5F5F4F220F331F441FAA1FA9F333D096
:105020000E2E3AF0E0E830D091505040E695001C4A
:10503000CAF729D0FE2F27D0660F771F881FBB1F06
:10504000261737074807AB07B0E809F0BB0B802DE0
:10505000BF01FF2793585F4F2AF09E3F510568F02C
:10506000B6C05EC15F3FECF3983EDCF38695779562
:105070006795B795F7959F5FC9F7880F911D96952E
:10508000879597F90895E1E0660F771F881FBB1F8A
:10509000621773078407BA0720F0621B730B840B37
:1050A000BA0BEE1F88F7E095089504D06894B1110B
:1050B00037C108951AD188F09F5790F0B92F9927DA
:1050C000B751A0F0D1F0660F771F881F991F1AF013
:1050D000BA95C9F712C0B13081F021D1B1E008957D
:1050E0001EC1672F782F8827B85F39F0B93FCCF3FE
:1050F000869577956795B395D9F73EF49095809509
:10510000709561957F4F8F4F9F4F0895E89409C028
:1051100097FB3EF490958095709561957F4F8F4FEA
:105120009F4F9923A9F0F92F96E9BB279395F69500
:10513000879577956795B795F111F8CFFAF4BB0F7E
:1051400011F460FF1BC06F5F7F4F8F4F9F4F16C0E2
:10515000882311F096E911C0772321F09EE8872F6C
:10516000762F05C0662371F096E8862F70E060E028
:105170002AF09A95660F771F881FDAF7880F9695A1
:10518000879597F90895990F0008550FAA0BE0E845
:10519000FEEF16161706E807F907C0F012161306F9
:1051A000E407F50798F0621B730B840B950B39F439
:1051B0000A2661F0232B242B252B21F408950A269F
:1051C00009F4A140A6958FEF811D811D089597F9DF
:1051D0009F6780E870E060E008959FEF80EC08959D
:1051E000DF93CF931F930F93FF92EF92DF927B0198
:1051F0008C01689405C0DA2EEF01AFD0FE01E8946F
:10520000A5912591359145915591AEF3EF0129DE98
:10521000FE019701A801DA9479F7DF90EF90FF90F3
:105220000F911F91CF91DF91089500240A941616D3
:10523000170618060906089500240A941216130684
:10524000140605060895C9CF50D0E8F3E894E0E0CD
:10525000BB279F57F0F02AED3FE049EC06C0EE0F68
:10526000BB0F661F771F881F28F0B23A62077307CB
:10527000840728F0B25A620B730B840BE3959A955E
:1052800072F7803830F49A95BB0F661F771F881F1E
:10529000D2F7904883C1092E0394000C11F488239F
:1052A00052F0BB0F40F4BF2B11F460FF04C06F5FDE
:1052B0007F4F8F4F9F4F0895EF93E0FF06C0A2EA04
:1052C0002AED3FE049EC5FEBCCDDE5DF0F90039486
:1052D00001FC9058E5E9F0E074C157FD9058440F87
:1052E000551F59F05F3F71F04795880F97FB991F45
:1052F00061F09F3F79F08795089512161306140602
:10530000551FF2CF4695F1DF08C01616170618068E
:10531000991FF1CF86957105610508940895E89469
:10532000BB2766277727CB0197F908952CDF08F470
:105330008FEF08959B01AC0160E070E080E89FE38F
:105340004CCE0BD0A8CF71DF28F076DF18F0952374
:1053500009F03DCF42CF1124E3CFBFDFA0F3959FEB
:10536000D1F3950F50E0551F629FF001729FBB274C
:10537000F00DB11D639FAA27F00DB11DAA1F649FF8
:105380006627B00DA11D661F829F2227B00DA11DAB
:10539000621F739FB00DA11D621F839FA00D611D31
:1053A000221F749F3327A00D611D231F849F600D52
:1053B000211D822F762F6A2F11249F5750408AF08B
:1053C000E1F088234AF0EE0FFF1FBB1F661F771F17
:1053D000881F91505040A9F79E3F510570F0F7CEBD
:1053E0009FCF5F3FECF3983EDCF38695779567950A
:1053F000B795F795E7959F5FC1F7FE2B880F911D35
:105400009695879597F90895FA01EE0FFF1F30964C
:105410002105310599F16115710561F48038BFE30B
:105420009B0749F168949038810561F08038BFEF9F
:105430009B0741F0992342F5FF3FE1053105210526
:1054400011F1E8940894E795D901AA2329F4AB2F28
:10545000BE2FF85FD0F310C0FF5F70F4A695E0F7A1
:10546000F73950F019F0FF3A38F49F779F930CD03A
:105470000F9007FC905808953EF0AFCE60E070E0CA
:1054800080E89FE308954FE79F775F934F933F93A3
:105490002F93E3D02F913F914F915F9152DF50C0F6
:1054A0009F93D2DE0F9007FCEE5F06CF11F40EF44F
:1054B00094CE72C01ADFD0F39923D9F3CEF39F575D
:1054C000550B87FF77D00024A0E640EA9001805872
:1054D0005695979528F4805C660F771F881F20F0FB
:1054E00026173707480730F4621B730B840B2029FB
:1054F00031294A2BA69517940794202531254A2750
:1055000058F7660F771F881F20F0261737074807C0
:1055100030F4620B730B840B200D311D411DA095DF
:1055200081F7B901842F9158880F96958795089532
:105530009B01AC0106CF19F40EF049CEF0CE4DCE52
:10554000D4DEC8F39638C0F707F80F92E8942BE33F
:105550003AEA48EB5FE703DF0F920F920F924DB7E5
:105560005EB70F92BAD0E3EBF0E03ADE4F915F9175
:10557000EF91FF91E595EE1FFF1F49F0FE57E068A0
:105580004427EE0F441FFA95E1F74195550B2CD0B7
:105590000F9007FECFCE08959F3F31F0915020F439
:1055A000879577956795B795880F911D96958795FF
:1055B00097F9089591505040660F771F881FD2F7D2
:1055C00008959F938F937F936F93FF93EF939B0126
:1055D000AC01B7DEEF91FF9103DE2F913F914F9128
:1055E0005F91AFCEF4CDD8CF80DEE8F39923D9F325
:1055F000940F511DBBF39150504094F059F0882303
:1056000032F0660F771F881F91505040C1F79E3FC0
:10561000510544F7880F911D9695879597F9089540
:105620005F3FACF0983E9CF0BB27869577956795D9
:10563000B79508F4B1609395C1F7BB0F58F711F413
:1056400060FFE8CF6F5F7F4F8F4F9F4FE3CF68CEF4
:105650000EF0A2CFC2CD6894BACD47DEC8F399232D
:10566000D1F3C6F3DF93CF931F930F93FF92C92F0C
:10567000DD2788232AF02197660F771F881FDAF726
:1056800020E030E040E85FEB9FE3883920F0803E87
:1056900030F021968F77D4DBEBEDF0E003C0D0DB68
:1056A000E8E0F1E09DDD8B01BE01EC01FB2E6F57C0
:1056B00071097595771F880B990B2ADD28E132E770
:1056C00041E35FE34ADEAF2D9801AE01FF900F91F9
:1056D0001F91CF91DF91C5DBDECDFA01DC01AA0F6E
:1056E000BB1F9B01AC01BF5728F422273327442757
:1056F00050781FC0B75188F4AB2F002446953795DA
:105700002795011CA395D2F3002069F0220F331FC7
:10571000441FB395DAF30DD092CB61307105A0E848
:105720008A07B94630F49B01AC01662777278827A2
:105730009078309621F020833183428353830895FB
:10574000629FD001739FF001829FE00DF11D649F65
:10575000E00DF11D929FF00D839FF00D749FF00DF1
:10576000659FF00D9927729FB00DE11DF91F639F92
:10577000B00DE11DF91FBD01CF011124089597FB64
:10578000092E07260AD077FD04D049D006D0002084
:105790001AF4709561957F4F0895F6F7909581956D
:1057A0009F4F0895A1E21A2EAA1BBB1BFD010DC03D
:1057B000AA1FBB1FEE1FFF1FA217B307E407F507C1
:1057C00020F0A21BB30BE40BF50B661F771F881F9D
:1057D000991F1A9469F760957095809590959B0133
:1057E000AC01BD01CF01089597FB092E05260ED00F
:1057F00057FD04D0D7DF0AD0001C38F450954095EF
:10580000309521953F4F4F4F5F4F0895F6F7909594
:105810008095709561957F4F8F4F9F4F0895AA1B7C
:10582000BB1B51E107C0AA1FBB1FA617B70710F08B
:10583000A61BB70B881F991F5A95A9F780959095BD
:10584000BC01CD010895AEE0B0E0E9E2FCE20C94C9
:105850000A2F0D891E8986E08C831A8309838FEFB6
:105860009FE79E838D83AE01475E5F4FCE01019619
:105870006F89788D0E94452CEF81F885E00FF11F2C
:1058800010822E96E4E00C94262FADE0B0E0EBE41D
:10589000FCE20C94FC2E3C017D876C875A01FC01D4
:1058A00017821682838181FFC8C12E010894411C92
:1058B000511CF3019381EC85FD8593FD859193FF48
:1058C0008191FD87EC87882309F4B3C1853241F4C7
:1058D00093FD859193FF8191FD87EC87853229F4B3
:1058E00090E0B3010E94622EE4CFFF24EE2410E08A
:1058F0001032B0F48B3269F08C3228F4803251F0DF
:10590000833271F40BC08D3239F0803349F4116069
:105910002CC01260146029C0186027C0106125C017
:1059200017FD2EC0282F20532A3098F416FF08C0E8
:105930008F2D880FF82EFF0CFF0CF80EF20E15C0FD
:105940008E2D880FE82EEE0CEE0CE80EE20E1062A3
:105950000CC08E3221F416FD6CC1106406C08C366A
:1059600011F4106802C0883659F4EC85FD8593FD6A
:10597000859193FF8191FD87EC87882309F0B8CF4B
:10598000982F9554933018F09052933038F424E0C7
:1059900030E0A20EB31E3FE339830FC0833631F0EF
:1059A000833781F0833509F05AC022C0F501808128
:1059B000898322E030E0A20EB31E21E0C22ED12C5A
:1059C000420114C092E0292E312C2A0C3B1CF50117
:1059D0008080918016FF03C06F2D70E002C06FEFD2
:1059E0007FEFC4010E94572E6C0151011F7715C033
:1059F00082E0282E312C2A0C3B1CF50180809180FE
:105A000016FF03C06F2D70E002C06FEF7FEFC4017F
:105A10000E944C2E6C011068510113FD1CC006C081
:105A200080E290E0B3010E94622EEA948E2D90E015
:105A3000C816D906A8F30FC0F40117FD859117FF0A
:105A400081914F0190E0B3010E94622EE110EA942F
:105A50000894C108D108C114D10471F7E7C0843695
:105A600011F0893651F5F50117FF07C0808191814A
:105A7000A281B38124E030E008C080819181AA270F
:105A800097FDA095BA2F22E030E0A20EB31E012FA1
:105A90000F76B7FF08C0B095A095909581959F4F60
:105AA000AF4FBF4F0068BC01CD01A2012AE030E03A
:105AB0000E948E2ED82ED4183FC0853721F41F7E29
:105AC0002AE030E020C0197F8F36A9F0803720F41B
:105AD000883509F0AEC00BC0803721F0883709F057
