:100000000C949B000C94B8000C94B8000C94B800AD
:100010000C94B8000C94B8000C94B8000C942125F2
:100020000C94AE230C94B8000C94B8000C944C09BA
:100030000C94B8000C94B8000C94B8000C94B80060
:100040000C94B10B0C94B8000C94A80E0C94B8004E
:100050000C94510F0C94C0060C94B8000C94B8008A
:100060000C94B8000C94B800084AD73B3BCE016E04
:1000700084BCBFFDC12F3D6C74319ABD56833DDAFF
:100080003D00C77F11BED9E4BB4C3E916BAAAABE0E
:10009000000000803F05A84CCDB2D44EB93836A937
:1000A000020C50B9918688083CA6AAAA2ABE000074
:1000B00000803F07634236B79BD8A71A39685618A5
:1000C000AEBAAB558C1D3CB7CC5763BD6DEDFD751D
:1000D0003EF6177231BF000000803F08000000BEEE
:1000E000922449123EABAAAA2ABECDCCCC4C3E00EB
:1000F000000080BEABAAAAAA3E00000000BF00001C
:1001000000803F0000000000084178D3BB4387D146
:10011000133D190E3CC3BD4282AD2B3E68EC827686
:10012000BED98FE1A93E4C80EFFFBE01C4FF7F3FE7
:1001300000000000000011241FBECFEFD8E0DEBF9A
:10014000CDBF11E0A0E0B1E0E0E7FBE502C0059023
:100150000D92A635B107D9F713E0A6E5B1E001C0CD
:100160001D92A63DB107E1F70E94E8050C94B62D5B
:100170000C94000080E460E00E94910D833011F047
:1001800080E0089588EC90E00E94F50A80E46DE03C
:1001900040E10E94460D88EC90E00E94F50A80E460
:1001A00060E20E94910D482F4F70406180E460E250
:1001B0000E94460D88EC90E00E94F50A80E460E31E
:1001C0000E94910D482F4C7F80E460E30E94460D11
:1001D00088EC90E00E94F50A80E465E30E94910DAE
:1001E000482F417F4A6080E465E30E94460D88EC19
:1001F00090E00E94F50A0E94F606882389F484E6BE
:1002000080935601109258011092570110925A0192
:100210001092590110925C0110925B0181E00895E7
:100220001092560187E591E00E94F90681E0089559
:1002300080915601882311F080E0089587E591E0D0
:100240000E94300781E008950F931F93DF93CF93AF
:1002500000D000D000D0CDB7DEB78C01AE014F5F2B
:100260005F4F86E0FA0111928A95E9F780E462E037
:1002700026E00E94C00C863061F080E026960FB622
:10028000F894DEBF0FBECDBFCF91DF911F910F91CC
:1002900008953A8120E0898190E0822B932B97FD8D
:1002A0007DC0AC0155954795559547955595479512
:1002B00055954795F801518340833C8120E08B811F
:1002C00090E0822B932B97FD67C0BC0175956795D5
:1002D000759567957595679575956795F80173831D
:1002E00062833E8120E08D8190E0822B932B97FDED
:1002F00051C09C01359527953595279535952795BE
:1003000035952795F80135832483E0915601EE2336
:1003100031F1E13009F444C08091570190915801C6
:10032000840F951F90935801809357018091590134
:1003300090915A01860F971F90935A01809359010B
:1003400080915B0190915C01820F931F90935C01FF
:1003500080935B01E150E093560181E08FCF809163
:10036000570190915801481B590BF8015183408364
:100370008091590190915A01681B790B73836283B4
:1003800080915B0190915C01281B390B358324839C
:1003900081E074CF0F96ADCF0F9697CF0F9681CF98
:1003A000809157019091580123E630E0B9010E94F5
:1003B000382A7093580160935701809159019091A8
:1003C0005A01B9010E94382A70935A016093590169
:1003D00080915B0190915C01B9010E94382A6050C4
:1003E000714070935C0160935B01B4CF1092000187
:1003F00081E06FE070E040E021E032E00E942023E5
:10040000089581E0809300010E9444230895109292
:100410005D0110925E0110925F011092600187E70A
:100420006AEA4BE952E026E10E94C00C2BE932E077
:10043000D901F9014C91CF0151815D9341833197ED
:10044000A817B907B8F32E5F3F4F82E0213B38076A
:1004500079F781E008956F927F928F929F92AF9289
:10046000BF92CF92DF92EF92FF920F931F93DF9391
:10047000CF9300D00F92CDB7DEB7809100018823D3
:10048000F9F0813009F4EFC1823099F16091610196
:100490007091620180916301909164010F900F90BF
:1004A0000F90CF91DF911F910F91FF90EF90DF9010
:1004B000CF90BF90AF909F908F907F906F90089556
:1004C00019821A8287E766EFAE014F5F5F4F22E025
:1004D0000E94C00C89818093B2028A818093B1020C
:1004E00087E764EF44EB0E94460D83E080930001B0
:1004F000CDCF6091B1027091B20280E090E0209186
:10050000A5023091A60240E050E0621B730B840B01
:10051000950B2091A3023091A40240E050E00E948C
:10052000192A7B018C01BFE015950795F794E79494
:10053000BA95D1F76091AD027091AE02882777FD30
:100540008095982FABE0660F771F881F991FAA959B
:10055000D1F72091AF023091B002442737FD40958A
:10056000542F2E0D3F1D401F511F0E946D2A2E0D2E
:100570003F1D401F511FDA01C9010896A11DB11D81
:10058000F4E0B595A79597958795FA95D1F790934F
:10059000CB028093CA02E0E6EE2EE0EFFE2EEFEFF4
:1005A0000E2FEFEF1E2FE20EF31E041F151FC801C2
:1005B000B701A80197010E94192A3B014C017CE078
:1005C00095948794779467947A95D1F720919D02BA
:1005D00030919E02442737FD4095542FC801B70142
:1005E0000E94192A5B016C016BE0D594C794B79403
:1005F000A7946A95D1F780919B0290919C02AA27BB
:1006000097FDA095BA2F880F991FAA1FBB1F880FAF
:10061000991FAA1FBB1FA80EB91ECA1EDB1E209160
:10062000A9023091AA02442737FD4095542FC401F6
:10063000B3010E94192A4BE09595879577956795A8
:100640004A95D1F7A60EB71EC81ED91E20919F024B
:100650003091A002442737FD4095542FC801B701BF
:100660000E94192A7B018C013DE015950795F794AE
:10067000E7943A95D1F782E090E0A0E0B0E0E80E90
:10068000F91E0A1F1B1F2091A7023091A8024427C0
:1006900037FD4095542FC401B3010E94192ABC01B3
:1006A000992777FD9095892FE60EF71E081F191FD1
:1006B00015950795F794E79415950795F794E794A2
:1006C00080E090E8A0E0B0E0E80EF91E0A1F1B1FD2
:1006D0002091A1023091A20240E050E0C801B70190
:1006E0000E94192A3B014C01BFE0969487947794AD
:1006F0006794BA95D1F7E090B302F090B4020091FC
:10070000B5021091B602A6E016950795F794E79406
:10071000AA95D1F7AA0CBB1CCC1CDD1CAA0CBB1CD7
:10072000CC1CDD1C82E090E0A0E0B0E0A80EB91E79
:10073000CA1EDB1EC601B50124E030E040E050E0F7
:100740000E946D2AE21AF30A040B150BC801B701C7
:1007500024ED30E340E050E00E94192A97FD99C053
:10076000660F771F881F991FA40193010E944B2ACF
:1007700079018A01552717FD5A95412F302F2F2DCA
:10078000CA01B9010E94192A2EED3BE040E050E079
:100790000E94192A5B016C01C801B70123E433EE02
:1007A0004FEF5FEF0E94192ABC01992777FD9095C2
:1007B000892F6153714F8F4F9F4F5601DD24B7FC36
:1007C000D094CD2C6A0D7B1D8C1D9D1D24E095952C
:1007D0008795779567952A95D1F76E0D7F1D801FB8
:1007E000911F60935D0170935E0180935F01909310
:1007F00060016093D4027093D5028093D6029093E7
:10080000D7020E94FF2620E836EE45EC57E40E940E
:10081000662621EB3CED42E45EE30E947D28562FE4
:10082000472F382F292F60E070E080E89FE3DA013E
:10083000F9012B2F3A2F4F2F5E2F0E94982520E889
:1008400034E748ED58E40E941A280E94D3266093AA
:10085000610170936201809363019093640123E0CE
:10086000209300011BCE19821A821B8287E766EF54
:10087000AE014F5F5F4F23E00E94C00C89818093DF
:10088000B5028A818093B4028B818093B30282E0A7
:100890002DCEA40193010E944B2A79018A01EE0C0E
:1008A000FF1C001F111F66CF87E764EF4EE20E9416
:1008B000460D81E065E070E040E026EF31E00E9407
:1008C000202308958EE160E040E70E94460D88EC09
:1008D00090E00E94F50A8EE161E040E20E94460D40
:1008E00088EC90E00E94F50A8EE162E040E00E9410
:1008F000460D88EC90E00E94F50A81E08093650146
:1009000085E090E00E94300A81E0089581E09091B6
:100910006501911180E008950F931F93DF93CF93AA
:1009200000D000D000D0CDB7DEB78C01AE014F5F54
:100930005F4F86E0FA0111928A95E9F78EE163E054
:1009400026E00E94C00C863061F080E026960FB64B
:10095000F894DEBF0FBECDBFCF91DF911F910F91F5
:100960000895998180E04A8150E0482B592BF80185
:10097000518340839D8180E02E8130E0282B392BEC
:10098000338322837B8160E08C8190E0862B972BE0
:100990009583848360916501662329F0615060939B
:1009A000650181E0D3CF60916601461B5109F801D2
:1009B0005183408340916701241B31093383228393
:1009C00020916801821B91099583848381E0BECFC9
:1009D00088E660E00E94910D883611F080E008956D
:1009E0006EE340E80E94460D88EC90E00E94F50A14
:1009F00088E666E14AE10E94460D88EC90E00E949C
:100A0000F50A88E66EE343E00E94460D81E090E03F
:100A10000E94300A0E94F606882389F488EC8093AD
:100A2000690110926B0110926A0110926D0110928F
:100A30006C0110926F0110926E0181E00895109286
:100A400069018AE691E00E94590781E0089580914A
:100A50006901882311F080E008958AE691E00E9400
:100A6000900781E008950F931F93DF93CF9300D0F9
:100A700000D000D0CDB7DEB78C01AE014F5F5F4F25
:100A800086E0FA0111928A95E9F788E66DE126E0A1
:100A90000E94C00C863061F080E026960FB6F89474
:100AA000DEBF0FBECDBFCF91DF911F910F91089593
:100AB000998180E06A8170E0682B792BF80171835D
:100AC00060839B8180E02C8130E0282B392B33839D
:100AD00022835D8140E08E8190E0842B952B95836D
:100AE0008483AC014B5F5F4F4B30510520F415827E
:100AF000148280E090E040916901442329F1413063
:100B0000F1F1E0916A01F0916B01E60FF71FF093AC
:100B10006B01E0936A0160916C0170916D01620F4D
:100B2000731F70936D0160936C0120916E01309181
:100B30006F01280F391F30936F0120936E014150D0
:100B40004093690181E0A9CF40916A0150916B0106
:100B5000641B750BF8017183608340916C015091A7
:100B60006D01241B350B3383228320916E0130915C
:100B70006F01821B930B9583848381E08ECF8091DC
:100B80006A0190916B0128EC30E0B9010E94382A8B
:100B900070936B0160936A0180916C0190916D017B
:100BA000B9010E94382A70936D0160936C018091A5
:100BB0006E0190916F01B9010E94382A70936F0104
:100BC00060936E01BCCF85B190E2892785B9089505
:100BD000CF92DF92EF92FF920F931F9315BC10926A
:100BE00081001092B1000E94DC08259A2D9A109283
:100BF000D9021092D8021092DB021092DA021092FF
:100C0000DD021092DC021092C6021092C502EDEBDA
:100C1000F2E01092BE021092BD021382128215827F
:100C200014821092D3021092D2021092D402109227
:100C3000D5021092D6021092D7021092CB021092D7
:100C4000CA020E94AE080E94D0090E94D60B0E94E0
:100C500098060E94070E0E94DA0680E040E050E00D
:100C600060E87FE300E010E098010F2EF0E0CF2E67
:100C7000F0E0DF2EF0E5EF2EF1ECFF2EF02D0E94DC
:100C8000E42081E040E050E060E87FE300E010E035
:100C900098010E94E42082E040E050E060E87FE3B9
:100CA00000E010E09801680179010E94E42083E0EF
:100CB00040E050E060E87FE3970186010E94E42075
:100CC0000E94DE080E94E8220E94991088EB9BE0B7
:100CD0000E94300A0E94EC1580ED97E00E94300AD5
:100CE0000E945C1F0E94B7220E947D0F2D980E94D7
:100CF0007A2380E064EF71E041E023EE35E00E946A
:100D0000202380917001909171010E94B40890930A
:100D100071018093700180917001909171010E9426
:100D20001A1180917001909171010E94930FE9CF87
:100D3000ECE7F0E080818064808380818260808342
:100D4000808184608083808180648083EAE7F0E032
:100D500080818068808380818860808310927B019D
:100D600010927A0180E0089562E00E94C708813005
:100D700009F0089580917A00806480937A00089544
:100D80001F920F920FB60F9211248F939F93809111
:100D900078009091790090937B0180937A019093F1
:100DA000C8028093C7029F918F910F900FBE0F9042
:100DB0001F90189580E090E00E94A62C80937D0102
:100DC000882321F010927C0180E0089581E08093D7
:100DD0007C01089580E090E06FEF0E94B42C0895AC
:100DE00080E090E060E00E94B42C089580917C0146
:100DF00008950F931F93CF93DF93EC0181E090E070
:100E00000E94A62C182F00E082E090E00E94A62C01
:100E100090E0802B912B9983888383E090E00E945F
:100E2000A62C182F00E084E090E00E94A62C90E011
:100E3000802B912B9B838A8385E090E00E94A62CD7
:100E4000182F00E086E090E00E94A62C90E0802B16
:100E5000912B9D838C83DF91CF911F910F910895EA
:100E60001F93CF93DF93EC011881698181E090E0BB
:100E70000E94B42C82E090E0612F0E94B42C1A8171
:100E80006B8183E090E00E94B42C84E090E0612FBD
:100E90000E94B42C1C816D8185E090E00E94B42CEE
:100EA00086E090E0612F0E94B42CDF91CF911F91DA
:100EB00008950F931F93CF93DF93EC0187E090E0A9
:100EC0000E94A62C182F00E088E090E00E94A62C3B
:100ED00090E0802B912B9983888389E090E00E9499
:100EE000A62C182F00E08AE090E00E94A62C90E04B
:100EF000802B912B9B838A838BE090E00E94A62C11
:100F0000182F00E08CE090E00E94A62C90E0802B4F
:100F1000912B9D838C83DF91CF911F910F91089529
:100F20001F93CF93DF93EC011881698187E090E0F4
:100F30000E94B42C88E090E0612F0E94B42C1A81AA
:100F40006B8189E090E00E94B42C8AE090E0612FF0
:100F50000E94B42C1C816D818BE090E00E94B42C27
:100F60008CE090E0612F0E94B42CDF91CF911F9113
:100F70000895EF92FF920F931F93CF93DF937B011E
:100F80008A01E901882349F1813009F447C08230A0
:100F900009F465C08330D1F481E390E00E94AE2C67
:100FA000F701608371838283938385E390E00E94DD
:100FB000AE2CF801608371838283938389E390E090
:100FC0000E94AE2C688379838A839B83DF91CF91C3
:100FD0001F910F91FF90EF9008958DE090E00E9497
:100FE000AE2CF701608371838283938381E190E06B
:100FF0000E94AE2CF801608371838283938385E124
:1010000090E00E94AE2C688379838A839B83DF9172
:10101000CF911F910F91FF90EF90089589E190E09B
:101020000E94AE2CF70160837183828393838DE1EC
:1010300090E00E94AE2CF8016083718382839383D9
:1010400081E290E00E94AE2C688379838A839B833F
:10105000DF91CF911F910F91FF90EF90089585E25E
:1010600090E00E94AE2CF7016083718382839383AA
:1010700089E290E00E94AE2CF80160837183828344
:1010800093838DE290E00E94AE2C688379838A83FB
:101090009B839CCF8F929F92AF92BF92CF92DF9211
:1010A000EF92FF920F931F9348015901882391F00B
:1010B000813091F1823009F440C08330E1F01F911A
:1010C0000F91FF90EF90DF90CF90BF90AF909F90E7
:1010D0008F9008958DE090E00E94C22C81E190E015
:1010E000B501A4010E94C22C85E190E0B701A601E0
:1010F0000E94C22CE4CF81E390E00E94C22C81E3E5
:1011000090E0B501A4010E94C22C81E390E0B701F8
:10111000A6010E94C22CD3CF89E190E00E94C22C8C
:101120008DE190E0B501A4010E94C22C81E290E023
:10113000B701A6010E94C22CC2CF85E290E00E94B6
:10114000C22C89E290E0B501A4010E94C22C8DE27C
:1011500090E0B701A6010E94C22CB1CF10927F018E
:1011600010927E0181E00895F89420917E013091E3
:101170007F01809590958223932390937F018093A4
:101180007E01789480917E0190917F01089570E0B6
:101190006823792381E06115710509F480E00895E1
:1011A00020917E0130917F01282B392B30937F01D4
:1011B00020937E0181E00895F8940895789408952D
:1011C00010928101109280018AEF90E09093830148
:1011D00080938201389A21E030E03093850120939A
:1011E00084019093870180938601399A22E030E050
:1011F000309389012093880190938B0180938A0119
:101200003A9A23E030E030938D0120938C01909343
:101210008F0180938E013B9A10928000E1E8F0E00C
:10122000808183608083EFE6F0E08081826080834C
:10123000109285001092840081E00895CF93DF938F
:10124000C82FD0E080E090E00E94FF2620E030E050
:101250004AE754E40E941A2820E030E04AE754E4C8
:101260000E94662620E030E04AE754E40E94992577
:1012700020E030E040E85EE30E941A280E94D32676
:10128000CC0FDD1FCC0FDD1FC058DE4F7B836A8380
:1012900081E0DF91CF9108951F920F920FB60F92C8
:1012A00011242F933F934F938F939F93EF93FF932B
:1012B0008091010187FD6FC0809101018430C8F0E9
:1012C000809101018F5F8093010180910101843041
:1012D00098F180910101843029F1FF91EF919F9164
:1012E0008F914F913F912F910F900FBE0F901F90B4
:1012F000189548B1E0910101FF27E7FDF095EE0F49
:10130000FF1FEE0FFF1FE058FE4F2081318181E06B
:1013100090E002C0880F991F2A95E2F780958423F8
:1013200088B9CECF88E893E19093890080938800B4
:101330008FEF80930101D1CF2091840030918500FF
:10134000E0910101FF27E7FDF095EE0FFF1FEE0F83
:10135000FF1FE058FE4F82819381820F931F90936D
:1013600089008093880048B1E0910101FF27E7FDE3
:10137000F095EE0FFF1FEE0FFF1FE058FE4F20818C
:10138000318181E090E002C0880F991F2A95E2F731
:10139000482B48B9A2CF109285001092840090CFBC
:1013A000109290011092910110929201109293016B
:1013B00014BC85B5826085BD16BCA99AEEE6F0E046
:1013C0008081816080830895DF92EF92FF920F9376
:1013D0001F93F89460919001709191018091920116
:1013E00090919301D6B47894660F771F881F991F48
:1013F000660F771F881F991F660F771F881F991F19
:10140000660F771F881F991F660F771F881F991F08
:10141000660F771F881F991F660F771F881F991FF8
:101420000E94FF267B018C016D2D70E0882777FDDF
:101430008095982F0E94012720E030E040E05FE394
:101440000E941A289B01AC01C801B7010E9499258E
:101450000E94D3261F910F91FF90EF90DF90089587
:101460004F925F926F927F929F92AF92BF92CF9274
:10147000DF92EF92FF920F931F935C01F8946091BB
:10148000900170919101809192019091930196B495
:10149000660F771F881F991F660F771F881F991F78
:1014A000660F771F881F991F660F771F881F991F68
:1014B000660F771F881F991F660F771F881F991F58
:1014C000660F771F881F991F0E94FF267B018C01E2
:1014D000692D70E0882777FD8095982F0E9401275D
:1014E00020E030E040E05FE30E941A289B01AC015D
:1014F000C801B7010E9499250E94D3269B01AC0127
:1015000078942093940130939501409396015093E1
:10151000970188EE93E0A89E2001A99E500CB89EEA
:10152000500C112466247724F894609190017091F6
:101530009101809192019091930196B47894E090FA
:101540009401F09095010091960110919701E40C9F
:10155000F51C061D171D660F771F881F991F660F44
:10156000771F881F991F660F771F881F991F660FA7
:10157000771F881F991F660F771F881F991F660F97
:10158000771F881F991F660F771F881F991F0E945A
:10159000FF265B016C01692D70E0882777FD80953F
:1015A000982F0E94012720E030E040E05FE30E9496
:1015B0001A289B01AC01C601B5010E9499250E9421
:1015C000D3266E157F058007910708F4ADCF1F91D4
:1015D0000F91FF90EF90DF90CF90BF90AF909F90D2
:1015E0007F906F905F904F9008954F925F926F92AF
:1015F0007F929F92AF92BF92CF92DF92EF92FF9233
:101600000F931F932C01F8946091900170919101B8
:101610008091920190919301A6B4660F771F881F65
:10162000991F660F771F881F991F660F771F881FE6
:10163000991F660F771F881F991F660F771F881FD6
:10164000991F660F771F881F991F660F771F881FC6
:10165000991F0E94FF267B018C016A2D70E088276C
:1016600077FD8095982F0E94012720E030E040E030
:101670005FE30E941A289B01AC01C801B7010E94D8
:1016800099250E94D3269B01AC0178942093940164
:1016900030939501409396015093970166247724E7
:1016A000F8946091900170919101809192019091D4
:1016B000930196B47894E0909401F0909501009194
:1016C000960110919701E40CF51C061D171D660F7D
:1016D000771F881F991F660F771F881F991F660F36
:1016E000771F881F991F660F771F881F991F660F26
:1016F000771F881F991F660F771F881F991F660F16
:10170000771F881F991F0E94FF265B016C01692DBE
:1017100070E0882777FD8095982F0E94012720E0B0
:1017200030E040E05FE30E941A289B01AC01C60153
:10173000B5010E9499250E94D3266E157F0580076A
:10174000910708F4ADCF1F910F91FF90EF90DF90BC
:10175000CF90BF90AF909F907F906F905F904F9091
:1017600008951F920F920FB60F9211248F939F939B
:10177000AF93BF938091900190919101A0919201BC
:10178000B09193010196A11DB11D8093900190939A
:101790009101A0939201B0939301BF91AF919F915A
:1017A0008F910F900FBE0F901F9018951092B90057
:1017B0008CE08093B80084E08093BC00089594EAA4
:1017C0009093BC002FEF30E003C02150304099F0DF
:1017D0009091BC0097FFF9CF8093BB0084E8809381
:1017E000BC008FEF90E002C0019741F02091BC0057
:1017F00027FFFACF08951092BC00EECF1092BC00E4
:10180000089584E98093BC0008958093BB0084E828
:101810008093BC008FEF90E002C0019729F02091E7
:10182000BC0027FFFACF08951092BC0008958823CA
:10183000B1F094EC9093BC002FEF30E003C0215046
:10184000304079F09091BC0097FFF9CF9091BB00A8
:10185000882319F484E98093BC00892F089594E8C3
:10186000E9CF1092BC00F2CF84EC8093BC008FEFE4
:1018700090E002C0019739F02091BC0027FFFACF19
:101880008091BB0008951092BC008091BB00089528
:1018900084E88093BC008FEF90E002C0019751F084
:1018A0002091BC0027FFFACF8091BB0094E9909370
:1018B000BC0008951092BC008091BB0094E9909305
:1018C000BC0008958FEF90E002C0019729F02091AD
:1018D000BC0027FFFACF08951092BC000895880F2E
:1018E000816094EA9093BC002FEF30E004C0215057
:1018F000304009F43DC09091BC0097FFF8CF809331
:10190000BB0084E88093BC002FEF30E003C021507F
:10191000304089F18091BC0087FFF9CF442371F1F9
:10192000942F9150E62FF72F64E951E0D1F450E065
:1019300084E88093BC002FEF30E003C0215030409A
:1019400091F08091BC0087FFF9CF8091BB005523B7
:1019500011F46093BC008193992341F0915051E0C0
:1019600031F384ECE6CF1092BC00EFCF842F0895C2
:101970001092BC00C4CF1092BC00D0CF80E008957C
:10198000382F330F94EA9093BC00EFEFF0E003C0E0
:10199000319709F46CC09091BC0097FFF9CF309358
:1019A000BB0094E89093BC00EFEFF0E003C03197E8
:1019B00009F460C09091BC0097FFF9CF6093BB0021
:1019C00094E89093BC006FEF70E004C061507040E9
:1019D00009F453C09091BC0097FFF8CF880F816045
:1019E00094EA9093BC006FEF70E004C061507040C7
:1019F00009F446C09091BC0097FFF8CF8093BB00DC
:101A000084E88093BC006FEF70E003C061507040C9
:101A1000D1F19091BC0097FFF9CF222331F1322F01
:101A20003150E42FF52F64E981E0D1F480E094E8AF
:101A30009093BC004FEF50E003C04150504091F0F4
:101A40009091BC0097FFF9CF9091BB00882311F4CF
:101A50006093BC009193332341F0315081E031F326
:101A600094ECE6CF1092BC00EFCF822F0895109235
:101A7000BC0095CF1092BC00A1CF1092BC00AECF9D
:101A80001092BC00BBCF1092BC00C7CF880F94EA65
:101A90009093BC002FEF30E003C02150304091F113
:101AA0009091BC0097FFF9CF8093BB0084E88093AE
:101AB000BC008FEF90E002C0019739F12091BC008B
:101AC00027FFFACF6093BB0084E88093BC008FEFC0
:101AD00090E002C00197E1F02091BC0027FFFACF0F
:101AE0004093BB0084E88093BC008FEF90E002C07D
:101AF000019789F02091BC0027FFFACF84E98093F9
:101B0000BC0008951092BC00CFCF1092BC00DACF79
:101B10001092BC00E5CF1092BC0084E98093BC0019
:101B20000895482F440F94EA9093BC002FEF30E0C3
:101B300004C02150304009F45BC09091BC0097FF75
:101B4000F8CF4093BB0094E89093BC002FEF30E0B7
:101B500004C02150304009F44EC09091BC0097FF62
:101B6000F8CF6093BB0094E89093BC002FEF30E077
:101B700004C02150304009F441C09091BC0097FF4F
:101B8000F8CF880F816094EA9093BC002FEF30E08B
:101B900003C021503040A9F19091BC0097FFF9CFCC
:101BA0008093BB0084E88093BC008FEF90E002C07C
:101BB000019751F12091BC0027FFFACF84E8809370
:101BC000BC008FEF90E002C0019751F02091BC0063
:101BD00027FFFACF8091BB0094E99093BC00089551
:101BE0001092BC008091BB0094E99093BC000895D2
:101BF0001092BC00A6CF1092BC00B3CF1092BC00D4
:101C0000C0CF1092BC00CCCF1092BC00D7CF88E0E0
:101C100090E09093C5008093C400E1ECF0E08081F7
:101C200080618083808188608083808180688083F8
:101C3000808180648083E2ECF0E080818260808338
:101C40008081846080831092EC021092EB021092EB
:101C5000EE021092ED021092F0021092EF0210923A
:101C6000F2021092F1021092F4021092F30208951F
:101C7000FC018091EB029091EC0291838083809132
:101C8000ED029091EE02938382838091EF02909116
:101C9000F002958384838091F1029091F202978300
:101CA00086838091F3029091F4029187808710924D
:101CB000EC021092EB021092EE021092ED021092E2
:101CC000F0021092EF021092F2021092F1021092C2
:101CD000F4021092F302089540919901461768F4B6
:101CE000242F30E0FC01E20FF31F50812B503D4FB9
:101CF000F90150834F5F461798F380919901860F41
:101D000080939901E0919901F0E0EB50FD4F108232
:101D100080919901681308958091C00085FFFCCFE0
:101D20008091F5028093C60081E080939801089528
:101D3000662369F0E82FF92F90E08091C00085FFBD
:101D4000FCCF81918093C6009F5F9617B0F30895F2
:101D50001F920F920FB60F9211242F933F934F9320
:101D60005F936F937F938F939F93AF93BF93EF9303
:101D7000FF938091C60080939D0180919B018823F1
:101D8000B1F480919D018A3209F472C0FF91EF9104
:101D9000BF91AF919F918F917F916F915F914F9183
:101DA0003F912F910F900FBE0F901F901895E091CB
:101DB0009A01F0E080919D01E95DFC4F8083E09104
:101DC0009A01F0E0EA5DFC4F808180939E01809152
:101DD0009A018F5F80939A0180919E018332C1F1B5
:101DE00080919D018A3209F44BC080919E018D3211
:101DF00009F44EC080919E018A3241F2E0919C012B
:101E0000F0E020910201EE0FFF1FE551FD4F30E0A1
:101E100040815181429FC001439F900D529F900D80
:101E2000112491838083E0919C01F0E080919E01D8
:101E3000EE0FFF1FE551FD4F90E0C09720813181EB
:101E4000820F931F918380838AE0809302019ECF4B
:101E500080919D01833221F610929B0110929C018A
:101E600081E08093020180E290E00E94D0088ECF52
:101E70008093270381E080939A0180939B0186CF12
:101E800010929B0110929C0181E0809302017ECF11
:101E900080919C018F5F80939C0181E0809302017F
:101EA00075CF1F920F920FB60F9211248F939F93AD
:101EB000EF93FF9380919901882369F4109299011F
:101EC00010929801FF91EF919F918F910F900FBE0B
:101ED0000F901F90189580919801E82FF0E0EB503B
:101EE000FD4F90819093C6008F5F80939801809101
:101EF0009901815080939901E5CF1092A001109231
:101F00009F011092A2011092A1011092A4011092BF
:101F1000A3011092A6011092A5011092A80110929F
:101F2000A70181E008952F923F924F925F926F92A6
:101F30007F928F929F92AF92BF92CF92DF92EF9259
:101F4000FF920F931F93DF93CF93CDB7DEB7A49784
:101F50000FB6F894DEBF0FBECDBF8C0160E20E94C9
:101F6000C708882309F090C0C80162E00E94C70832
:101F7000882309F470C0E090BD02F090BE02C090CA
:101F8000BF02D090C002A090C102B090C202809067
:101F9000C5029090C6026090CC027090CD02409035
:101FA000D0025090D1022090720130907301409184
:101FB0007401509175016091760170917701809163
:101FC00078019091790198A38F8F49A35AA36BA3AD
:101FD0007CA30E94C320ADB7BEB75A970FB6F89442
:101FE000BEBF0FBEADBFEDB7FEB731968E010F5F1E
:101FF0001F4F12961C930E93119723E031E0338309
:102000002283F582E482D782C682B186A086938637
:1020100082867586648657864686318A208A49A1DB
:102020005AA1538B428B6BA17CA1758B648B2F8D36
:1020300038A1378B268B918F808F0E949C2A682F26
:102040008DB79EB74A960FB6F8949EBF0FBE8DBF50
:10205000C8010E946C0EA4960FB6F894DEBF0FBEA6
:10206000CDBFCF91DF911F910F91FF90EF90DF9047
:10207000CF90BF90AF909F908F907F906F905F9028
:102080004F903F902F9008958FE991E00E94380E75
:1020900080919F019091A0010097C9F08130910536
:1020A00011F182309105D9F18330910509F45CCFAB
:1020B0008430910509F058CF8091A1019091A2013F
:1020C0008130910599F1E0E0F0E009954DCF8091E4
:1020D000A1019091A20123E0893E920708F044CF2C
:1020E0000E94C82041CF8091A1019091A2019093BC
:1020F000D9028093D8028091A3019091A401909578
:1021000081959F4F9093DB028093DA028091A50125
:102110009091A6019093DD028093DC0225CF0E946E
:10212000D0158091A1010E94D9151ECF0E94EA0608
:10213000CACF80E090E0DC018093B8019093B901B0
:10214000A093BA01B093BB018093C0019093C101E9
:10215000A093C201B093C3018093CE019093CF01AD
:10216000A093D001B093D1018093BC019093BD01A5
:10217000A093BE01B093BF018093C4019093C501A9
:10218000A093C601B093C7018093C8019093C90181
:10219000A093CA01B093CB011092AC011092AD0193
:1021A0001092AE011092AF011092B0011092B101E5
:1021B0001092B2011092B3011092B4011092B501C5
:1021C0001092B6011092B7011092CD011092CC017D
:1021D0001092AB011092AA011092D2011092D30179
:1021E0001092D4011092D5011092D6011092D7010D
:1021F0001092D8011092D9011092CD021092CC0207
:102200001092D1021092D0021092BC021092BB0226
:102210001092CF021092CE021092A9010E94620485
:102220000E94BA000E94E8040E9407020E9454041F
:1022300081E008952F923F924F925F926F927F922A
:102240008F929F92AF92BF92CF92DF92EF92FF92C6
:102250000F931F93DF93CF93CDB7DEB7A6970FB63B
:10226000F894DEBF0FBECDBF6C0161E00E94C708CD
:10227000813009F443C0C60162E00E94C708813082
:10228000D1F10E942B022091AA013091AB01621B77
:10229000730B7093C6026093C502C60160E10E9491
:1022A000C7088130C9F0A6960FB6F894DEBF0FBEFE
:1022B000CDBFCF91DF911F910F91FF90EF90DF90F5
:1022C000CF90BF90AF909F908F907F906F905F90D6
:1022D0004F903F902F9008958091AA019091AB016B
:1022E000009709F78091C5029091C6029093AB01C7
:1022F0008093AA01D8CF0E945404C3CF0E94E4095E
:102300002091AC013091AD014091AE015091AF01EF
:10231000621B730B840B950B6093B0017093B1013A
:102320008093B2019093B3010E94E4096093AC01E1
:102330007093AD018093AE019093AF018090B00196
:102340009090B101A090B201B090B3018091B4011E
:102350009091B501A091B601B091B701881599058A
:10236000AA05BB0540F48092B4019092B501A092F9
:10237000B601B092B7011A8219821C821B821E829A
:102380001D8218861F821A8619861C861B861E8649
:102390001D86188A1F861A8A198ACE0107960E94FE
:1023A0002401882309F49EC06F817885709561951A
:1023B0007F4F78876F8309851A85109501951F4F88
:1023C0001A870987882777FD8095982F0E94012713
:1023D0002B013C01B801882777FD8095982F0E943A
:1023E00001276B8B7C8B8D8B9E8B9B01AC010E949C
:1023F0001A28062FF72EE82E9F8B6B857C85882761
:1024000077FD8095982F0E9401276093CE017093ED
:10241000CF018093D0019093D1019B01AC010E9428
:102420001A28162F372E282E9F8F2F89602F7F2D49
:102430008E2D922FEF8D212F332D422D5E2F0E9456
:1024400099250E94D3289B01AC01C301B2010E94CF
:102450000C266F8B788F898F9A8FC301B201A301ED
:1024600092010E941A28F62E472EE82E092F8F8DF2
:10247000212F332D422D582FCA01B9012F2D342D74
:102480004E2D502F0E9499250E94D3289B01AC010C
:102490006B897C898D899E890E940C267B018C0129
:1024A0006F89788D898D9A8D20EE3EE245E652E463
:1024B0000E941A286093B8017093B9018093BA0101
:1024C0009093BB01C801B70120EE3EE245E652E41D
:1024D0000E941A286093C0017093C1018093C201C9
:1024E0009093C301CE0101960E943305882309F41D
:1024F000CBC009811A81109501951F4F1A8309835A
:102500004B805C80ED80FE80F094E194F108F394C0
:10251000FE82ED82C501B4010E94FF264B015C01E1
:10252000B801882777FD8095982F0E94012720E029
:1025300030E046E651E40E946626A50194010E941F
:102540001A2820E034E244E759E40E9466269B0101
:10255000AC016091C4017091C5018091C601909158
:10256000C7010E9499256093C4017093C5018093AF
:10257000C6019093C701B201882777FD8095982FF7
:102580000E94012720E030E046E651E40E946626E2
:102590009B01AC01C501B4010E941A2820E034E27D
:1025A00044E759E40E9466269B01AC016091BC019E
:1025B0007091BD018091BE019091BF010E9499254B
:1025C0006093BC017093BD018093BE019093BF01E5
:1025D000B701882777FD8095982F0E94012720E07A
:1025E00030E046E651E40E9466269B01AC01C5013D
:1025F000B4010E941A2820E034E244E759E40E9422
:1026000066262091C8013091C9014091CA015091BC
:10261000CB010E949925E62E072F882E192F862F91
:10262000902FA82DB12F8093C8019093C901A0933A
:10263000CA01B093CB016E2D702F882D912F20E011
:1026400030E0A9010E945F2687FD75C26E2D702FB4
:10265000882D912F20E030E044EB53E40E940F28B6
:10266000181694F46E2D702F882D912F20E030E0F5
:1026700044EB53E40E9498256093C8017093C9010C
:102680008093CA019093CB01CE010D960E948C04D9
:10269000882309F40BC10D851E85109501951F4FE8
:1026A0001E870D872F843888E988FA88F094E19492
:1026B000F108F394FA8AE98A8090B8019090B90100
:1026C000A090BA01B090BB01C501B40120E030E098
:1026D00040E252E40E940F2818160CF0F0C040901F
:1026E000BC015090BD016090BE017090BF0160912F
:1026F000B0017091B1018091B2019091B3010E943B
:10270000FF267B018C01C501B401A30192010E9447
:10271000401620E030E040E251E40E941A280E9476
:10272000CE267093BE026093BD028090C00190904F
:10273000C101A090C201B090C3014090C40150906B
:10274000C5016090C6017090C7016091B0017091A1
:10275000B1018091B2019091B3010E94FF267B01EB
:102760008C01C501B401A30192010E94871820E0E9
:1027700030E040E251E40E941A280E94CE26709375
:10278000C0026093BF026091C8017091C90180913D
:10279000CA019091CB010E94CE267093C202609331
:1027A000C1028091CC019091CD019093C40280939D
:1027B000C3026091D8027091D902882777FD809575
:1027C000982F0E9401274B015C016091BD0270911E
:1027D000BE02882777FD8095982F0E9401278B01E4
:1027E0009C0180E0B501A4010E945F219093CD027D
:1027F0008093CC026091DA027091DB02882777FD2A
:102800008095982F0E9401274B015C016091BF02C7
:102810007091C002882777FD8095982F0E9401272C
:102820008B019C0181E0B501A4010E945F2190937E
:10283000D1028093D0020091C1021091C202609136
:10284000DC027091DD02600F711F882777FD809593
:10285000982F0E9401274B015C01B801882777FD62
:102860008095982F0E9401278B019C0182E0B50181
:10287000A4010E945F21AC019093BC028093BB0233
:102880008091C902813009F469C16091D0027091D0
:10289000D1028091CC029091CD020E94761F0E94BD
:1028A000C3209093D3028093D202E5CC8090B801EC
:1028B0009090B901A090BA01B090BB0110CFC501B2
:1028C000B40120E030E040E252EC0E945F2687FD38
:1028D00006CF4090C0015090C1016090C20170903D
:1028E000C301C301B20120E030E040E252E40E94A3
:1028F0000F2818160CF4F3CEC301B20120E030E02B
:1029000040E252EC0E945F2687FDE9CEC301B2018E
:1029100025E33AEF4EE85CE30E941A28462E772E14
:10292000682E592E0E9463266F8B788F898F9A8F1D
:10293000642D772D862D952D0E94C9286B8B7C8B5D
:102940008D8B9E8BC501B40125E33AEF4EE85CE325
:102950000E941A28762E672E582E492EA301920126
:10296000652F742F832F922F0E9463266B8F7C8F8D
:102970008D8F9E8FA3019201652F742F832F922F2D
:102980000E94C9286F8F78A389A39AA3B8018827CA
:1029900077FD8095982F0E9401272B013C01B701FC
:1029A000882777FD8095982F0E9401277B018C0155
:1029B0006B897C898D899E89A30192010E941A28C6
:1029C0009B01AC016F8D78A189A19AA10E941A2860
:1029D0006BA37CA38DA39EA3B101882777FD80956F
:1029E000982F0E9401279B01AC016F89788D898DFA
:1029F0009A8D0E941A289B01AC016BA17CA18DA12C
:102A00009EA10E9499256F8B788F898F9A8F6B89F1
:102A10007C898D899E89A80197010E941A289B01B3
:102A2000AC016B8D7C8D8D8D9E8D0E941A289B0133
:102A3000AC016F89788D898D9A8D0E9498256B8B5A
:102A40007C8B8D8B9E8B6B8D7C8D8D8D9E8DA30154
:102A500092010E941A282B013C016F8D78A189A157
:102A60009AA1A80197010E941A289B01AC01C301F9
:102A7000B2010E9499259B01AC016B897C898D89EB
:102A80009E890E940C262AEC37E34BE55CE30E940A
:102A90009825162F072FF82EE92EA8019701652FEC
:102AA000742F832F922F20E030E0A9010E945F262F
:102AB00087FF10C0A8019701652F742F832F922FD5
:102AC0002BED3FE049EC50E40E949925162F072F8B
:102AD000F82EE92EA8019701652F702F832F9E2DC8
:102AE0002BED3FE049EC50E40E940F28181684F4C7
:102AF000A8019701652F702F832F9E2D2BED3FE0AE
:102B000049EC50E40E949825162F072FF82EE92E45
:102B1000A8019701652F702F832F9E2D20EE3EE296
:102B200045E652E40E941A280E94D3267093CD01F4
:102B30006093CC01D4CD6E2D702F882D912F20E085
:102B400030E044EB53E40E9499256093C8017093F0
:102B5000C9018093CA019093CB0196CD6091E002A8
:102B60007091E10280E090E00E94FF264B015C0141
:102B70006091C5027091C60280E090E00E94FF263D
:102B80008B019C0183E0B501A4010E945F21909319
:102B9000CF028093CE024091BB025091BC0275CE11
:102BA0008091C5029091C6029093AB018093AA01D7
:102BB0000895882319F41092C902089591E0909322
:102BC000C9022091AA013091AB01280F311D309329
:102BD000E1022093E00208959F92AF92BF92CF92BC
:102BE000DF92EF92FF920F931F93DF93CF93CDB7B6
:102BF000DEB762970FB6F894DEBF0FBECDBFBB2421
:102C000097E0E92EF12CEC0EFD1E8E010F5F1F4F99
:102C10008DE0C82ED12CCC0EDD1EC7010E942401F0
:102C2000C8010E943305C6010E948C040E9427053A
:102C3000A82E0E941801982E0E948604990C880FD5
:102C4000880F8929BA28B82A8B2D873029F084E18A
:102C500090E00E94300AE1CF0E94F00662960FB623
:102C6000F894DEBF0FBECDBFCF91DF911F910F91C2
:102C7000FF90EF90DF90CF90BF90AF909F9008951E
:102C80002F923F924F925F926F927F928F929F927C
:102C9000AF92BF92CF92DF92EF92FF920F931F936A
:102CA000DF93CF93CDB7DEB76D970FB6F894DEBF45
:102CB0000FBECDBF698F7A8F8B8F9C8F59016A01B0
:102CC000C801B70120E030E44CE156E40E946626DA
:102CD00069837A838B839C837B018C01CB01AB81DD
:102CE000BC818093750390937603A0937703B09390
:102CF00078038091DE019091DF01A091E001B09115
:102D0000E1018D879E87AF87B88BC601B5012D8500
:102D10003E854F8558890E9498259B01AC016981A9
:102D20007A818B819C810E941A282091DA0130914E
:102D3000DB014091DC015091DD010E9499256D83FA
:102D40007E838F83988717FB109517F910956090F5
:102D5000EA017090EB018090EC019090ED01A09061
:102D6000E601B090E701C090E801D090E901C4010C
:102D7000B301A60195010E9499259B01AC01C801F0
:102D8000B7010E941A281B012C0169817A818B816D
:102D90009C812FE632E143E85AE30E941A289B0106
:102DA000AC01C201B1010E9499252091E20130914C
:102DB000E3014091E4015091E5010E949925262EFE
:102DC000472E382E99878091EE019091EF01A091C6
:102DD000F001B091F101898B9A8BAB8BBC8BC80150
:102DE000B70129893A894B895C890E941A28F62EF5
:102DF000072F182FE92EC601B5012F2D302F412F97
:102E00005E2D0E9499256D8B7E8B8F8B988FC401D0
:102E1000B3012F2D302F412F5E2D0E949925662E54
:102E2000972E882E792E2985622D742D832D922F31
:102E30002FE832EC45EF5CE30E949925E62ED72E71
:102E4000C82EB92E862F9D2DAC2DBB2D80937D03D2
:102E500090937E03A0937F03B09380032985622D16
:102E6000742D832D922F2E2D3D2D4C2D5B2D0E94E8
:102E70006626F62E072F182FA92E862F902FA12F0A
:102E8000BA2D80935D0390935E03A0935F03B0938C
:102E90006003662D792D882D972D2E2D3D2D4C2DDF
:102EA0005B2D0E946626562E7A878B879C87472F3C
:102EB000382F292F862F942FA32FB22F80936D03A5
:102EC00090936E03A0936F03B0937003698D7A8D16
:102ED0008B8D9C8DBD81AE81EF80D8842B2F3A2FB6
:102EE0004E2D5D2D0E949825E62ED72EC82EB92E88
:102EF000862F9D2DAC2DBB2D809371039093720373
:102F0000A0937303B09374036F2D702F812F9A2DAC
:102F10002E2D3D2D4C2D5B2D0E941A289B01AC01BE
:102F2000BD81AE819F81998FE885ED8F6B2F7A2FC0
:102F3000892F9E2F0E9499256D837E838F8398878A
:102F4000472F382F292F862F942FA32FB22F80930E
:102F5000DA019093DB01A093DC01B093DD014A8597
:102F60003B852C85652D742F832F922F2E2D3D2D83
:102F70004C2D5B2D0E941A289B01AC016D857E852E
:102F80008F8598890E9499256093DE017093DF01F7
:102F90008093E0019093E1012985622D742D832DAA
:102FA000922F2F2D302F412F5A2D0E941A289B012E
:102FB000AC01D984622D742D832D9D2D0E949825FE
:102FC000E62ED72EC82EB92E862F9D2DAC2DBB2DCB
:102FD0008093E2019093E301A093E401B093E501B3
:102FE0005D894E893F89288D652F742F832F922FFD
:102FF0002F2D302F412F5A2D0E941A289B01AC01F2
:10300000BD89AE891F89088D6B2F7A2F812F902F54
:103010000E949825F62E072F182FA92E862F902F65
:10302000A12FBA2D8093E6019093E701A093E801C8
:10303000B093E9014A853B852C85652D742F832F3C
:10304000922F2E2D3D2D4C2D5B2D0E941A289B0179
:10305000AC01662D792D882D972D0E9498256093BF
:10306000EA017093EB018093EC019093ED0169818B
:103070007A818B819C8126EA3BE944E45BE30E94F0
:103080001A289B01AC0169897A898B899C890E94E5
:1030900099253B014C014A853B852C85652D742F74
:1030A000832F922F2F2D302F412F5A2D0E941A2817
:1030B0009B01AC01C401B3010E9498256093EE010D
:1030C0007093EF018093F0019093F1015D814E8147
:1030D0003F812885652F742F832F922F6D960FB611
:1030E000F894DEBF0FBECDBFCF91DF911F910F913E
:1030F000FF90EF90DF90CF90BF90AF909F908F9018
:103100007F906F905F904F903F902F9008952F92F7
:103110003F924F925F926F927F928F929F92AF9267
:10312000BF92CF92DF92EF92FF920F931F93DF93A4
:10313000CF93CDB7DEB76D970FB6F894DEBF0FBE55
:10314000CDBF698F7A8F8B8F9C8F59016A01C8011F
:10315000B70120E030E44CE156E40E946626698322
:103160007A838B839C837B018C01CB01AB81BC81F7
:103170008093610390936203A0936303B09364030D
:103180008091F6019091F701A091F801B091F901B9
:103190008D879E87AF87B88BC601B5012D853E858B
:1031A0004F8558890E9498259B01AC0169817A81DD
:1031B0008B819C810E941A282091F2013091F301A9
:1031C0004091F4015091F5010E9499256D837E8311
:1031D0008F83988717FB109517F91095609002025E
:1031E000709003028090040290900502A090FE016E
:1031F000B090FF01C0900002D0900102C401B30161
:10320000A60195010E9499259B01AC01C801B70157
:103210000E941A281B012C0169817A818B819C8173
:103220002FE632E143E85AE30E941A289B01AC01E1
:10323000C201B1010E9499252091FA013091FB0150
:103240004091FC015091FD010E949925262E472EA8
:10325000382E99878091060290910702A09108026A
:10326000B0910902898B9A8BAB8BBC8BC801B701DB
:1032700029893A894B895C890E941A28F62E072FE2
:10328000182FE92EC601B5012F2D302F412F5E2DAD
:103290000E9499256D8B7E8B8F8B988FC401B30113
:1032A0002F2D302F412F5E2D0E949925662E972EAF
:1032B000882E792E2985622D742D832D922F2FE84B
:1032C00032EC45EF5CE30E949925E62ED72EC82EFE
:1032D000B92E862F9D2DAC2DBB2D80937903909315
:1032E0007A03A0937B03B0937C032985622D742D10
:1032F000832D922F2E2D3D2D4C2D5B2D0E94662669
:10330000F62E072F182FA92E862F902FA12FBA2D1A
:103310008093910390939203A0939303B0939403AB
:10332000662D792D882D972D2E2D3D2D4C2D5B2D25
:103330000E946626562E7A878B879C87472F382FC8
:10334000292F862F942FA32FB22F8093A50390931C
:10335000A603A093A703B093A803698D7A8D8B8DE4
:103360009C8DBD81AE81EF80D8842B2F3A2F4E2DBE
:103370005D2D0E949825E62ED72EC82EB92E862FB9
:103380009D2DAC2DBB2D8093590390935A03A09390
:103390005B03B0935C036F2D702F812F9A2D2E2D20
:1033A0003D2D4C2D5B2D0E941A289B01AC01BD8147
:1033B000AE819F81998FE885ED8F6B2F7A2F892FB2
:1033C0009E2F0E9499256D837E838F839887472F38
:1033D000382F292F862F942FA32FB22F8093F201FD
:1033E0009093F301A093F401B093F5014A853B85D6
:1033F0002C85652D742F832F922F2E2D3D2D4C2D36
:103400005B2D0E941A289B01AC016D857E858F85FE
:1034100098890E9499256093F6017093F701809333
:10342000F8019093F9012985622D742D832D922F37
:103430002F2D302F412F5A2D0E941A289B01AC01AD
:10344000D984622D742D832D9D2D0E949825E62E02
:10345000D72EC82EB92E862F9D2DAC2DBB2D809337
:10346000FA019093FB01A093FC01B093FD015D89EB
:103470004E893F89288D652F742F832F922F2F2DF2
:10348000302F412F5A2D0E941A289B01AC01BD8973
:10349000AE891F89088D6B2F7A2F812F902F0E9464
:1034A0009825F62E072F182FA92E862F902FA12FA3
:1034B000BA2D8093FE019093FF01A0930002B09378
:1034C00001024A853B852C85652D742F832F922F11
:1034D0002E2D3D2D4C2D5B2D0E941A289B01AC01F9
:1034E000662D792D882D972D0E94982560930202D4
:1034F00070930302809304029093050269817A819C
:103500008B819C8126EA3BE944E45BE30E941A2814
:103510009B01AC0169897A898B899C890E949925D4
:103520003B014C014A853B852C85652D742F832FEB
:10353000922F2F2D302F412F5A2D0E941A289B0198
:10354000AC01C401B3010E949825609306027093F8
:10355000070280930802909309025D814E813F81AA
:103560002885652F742F832F922F6D960FB6F894B0
:10357000DEBF0FBECDBFCF91DF911F910F91FF90A6
:10358000EF90DF90CF90BF90AF909F908F907F9003
:103590006F905F904F903F902F9008952F923F92A1
:1035A0004F925F926F927F928F929F92AF92BF9253
:1035B000CF92DF92EF92FF920F931F93DF93CF93FF
:1035C000CDB7DEB76D970FB6F894DEBF0FBECDBF97
:1035D000698F7A8F8B8F9C8F59016A01C801B7015F
:1035E00020E030E44CE156E40E94662669837A8349
:1035F0008B839C837B018C01CB01AB81BC8180934D
:10360000990390939A03A0939B03B0939C0380919A
:103610000E0290910F02A0911002B09111028D87BD
:103620009E87AF87B88BC601B5012D853E854F8536
:1036300058890E9498259B01AC0169817A818B8110
:103640009C810E941A2820910A0230910B0240911D
:103650000C0250910D020E9499256D837E838F8309
:10366000988717FB109517F9109560901A027090C3
:103670001B0280901C0290901D02A0901602B09038
:103680001702C0901802D0901902C401B301A6011C
:1036900095010E9499259B01AC01C801B7010E94C8
:1036A0001A281B012C0169817A818B819C812FE66C
:1036B00032E143E85AE30E941A289B01AC01C2019F
:1036C000B1010E949925209112023091130240917C
:1036D0001402509115020E949925262E472E382E4D
:1036E000998780911E0290911F02A0912002B091B3
:1036F0002102898B9A8BAB8BBC8BC801B7012989BE
:103700003A894B895C890E941A28F62E072F182FB8
:10371000E92EC601B5012F2D302F412F5E2D0E94BD
:1037200099256D8B7E8B8F8B988FC401B3012F2DC4
:10373000302F412F5E2D0E949925662E972E882EC0
:10374000792E2985622D742D832D922F2FE832EC4E
:1037500045EF5CE30E949925E62ED72EC82EB92EA0
:10376000862F9D2DAC2DBB2D8093950390939603B2
:10377000A0939703B09398032985622D742D832D10
:10378000922F2E2D3D2D4C2D5B2D0E946626F62E60
:10379000072F182FA92E862F902FA12FBA2D809397
:1037A000890390938A03A0938B03B0938C03662DB7
:1037B000792D882D972D2E2D3D2D4C2D5B2D0E9482
:1037C0006626562E7A878B879C87472F382F292F7E
:1037D000862F942FA32FB22F80939D0390939E0347
:1037E000A0939F03B093A003698D7A8D8B8D9C8DE0
:1037F000BD81AE81EF80D8842B2F3A2F4E2D5D2DC9
:103800000E949825E62ED72EC82EB92E862F9D2DE4
:10381000AC2DBB2D8093810390938203A0938303EF
:10382000B09384036F2D702F812F9A2D2E2D3D2D57
:103830004C2D5B2D0E941A289B01AC01BD81AE81ED
:103840009F81998FE885ED8F6B2F7A2F892F9E2F7F
:103850000E9499256D837E838F839887472F382F09
:10386000292F862F942FA32FB22F80930A02909393
:103870000B02A0930C02B0930D024A853B852C8568
:10388000652D742F832F922F2E2D3D2D4C2D5B2DCA
:103890000E941A289B01AC016D857E858F859889D1
:1038A0000E94992560930E0270930F02809310027C
:1038B000909311022985622D742D832D922F2F2D27
:1038C000302F412F5A2D0E941A289B01AC01D98418
:1038D000622D742D832D9D2D0E949825E62ED72EC6
:1038E000C82EB92E862F9D2DAC2DBB2D8093120294
:1038F00090931302A0931402B09315025D894E8930
:103900003F89288D652F742F832F922F2F2D302FD5
:10391000412F5A2D0E941A289B01AC01BD89AE8906
:103920001F89088D6B2F7A2F812F902F0E94982549
:10393000F62E072F182FA92E862F902FA12FBA2DE4
:103940008093160290931702A0931802B093190265
:103950004A853B852C85652D742F832F922F2E2D24
:103960003D2D4C2D5B2D0E941A289B01AC01662D2C
:10397000792D882D972D0E94982560931A027093B7
:103980001B0280931C0290931D0269817A818B81B6
:103990009C8126EA3BE944E45BE30E941A289B01F0
:1039A000AC0169897A898B899C890E9499253B01A0
:1039B0004C014A853B852C85652D742F832F922FD2
:1039C0002F2D302F412F5A2D0E941A289B01AC0118
:1039D000C401B3010E94982560931E0270931F02D8
:1039E00080932002909321025D814E813F81288542
:1039F000652F742F832F922F6D960FB6F894DEBF2C
:103A00000FBECDBFCF91DF911F910F91FF90EF902F
:103A1000DF90CF90BF90AF909F908F907F906F90EE
:103A20005F904F903F902F9008952F923F924F922A
:103A30005F926F927F928F929F92AF92BF92CF923E
:103A4000DF92EF92FF920F931F93DF93CF93CDB747
:103A5000DEB76D970FB6F894DEBF0FBECDBF698F8E
:103A60007A8F8B8F9C8F59016A01C801B70120E0C2
:103A700030E44CE156E40E94662669837A838B83A6
:103A80009C837B018C01CB01AB81BC81809369035A
:103A900090936A03A0936B03B0936C03809126020A
:103AA00090912702A0912802B09129028D879E87CC
:103AB000AF87B88BC601B5012D853E854F855889E6
:103AC0000E9498259B01AC0169817A818B819C8140
:103AD0000E941A2820912202309123024091240250
:103AE000509125020E9499256D837E838F8398874C
:103AF00017FB109517F91095609032027090330201
:103B00008090340290903502A0902E02B0902F0247
:103B1000C0903002D0903102C401B301A6019501DA
:103B20000E9499259B01AC01C801B7010E941A2887
:103B30001B012C0169817A818B819C812FE632E106
:103B400043E85AE30E941A289B01AC01C201B1016B
:103B50000E94992520912A0230912B0240912C023B
:103B600050912D020E949925262E472E382E998796
:103B70008091360290913702A0913802B0913902BB
:103B8000898B9A8BAB8BBC8BC801B70129893A8989
:103B90004B895C890E941A28F62E072F182FE92ED0
:103BA000C601B5012F2D302F412F5E2D0E94992582
:103BB0006D8B7E8B8F8B988FC401B3012F2D302F8F
:103BC000412F5E2D0E949925662E972E882E792EE4
:103BD0002985622D742D832D922F2FE832EC45EF2D
:103BE0005CE30E949925E62ED72EC82EB92E862F8B
:103BF0009D2DAC2DBB2D8093650390936603A09300
:103C00006703B09368032985622D742D832D922F4D
:103C10002E2D3D2D4C2D5B2D0E946626F62E072F56
:103C2000182FA92E862F902FA12FBA2D80938D03A8
:103C300090938E03A0938F03B0939003662D792DFC
:103C4000882D972D2E2D3D2D4C2D5B2D0E94662607
:103C5000562E7A878B879C87472F382F292F862FC0
:103C6000942FA32FB22F8093A1039093A203A0932C
:103C7000A303B093A403698D7A8D8B8D9C8DBD8138
:103C8000AE81EF80D8842B2F3A2F4E2D5D2D0E94D0
:103C90009825E62ED72EC82EB92E862F9D2DAC2D19
:103CA000BB2D8093850390938603A0938703B093E5
:103CB00088036F2D702F812F9A2D2E2D3D2D4C2D89
:103CC0005B2D0E941A289B01AC01BD81AE819F81B2
:103CD000998FE885ED8F6B2F7A2F892F9E2F0E9469
:103CE00099256D837E838F839887472F382F292FBF
:103CF000862F942FA32FB22F80932202909323021A
:103D0000A0932402B09325024A853B852C85652D1E
:103D1000742F832F922F2E2D3D2D4C2D5B2D0E9425
:103D20001A289B01AC016D857E858F8598890E943C
:103D3000992560932602709327028093280290931E
:103D400029022985622D742D832D922F2F2D302F3E
:103D5000412F5A2D0E941A289B01AC01D984622D53
:103D6000742D832D9D2D0E949825E62ED72EC82ECA
:103D7000B92E862F9D2DAC2DBB2D80932A029093BA
:103D80002B02A0932C02B0932D025D894E893F89AE
:103D9000288D652F742F832F922F2F2D302F412F99
:103DA0005A2D0E941A289B01AC01BD89AE891F893A
:103DB000088D6B2F7A2F812F902F0E949825F62E39
:103DC000072F182FA92E862F902FA12FBA2D809361
:103DD0002E0290932F02A0933002B09331024A85B5
:103DE0003B852C85652D742F832F922F2E2D3D2DF5
:103DF0004C2D5B2D0E941A289B01AC01662D792D5C
:103E0000882D972D0E94982560933202709333027B
:103E1000809334029093350269817A818B819C81F1
:103E200026EA3BE944E45BE30E941A289B01AC01CB
:103E300069897A898B899C890E9499253B014C016B
:103E40004A853B852C85652D742F832F922F2F2D2E
:103E5000302F412F5A2D0E941A289B01AC01C4011A
:103E6000B3010E94982560933602709337028093C5
:103E70003802909339025D814E813F812885652FFC
:103E8000742F832F922F6D960FB6F894DEBF0FBE5E
:103E9000CDBFCF91DF911F910F91FF90EF90DF90F9
:103EA000CF90BF90AF909F908F907F906F905F90DA
:103EB0004F903F902F9008950E94E00888EE93E085
:103EC00090933B0280933A0290937701809376011E
:103ED000909373018093720190937901809378019C
:103EE000909375018093740181E008958F929F9261
:103EF000AF92BF92CF92DF92EF92FF920F931F93F8
:103F0000CF93DF93D82EC92EC0913A02D0913B02B5
:103F100083E0C93ED80708F4E7C05B01BE016A1917
:103F20007B0980E090E00E94FF26162F072FF82ED5
:103F3000E92EA8019701652F742F832F922F20E07F
:103F400030E04AEF54E40E940F281816B4F588EECA
:103F5000882E83E0982E60ED77E070937701609370
:103F600076010D2D1C2DB8016C0F7D1F80E090E0B7
:103F70000E94FF26F62EE72ED82EC92EA701960105
:103F8000652F742F832F922F20E030E04AEF54E406
:103F90000E940F28181624F1A7019601652F742F8F
:103FA000832F922F20E030E04AE754E40E945F26FE
:103FB00087FFCAC068EE73E015C0A8019701652F9E
:103FC000742F832F922F20E030E04AE754E40E94C0
:103FD0005F2687FFC2C08824992468EE73E0BDCFB6
:103FE00060ED77E07093730160937201BE01601B16
:103FF000710B80E090E00E94FF268B01F82EE92EE5
:104000009701712F832F922F20E030E04AEF54E484
:104010000E940F28181684F09701602F712F832FAC
:10402000922F20E030E04AE754E40E945F2687FFA9
:1040300083C068EE73E002C060ED77E070937901B1
:1040400060937801CA0DDB1DBE0180E090E00E9404
:10405000FF267B018C017F2D912F20E030E04AEF7D
:1040600054E40E940F2818160CF463C06E2D7F2DA7
:10407000802F912F20E030E04AE754E40E945F2631
:1040800087FF7AC068EE73E07093750160937401E6
:1040900080E0B4010E941E09609172017091730169
:1040A000685E734081E00E941E0960917801709102
:1040B0007901685E734082E00E941E09609174017C
:1040C00070917501685E734083E00E941E09DF9164
:1040D000CF911F910F91FF90EF90DF90CF90BF9005
:1040E000AF909F908F900895D0937701C093760101
:1040F000D0937301C0937201D0937901C09378017A
:10410000D0937501C093740180E060E070E00E947C
:104110001E0981E060E070E00E941E0982E060E01C
:1041200070E00E941E0983E060E070E00E941E09BA
:10413000CECF60ED77E0A8CF9701602F712F832F4E
:10414000922F0E94D3267ACFA7019601652F742F54
:10415000832F922F0E94D32645CFA8019701652F68
:10416000742F832F922F0E94D32698E1892E9CEFE3
:10417000992E860E971EF1CE6E2D7F2D802F912FBA
:104180000E94D32681CF80913A0290913B020895FC
:1041900023E0893E920730F488519C4F90933B0274
:1041A00080933A0281E0089520913A0230913B02D7
:1041B000280F391F87E0213D380720F430933B0258
:1041C00020933A0281E008958F929F92AF92BF921E
:1041D000CF92DF92EF92FF920F931F934A015B0100
:1041E0004CE352E0682F70E0660F771F660F771F71
:1041F000FB01EE0FFF1FEE0FFF1FE60FF71FE40F8F
:10420000F51F80829182A282B382682F70E0660FD0
:10421000771F660F771FFB01EE0FFF1FEE0FFF1FCB
:10422000E60FF71FE40FF51F0483158326833783FA
:10423000282F30E0220F331F220F331FF901EE0F1A
:10424000FF1FEE0FFF1FE20FF31FE40FF51FC086E5
:10425000D186E286F386282F30E0220F331F220F0B
:10426000331FF901EE0FFF1FEE0FFF1FE20FF31FC9
:10427000E40FF51F00E010E09801048715872687FA
:104280003787682F70E0660F771F660F771FFB0177
:10429000EE0FFF1FEE0FFF1FE60FF71FE40FF51FD6
:1042A000008B118B228B338B1F910F91FF90EF901E
:1042B000DF90CF90BF90AF909F908F9008955F92C6
:1042C0006F927F928F929F92AF92BF92CF92DF9226
:1042D000EF92FF920F931F93CF93DF93F82ECB01B2
:1042E000BA0158016901A90198010E949825862EFA
:1042F000772E682E592E8F2D90E0880F991F880FEA
:10430000991FFC01EE0FFF1FEE0FFF1FE80FF91FB3
:10431000E45CFD4F682D772D862D952D2089318900
:10432000428953890E949925E62E072F182F992E2E
:104330008F2D90E0880F991F880F991FFC01EE0FB9
:10434000FF1FEE0FFF1FE80FF91FE45CFD4F8E2DDE
:10435000902FA12FB92D808B918BA28BB38B6E2DBB
:10436000702F812F992D20E030E04AE754EC0E9415
:104370005F2687FDE4C06E2D702F812F992D20E0E0
:1043800030E04AE754E40E940F281816BCF48F2D41
:1043900090E0880F991F880F991FFC01EE0FFF1FF7
:1043A000EE0FFF1FE80FF91FE45CFD4F80E090E087
:1043B000AAE7B4E4808B918BA28BB38B8F2D90E016
:1043C000880F991F880F991FEC01CC0FDD1FCC0FB0
:1043D000DD1FC80FD91FC45CDD4F8F2D90E0880F03
:1043E000991F880F991FFC01EE0FFF1FEE0FFF1F93
:1043F000E80FF91FE45CFD4FC601B5012485358542
:10440000468557850E949825288539854A855B858C
:104410000E941A2820E030E040E251E40E94662623
:104420000E94CE26EB018F2D90E0880F991F880FF8
:10443000991FFC01EE0FFF1FEE0FFF1FE80FF91F82
:10444000E45CFD4FA486B586C686D7868F2D90E0A6
:10445000880F991F880F991FFC01EE0FFF1FEE0FA9
:10446000FF1FE80FF91FE45CFD4F682D772D862DA7
:10447000952D20813181428153810E941A2820E0AC
:1044800030E040E251E40E9466265B016C018F2D12
:1044900090E0880F991F880F991FDC01AA0FBB1F9E
:1044A000AA0FBB1FA80FB91FA45CBD4F8F2D90E0B2
:1044B000880F991F880F991FFC01EE0FFF1FEE0F49
:1044C000FF1FE80FF91FE45CFD4F14966D917D917D
:1044D0008D919C91179720893189428953890E9437
:1044E0001A2820E030E040E251E40E9466269B0159
:1044F000AC01C601B5010E9499257B018C01BE016A
:10450000882777FD8095982F0E9401279B01AC0199
:10451000C801B7010E9499250E94CE26CB01DF91E8
:10452000CF911F910F91FF90EF90DF90CF90BF90B0
:10453000AF909F908F907F906F905F9008958F2D98
:1045400090E0880F991F880F991FFC01EE0FFF1F45
:10455000EE0FFF1FE80FF91FE45CFD4F80E090E0D5
:10456000AAE7B4EC808B918BA28BB38B27CF1092F0
:104570008C0281E080938E0285E080938D02089505
:1045800064E00E94C708882359F080918E02813030
:1045900041F080918D02882319F0815080938D0223
:1045A000089580918D028823C1F780918C028B5FE2
:1045B00080938C02853150F085E180938C021092BB
:1045C0008E0285E190E00E94C820089590E0FBCF24
:1045D0001092A9031092B1031092B0031092B2038B
:1045E0001092BA031092B9031092BB031092C30346
:1045F0001092C2031092C4031092CC031092CB030A
:104600001092CD031092D5031092D4031092B000F3
:10461000E1EBF0E08081846080831092B20088E159
:104620008093B30089EF8093B400B99AE0E7F0E09B
:10463000808182608083BA9A8081846080830895BB
:1046400090E0FC01EE0FFF1FEE0FFF1FEE0FFF1FAC
:10465000E80FF91FE755FC4F7283618314821382C0
:1046600045833087278381E08083089590E0FC01B3
:10467000EE0FFF1FEE0FFF1FEE0FFF1FE80FF91FDA
:10468000E755FC4F1082089590E0FC01EE0FFF1FEC
:10469000EE0FFF1FEE0FFF1FE80FF91FE755FC4F4E
:1046A0001082128211821482138282E08583108626
:1046B0001782089590E0FC01EE0FFF1FEE0FFF1F21
:1046C000EE0FFF1FE80FF91FE755FC4F148213820E
:1046D000089590E0FC01EE0FFF1FEE0FFF1FEE0F9D
:1046E000FF1FE80FF91FE755FC4F148213827283F6
:1046F00061830895F8941092AD031092AC03109268
:10470000B6031092B5031092BF031092BE0310922D
:10471000C8031092C7031092D1031092D0031092D5
:104720009702109298021092990210929A02109297
:10473000900210928F0210929202109291021092A7
:104740009302109294021092950210929602109287
:10475000B20088E18093B300789408951F920F927D
:104760000FB60F9211242F933F934F935F936F9344
:104770007F938F939F93AF93BF93EF93FF9380911A
:10478000A903813029F18091B203813009F4F6C088
:104790008091BB03813009F4BAC08091C403813099
:1047A00009F47EC08091CD03813009F446C0FF91A9
:1047B000EF91BF91AF919F918F917F916F915F9199
:1047C0004F913F912F910F900FBE0F901F90189512
:1047D0008091AC039091AD0301969093AD038093CB
:1047E000AC032091AA033091AB038217930759F6CB
:1047F0008091AE03823039F21092AD031092AC0377
:10480000882309F0F1C0E091B003F091B103109258
:10481000A9031092AB031092AA031092AD03109259
:10482000AC0382E08093AE031092B1031092B00308
:10483000309709F4A8CF0995A6CF8091D003909125
:10484000D10301969093D1038093D0032091CE039E
:104850003091CF038217930709F0A9CF8091D2033B
:10486000823009F4A4CF1092D1031092D003882390
:1048700009F0C3C0E091D403F091D5031092CD03A9
:104880001092CF031092CE0382E08093D203109255
:10489000D5031092D403309709F489CF099587CFB7
:1048A0008091C7039091C80301969093C8038093A9
:1048B000C7032091C5033091C6038217930709F0FF
:1048C00071CF8091C903823009F46CCF1092C80374
:1048D0001092C703882309F0ABC0E091CB03F0919D
:1048E000CC031092C4031092C6031092C503109219
:1048F000C8031092C70382E08093C9031092CC03CF
:104900001092CB03309709F44DCF09954BCF80918E
:10491000BE039091BF0301969093BF038093BE03A3
:104920002091BC033091BD038217930709F035CF66
:104930008091C003823009F430CF1092BF031092EF
:10494000BE03882309F062C0E091C203F091C30363
:104950001092BB031092BD031092BC031092BF03D0
:104960001092BE0382E08093C0031092C3031092A2
:10497000C203309709F411CF09950FCF8091B50389
:104980009091B60301969093B6038093B50320915E
:10499000B3033091B4038217930709F0F9CE8091E5
:1049A000B703823009F4F4CE1092B6031092B50327
:1049B0008823A9F5E091B903F091BA031092B203EC
:1049C0001092B4031092B3031092B6031092B50381
:1049D00082E08093B7031092BA031092B903309724
:1049E00009F4D6CE0995D4CEE091B003F091B1038D
:1049F000309709F4C8CE0995C6CEE091D403F09162
:104A0000D503309709F4D3CE0995D1CEE091C203F6
:104A1000F091C303309709F4C0CE0995BECEE09162
:104A2000B903F091BA03309709F4B2CE0995B0CE2C
:104A3000E091CB03F091CC03309709F4B3CE099504
:104A4000B1CE1F920F920FB60F9211242F933F9366
:104A50004F935F936F937F938F939F93AF93BF9386
:104A6000EF93FF938091B200885E8093B3008091B2
:104A70008F02909190029C012F5F3F4F30939002E4
:104A800020938F02873C910589F0FF91EF91BF91B0
:104A9000AF919F918F917F916F915F914F913F91D6
:104AA0002F910F900FBE0F901F90189510929002AB
:104AB00010928F0281E090E00E94D00880919302D2
:104AC000982F9F5F909393028430F9F6109293028F
:104AD00082E090E00E94D00880919402982F9F5F1E
:104AE00090939402893089F61092940284E090E0C9
:104AF0000E94D00880919502982F9F5F9093950215
:104B0000843019F61092950288E090E00E94D00857
:104B100080919602982F9F5F90939602813009F0C2
:104B2000B4CF1092960280E190E00E94D008ADCF01
:104B30005058BB27AA270ED027C2F0D130F0F5D1AC
:104B400020F031F49F3F11F41EF4C0C10EF4E09543
:104B5000E7FBB6C1E92F3AD280F3BA1762077307B1
:104B60008407950718F071F49EF552C20EF4E09593
:104B70000B2EBA2FA02D0B01B90190010C01CA0117
:104B8000A0011124FF27591B99F0593F50F4503EC2
:104B900068F11A16F040A22F232F342F4427585FB4
:104BA000F3CF469537952795A795F0405395C9F7CC
:104BB0007EF41F16BA0B620B730B840BBAF0915084
:104BC000A1F0FF0FBB1F661F771F881FC2F70EC023
:104BD000BA0F621F731F841F48F4879577956795F6
:104BE000B795F7959E3F08F0B3CF9395880F08F0DF
:104BF0009927EE0F97958795089590D158F080E802
:104C000091E009F49EEF91D128F040E851E059F489
:104C10005EEF09C05BC1FCC1E92FE078D7D168F332
:104C2000092E052AC1F3261737074807590738F018
:104C30000E2E07F8E02569F0E025E0640AC0EF6376
:104C400007F8009407FADB01B9019D01DC01CA01F4
:104C5000AD01EF934AD098D10AD05F91552331F03E
:104C60002BED3FE049E450FD49EC63CF0895DF931D
:104C7000DD27B92FBF7740E85FE316161706480710
:104C80005B0710F4D92FCFD19F938F937F936F93AE
:104C9000C8D2E8E6F0E01DD177D12F913F914F9136
:104CA0005F91D4D1DD2349F09058A2EA2AED3FE08C
:104CB00049EC5FE3D0785D274DDFDF9165C1DCD043
:104CC00008F481E0089539D1E3956FC10CD05CC13F
:104CD0002CD140F023D130F021F45F3F19F0F0C027
:104CE000511197C1F3C072D198F39923C9F3552399
:104CF000B1F3951B550BBB27AA27621773078407CF
:104D000038F09F5F5F4F220F331F441FAA1FA9F384
:104D100033D00E2E3AF0E0E830D091505040E69576
:104D2000001CCAF729D0FE2F27D0660F771F881FD7
:104D3000BB1F261737074807AB07B0E809F0BB0BC6
:104D4000802DBF01FF2793585F4F2AF09E3F5105EA
:104D500068F0B6C05EC15F3FECF3983EDCF3869529
:104D600077956795B795F7959F5FC9F7880F911D60
:104D70009695879597F90895E1E0660F771F881F4C
:104D8000BB1F621773078407BA0720F0621B730BFF
:104D9000840BBA0BEE1F88F7E095089504D0689451
:104DA000B11137C108951AD188F09F5790F0B92FEB
:104DB0009927B751A0F0D1F0660F771F881F991F70
:104DC0001AF0BA95C9F712C0B13081F021D1B1E023
:104DD00008951EC1672F782F8827B85F39F0B93F33
:104DE000CCF3869577956795B395D9F73EF4909572
:104DF0008095709561957F4F8F4F9F4F0895E894F0
:104E000009C097FB3EF490958095709561957F4F12
:104E10008F4F9F4F9923A9F0F92F96E9BB279395C0
:104E2000F695879577956795B795F111F8CFFAF4D0
:104E3000BB0F11F460FF1BC06F5F7F4F8F4F9F4F01
:104E400016C0882311F096E911C0772321F09EE85F
:104E5000872F762F05C0662371F096E8862F70E0C5
:104E600060E02AF09A95660F771F881FDAF7880F9F
:104E70009695879597F90895990F0008550FAA0BF5
:104E8000E0E8FEEF16161706E807F907C0F012165D
:104E90001306E407F50798F0621B730B840B950B60
:104EA00039F40A2661F0232B242B252B21F40895B5
:104EB0000A2609F4A140A6958FEF811D811D089552
:104EC00097F99F6780E870E060E008959FEF80ECBD
:104ED0000895DF93CF931F930F93FF92EF92DF928A
:104EE0007B018C01689405C0DA2EEF01AFD0FE0182
:104EF000E894A5912591359145915591AEF3EF0137
:104F000029DEFE019701A801DA9479F7DF90EF908E
:104F1000FF900F911F91CF91DF91089500240A9483
:104F20001616170618060906089500240A94121684
:104F30001306140605060895C9CF50D0E8F3E89487
:104F4000E0E0BB279F57F0F02AED3FE049EC06C0B8
:104F5000EE0FBB0F661F771F881F28F0B23A62075B
:104F60007307840728F0B25A620B730B840BE39526
:104F70009A9572F7803830F49A95BB0F661F771FA9
:104F8000881FD2F7904883C1092E0394000C11F4B6
:104F9000882352F0BB0F40F4BF2B11F460FF04C014
:104FA0006F5F7F4F8F4F9F4F0895EF93E0FF06C0D5
:104FB000A2EA2AED3FE049EC5FEBCCDDE5DF0F90A4
:104FC000039401FC9058E5E9F0E074C157FD905856
:104FD000440F551F59F05F3F71F04795880F97FBBD
:104FE000991F61F09F3F79F0879508951216130677
:104FF0001406551FF2CF4695F1DF08C016161706A6
:105000001806991FF1CF86957105610508940895DA
:10501000E894BB2766277727CB0197F908952CDF03
:1050200008F48FEF08959B01AC0160E070E080E828
:105030009FE34CCE0BD0A8CF71DF28F076DF18F0BD
:10504000952309F03DCF42CF1124E3CFBFDFA0F37A
:10505000959FD1F3950F50E0551F629FF001729F0D
:10506000BB27F00DB11D639FAA27F00DB11DAA1F2C
:10507000649F6627B00DA11D661F829F2227B00D79
:10508000A11D621F739FB00DA11D621F839FA00D04
:10509000611D221F749F3327A00D611D231F849F54
:1050A000600D211D822F762F6A2F11249F575040AB
:1050B0008AF0E1F088234AF0EE0FFF1FBB1F661F46
:1050C000771F881F91505040A9F79E3F510570F0FF
:1050D000F7CE9FCF5F3FECF3983EDCF38695779554
:1050E0006795B795F795E7959F5FC1F7FE2B880FFA
:1050F000911D9695879597F90895FA01EE0FFF1F78
:1051000030962105310599F16115710561F48038FA
:10511000BFE39B0749F168949038810561F08038BE
:10512000BFEF9B0741F0992342F5FF3FE1053105B1
:10513000210511F1E8940894E795D901AA2329F4EF
:10514000AB2FBE2FF85FD0F310C0FF5F70F4A695B1
:10515000E0F7F73950F019F0FF3A38F49F779F9352
:105160000CD00F9007FC905808953EF0AFCE60E051
:1051700070E080E89FE308954FE79F775F934F9338
:105180003F932F93E3D02F913F914F915F9152DF47
:1051900050C09F93D2DE0F9007FCEE5F06CF11F454
:1051A0000EF494CE72C01ADFD0F39923D9F3CEF364
:1051B0009F57550B87FF77D00024A0E640EA900167
:1051C00080585695979528F4805C660F771F881F46
:1051D00020F026173707480730F4621B730B840B47
:1051E000202931294A2BA69517940794202531258B
:1051F0004A2758F7660F771F881F20F026173707B2
:10520000480730F4620B730B840B200D311D411DD8
:10521000A09581F7B901842F9158880F96958795AD
:1052200008959B01AC0106CF19F40EF049CEF0CEE3
:105230004DCED4DEC8F39638C0F707F80F92E89445
:105240002BE33AEA48EB5FE703DF0F920F920F92EE
:105250004DB75EB70F92BAD0E3EBF0E03ADE4F9174
:105260005F91EF91FF91E595EE1FFF1F49F0FE570B
:10527000E0684427EE0F441FFA95E1F74195550B7E
:105280002CD00F9007FECFCE08959F3F31F0915064
:1052900020F4879577956795B795880F911D96951A
:1052A000879597F9089591505040660F771F881F92
:1052B000D2F708959F938F937F936F93FF93EF930C
:1052C0009B01AC01B7DEEF91FF9103DE2F913F917F
:1052D0004F915F91AFCEF4CDD8CF80DEE8F3992324
:1052E000D9F3940F511DBBF39150504094F059F0F5
:1052F000882332F0660F771F881F91505040C1F706
:105300009E3F510544F7880F911D9695879597F913
:1053100008955F3FACF0983E9CF0BB27869577954B
:105320006795B79508F4B1609395C1F7BB0F58F72F
:1053300011F460FFE8CF6F5F7F4F8F4F9F4FE3CF38
:1053400068CE0EF0A2CFC2CD6894BACD47DEC8F3C6
:105350009923D1F3C6F3DF93CF931F930F93FF925B
:10536000C92FDD2788232AF02197660F771F881F12
:10537000DAF720E030E040E85FEB9FE3883920F087
:10538000803E30F021968F77D4DBEBEDF0E003C068
:10539000D0DBE8E0F1E09DDD8B01BE01EC01FB2EEE
:1053A0006F5771097595771F880B990B2ADD28E1D6
:1053B00032E741E35FE34ADEAF2D9801AE01FF9093
:1053C0000F911F91CF91DF91C5DBDECDFA01DC019A
:1053D000AA0FBB1F9B01AC01BF5728F4222733271C
:1053E000442750781FC0B75188F4AB2F002446954E
:1053F00037952795011CA395D2F3002069F0220F61
:10540000331F441FB395DAF30DD092CB6130710591
:10541000A0E88A07B94630F49B01AC0166277727DC
:1054200088279078309621F02083318342835383FC
:105430000895629FD001739FF001829FE00DF11DDE
:10544000649FE00DF11D929FF00D839FF00D749FFE
:10545000F00D659FF00D9927729FB00DE11DF91FAA
:10546000639FB00DE11DF91FBD01CF011124089507
:1054700097FB092E07260AD077FD04D049D006D025
:1054800000201AF4709561957F4F0895F6F7909576
:1054900081959F4F0895A1E21A2EAA1BBB1BFD0107
:1054A0000DC0AA1FBB1FEE1FFF1FA217B307E40703
:1054B000F50720F0A21BB30BE40BF50B661F771F5B
:1054C000881F991F1A9469F760957095809590953B
:1054D0009B01AC01BD01CF01089597FB092E052664
:1054E0000ED057FD04D0D7DF0AD0001C38F45095F9
:1054F0004095309521953F4F4F4F5F4F0895F6F7F8
:1055000090958095709561957F4F8F4F9F4F08952F
:10551000AA1BBB1B51E107C0AA1FBB1FA617B707D9
:1055200010F0A61BB70B881F991F5A95A9F78095F5
:105530009095BC01CD010895AEE0B0E0E2EAFAE258
:105540000C948D2D0D891E8986E08C831A83098326
:105550008FEF9FE79E838D839E01275E3F4FCE0195
:1055600001966F89788DA9010E94BF2AEF81F88585
:10557000E00FF11F10822E96E4E00C94A92DACE010
:10558000B0E0E5ECFAE20C947F2D6C011B018A017E
:10559000FC0117821682838181FFD1C12E010894FC
:1055A000411C511CF6019381F10193FD859193FFFC
:1055B00081911F01882309F4BEC1853239F493FD1E
:1055C000859193FF81911F01853229F490E0B60106
:1055D0000E94E52CE7CFEE24FF2420E02032B0F437
:1055E0008B3269F08C3228F4803251F0833271F4BE
:1055F0000BC08D3239F0803349F421602CC0226019
:10560000246029C0286027C0206125C027FD2CC048
:10561000382F30533A3098F426FF08C08E2D880F6B
:10562000E82EEE0CEE0CE80EE30E15C08F2D880F61
:10563000F82EFF0CFF0CF80EF30E20620CC08E3219
:1056400021F426FD78C1206406C08C3611F4206850
:1056500002C0883649F4F10193FD859193FF819151
:105660001F01882309F0BACF982F9554933018F072
:105670009052933028F40C5F1F4FFFE3F9830DC065
:10568000833631F0833771F0833509F060C022C072
:10569000F801808189830E5F1F4F420171E0A72EC0
:1056A000B12C16C062E0662E712C600E711EF801DE
:1056B0008080918026FF03C06E2D70E002C06FEFE6
:1056C0007FEFC4012C870E94DA2C5C0183012C85BA
:1056D0002F7717C052E0652E712C600E711EF801F5
:1056E0008080918026FF03C06E2D70E002C06FEFB6
:1056F0007FEFC4012C870E94CF2C5C012C85206891
:10570000830123FD20C008C080E290E0B6012C8711
:105710000E94E52CFA942C858F2D90E0A816B906EE
:1057200098F311C0F40127FD859127FF81914F0166
:1057300090E0B6012C870E94E52C2C85F110FA949C
:105740000894A108B108A114B10461F7F1C084362E
:1057500011F0893649F527FF08C0F8016081718191
:10576000828193810C5F1F4F09C0F80160817181B4
:10577000882777FD8095982F0E5F1F4F4FE6B42E38
:10578000B22297FF09C090958095709561957F4FE3
:105790008F4F9F4FF0E8BF2AA2012AE030E00E941D
:1057A000112D782E741845C0853731F43FEEB32E95
:1057B000B2222AE030E025C099EFB92EB2228F360E
:1057C000C1F0803720F4883509F0B5C00DC08037AE
:1057D00021F0883709F0AFC002C020E1B22AB4FE40
:1057E0000BC084E0B82A08C0B4FE09C0E6E0BE2AB7
:1057F00006C028E030E005C020E130E002C020E132
:1058000032E0B7FE08C0F801608171818281938126
:105810000C5F1F4F07C0F8016081718180E090E04C
:105820000E5F1F4FA2010E94112D782E7418FFE702
:10583000BF22B6FE0BC02EEFB2227E1438F4B4FEA7
:1058400007C0B2FC05C08FEEB82202C0A72C01C071
:10585000AE2C8B2D90E0B4FE0DC0FE01E70DF11DC6
:105860002081203319F4E9EEBE2209C0A394B2FED0
:1058700006C004C086789070009709F0A3948B2C22
:105880009924B3FC14C0B0FE0FC0AF1428F4E72C69
:10589000EF0CEA18AF2C08C0E72C06C080E290E0BD
:1058A000B6010E94E52CA394AF14C0F304C0AF145A
:1058B00010F4FA1801C0FF2484FE0FC080E390E0CA
:1058C000B6010E94E52C82FE1FC081FE03C088E560
:1058D00090E010C088E790E00DC0C4018678907019
:1058E000009791F081FC02C080E201C08BE2B7FC1E
:1058F0008DE290E0B6010E94E52C06C080E390E0C6
:10590000B6010E94E52CEA947E14C0F37A94F20169
:10591000E70DF11D808190E0B6010E94E52C772013
:10592000A9F706C080E290E0B6010E94E52CFA9447
:10593000FF20C1F737CEF6012681378102C02FEF55
:105940003FEFC9012C96E2E10C949B2DF999FECF13
:1059500092BD81BDF89A992780B50895A6E1B0E07F
:1059600044E050E00C94712D262FF999FECF1FBA18
:1059700092BD81BD20BD0FB6F894FA9AF99A0FBE78
:1059800001960895242F0E94B52C252F0E94B52C36
:105990000C94CA2C0E94B42C272F0C94B52CFC011B
:1059A0000590615070400110D8F7809590958E0F4A
:1059B0009F1F0895FC016150704001900110D8F7BD
:1059C000809590958E0F9F1F08950F931F93CF93EF
:1059D000DF938C01EB018B8181FF1BC082FF0DC027
:1059E0002E813F818C819D812817390764F4E881DD
:1059F000F9810193F983E88306C0E885F985802F52
:105A00000995009731F48E819F8101969F838E8343
:105A100002C00FEF1FEFC801DF91CF911F910F91CF
:105A20000895FA01AA27283051F1203181F1E89434
:105A30006F936E7F6E5F7F4F8F4F9F4FAF4FB1E081
:105A40003ED0B4E03CD0670F781F891F9A1FA11D7C
:105A5000680F791F8A1F911DA11D6A0F711D811D7D
:105A6000911DA11D20D009F468943F912AE0269F42
:105A700011243019305D3193DEF6CF010895462FA1
:105A80004770405D4193B3E00FD0C9F7F6CF462F82
:105A90004F70405D4A3318F0495D31FD40524193EB
:105AA00002D0A9F7EACFB4E0A695979587957795A8
:105AB0006795BA95C9F700976105710508959B012F
:105AC000AC010A2E06945795479537952795BA95B8
:105AD000C9F7620F731F841F951FA01D0895DC0175
